{
  "contractName": "CampaignGenerator",
  "abi": [
    {
      "inputs": [
        {
          "internalType": "address",
          "name": "_admin",
          "type": "address"
        }
      ],
      "stateMutability": "nonpayable",
      "type": "constructor"
    },
    {
      "anonymous": false,
      "inputs": [
        {
          "indexed": false,
          "internalType": "uint256",
          "name": "campaignId",
          "type": "uint256"
        }
      ],
      "name": "CampaignStarted",
      "type": "event"
    },
    {
      "anonymous": false,
      "inputs": [
        {
          "indexed": false,
          "internalType": "uint256",
          "name": "campaignId",
          "type": "uint256"
        },
        {
          "indexed": false,
          "internalType": "uint256",
          "name": "branchId",
          "type": "uint256"
        }
      ],
      "name": "MasksPickedUpByCourier2",
      "type": "event"
    },
    {
      "anonymous": false,
      "inputs": [
        {
          "indexed": false,
          "internalType": "uint256",
          "name": "campaignId",
          "type": "uint256"
        },
        {
          "indexed": false,
          "internalType": "uint256",
          "name": "branchId",
          "type": "uint256"
        }
      ],
      "name": "MasksRceivedByReceiver",
      "type": "event"
    },
    {
      "anonymous": false,
      "inputs": [
        {
          "indexed": false,
          "internalType": "uint256",
          "name": "campaignId",
          "type": "uint256"
        },
        {
          "indexed": false,
          "internalType": "uint256",
          "name": "branchId",
          "type": "uint256"
        },
        {
          "indexed": false,
          "internalType": "uint256",
          "name": "amountOfMasksMade",
          "type": "uint256"
        }
      ],
      "name": "MasksReady",
      "type": "event"
    },
    {
      "anonymous": false,
      "inputs": [
        {
          "indexed": false,
          "internalType": "uint256",
          "name": "campaignId",
          "type": "uint256"
        },
        {
          "indexed": false,
          "internalType": "uint256",
          "name": "branchId",
          "type": "uint256"
        }
      ],
      "name": "MasksVerifiedForQuality",
      "type": "event"
    },
    {
      "anonymous": false,
      "inputs": [
        {
          "indexed": true,
          "internalType": "address",
          "name": "previousOwner",
          "type": "address"
        },
        {
          "indexed": true,
          "internalType": "address",
          "name": "newOwner",
          "type": "address"
        }
      ],
      "name": "OwnershipTransferred",
      "type": "event"
    },
    {
      "anonymous": false,
      "inputs": [
        {
          "indexed": false,
          "internalType": "uint256",
          "name": "campaignId",
          "type": "uint256"
        },
        {
          "indexed": false,
          "internalType": "uint256",
          "name": "branchId",
          "type": "uint256"
        }
      ],
      "name": "PLAPacked",
      "type": "event"
    },
    {
      "anonymous": false,
      "inputs": [
        {
          "indexed": false,
          "internalType": "uint256",
          "name": "campaignId",
          "type": "uint256"
        },
        {
          "indexed": false,
          "internalType": "uint256",
          "name": "branchId",
          "type": "uint256"
        }
      ],
      "name": "PLAPickedUpByCourier1",
      "type": "event"
    },
    {
      "anonymous": false,
      "inputs": [
        {
          "indexed": false,
          "internalType": "uint256",
          "name": "campaignId",
          "type": "uint256"
        },
        {
          "indexed": false,
          "internalType": "uint256",
          "name": "branchId",
          "type": "uint256"
        }
      ],
      "name": "PLARecivedByManufacturer",
      "type": "event"
    },
    {
      "anonymous": false,
      "inputs": [
        {
          "indexed": true,
          "internalType": "bytes32",
          "name": "role",
          "type": "bytes32"
        },
        {
          "indexed": true,
          "internalType": "address",
          "name": "account",
          "type": "address"
        },
        {
          "indexed": true,
          "internalType": "address",
          "name": "sender",
          "type": "address"
        }
      ],
      "name": "RoleGranted",
      "type": "event"
    },
    {
      "anonymous": false,
      "inputs": [
        {
          "indexed": true,
          "internalType": "bytes32",
          "name": "role",
          "type": "bytes32"
        },
        {
          "indexed": true,
          "internalType": "address",
          "name": "account",
          "type": "address"
        },
        {
          "indexed": true,
          "internalType": "address",
          "name": "sender",
          "type": "address"
        }
      ],
      "name": "RoleRevoked",
      "type": "event"
    },
    {
      "inputs": [],
      "name": "ADMIN_ROLE",
      "outputs": [
        {
          "internalType": "bytes32",
          "name": "",
          "type": "bytes32"
        }
      ],
      "stateMutability": "view",
      "type": "function"
    },
    {
      "inputs": [],
      "name": "COORDINATOR_ROLE",
      "outputs": [
        {
          "internalType": "bytes32",
          "name": "",
          "type": "bytes32"
        }
      ],
      "stateMutability": "view",
      "type": "function"
    },
    {
      "inputs": [],
      "name": "COURIER_ROLE",
      "outputs": [
        {
          "internalType": "bytes32",
          "name": "",
          "type": "bytes32"
        }
      ],
      "stateMutability": "view",
      "type": "function"
    },
    {
      "inputs": [],
      "name": "DEFAULT_ADMIN_ROLE",
      "outputs": [
        {
          "internalType": "bytes32",
          "name": "",
          "type": "bytes32"
        }
      ],
      "stateMutability": "view",
      "type": "function"
    },
    {
      "inputs": [],
      "name": "MANUFACTURER_ROLE",
      "outputs": [
        {
          "internalType": "bytes32",
          "name": "",
          "type": "bytes32"
        }
      ],
      "stateMutability": "view",
      "type": "function"
    },
    {
      "inputs": [],
      "name": "RECEIVER_ROLE",
      "outputs": [
        {
          "internalType": "bytes32",
          "name": "",
          "type": "bytes32"
        }
      ],
      "stateMutability": "view",
      "type": "function"
    },
    {
      "inputs": [],
      "name": "campaignCounter",
      "outputs": [
        {
          "internalType": "uint256",
          "name": "",
          "type": "uint256"
        }
      ],
      "stateMutability": "view",
      "type": "function"
    },
    {
      "inputs": [
        {
          "internalType": "address",
          "name": "_who",
          "type": "address"
        }
      ],
      "name": "getRole",
      "outputs": [
        {
          "internalType": "bytes32",
          "name": "",
          "type": "bytes32"
        }
      ],
      "stateMutability": "view",
      "type": "function"
    },
    {
      "inputs": [
        {
          "internalType": "bytes32",
          "name": "role",
          "type": "bytes32"
        }
      ],
      "name": "getRoleAdmin",
      "outputs": [
        {
          "internalType": "bytes32",
          "name": "",
          "type": "bytes32"
        }
      ],
      "stateMutability": "view",
      "type": "function"
    },
    {
      "inputs": [
        {
          "internalType": "bytes32",
          "name": "role",
          "type": "bytes32"
        },
        {
          "internalType": "uint256",
          "name": "index",
          "type": "uint256"
        }
      ],
      "name": "getRoleMember",
      "outputs": [
        {
          "internalType": "address",
          "name": "",
          "type": "address"
        }
      ],
      "stateMutability": "view",
      "type": "function"
    },
    {
      "inputs": [
        {
          "internalType": "bytes32",
          "name": "role",
          "type": "bytes32"
        }
      ],
      "name": "getRoleMemberCount",
      "outputs": [
        {
          "internalType": "uint256",
          "name": "",
          "type": "uint256"
        }
      ],
      "stateMutability": "view",
      "type": "function"
    },
    {
      "inputs": [
        {
          "internalType": "bytes32",
          "name": "role",
          "type": "bytes32"
        },
        {
          "internalType": "address",
          "name": "account",
          "type": "address"
        }
      ],
      "name": "grantRole",
      "outputs": [],
      "stateMutability": "nonpayable",
      "type": "function"
    },
    {
      "inputs": [
        {
          "internalType": "bytes32",
          "name": "role",
          "type": "bytes32"
        },
        {
          "internalType": "address",
          "name": "account",
          "type": "address"
        }
      ],
      "name": "hasRole",
      "outputs": [
        {
          "internalType": "bool",
          "name": "",
          "type": "bool"
        }
      ],
      "stateMutability": "view",
      "type": "function"
    },
    {
      "inputs": [],
      "name": "owner",
      "outputs": [
        {
          "internalType": "address",
          "name": "",
          "type": "address"
        }
      ],
      "stateMutability": "view",
      "type": "function"
    },
    {
      "inputs": [],
      "name": "renounceOwnership",
      "outputs": [],
      "stateMutability": "nonpayable",
      "type": "function"
    },
    {
      "inputs": [
        {
          "internalType": "bytes32",
          "name": "role",
          "type": "bytes32"
        },
        {
          "internalType": "address",
          "name": "account",
          "type": "address"
        }
      ],
      "name": "renounceRole",
      "outputs": [],
      "stateMutability": "nonpayable",
      "type": "function"
    },
    {
      "inputs": [
        {
          "internalType": "address",
          "name": "newOwner",
          "type": "address"
        }
      ],
      "name": "transferOwnership",
      "outputs": [],
      "stateMutability": "nonpayable",
      "type": "function"
    },
    {
      "inputs": [
        {
          "internalType": "address",
          "name": "",
          "type": "address"
        }
      ],
      "name": "whichRole",
      "outputs": [
        {
          "internalType": "bytes32",
          "name": "",
          "type": "bytes32"
        }
      ],
      "stateMutability": "view",
      "type": "function"
    },
    {
      "inputs": [
        {
          "internalType": "address",
          "name": "_who",
          "type": "address"
        }
      ],
      "name": "makeCoordinator",
      "outputs": [],
      "stateMutability": "nonpayable",
      "type": "function"
    },
    {
      "inputs": [
        {
          "internalType": "address[]",
          "name": "_manufacturers",
          "type": "address[]"
        },
        {
          "internalType": "address[]",
          "name": "_couriers",
          "type": "address[]"
        },
        {
          "internalType": "address",
          "name": "_receiver",
          "type": "address"
        },
        {
          "internalType": "uint256",
          "name": "_totalPLA",
          "type": "uint256"
        }
      ],
      "name": "startCampaign",
      "outputs": [
        {
          "internalType": "uint256",
          "name": "campaignId",
          "type": "uint256"
        }
      ],
      "stateMutability": "nonpayable",
      "type": "function"
    },
    {
      "inputs": [
        {
          "internalType": "uint256",
          "name": "_campaignId",
          "type": "uint256"
        },
        {
          "internalType": "address[]",
          "name": "_manufacturers",
          "type": "address[]"
        }
      ],
      "name": "addManufacturers",
      "outputs": [],
      "stateMutability": "nonpayable",
      "type": "function"
    },
    {
      "inputs": [
        {
          "internalType": "uint256",
          "name": "_campaignId",
          "type": "uint256"
        },
        {
          "internalType": "address[]",
          "name": "_couriers",
          "type": "address[]"
        }
      ],
      "name": "addCouriers",
      "outputs": [],
      "stateMutability": "nonpayable",
      "type": "function"
    },
    {
      "inputs": [
        {
          "internalType": "uint256",
          "name": "_campaignId",
          "type": "uint256"
        },
        {
          "internalType": "uint256",
          "name": "_amountOfPLA",
          "type": "uint256"
        },
        {
          "internalType": "uint256",
          "name": "_amountOfExpectedMasks",
          "type": "uint256"
        },
        {
          "internalType": "uint256",
          "name": "_tfForDeliveryToManufacturer",
          "type": "uint256"
        },
        {
          "internalType": "uint256",
          "name": "_tfForMakingMasks",
          "type": "uint256"
        },
        {
          "internalType": "uint256",
          "name": "_tfForDeliveryToReciver",
          "type": "uint256"
        },
        {
          "internalType": "address",
          "name": "_courier1",
          "type": "address"
        },
        {
          "internalType": "address",
          "name": "_courier2",
          "type": "address"
        },
        {
          "internalType": "address",
          "name": "_manufacturer",
          "type": "address"
        }
      ],
      "name": "createNewBatch",
      "outputs": [
        {
          "internalType": "uint256",
          "name": "batchId",
          "type": "uint256"
        }
      ],
      "stateMutability": "nonpayable",
      "type": "function"
    },
    {
      "inputs": [
        {
          "internalType": "uint256",
          "name": "_campaignId",
          "type": "uint256"
        },
        {
          "internalType": "uint256",
          "name": "_batchId",
          "type": "uint256"
        }
      ],
      "name": "confirmPLAPickedUpByCourier1",
      "outputs": [
        {
          "internalType": "bool",
          "name": "stageChange",
          "type": "bool"
        }
      ],
      "stateMutability": "nonpayable",
      "type": "function"
    },
    {
      "inputs": [
        {
          "internalType": "uint256",
          "name": "_campaignId",
          "type": "uint256"
        },
        {
          "internalType": "uint256",
          "name": "_batchId",
          "type": "uint256"
        }
      ],
      "name": "confirmPLARecivedByManufacturer",
      "outputs": [
        {
          "internalType": "bool",
          "name": "stageChange",
          "type": "bool"
        }
      ],
      "stateMutability": "nonpayable",
      "type": "function"
    },
    {
      "inputs": [
        {
          "internalType": "uint256",
          "name": "_campaignId",
          "type": "uint256"
        },
        {
          "internalType": "uint256",
          "name": "_batchId",
          "type": "uint256"
        },
        {
          "internalType": "uint256",
          "name": "_amountOfMasksMade",
          "type": "uint256"
        }
      ],
      "name": "confirmMasksMade",
      "outputs": [],
      "stateMutability": "nonpayable",
      "type": "function"
    },
    {
      "inputs": [
        {
          "internalType": "uint256",
          "name": "_campaignId",
          "type": "uint256"
        },
        {
          "internalType": "uint256",
          "name": "_batchId",
          "type": "uint256"
        }
      ],
      "name": "confirmMasksPickedUpByCourier2",
      "outputs": [
        {
          "internalType": "bool",
          "name": "stageChange",
          "type": "bool"
        }
      ],
      "stateMutability": "nonpayable",
      "type": "function"
    },
    {
      "inputs": [
        {
          "internalType": "uint256",
          "name": "_campaignId",
          "type": "uint256"
        },
        {
          "internalType": "uint256",
          "name": "_batchId",
          "type": "uint256"
        }
      ],
      "name": "confirmMasksRceivedByReceiver",
      "outputs": [
        {
          "internalType": "bool",
          "name": "stageChange",
          "type": "bool"
        }
      ],
      "stateMutability": "nonpayable",
      "type": "function"
    },
    {
      "inputs": [
        {
          "internalType": "uint256",
          "name": "_campaignId",
          "type": "uint256"
        }
      ],
      "name": "getCampaignDetalis",
      "outputs": [
        {
          "internalType": "uint256",
          "name": "totalPLA",
          "type": "uint256"
        },
        {
          "internalType": "uint256",
          "name": "currentPLA",
          "type": "uint256"
        },
        {
          "internalType": "uint256",
          "name": "totalBatches",
          "type": "uint256"
        },
        {
          "internalType": "address",
          "name": "coordinator",
          "type": "address"
        },
        {
          "internalType": "address",
          "name": "receiver",
          "type": "address"
        },
        {
          "internalType": "address[]",
          "name": "manufacturers",
          "type": "address[]"
        },
        {
          "internalType": "address[]",
          "name": "couriers",
          "type": "address[]"
        }
      ],
      "stateMutability": "view",
      "type": "function"
    },
    {
      "inputs": [
        {
          "internalType": "uint256",
          "name": "_campaignId",
          "type": "uint256"
        },
        {
          "internalType": "uint256",
          "name": "_batchId",
          "type": "uint256"
        }
      ],
      "name": "getBatchDetails",
      "outputs": [
        {
          "components": [
            {
              "internalType": "enum Storage.BatchStages",
              "name": "stage",
              "type": "uint8"
            },
            {
              "internalType": "bool",
              "name": "isPLAPickedUpCourier1",
              "type": "bool"
            },
            {
              "internalType": "bool",
              "name": "isPLAPickedUpCoordinator",
              "type": "bool"
            },
            {
              "internalType": "bool",
              "name": "isPLARecivedCourier1",
              "type": "bool"
            },
            {
              "internalType": "bool",
              "name": "isPLAReceivedManufacturer",
              "type": "bool"
            },
            {
              "internalType": "bool",
              "name": "isMasksPickedUpCourier2",
              "type": "bool"
            },
            {
              "internalType": "bool",
              "name": "isMasksPickedUpManufacturer",
              "type": "bool"
            },
            {
              "internalType": "bool",
              "name": "isMasksaReceviedCourier2",
              "type": "bool"
            },
            {
              "internalType": "bool",
              "name": "isMasksReceviedReceviver",
              "type": "bool"
            },
            {
              "internalType": "uint256",
              "name": "amountOfPLA",
              "type": "uint256"
            },
            {
              "internalType": "uint256",
              "name": "amountOfExpectedMasks",
              "type": "uint256"
            },
            {
              "internalType": "uint256",
              "name": "amountOfMasksMade",
              "type": "uint256"
            },
            {
              "internalType": "uint256",
              "name": "tfForDeliveryToManufacturer",
              "type": "uint256"
            },
            {
              "internalType": "uint256",
              "name": "tfForMakingMasks",
              "type": "uint256"
            },
            {
              "internalType": "uint256",
              "name": "tfForDeliveryToReciver",
              "type": "uint256"
            },
            {
              "internalType": "address",
              "name": "courier1",
              "type": "address"
            },
            {
              "internalType": "address",
              "name": "courier2",
              "type": "address"
            },
            {
              "internalType": "address",
              "name": "manufacturer",
              "type": "address"
            }
          ],
          "internalType": "struct Storage.Batch",
          "name": "batch",
          "type": "tuple"
        }
      ],
      "stateMutability": "view",
      "type": "function"
    },
    {
      "inputs": [
        {
          "internalType": "address",
          "name": "_who",
          "type": "address"
        }
      ],
      "name": "partOfWhichCampaigns",
      "outputs": [
        {
          "internalType": "uint256[]",
          "name": "",
          "type": "uint256[]"
        }
      ],
      "stateMutability": "view",
      "type": "function"
    },
    {
      "inputs": [
        {
          "internalType": "uint256",
          "name": "_campaignId",
          "type": "uint256"
        },
        {
          "internalType": "address",
          "name": "_who",
          "type": "address"
        }
      ],
      "name": "partOfWhichBatches",
      "outputs": [
        {
          "internalType": "uint256[]",
          "name": "",
          "type": "uint256[]"
        }
      ],
      "stateMutability": "view",
      "type": "function"
    }
  ],
  "bytecode": "0x608060405260016004553480156200001657600080fd5b50604051620058d4380380620058d483398181016040526200003c919081019062000522565b8060006200004f6200028a60201b60201c565b9050806000806101000a81548173ffffffffffffffffffffffffffffffffffffffff021916908373ffffffffffffffffffffffffffffffffffffffff1602179055508073ffffffffffffffffffffffffffffffffffffffff16600073ffffffffffffffffffffffffffffffffffffffff167f8be0079c531659141344cd1fd0a4f28419497f9722a3daafe3b4186f6b6457e060405160405180910390a350620001227ff23ec0bb4210edd5cba85afd05127efcd2fc6a781bfed49188da1081670b22d860001b826200029260201b60201c565b6200017a7faf8c8b3d1b230c888f16d0aac400b28aa51e631d580aaa7cb46e571590ed44e760001b7ff23ec0bb4210edd5cba85afd05127efcd2fc6a781bfed49188da1081670b22d860001b620002a860201b60201c565b620001d27f7fc3771f539a03c47afbbf258702c19273ef5e735e24ee7978081dc07288c68760001b7faf8c8b3d1b230c888f16d0aac400b28aa51e631d580aaa7cb46e571590ed44e760001b620002a860201b60201c565b6200022a7fb528929ed79eb79a87ae6f578d3125509c91bfea9ac8b7fb9f69aa0bc28298dd60001b7faf8c8b3d1b230c888f16d0aac400b28aa51e631d580aaa7cb46e571590ed44e760001b620002a860201b60201c565b620002827f5e784e45feb63c375016d4ce5c52a57b0a48b8a170bc2e31463be0d03d1c4db660001b7faf8c8b3d1b230c888f16d0aac400b28aa51e631d580aaa7cb46e571590ed44e760001b620002a860201b60201c565b505062000637565b600033905090565b620002a48282620002c760201b60201c565b5050565b8060016000848152602001908152602001600020600201819055505050565b6000801b600260008373ffffffffffffffffffffffffffffffffffffffff1673ffffffffffffffffffffffffffffffffffffffff16815260200190815260200160002054146200034e576040517f08c379a00000000000000000000000000000000000000000000000000000000081526004016200034590620005b6565b60405180910390fd5b81600260008373ffffffffffffffffffffffffffffffffffffffff1673ffffffffffffffffffffffffffffffffffffffff16815260200190815260200160002081905550620003c181600160008581526020019081526020016000206000016200043660201b62003b791790919060201c565b156200043257620003d76200028a60201b60201c565b73ffffffffffffffffffffffffffffffffffffffff168173ffffffffffffffffffffffffffffffffffffffff16837f2f8788117e7eff1d82e926ec794901d17c78024a50270940304540a733656f0d60405160405180910390a45b5050565b600062000466836000018373ffffffffffffffffffffffffffffffffffffffff1660001b6200046e60201b60201c565b905092915050565b6000620004828383620004e860201b60201c565b620004dd578260000182908060018154018082558091505060019003906000526020600020016000909190919091505582600001805490508360010160008481526020019081526020016000208190555060019050620004e2565b600090505b92915050565b600080836001016000848152602001908152602001600020541415905092915050565b6000815190506200051c816200061d565b92915050565b6000602082840312156200053557600080fd5b600062000545848285016200050b565b91505092915050565b60006200055d602d83620005d8565b91507f5573657220616c726561647920686173206120726f6c6528736565207768696360008301527f68526f6c65206d6574686f6429000000000000000000000000000000000000006020830152604082019050919050565b60006020820190508181036000830152620005d1816200054e565b9050919050565b600082825260208201905092915050565b6000620005f682620005fd565b9050919050565b600073ffffffffffffffffffffffffffffffffffffffff82169050919050565b6200062881620005e9565b81146200063457600080fd5b50565b61528d80620006476000396000f3fe608060405234801561001057600080fd5b50600436106101f05760003560e01c80639010d07c1161010f578063b9d7c86d116100a2578063dd9e9ea511610071578063dd9e9ea51461061f578063f241f9091461064f578063f2fde38b1461067f578063fca604d71461069b576101f0565b8063b9d7c86d14610573578063ca15c8731461058f578063cd0dc780146105bf578063cfb4983c146105ef576101f0565b8063997be196116100de578063997be196146104d15780639e17403b14610507578063a217fddf14610525578063b74af3c714610543576101f0565b80639010d07c1461043557806391d148541461046557806392b8a6c814610495578063965288b0146104b3576101f0565b8063518828e411610187578063715018a611610156578063715018a6146103d357806375b238fc146103dd57806387f1d19c146103fb5780638da5cb5b14610417576101f0565b8063518828e41461032557806359509427146103555780636b366cb5146103855780636e284583146103a3576101f0565b8063248a9ca3116101c3578063248a9ca31461028d5780632f2ff15d146102bd57806336568abe146102d957806344276733146102f5576101f0565b806308c8aed3146101f557806312e8df1d1461021157806317d05a1f1461024157806322f15edc14610271575b600080fd5b61020f600480360361020a91908101906140a4565b6106b9565b005b61022b600480360361022691908101906142ba565b61075c565b6040516102389190614cfb565b60405180910390f35b61025b600480360361025691908101906140cd565b610b2d565b6040516102689190614f6f565b60405180910390f35b61028b60048036036102869190810190614266565b6110a1565b005b6102a760048036036102a29190810190614160565b6113cb565b6040516102b49190614d16565b60405180910390f35b6102d760048036036102d29190810190614189565b6113eb565b005b6102f360048036036102ee9190810190614189565b61145f565b005b61030f600480360361030a91908101906140a4565b6114e2565b60405161031c9190614d16565b60405180910390f35b61033f600480360361033a91908101906142ba565b6116bb565b60405161034c9190614cfb565b60405180910390f35b61036f600480360361036a91908101906140a4565b611ab3565b60405161037c9190614cd9565b60405180910390f35b61038d611b4a565b60405161039a9190614d16565b60405180910390f35b6103bd60048036036103b89190810190614345565b611b71565b6040516103ca9190614f6f565b60405180910390f35b6103db6121fb565b005b6103e5612350565b6040516103f29190614d16565b60405180910390f35b61041560048036036104109190810190614266565b612377565b005b61041f6126a1565b60405161042c9190614cbe565b60405180910390f35b61044f600480360361044a91908101906141c5565b6126ca565b60405161045c9190614cbe565b60405180910390f35b61047f600480360361047a9190810190614189565b6126fc565b60405161048c9190614cfb565b60405180910390f35b61049d61272e565b6040516104aa9190614d16565b60405180910390f35b6104bb612755565b6040516104c89190614d16565b60405180910390f35b6104eb60048036036104e69190810190614201565b61277c565b6040516104fe9796959493929190614fea565b60405180910390f35b61050f61298f565b60405161051c9190614d16565b60405180910390f35b61052d6129b6565b60405161053a9190614d16565b60405180910390f35b61055d600480360361055891908101906142ba565b6129bd565b60405161056a9190614f53565b60405180910390f35b61058d600480360361058891908101906142f6565b612c43565b005b6105a960048036036105a49190810190614160565b612dbd565b6040516105b69190614f6f565b60405180910390f35b6105d960048036036105d491908101906142ba565b612de4565b6040516105e69190614cfb565b60405180910390f35b610609600480360361060491908101906142ba565b6131dd565b6040516106169190614cfb565b60405180910390f35b610639600480360361063491908101906140a4565b6135ae565b6040516106469190614d16565b60405180910390f35b6106696004803603610664919081019061422a565b6135c6565b6040516106769190614cd9565b60405180910390f35b610699600480360361069491908101906140a4565b613672565b005b6106a3613836565b6040516106b09190614f6f565b60405180910390f35b6106ed7ff23ec0bb4210edd5cba85afd05127efcd2fc6a781bfed49188da1081670b22d860001b6106e861383c565b6126fc565b61072c576040517f08c379a000000000000000000000000000000000000000000000000000000000815260040161072390614ed3565b60405180910390fd5b6107597faf8c8b3d1b230c888f16d0aac400b28aa51e631d580aaa7cb46e571590ed44e760001b826113eb565b50565b600061076661383c565b73ffffffffffffffffffffffffffffffffffffffff166003600085815260200190815260200160002060030160009054906101000a900473ffffffffffffffffffffffffffffffffffffffff1673ffffffffffffffffffffffffffffffffffffffff16148061085157506107d861383c565b73ffffffffffffffffffffffffffffffffffffffff1660036000858152602001908152602001600020600901600084815260200190815260200160002060070160009054906101000a900473ffffffffffffffffffffffffffffffffffffffff1673ffffffffffffffffffffffffffffffffffffffff16145b610890576040517f08c379a000000000000000000000000000000000000000000000000000000000815260040161088790614e13565b60405180910390fd5b6000905061089c61383c565b73ffffffffffffffffffffffffffffffffffffffff166003600085815260200190815260200160002060030160009054906101000a900473ffffffffffffffffffffffffffffffffffffffff1673ffffffffffffffffffffffffffffffffffffffff16141561094957600160036000858152602001908152602001600020600901600084815260200190815260200160002060000160026101000a81548160ff0219169083151502179055505b61095161383c565b73ffffffffffffffffffffffffffffffffffffffff1660036000858152602001908152602001600020600901600084815260200190815260200160002060070160009054906101000a900473ffffffffffffffffffffffffffffffffffffffff1673ffffffffffffffffffffffffffffffffffffffff161415610a1257600160036000858152602001908152602001600020600901600084815260200190815260200160002060000160016101000a81548160ff0219169083151502179055505b6001151560036000858152602001908152602001600020600901600084815260200190815260200160002060000160029054906101000a900460ff161515148015610a9857506001151560036000858152602001908152602001600020600901600084815260200190815260200160002060000160019054906101000a900460ff161515145b15610b2757600260036000858152602001908152602001600020600901600084815260200190815260200160002060000160006101000a81548160ff02191690836007811115610ae457fe5b02179055507fce02b750acf4627269a555da22c6d51e4bf4efacaedecb887879277eac29a7978383604051610b1a929190614f8a565b60405180910390a1600190505b92915050565b6000610b637faf8c8b3d1b230c888f16d0aac400b28aa51e631d580aaa7cb46e571590ed44e760001b610b5e61383c565b6126fc565b610ba2576040517f08c379a0000000000000000000000000000000000000000000000000000000008152600401610b9990614e53565b60405180910390fd5b60045490506000600360008381526020019081526020016000209050610bd4600160045461384490919063ffffffff16565b60048190555060056000610be661383c565b73ffffffffffffffffffffffffffffffffffffffff1673ffffffffffffffffffffffffffffffffffffffff168152602001908152602001600020829080600181540180825580915050600190039060005260206000200160009091909190915055610c4f61383c565b8160030160006101000a81548173ffffffffffffffffffffffffffffffffffffffff021916908373ffffffffffffffffffffffffffffffffffffffff16021790555060008090505b8651811015610de357610ce07fb528929ed79eb79a87ae6f578d3125509c91bfea9ac8b7fb9f69aa0bc28298dd60001b888381518110610cd357fe5b60200260200101516113eb565b610cf460018261384490919063ffffffff16565b826005016001016000898481518110610d0957fe5b602002602001015173ffffffffffffffffffffffffffffffffffffffff1673ffffffffffffffffffffffffffffffffffffffff1681526020019081526020016000208190555060056000888381518110610d5f57fe5b602002602001015173ffffffffffffffffffffffffffffffffffffffff1673ffffffffffffffffffffffffffffffffffffffff168152602001908152602001600020839080600181540180825580915050600190039060005260206000200160009091909190915055610ddc60018261384490919063ffffffff16565b9050610c97565b5060008090505b8551811015610f3657610e337f7fc3771f539a03c47afbbf258702c19273ef5e735e24ee7978081dc07288c68760001b878381518110610e2657fe5b60200260200101516113eb565b610e4760018261384490919063ffffffff16565b826007016001016000888481518110610e5c57fe5b602002602001015173ffffffffffffffffffffffffffffffffffffffff1673ffffffffffffffffffffffffffffffffffffffff1681526020019081526020016000208190555060056000878381518110610eb257fe5b602002602001015173ffffffffffffffffffffffffffffffffffffffff1673ffffffffffffffffffffffffffffffffffffffff168152602001908152602001600020839080600181540180825580915050600190039060005260206000200160009091909190915055610f2f60018261384490919063ffffffff16565b9050610dea565b5085816005016000019080519060200190610f52929190613e2d565b5084816007016000019080519060200190610f6e929190613e2d565b50610f9c7f5e784e45feb63c375016d4ce5c52a57b0a48b8a170bc2e31463be0d03d1c4db660001b856113eb565b838160040160006101000a81548173ffffffffffffffffffffffffffffffffffffffff021916908373ffffffffffffffffffffffffffffffffffffffff160217905550600560008573ffffffffffffffffffffffffffffffffffffffff1673ffffffffffffffffffffffffffffffffffffffff168152602001908152602001600020829080600181540180825580915050600190039060005260206000200160009091909190915055600081600201819055508281600001819055508281600101819055507f503a7c5d84c6afa3203956e339356fc5a3a8d5c44090f3ca0bfce18e820d789e826040516110909190614f6f565b60405180910390a150949350505050565b6110d57faf8c8b3d1b230c888f16d0aac400b28aa51e631d580aaa7cb46e571590ed44e760001b6110d061383c565b6126fc565b611114576040517f08c379a000000000000000000000000000000000000000000000000000000000815260040161110b90614e53565b60405180910390fd5b61111c61383c565b73ffffffffffffffffffffffffffffffffffffffff166003600084815260200190815260200160002060030160009054906101000a900473ffffffffffffffffffffffffffffffffffffffff1673ffffffffffffffffffffffffffffffffffffffff16146111bf576040517f08c379a00000000000000000000000000000000000000000000000000000000081526004016111b690614e93565b60405180910390fd5b600060036000848152602001908152602001600020905060008160070160000180549050905060008090505b83518110156113c4576112347fb528929ed79eb79a87ae6f578d3125509c91bfea9ac8b7fb9f69aa0bc28298dd60001b85838151811061122757fe5b60200260200101516113eb565b8260070160000184828151811061124757fe5b60200260200101519080600181540180825580915050600190039060005260206000200160009091909190916101000a81548173ffffffffffffffffffffffffffffffffffffffff021916908373ffffffffffffffffffffffffffffffffffffffff1602179055506112d56112c660018361384490919063ffffffff16565b8361384490919063ffffffff16565b8360070160010160008684815181106112ea57fe5b602002602001015173ffffffffffffffffffffffffffffffffffffffff1673ffffffffffffffffffffffffffffffffffffffff168152602001908152602001600020819055506005600085838151811061134057fe5b602002602001015173ffffffffffffffffffffffffffffffffffffffff1673ffffffffffffffffffffffffffffffffffffffff1681526020019081526020016000208590806001815401808255809150506001900390600052602060002001600090919091909150556113bd60018261384490919063ffffffff16565b90506111eb565b5050505050565b600060016000838152602001908152602001600020600201549050919050565b611412600160008481526020019081526020016000206002015461140d61383c565b6126fc565b611451576040517f08c379a000000000000000000000000000000000000000000000000000000000815260040161144890614d73565b60405180910390fd5b61145b8282613899565b5050565b61146761383c565b73ffffffffffffffffffffffffffffffffffffffff168173ffffffffffffffffffffffffffffffffffffffff16146114d4576040517f08c379a00000000000000000000000000000000000000000000000000000000081526004016114cb90614f33565b60405180910390fd5b6114de82826139f5565b5050565b60006115117ff23ec0bb4210edd5cba85afd05127efcd2fc6a781bfed49188da1081670b22d860001b836126fc565b15611541577ff23ec0bb4210edd5cba85afd05127efcd2fc6a781bfed49188da1081670b22d860001b90506116b6565b61156e7faf8c8b3d1b230c888f16d0aac400b28aa51e631d580aaa7cb46e571590ed44e760001b836126fc565b1561159e577faf8c8b3d1b230c888f16d0aac400b28aa51e631d580aaa7cb46e571590ed44e760001b90506116b6565b6115cb7f7fc3771f539a03c47afbbf258702c19273ef5e735e24ee7978081dc07288c68760001b836126fc565b156115fb577f7fc3771f539a03c47afbbf258702c19273ef5e735e24ee7978081dc07288c68760001b90506116b6565b6116287fb528929ed79eb79a87ae6f578d3125509c91bfea9ac8b7fb9f69aa0bc28298dd60001b836126fc565b15611658577fb528929ed79eb79a87ae6f578d3125509c91bfea9ac8b7fb9f69aa0bc28298dd60001b90506116b6565b6116857f5e784e45feb63c375016d4ce5c52a57b0a48b8a170bc2e31463be0d03d1c4db660001b836126fc565b156116b5577f5e784e45feb63c375016d4ce5c52a57b0a48b8a170bc2e31463be0d03d1c4db660001b90506116b6565b5b919050565b60006116c561383c565b73ffffffffffffffffffffffffffffffffffffffff1660036000858152602001908152602001600020600901600084815260200190815260200160002060090160009054906101000a900473ffffffffffffffffffffffffffffffffffffffff1673ffffffffffffffffffffffffffffffffffffffff1614806117c4575061174b61383c565b73ffffffffffffffffffffffffffffffffffffffff1660036000858152602001908152602001600020600901600084815260200190815260200160002060070160009054906101000a900473ffffffffffffffffffffffffffffffffffffffff1673ffffffffffffffffffffffffffffffffffffffff16145b611803576040517f08c379a00000000000000000000000000000000000000000000000000000000081526004016117fa90614f13565b60405180910390fd5b6000905061180f61383c565b73ffffffffffffffffffffffffffffffffffffffff1660036000858152602001908152602001600020600901600084815260200190815260200160002060090160009054906101000a900473ffffffffffffffffffffffffffffffffffffffff1673ffffffffffffffffffffffffffffffffffffffff1614156118d057600160036000858152602001908152602001600020600901600084815260200190815260200160002060000160046101000a81548160ff0219169083151502179055505b6118d861383c565b73ffffffffffffffffffffffffffffffffffffffff1660036000858152602001908152602001600020600901600084815260200190815260200160002060070160009054906101000a900473ffffffffffffffffffffffffffffffffffffffff1673ffffffffffffffffffffffffffffffffffffffff16141561199957600160036000858152602001908152602001600020600901600084815260200190815260200160002060000160036101000a81548160ff0219169083151502179055505b6001151560036000858152602001908152602001600020600901600084815260200190815260200160002060000160049054906101000a900460ff161515148015611a1f57506001151560036000858152602001908152602001600020600901600084815260200190815260200160002060000160039054906101000a900460ff161515145b15611aad576003806000858152602001908152602001600020600901600084815260200190815260200160002060000160006101000a81548160ff02191690836007811115611a6a57fe5b02179055507fea5b9a09f5cda7a400ab3299370eb751979df1575364bf7575f0d1bfe7e43b7d8383604051611aa0929190614f8a565b60405180910390a1600190505b92915050565b6060600560008373ffffffffffffffffffffffffffffffffffffffff1673ffffffffffffffffffffffffffffffffffffffff168152602001908152602001600020805480602002602001604051908101604052809291908181526020018280548015611b3e57602002820191906000526020600020905b815481526020019060010190808311611b2a575b50505050509050919050565b7faf8c8b3d1b230c888f16d0aac400b28aa51e631d580aaa7cb46e571590ed44e760001b81565b6000611ba77faf8c8b3d1b230c888f16d0aac400b28aa51e631d580aaa7cb46e571590ed44e760001b611ba261383c565b6126fc565b611be6576040517f08c379a0000000000000000000000000000000000000000000000000000000008152600401611bdd90614e53565b60405180910390fd5b611bee61383c565b73ffffffffffffffffffffffffffffffffffffffff16600360008c815260200190815260200160002060030160009054906101000a900473ffffffffffffffffffffffffffffffffffffffff1673ffffffffffffffffffffffffffffffffffffffff1614611c91576040517f08c379a0000000000000000000000000000000000000000000000000000000008152600401611c8890614e93565b60405180910390fd5b6000600360008c815260200190815260200160002060070160010160008673ffffffffffffffffffffffffffffffffffffffff1673ffffffffffffffffffffffffffffffffffffffff168152602001908152602001600020541415611d2b576040517f08c379a0000000000000000000000000000000000000000000000000000000008152600401611d2290614ef3565b60405180910390fd5b6000600360008c815260200190815260200160002060070160010160008573ffffffffffffffffffffffffffffffffffffffff1673ffffffffffffffffffffffffffffffffffffffff168152602001908152602001600020541415611dc5576040517f08c379a0000000000000000000000000000000000000000000000000000000008152600401611dbc90614ef3565b60405180910390fd5b6000600360008c815260200190815260200160002060050160010160008473ffffffffffffffffffffffffffffffffffffffff1673ffffffffffffffffffffffffffffffffffffffff168152602001908152602001600020541415611e5f576040517f08c379a0000000000000000000000000000000000000000000000000000000008152600401611e5690614d93565b60405180910390fd5b611e896001600360008d81526020019081526020016000206002015461384490919063ffffffff16565b600360008c815260200190815260200160002060020181905550600360008b81526020019081526020016000206002015490506000600360008c815260200190815260200160002060090160008381526020019081526020016000209050611f108a600360008e815260200190815260200160002060010154613ad090919063ffffffff16565b600360008d81526020019081526020016000206001018190555060018160000160006101000a81548160ff02191690836007811115611f4b57fe5b0217905550898160010181905550888160020181905550878160040181905550868160050181905550858160060181905550848160070160006101000a81548173ffffffffffffffffffffffffffffffffffffffff021916908373ffffffffffffffffffffffffffffffffffffffff160217905550600360008c8152602001908152602001600020600a0160008673ffffffffffffffffffffffffffffffffffffffff1673ffffffffffffffffffffffffffffffffffffffff168152602001908152602001600020829080600181540180825580915050600190039060005260206000200160009091909190915055838160080160006101000a81548173ffffffffffffffffffffffffffffffffffffffff021916908373ffffffffffffffffffffffffffffffffffffffff160217905550600360008c8152602001908152602001600020600a0160008573ffffffffffffffffffffffffffffffffffffffff1673ffffffffffffffffffffffffffffffffffffffff168152602001908152602001600020829080600181540180825580915050600190039060005260206000200160009091909190915055828160090160006101000a81548173ffffffffffffffffffffffffffffffffffffffff021916908373ffffffffffffffffffffffffffffffffffffffff160217905550600360008c8152602001908152602001600020600a0160008473ffffffffffffffffffffffffffffffffffffffff1673ffffffffffffffffffffffffffffffffffffffff1681526020019081526020016000208290806001815401808255809150506001900390600052602060002001600090919091909150557fef58603955539807736c5925e4d5b3ad4322eb3810b5b1bf36975955970895178b836040516121e5929190614f8a565b60405180910390a1509998505050505050505050565b61220361383c565b73ffffffffffffffffffffffffffffffffffffffff166000809054906101000a900473ffffffffffffffffffffffffffffffffffffffff1673ffffffffffffffffffffffffffffffffffffffff1614612291576040517f08c379a000000000000000000000000000000000000000000000000000000000815260040161228890614eb3565b60405180910390fd5b600073ffffffffffffffffffffffffffffffffffffffff166000809054906101000a900473ffffffffffffffffffffffffffffffffffffffff1673ffffffffffffffffffffffffffffffffffffffff167f8be0079c531659141344cd1fd0a4f28419497f9722a3daafe3b4186f6b6457e060405160405180910390a360008060006101000a81548173ffffffffffffffffffffffffffffffffffffffff021916908373ffffffffffffffffffffffffffffffffffffffff160217905550565b7ff23ec0bb4210edd5cba85afd05127efcd2fc6a781bfed49188da1081670b22d860001b81565b6123ab7faf8c8b3d1b230c888f16d0aac400b28aa51e631d580aaa7cb46e571590ed44e760001b6123a661383c565b6126fc565b6123ea576040517f08c379a00000000000000000000000000000000000000000000000000000000081526004016123e190614e53565b60405180910390fd5b6123f261383c565b73ffffffffffffffffffffffffffffffffffffffff166003600084815260200190815260200160002060030160009054906101000a900473ffffffffffffffffffffffffffffffffffffffff1673ffffffffffffffffffffffffffffffffffffffff1614612495576040517f08c379a000000000000000000000000000000000000000000000000000000000815260040161248c90614e93565b60405180910390fd5b600060036000848152602001908152602001600020905060008160050160000180549050905060008090505b835181101561269a5761250a7fb528929ed79eb79a87ae6f578d3125509c91bfea9ac8b7fb9f69aa0bc28298dd60001b8583815181106124fd57fe5b60200260200101516113eb565b8260050160000184828151811061251d57fe5b60200260200101519080600181540180825580915050600190039060005260206000200160009091909190916101000a81548173ffffffffffffffffffffffffffffffffffffffff021916908373ffffffffffffffffffffffffffffffffffffffff1602179055506125ab61259c60018361384490919063ffffffff16565b8361384490919063ffffffff16565b8360050160010160008684815181106125c057fe5b602002602001015173ffffffffffffffffffffffffffffffffffffffff1673ffffffffffffffffffffffffffffffffffffffff168152602001908152602001600020819055506005600085838151811061261657fe5b602002602001015173ffffffffffffffffffffffffffffffffffffffff1673ffffffffffffffffffffffffffffffffffffffff16815260200190815260200160002085908060018154018082558091505060019003906000526020600020016000909190919091505561269360018261384490919063ffffffff16565b90506124c1565b5050505050565b60008060009054906101000a900473ffffffffffffffffffffffffffffffffffffffff16905090565b60006126f48260016000868152602001908152602001600020600001613b1a90919063ffffffff16565b905092915050565b60006127268260016000868152602001908152602001600020600001613b3490919063ffffffff16565b905092915050565b7f7fc3771f539a03c47afbbf258702c19273ef5e735e24ee7978081dc07288c68760001b81565b7fb528929ed79eb79a87ae6f578d3125509c91bfea9ac8b7fb9f69aa0bc28298dd60001b81565b60008060008060006060806003600089815260200190815260200160002060030160009054906101000a900473ffffffffffffffffffffffffffffffffffffffff16935060036000898152602001908152602001600020600001549650600360008981526020019081526020016000206001015495506003600089815260200190815260200160002060040160009054906101000a900473ffffffffffffffffffffffffffffffffffffffff16925060036000898152602001908152602001600020600201549450600360008981526020019081526020016000206005016000018054806020026020016040519081016040528092919081815260200182805480156128dd57602002820191906000526020600020905b8160009054906101000a900473ffffffffffffffffffffffffffffffffffffffff1673ffffffffffffffffffffffffffffffffffffffff1681526020019060010190808311612893575b505050505091506003600089815260200190815260200160002060070160000180548060200260200160405190810160405280929190818152602001828054801561297d57602002820191906000526020600020905b8160009054906101000a900473ffffffffffffffffffffffffffffffffffffffff1673ffffffffffffffffffffffffffffffffffffffff1681526020019060010190808311612933575b50505050509050919395979092949650565b7f5e784e45feb63c375016d4ce5c52a57b0a48b8a170bc2e31463be0d03d1c4db660001b81565b6000801b81565b6129c5613eb7565b600360008481526020019081526020016000206009016000838152602001908152602001600020604051806102400160405290816000820160009054906101000a900460ff166007811115612a1657fe5b6007811115612a2157fe5b81526020016000820160019054906101000a900460ff161515151581526020016000820160029054906101000a900460ff161515151581526020016000820160039054906101000a900460ff161515151581526020016000820160049054906101000a900460ff161515151581526020016000820160059054906101000a900460ff161515151581526020016000820160069054906101000a900460ff161515151581526020016000820160079054906101000a900460ff161515151581526020016000820160089054906101000a900460ff161515151581526020016001820154815260200160028201548152602001600382015481526020016004820154815260200160058201548152602001600682015481526020016007820160009054906101000a900473ffffffffffffffffffffffffffffffffffffffff1673ffffffffffffffffffffffffffffffffffffffff1673ffffffffffffffffffffffffffffffffffffffff1681526020016008820160009054906101000a900473ffffffffffffffffffffffffffffffffffffffff1673ffffffffffffffffffffffffffffffffffffffff1673ffffffffffffffffffffffffffffffffffffffff1681526020016009820160009054906101000a900473ffffffffffffffffffffffffffffffffffffffff1673ffffffffffffffffffffffffffffffffffffffff1673ffffffffffffffffffffffffffffffffffffffff1681525050905092915050565b612c4b61383c565b73ffffffffffffffffffffffffffffffffffffffff1660036000858152602001908152602001600020600901600084815260200190815260200160002060090160009054906101000a900473ffffffffffffffffffffffffffffffffffffffff1673ffffffffffffffffffffffffffffffffffffffff1614612d02576040517f08c379a0000000000000000000000000000000000000000000000000000000008152600401612cf990614e33565b60405180910390fd5b8060036000858152602001908152602001600020600901600084815260200190815260200160002060030181905550600460036000858152602001908152602001600020600901600084815260200190815260200160002060000160006101000a81548160ff02191690836007811115612d7857fe5b02179055507fb39f6fe30ae4ea54eff79d31c2afcdea552f5a0820c855d0f6e4e1d117d16b2e838383604051612db093929190614fb3565b60405180910390a1505050565b6000612ddd60016000848152602001908152602001600020600001613b64565b9050919050565b6000612dee61383c565b73ffffffffffffffffffffffffffffffffffffffff1660036000858152602001908152602001600020600901600084815260200190815260200160002060090160009054906101000a900473ffffffffffffffffffffffffffffffffffffffff1673ffffffffffffffffffffffffffffffffffffffff161480612eed5750612e7461383c565b73ffffffffffffffffffffffffffffffffffffffff1660036000858152602001908152602001600020600901600084815260200190815260200160002060080160009054906101000a900473ffffffffffffffffffffffffffffffffffffffff1673ffffffffffffffffffffffffffffffffffffffff16145b612f2c576040517f08c379a0000000000000000000000000000000000000000000000000000000008152600401612f2390614f13565b60405180910390fd5b60009050612f3861383c565b73ffffffffffffffffffffffffffffffffffffffff1660036000858152602001908152602001600020600901600084815260200190815260200160002060090160009054906101000a900473ffffffffffffffffffffffffffffffffffffffff1673ffffffffffffffffffffffffffffffffffffffff161415612ff957600160036000858152602001908152602001600020600901600084815260200190815260200160002060000160066101000a81548160ff0219169083151502179055505b61300161383c565b73ffffffffffffffffffffffffffffffffffffffff1660036000858152602001908152602001600020600901600084815260200190815260200160002060080160009054906101000a900473ffffffffffffffffffffffffffffffffffffffff1673ffffffffffffffffffffffffffffffffffffffff1614156130c257600160036000858152602001908152602001600020600901600084815260200190815260200160002060000160056101000a81548160ff0219169083151502179055505b6001151560036000858152602001908152602001600020600901600084815260200190815260200160002060000160069054906101000a900460ff16151514801561314857506001151560036000858152602001908152602001600020600901600084815260200190815260200160002060000160059054906101000a900460ff161515145b156131d757600560036000858152602001908152602001600020600901600084815260200190815260200160002060000160006101000a81548160ff0219169083600781111561319457fe5b02179055507f1cca725889d27a46f38b58dd66a77cba5bc3d254b9c502b10ae4d7846cfa426383836040516131ca929190614f8a565b60405180910390a1600190505b92915050565b60006131e761383c565b73ffffffffffffffffffffffffffffffffffffffff166003600085815260200190815260200160002060040160009054906101000a900473ffffffffffffffffffffffffffffffffffffffff1673ffffffffffffffffffffffffffffffffffffffff1614806132d2575061325961383c565b73ffffffffffffffffffffffffffffffffffffffff1660036000858152602001908152602001600020600901600084815260200190815260200160002060080160009054906101000a900473ffffffffffffffffffffffffffffffffffffffff1673ffffffffffffffffffffffffffffffffffffffff16145b613311576040517f08c379a000000000000000000000000000000000000000000000000000000000815260040161330890614dd3565b60405180910390fd5b6000905061331d61383c565b73ffffffffffffffffffffffffffffffffffffffff166003600085815260200190815260200160002060040160009054906101000a900473ffffffffffffffffffffffffffffffffffffffff1673ffffffffffffffffffffffffffffffffffffffff1614156133ca57600160036000858152602001908152602001600020600901600084815260200190815260200160002060000160086101000a81548160ff0219169083151502179055505b6133d261383c565b73ffffffffffffffffffffffffffffffffffffffff1660036000858152602001908152602001600020600901600084815260200190815260200160002060080160009054906101000a900473ffffffffffffffffffffffffffffffffffffffff1673ffffffffffffffffffffffffffffffffffffffff16141561349357600160036000858152602001908152602001600020600901600084815260200190815260200160002060000160076101000a81548160ff0219169083151502179055505b6001151560036000858152602001908152602001600020600901600084815260200190815260200160002060000160089054906101000a900460ff16151514801561351957506001151560036000858152602001908152602001600020600901600084815260200190815260200160002060000160079054906101000a900460ff161515145b156135a857600660036000858152602001908152602001600020600901600084815260200190815260200160002060000160006101000a81548160ff0219169083600781111561356557fe5b02179055507f6fe789f01467d87832cddfe60c4c0e2171e09c7d7f7163cace200495d6408bf3838360405161359b929190614f8a565b60405180910390a1600190505b92915050565b60026020528060005260406000206000915090505481565b606060036000848152602001908152602001600020600a0160008373ffffffffffffffffffffffffffffffffffffffff1673ffffffffffffffffffffffffffffffffffffffff16815260200190815260200160002080548060200260200160405190810160405280929190818152602001828054801561366557602002820191906000526020600020905b815481526020019060010190808311613651575b5050505050905092915050565b61367a61383c565b73ffffffffffffffffffffffffffffffffffffffff166000809054906101000a900473ffffffffffffffffffffffffffffffffffffffff1673ffffffffffffffffffffffffffffffffffffffff1614613708576040517f08c379a00000000000000000000000000000000000000000000000000000000081526004016136ff90614eb3565b60405180910390fd5b600073ffffffffffffffffffffffffffffffffffffffff168173ffffffffffffffffffffffffffffffffffffffff161415613778576040517f08c379a000000000000000000000000000000000000000000000000000000000815260040161376f90614db3565b60405180910390fd5b8073ffffffffffffffffffffffffffffffffffffffff166000809054906101000a900473ffffffffffffffffffffffffffffffffffffffff1673ffffffffffffffffffffffffffffffffffffffff167f8be0079c531659141344cd1fd0a4f28419497f9722a3daafe3b4186f6b6457e060405160405180910390a3806000806101000a81548173ffffffffffffffffffffffffffffffffffffffff021916908373ffffffffffffffffffffffffffffffffffffffff16021790555050565b60045481565b600033905090565b60008082840190508381101561388f576040517f08c379a000000000000000000000000000000000000000000000000000000000815260040161388690614df3565b60405180910390fd5b8091505092915050565b6000801b600260008373ffffffffffffffffffffffffffffffffffffffff1673ffffffffffffffffffffffffffffffffffffffff168152602001908152602001600020541461391d576040517f08c379a000000000000000000000000000000000000000000000000000000000815260040161391490614e73565b60405180910390fd5b81600260008373ffffffffffffffffffffffffffffffffffffffff1673ffffffffffffffffffffffffffffffffffffffff168152602001908152602001600020819055506139898160016000858152602001908152602001600020600001613b7990919063ffffffff16565b156139f15761399661383c565b73ffffffffffffffffffffffffffffffffffffffff168173ffffffffffffffffffffffffffffffffffffffff16837f2f8788117e7eff1d82e926ec794901d17c78024a50270940304540a733656f0d60405160405180910390a45b5050565b6000801b600260008373ffffffffffffffffffffffffffffffffffffffff1673ffffffffffffffffffffffffffffffffffffffff16815260200190815260200160002081905550613a648160016000858152602001908152602001600020600001613ba990919063ffffffff16565b15613acc57613a7161383c565b73ffffffffffffffffffffffffffffffffffffffff168173ffffffffffffffffffffffffffffffffffffffff16837ff6391f5c32d9c69d2a47ea670b442974b53935d1edc7fd64eb21e047a839171b60405160405180910390a45b5050565b6000613b1283836040518060400160405280601e81526020017f536166654d6174683a207375627472616374696f6e206f766572666c6f770000815250613bd9565b905092915050565b6000613b298360000183613c34565b60001c905092915050565b6000613b5c836000018373ffffffffffffffffffffffffffffffffffffffff1660001b613ca1565b905092915050565b6000613b7282600001613cc4565b9050919050565b6000613ba1836000018373ffffffffffffffffffffffffffffffffffffffff1660001b613cd5565b905092915050565b6000613bd1836000018373ffffffffffffffffffffffffffffffffffffffff1660001b613d45565b905092915050565b6000838311158290613c21576040517f08c379a0000000000000000000000000000000000000000000000000000000008152600401613c189190614d31565b60405180910390fd5b5060008385039050809150509392505050565b600081836000018054905011613c7f576040517f08c379a0000000000000000000000000000000000000000000000000000000008152600401613c7690614d53565b60405180910390fd5b826000018281548110613c8e57fe5b9060005260206000200154905092915050565b600080836001016000848152602001908152602001600020541415905092915050565b600081600001805490509050919050565b6000613ce18383613ca1565b613d3a578260000182908060018154018082558091505060019003906000526020600020016000909190919091505582600001805490508360010160008481526020019081526020016000208190555060019050613d3f565b600090505b92915050565b60008083600101600084815260200190815260200160002054905060008114613e215760006001820390506000600186600001805490500390506000866000018281548110613d9057fe5b9060005260206000200154905080876000018481548110613dad57fe5b9060005260206000200181905550600183018760010160008381526020019081526020016000208190555086600001805480613de557fe5b60019003818190600052602060002001600090559055866001016000878152602001908152602001600020600090556001945050505050613e27565b60009150505b92915050565b828054828255906000526020600020908101928215613ea6579160200282015b82811115613ea55782518260006101000a81548173ffffffffffffffffffffffffffffffffffffffff021916908373ffffffffffffffffffffffffffffffffffffffff16021790555091602001919060010190613e4d565b5b509050613eb39190613f9f565b5090565b60405180610240016040528060006007811115613ed057fe5b8152602001600015158152602001600015158152602001600015158152602001600015158152602001600015158152602001600015158152602001600015158152602001600015158152602001600081526020016000815260200160008152602001600081526020016000815260200160008152602001600073ffffffffffffffffffffffffffffffffffffffff168152602001600073ffffffffffffffffffffffffffffffffffffffff168152602001600073ffffffffffffffffffffffffffffffffffffffff1681525090565b613fdf91905b80821115613fdb57600081816101000a81549073ffffffffffffffffffffffffffffffffffffffff021916905550600101613fa5565b5090565b90565b600081359050613ff181615212565b92915050565b600082601f83011261400857600080fd5b813561401b61401682615094565b615067565b9150818183526020840193506020810190508385602084028201111561404057600080fd5b60005b8381101561407057816140568882613fe2565b845260208401935060208301925050600181019050614043565b5050505092915050565b60008135905061408981615229565b92915050565b60008135905061409e81615240565b92915050565b6000602082840312156140b657600080fd5b60006140c484828501613fe2565b91505092915050565b600080600080608085870312156140e357600080fd5b600085013567ffffffffffffffff8111156140fd57600080fd5b61410987828801613ff7565b945050602085013567ffffffffffffffff81111561412657600080fd5b61413287828801613ff7565b935050604061414387828801613fe2565b92505060606141548782880161408f565b91505092959194509250565b60006020828403121561417257600080fd5b60006141808482850161407a565b91505092915050565b6000806040838503121561419c57600080fd5b60006141aa8582860161407a565b92505060206141bb85828601613fe2565b9150509250929050565b600080604083850312156141d857600080fd5b60006141e68582860161407a565b92505060206141f78582860161408f565b9150509250929050565b60006020828403121561421357600080fd5b60006142218482850161408f565b91505092915050565b6000806040838503121561423d57600080fd5b600061424b8582860161408f565b925050602061425c85828601613fe2565b9150509250929050565b6000806040838503121561427957600080fd5b60006142878582860161408f565b925050602083013567ffffffffffffffff8111156142a457600080fd5b6142b085828601613ff7565b9150509250929050565b600080604083850312156142cd57600080fd5b60006142db8582860161408f565b92505060206142ec8582860161408f565b9150509250929050565b60008060006060848603121561430b57600080fd5b60006143198682870161408f565b935050602061432a8682870161408f565b925050604061433b8682870161408f565b9150509250925092565b60008060008060008060008060006101208a8c03121561436457600080fd5b60006143728c828d0161408f565b99505060206143838c828d0161408f565b98505060406143948c828d0161408f565b97505060606143a58c828d0161408f565b96505060806143b68c828d0161408f565b95505060a06143c78c828d0161408f565b94505060c06143d88c828d01613fe2565b93505060e06143e98c828d01613fe2565b9250506101006143fb8c828d01613fe2565b9150509295985092959850929598565b6000614417838361443b565b60208301905092915050565b600061442f8383614ca0565b60208301905092915050565b6144448161514a565b82525050565b6144538161514a565b82525050565b6000614464826150dc565b61446e8185615117565b9350614479836150bc565b8060005b838110156144aa578151614491888261440b565b975061449c836150fd565b92505060018101905061447d565b5085935050505092915050565b60006144c2826150e7565b6144cc8185615128565b93506144d7836150cc565b8060005b838110156145085781516144ef8882614423565b97506144fa8361510a565b9250506001810190506144db565b5085935050505092915050565b61451e8161515c565b82525050565b61452d8161515c565b82525050565b61453c81615168565b82525050565b61454b816151af565b82525050565b600061455c826150f2565b6145668185615139565b93506145768185602086016151c1565b61457f816151f4565b840191505092915050565b6000614597602283615139565b91507f456e756d657261626c655365743a20696e646578206f7574206f6620626f756e60008301527f64730000000000000000000000000000000000000000000000000000000000006020830152604082019050919050565b60006145fd602f83615139565b91507f416363657373436f6e74726f6c3a2073656e646572206d75737420626520616e60008301527f2061646d696e20746f206772616e7400000000000000000000000000000000006020830152604082019050919050565b6000614663602183615139565b91507f616464206d616e756661747572657220746f2063616d706169676e206669727360008301527f74000000000000000000000000000000000000000000000000000000000000006020830152604082019050919050565b60006146c9602683615139565b91507f4f776e61626c653a206e6577206f776e657220697320746865207a65726f206160008301527f64647265737300000000000000000000000000000000000000000000000000006020830152604082019050919050565b600061472f603083615139565b91507f4f6e6c792072656369766572206f662063616d617069676e4964206f7220636f60008301527f757269657220697320616c6c6f776564000000000000000000000000000000006020830152604082019050919050565b6000614795601b83615139565b91507f536166654d6174683a206164646974696f6e206f766572666c6f7700000000006000830152602082019050919050565b60006147d5603483615139565b91507f4f6e6c7920636f6f7264696e61746f72206f662063616d617069676e4964206f60008301527f7220636f757269657220697320616c6c6f7765640000000000000000000000006020830152604082019050919050565b600061483b602583615139565b91507f4f6e6c79206d616e756661637475726572206f6620626174636820697320616c60008301527f6c6f7765640000000000000000000000000000000000000000000000000000006020830152604082019050919050565b60006148a1601b83615139565b91507f4f6e6c7920636f6f7264696e61746f7220697320616c6c6f77656400000000006000830152602082019050919050565b60006148e1602d83615139565b91507f5573657220616c726561647920686173206120726f6c6528736565207768696360008301527f68526f6c65206d6574686f6429000000000000000000000000000000000000006020830152604082019050919050565b6000614947602983615139565b91507f4f6e6c7920636f6f7264696e61746f72206f662063616d617069676e4964206960008301527f7320616c6c6f77656400000000000000000000000000000000000000000000006020830152604082019050919050565b60006149ad602083615139565b91507f4f776e61626c653a2063616c6c6572206973206e6f7420746865206f776e65726000830152602082019050919050565b60006149ed601583615139565b91507f4f6e6c792061646d696e20697320616c6c6f77656400000000000000000000006000830152602082019050919050565b6000614a2d601d83615139565b91507f61646420636f757269657220746f2063616d706169676e2066697273740000006000830152602082019050919050565b6000614a6d603083615139565b91507f4f6e6c79206d616e756661637475726572206f7220636f7572696572206f662060008301527f626174636820697320616c6c6f776564000000000000000000000000000000006020830152604082019050919050565b6000614ad3602f83615139565b91507f416363657373436f6e74726f6c3a2063616e206f6e6c792072656e6f756e636560008301527f20726f6c657320666f722073656c6600000000000000000000000000000000006020830152604082019050919050565b61024082016000820151614b436000850182614542565b506020820151614b566020850182614515565b506040820151614b696040850182614515565b506060820151614b7c6060850182614515565b506080820151614b8f6080850182614515565b5060a0820151614ba260a0850182614515565b5060c0820151614bb560c0850182614515565b5060e0820151614bc860e0850182614515565b50610100820151614bdd610100850182614515565b50610120820151614bf2610120850182614ca0565b50610140820151614c07610140850182614ca0565b50610160820151614c1c610160850182614ca0565b50610180820151614c31610180850182614ca0565b506101a0820151614c466101a0850182614ca0565b506101c0820151614c5b6101c0850182614ca0565b506101e0820151614c706101e085018261443b565b50610200820151614c8561020085018261443b565b50610220820151614c9a61022085018261443b565b50505050565b614ca9816151a5565b82525050565b614cb8816151a5565b82525050565b6000602082019050614cd3600083018461444a565b92915050565b60006020820190508181036000830152614cf381846144b7565b905092915050565b6000602082019050614d106000830184614524565b92915050565b6000602082019050614d2b6000830184614533565b92915050565b60006020820190508181036000830152614d4b8184614551565b905092915050565b60006020820190508181036000830152614d6c8161458a565b9050919050565b60006020820190508181036000830152614d8c816145f0565b9050919050565b60006020820190508181036000830152614dac81614656565b9050919050565b60006020820190508181036000830152614dcc816146bc565b9050919050565b60006020820190508181036000830152614dec81614722565b9050919050565b60006020820190508181036000830152614e0c81614788565b9050919050565b60006020820190508181036000830152614e2c816147c8565b9050919050565b60006020820190508181036000830152614e4c8161482e565b9050919050565b60006020820190508181036000830152614e6c81614894565b9050919050565b60006020820190508181036000830152614e8c816148d4565b9050919050565b60006020820190508181036000830152614eac8161493a565b9050919050565b60006020820190508181036000830152614ecc816149a0565b9050919050565b60006020820190508181036000830152614eec816149e0565b9050919050565b60006020820190508181036000830152614f0c81614a20565b9050919050565b60006020820190508181036000830152614f2c81614a60565b9050919050565b60006020820190508181036000830152614f4c81614ac6565b9050919050565b600061024082019050614f696000830184614b2c565b92915050565b6000602082019050614f846000830184614caf565b92915050565b6000604082019050614f9f6000830185614caf565b614fac6020830184614caf565b9392505050565b6000606082019050614fc86000830186614caf565b614fd56020830185614caf565b614fe26040830184614caf565b949350505050565b600060e082019050614fff600083018a614caf565b61500c6020830189614caf565b6150196040830188614caf565b615026606083018761444a565b615033608083018661444a565b81810360a08301526150458185614459565b905081810360c08301526150598184614459565b905098975050505050505050565b6000604051905081810181811067ffffffffffffffff8211171561508a57600080fd5b8060405250919050565b600067ffffffffffffffff8211156150ab57600080fd5b602082029050602081019050919050565b6000819050602082019050919050565b6000819050602082019050919050565b600081519050919050565b600081519050919050565b600081519050919050565b6000602082019050919050565b6000602082019050919050565b600082825260208201905092915050565b600082825260208201905092915050565b600082825260208201905092915050565b600061515582615185565b9050919050565b60008115159050919050565b6000819050919050565b600081905061518082615205565b919050565b600073ffffffffffffffffffffffffffffffffffffffff82169050919050565b6000819050919050565b60006151ba82615172565b9050919050565b60005b838110156151df5780820151818401526020810190506151c4565b838111156151ee576000848401525b50505050565b6000601f19601f8301169050919050565b6008811061520f57fe5b50565b61521b8161514a565b811461522657600080fd5b50565b61523281615168565b811461523d57600080fd5b50565b615249816151a5565b811461525457600080fd5b5056fea264697066735822122089011e3019c7f310e0cdddc1d13689d14b5c174cc5d8b2e1526dacf688ac1f1564736f6c63430006020033",
  "source": "pragma solidity ^0.6.0;\n\n/*\n * @dev Provides information about the current execution context, including the\n * sender of the transaction and its data. While these are generally available\n * via msg.sender and msg.data, they should not be accessed in such a direct\n * manner, since when dealing with GSN meta-transactions the account sending and\n * paying for execution may not be the actual sender (as far as an application\n * is concerned).\n *\n * This contract is only required for intermediate, library-like contracts.\n */\ncontract Context {\n    // Empty internal constructor, to prevent people from mistakenly deploying\n    // an instance of this contract, which should be used via inheritance.\n    constructor () internal {}\n\n    function _msgSender() internal view virtual returns (address payable) {\n        return msg.sender;\n    }\n\n    function _msgData() internal view virtual returns (bytes memory) {\n        this; // silence state mutability warning without generating bytecode - see https://github.com/ethereum/solidity/issues/2691\n        return msg.data;\n    }\n}\n\n\n/**\n * @dev Library for managing\n * https://en.wikipedia.org/wiki/Set_(abstract_data_type)[sets] of primitive\n * types.\n *\n * Sets have the following properties:\n *\n * - Elements are added, removed, and checked for existence in constant time\n * (O(1)).\n * - Elements are enumerated in O(n). No guarantees are made on the ordering.\n *\n * ```\n * contract Example {\n *     // Add the library methods\n *     using EnumerableSet for EnumerableSet.AddressSet;\n *\n *     // Declare a set state variable\n *     EnumerableSet.AddressSet private mySet;\n * }\n * ```\n *\n * As of v3.0.0, only sets of type `address` (`AddressSet`) and `uint256`\n * (`UintSet`) are supported.\n */\nlibrary EnumerableSet {\n    // To implement this library for multiple types with as little code\n    // repetition as possible, we write it in terms of a generic Set type with\n    // bytes32 values.\n    // The Set implementation uses private functions, and user-facing\n    // implementations (such as AddressSet) are just wrappers around the\n    // underlying Set.\n    // This means that we can only create new EnumerableSets for types that fit\n    // in bytes32.\n\n    struct Set {\n        // Storage of set values\n        bytes32[] _values;\n\n        // Position of the value in the `values` array, plus 1 because index 0\n        // means a value is not in the set.\n        mapping (bytes32 => uint256) _indexes;\n    }\n\n    /**\n     * @dev Add a value to a set. O(1).\n     *\n     * Returns true if the value was added to the set, that is if it was not\n     * already present.\n     */\n    function _add(Set storage set, bytes32 value) private returns (bool) {\n        if (!_contains(set, value)) {\n            set._values.push(value);\n            // The value is stored at length-1, but we add 1 to all indexes\n            // and use 0 as a sentinel value\n            set._indexes[value] = set._values.length;\n            return true;\n        } else {\n            return false;\n        }\n    }\n\n    /**\n     * @dev Removes a value from a set. O(1).\n     *\n     * Returns true if the value was removed from the set, that is if it was\n     * present.\n     */\n    function _remove(Set storage set, bytes32 value) private returns (bool) {\n        // We read and store the value's index to prevent multiple reads from the same storage slot\n        uint256 valueIndex = set._indexes[value];\n\n        if (valueIndex != 0) { // Equivalent to contains(set, value)\n            // To delete an element from the _values array in O(1), we swap the element to delete with the last one in\n            // the array, and then remove the last element (sometimes called as 'swap and pop').\n            // This modifies the order of the array, as noted in {at}.\n\n            uint256 toDeleteIndex = valueIndex - 1;\n            uint256 lastIndex = set._values.length - 1;\n\n            // When the value to delete is the last one, the swap operation is unnecessary. However, since this occurs\n            // so rarely, we still do the swap anyway to avoid the gas cost of adding an 'if' statement.\n\n            bytes32 lastvalue = set._values[lastIndex];\n\n            // Move the last value to the index where the value to delete is\n            set._values[toDeleteIndex] = lastvalue;\n            // Update the index for the moved value\n            set._indexes[lastvalue] = toDeleteIndex + 1; // All indexes are 1-based\n\n            // Delete the slot where the moved value was stored\n            set._values.pop();\n\n            // Delete the index for the deleted slot\n            delete set._indexes[value];\n\n            return true;\n        } else {\n            return false;\n        }\n    }\n\n    /**\n     * @dev Returns true if the value is in the set. O(1).\n     */\n    function _contains(Set storage set, bytes32 value) private view returns (bool) {\n        return set._indexes[value] != 0;\n    }\n\n    /**\n     * @dev Returns the number of values on the set. O(1).\n     */\n    function _length(Set storage set) private view returns (uint256) {\n        return set._values.length;\n    }\n\n   /**\n    * @dev Returns the value stored at position `index` in the set. O(1).\n    *\n    * Note that there are no guarantees on the ordering of values inside the\n    * array, and it may change when more values are added or removed.\n    *\n    * Requirements:\n    *\n    * - `index` must be strictly less than {length}.\n    */\n    function _at(Set storage set, uint256 index) private view returns (bytes32) {\n        require(set._values.length > index, \"EnumerableSet: index out of bounds\");\n        return set._values[index];\n    }\n\n    // AddressSet\n\n    struct AddressSet {\n        Set _inner;\n    }\n\n    /**\n     * @dev Add a value to a set. O(1).\n     *\n     * Returns true if the value was added to the set, that is if it was not\n     * already present.\n     */\n    function add(AddressSet storage set, address value) internal returns (bool) {\n        return _add(set._inner, bytes32(uint256(value)));\n    }\n\n    /**\n     * @dev Removes a value from a set. O(1).\n     *\n     * Returns true if the value was removed from the set, that is if it was\n     * present.\n     */\n    function remove(AddressSet storage set, address value) internal returns (bool) {\n        return _remove(set._inner, bytes32(uint256(value)));\n    }\n\n    /**\n     * @dev Returns true if the value is in the set. O(1).\n     */\n    function contains(AddressSet storage set, address value) internal view returns (bool) {\n        return _contains(set._inner, bytes32(uint256(value)));\n    }\n\n    /**\n     * @dev Returns the number of values in the set. O(1).\n     */\n    function length(AddressSet storage set) internal view returns (uint256) {\n        return _length(set._inner);\n    }\n\n   /**\n    * @dev Returns the value stored at position `index` in the set. O(1).\n    *\n    * Note that there are no guarantees on the ordering of values inside the\n    * array, and it may change when more values are added or removed.\n    *\n    * Requirements:\n    *\n    * - `index` must be strictly less than {length}.\n    */\n    function at(AddressSet storage set, uint256 index) internal view returns (address) {\n        return address(uint256(_at(set._inner, index)));\n    }\n\n\n    // UintSet\n\n    struct UintSet {\n        Set _inner;\n    }\n\n    /**\n     * @dev Add a value to a set. O(1).\n     *\n     * Returns true if the value was added to the set, that is if it was not\n     * already present.\n     */\n    function add(UintSet storage set, uint256 value) internal returns (bool) {\n        return _add(set._inner, bytes32(value));\n    }\n\n    /**\n     * @dev Removes a value from a set. O(1).\n     *\n     * Returns true if the value was removed from the set, that is if it was\n     * present.\n     */\n    function remove(UintSet storage set, uint256 value) internal returns (bool) {\n        return _remove(set._inner, bytes32(value));\n    }\n\n    /**\n     * @dev Returns true if the value is in the set. O(1).\n     */\n    function contains(UintSet storage set, uint256 value) internal view returns (bool) {\n        return _contains(set._inner, bytes32(value));\n    }\n\n    /**\n     * @dev Returns the number of values on the set. O(1).\n     */\n    function length(UintSet storage set) internal view returns (uint256) {\n        return _length(set._inner);\n    }\n\n   /**\n    * @dev Returns the value stored at position `index` in the set. O(1).\n    *\n    * Note that there are no guarantees on the ordering of values inside the\n    * array, and it may change when more values are added or removed.\n    *\n    * Requirements:\n    *\n    * - `index` must be strictly less than {length}.\n    */\n    function at(UintSet storage set, uint256 index) internal view returns (uint256) {\n        return uint256(_at(set._inner, index));\n    }\n}\n\npragma experimental ABIEncoderV2;\n\n\n\n\n\n\n\n/**\n * @dev Collection of functions related to the address type\n */\nlibrary Address {\n    /**\n     * @dev Returns true if `account` is a contract.\n     *\n     * [IMPORTANT]\n     * ====\n     * It is unsafe to assume that an address for which this function returns\n     * false is an externally-owned account (EOA) and not a contract.\n     *\n     * Among others, `isContract` will return false for the following\n     * types of addresses:\n     *\n     *  - an externally-owned account\n     *  - a contract in construction\n     *  - an address where a contract will be created\n     *  - an address where a contract lived, but was destroyed\n     * ====\n     */\n    function isContract(address account) internal view returns (bool) {\n        // According to EIP-1052, 0x0 is the value returned for not-yet created accounts\n        // and 0xc5d2460186f7233c927e7db2dcc703c0e500b653ca82273b7bfad8045d85a470 is returned\n        // for accounts without code, i.e. `keccak256('')`\n        bytes32 codehash;\n        bytes32 accountHash = 0xc5d2460186f7233c927e7db2dcc703c0e500b653ca82273b7bfad8045d85a470;\n        // solhint-disable-next-line no-inline-assembly\n        assembly { codehash := extcodehash(account) }\n        return (codehash != accountHash && codehash != 0x0);\n    }\n\n    /**\n     * @dev Replacement for Solidity's `transfer`: sends `amount` wei to\n     * `recipient`, forwarding all available gas and reverting on errors.\n     *\n     * https://eips.ethereum.org/EIPS/eip-1884[EIP1884] increases the gas cost\n     * of certain opcodes, possibly making contracts go over the 2300 gas limit\n     * imposed by `transfer`, making them unable to receive funds via\n     * `transfer`. {sendValue} removes this limitation.\n     *\n     * https://diligence.consensys.net/posts/2019/09/stop-using-soliditys-transfer-now/[Learn more].\n     *\n     * IMPORTANT: because control is transferred to `recipient`, care must be\n     * taken to not create reentrancy vulnerabilities. Consider using\n     * {ReentrancyGuard} or the\n     * https://solidity.readthedocs.io/en/v0.5.11/security-considerations.html#use-the-checks-effects-interactions-pattern[checks-effects-interactions pattern].\n     */\n    function sendValue(address payable recipient, uint256 amount) internal {\n        require(address(this).balance >= amount, \"Address: insufficient balance\");\n\n        // solhint-disable-next-line avoid-low-level-calls, avoid-call-value\n        (bool success, ) = recipient.call{ value: amount }(\"\");\n        require(success, \"Address: unable to send value, recipient may have reverted\");\n    }\n}\n\n\n\n\n/**\n * @dev Contract module that allows children to implement role-based access\n * control mechanisms.\n *\n * Roles are referred to by their `bytes32` identifier. These should be exposed\n * in the external API and be unique. The best way to achieve this is by\n * using `public constant` hash digests:\n *\n * ```\n * bytes32 public constant MY_ROLE = keccak256(\"MY_ROLE\");\n * ```\n *\n * Roles can be used to represent a set of permissions. To restrict access to a\n * function call, use {hasRole}:\n *\n * ```\n * function foo() public {\n *     require(hasRole(MY_ROLE, _msgSender()));\n *     ...\n * }\n * ```\n *\n * Roles can be granted and revoked dynamically via the {grantRole} and\n * {revokeRole} functions. Each role has an associated admin role, and only\n * accounts that have a role's admin role can call {grantRole} and {revokeRole}.\n *\n * By default, the admin role for all roles is `DEFAULT_ADMIN_ROLE`, which means\n * that only accounts with this role will be able to grant or revoke other\n * roles. More complex role relationships can be created by using\n * {_setRoleAdmin}.\n */\nabstract contract AccessControl is Context {\n    using EnumerableSet for EnumerableSet.AddressSet;\n    using Address for address;\n\n    struct RoleData {\n        EnumerableSet.AddressSet members;\n        bytes32 adminRole;\n    }\n\n    mapping(bytes32 => RoleData) private _roles;\n    mapping(address => bytes32) public whichRole;\n\n    bytes32 public constant DEFAULT_ADMIN_ROLE = 0x00;\n\n    /**\n     * @dev Emitted when `account` is granted `role`.\n     *\n     * `sender` is the account that originated the contract call, an admin role\n     * bearer except when using {_setupRole}.\n     */\n    event RoleGranted(\n        bytes32 indexed role,\n        address indexed account,\n        address indexed sender\n    );\n\n    /**\n     * @dev Emitted when `account` is revoked `role`.\n     *\n     * `sender` is the account that originated the contract call:\n     *   - if using `revokeRole`, it is the admin role bearer\n     *   - if using `renounceRole`, it is the role bearer (i.e. `account`)\n     */\n    event RoleRevoked(\n        bytes32 indexed role,\n        address indexed account,\n        address indexed sender\n    );\n\n    /**\n     * @dev Returns `true` if `account` has been granted `role`.\n     */\n    function hasRole(bytes32 role, address account) public view returns (bool) {\n        return _roles[role].members.contains(account);\n    }\n\n    /**\n     * @dev Returns the number of accounts that have `role`. Can be used\n     * together with {getRoleMember} to enumerate all bearers of a role.\n     */\n    function getRoleMemberCount(bytes32 role) public view returns (uint256) {\n        return _roles[role].members.length();\n    }\n\n    /**\n     * @dev Returns one of the accounts that have `role`. `index` must be a\n     * value between 0 and {getRoleMemberCount}, non-inclusive.\n     *\n     * Role bearers are not sorted in any particular way, and their ordering may\n     * change at any point.\n     *\n     * WARNING: When using {getRoleMember} and {getRoleMemberCount}, make sure\n     * you perform all queries on the same block. See the following\n     * https://forum.openzeppelin.com/t/iterating-over-elements-on-enumerableset-in-openzeppelin-contracts/2296[forum post]\n     * for more information.\n     */\n    function getRoleMember(bytes32 role, uint256 index)\n        public\n        view\n        returns (address)\n    {\n        return _roles[role].members.at(index);\n    }\n\n    /**\n     * @dev Returns the admin role that controls `role`. See {grantRole} and\n     * {revokeRole}.\n     *\n     * To change a role's admin, use {_setRoleAdmin}.\n     */\n    function getRoleAdmin(bytes32 role) public view returns (bytes32) {\n        return _roles[role].adminRole;\n    }\n\n    /**\n     * @dev Grants `role` to `account`.\n     *\n     * If `account` had not been already granted `role`, emits a {RoleGranted}\n     * event.\n     *\n     * Requirements:\n     *\n     * - the caller must have ``role``'s admin role.\n     */\n    function grantRole(bytes32 role, address account) public virtual {\n        require(\n            hasRole(_roles[role].adminRole, _msgSender()),\n            \"AccessControl: sender must be an admin to grant\"\n        );\n        _grantRole(role, account);\n    }\n\n    /**\n     * @dev Revokes `role` from `account`.\n     *\n     * If `account` had been granted `role`, emits a {RoleRevoked} event.\n     *\n     * Requirements:\n     *\n     * - the caller must have ``role``'s admin role.\n     */\n    function revokeRole(bytes32 role, address account) internal virtual {\n        require(\n            hasRole(_roles[role].adminRole, _msgSender()),\n            \"AccessControl: sender must be an admin to revoke\"\n        );\n\n        _revokeRole(role, account);\n    }\n\n    /**\n     * @dev Revokes `role` from the calling account.\n     *\n     * Roles are often managed via {grantRole} and {revokeRole}: this function's\n     * purpose is to provide a mechanism for accounts to lose their privileges\n     * if they are compromised (such as when a trusted device is misplaced).\n     *\n     * If the calling account had been granted `role`, emits a {RoleRevoked}\n     * event.\n     *\n     * Requirements:\n     *\n     * - the caller must be `account`.\n     */\n    function renounceRole(bytes32 role, address account) public virtual {\n        require(\n            account == _msgSender(),\n            \"AccessControl: can only renounce roles for self\"\n        );\n\n        _revokeRole(role, account);\n    }\n\n    /**\n     * @dev Grants `role` to `account`.\n     *\n     * If `account` had not been already granted `role`, emits a {RoleGranted}\n     * event. Note that unlike {grantRole}, this function doesn't perform any\n     * checks on the calling account.\n     *\n     * [WARNING]\n     * ====\n     * This function should only be called from the constructor when setting\n     * up the initial roles for the system.\n     *\n     * Using this function in any other way is effectively circumventing the admin\n     * system imposed by {AccessControl}.\n     * ====\n     */\n    function _setupRole(bytes32 role, address account) internal virtual {\n        _grantRole(role, account);\n    }\n\n    /**\n     * @dev Sets `adminRole` as ``role``'s admin role.\n     */\n    function _setRoleAdmin(bytes32 role, bytes32 adminRole) internal virtual {\n        _roles[role].adminRole = adminRole;\n    }\n\n    function _grantRole(bytes32 role, address account) private {\n        require(\n            whichRole[account] ==\n                0x0000000000000000000000000000000000000000000000000000000000000000,\n            \"User already has a role(see whichRole method)\"\n        );\n        whichRole[account] = role;\n        if (_roles[role].members.add(account)) {\n            emit RoleGranted(role, account, _msgSender());\n        }\n    }\n\n    function _revokeRole(bytes32 role, address account) private {\n        whichRole[account] = 0x0000000000000000000000000000000000000000000000000000000000000000;\n        if (_roles[role].members.remove(account)) {\n            emit RoleRevoked(role, account, _msgSender());\n        }\n    }\n}\n\n\n\n\n/**\n * @dev Contract module which provides a basic access control mechanism, where\n * there is an account (an owner) that can be granted exclusive access to\n * specific functions.\n *\n * By default, the owner account will be the one that deploys the contract. This\n * can later be changed with {transferOwnership}.\n *\n * This module is used through inheritance. It will make available the modifier\n * `onlyOwner`, which can be applied to your functions to restrict their use to\n * the owner.\n */\ncontract Ownable is Context {\n    address private _owner;\n\n    event OwnershipTransferred(address indexed previousOwner, address indexed newOwner);\n\n    /**\n     * @dev Initializes the contract setting the deployer as the initial owner.\n     */\n    constructor () internal {\n        address msgSender = _msgSender();\n        _owner = msgSender;\n        emit OwnershipTransferred(address(0), msgSender);\n    }\n\n    /**\n     * @dev Returns the address of the current owner.\n     */\n    function owner() public view returns (address) {\n        return _owner;\n    }\n\n    /**\n     * @dev Throws if called by any account other than the owner.\n     */\n    modifier onlyOwner() {\n        require(_owner == _msgSender(), \"Ownable: caller is not the owner\");\n        _;\n    }\n\n    /**\n     * @dev Leaves the contract without owner. It will not be possible to call\n     * `onlyOwner` functions anymore. Can only be called by the current owner.\n     *\n     * NOTE: Renouncing ownership will leave the contract without an owner,\n     * thereby removing any functionality that is only available to the owner.\n     */\n    function renounceOwnership() public virtual onlyOwner {\n        emit OwnershipTransferred(_owner, address(0));\n        _owner = address(0);\n    }\n\n    /**\n     * @dev Transfers ownership of the contract to a new account (`newOwner`).\n     * Can only be called by the current owner.\n     */\n    function transferOwnership(address newOwner) public virtual onlyOwner {\n        require(newOwner != address(0), \"Ownable: new owner is the zero address\");\n        emit OwnershipTransferred(_owner, newOwner);\n        _owner = newOwner;\n    }\n}\n\n\n\n/**\n * @dev Wrappers over Solidity's arithmetic operations with added overflow\n * checks.\n *\n * Arithmetic operations in Solidity wrap on overflow. This can easily result\n * in bugs, because programmers usually assume that an overflow raises an\n * error, which is the standard behavior in high level programming languages.\n * `SafeMath` restores this intuition by reverting the transaction when an\n * operation overflows.\n *\n * Using this library instead of the unchecked operations eliminates an entire\n * class of bugs, so it's recommended to use it always.\n */\nlibrary SafeMath {\n    /**\n     * @dev Returns the addition of two unsigned integers, reverting on\n     * overflow.\n     *\n     * Counterpart to Solidity's `+` operator.\n     *\n     * Requirements:\n     * - Addition cannot overflow.\n     */\n    function add(uint256 a, uint256 b) internal pure returns (uint256) {\n        uint256 c = a + b;\n        require(c >= a, \"SafeMath: addition overflow\");\n\n        return c;\n    }\n\n    /**\n     * @dev Returns the subtraction of two unsigned integers, reverting on\n     * overflow (when the result is negative).\n     *\n     * Counterpart to Solidity's `-` operator.\n     *\n     * Requirements:\n     * - Subtraction cannot overflow.\n     */\n    function sub(uint256 a, uint256 b) internal pure returns (uint256) {\n        return sub(a, b, \"SafeMath: subtraction overflow\");\n    }\n\n    /**\n     * @dev Returns the subtraction of two unsigned integers, reverting with custom message on\n     * overflow (when the result is negative).\n     *\n     * Counterpart to Solidity's `-` operator.\n     *\n     * Requirements:\n     * - Subtraction cannot overflow.\n     */\n    function sub(uint256 a, uint256 b, string memory errorMessage) internal pure returns (uint256) {\n        require(b <= a, errorMessage);\n        uint256 c = a - b;\n\n        return c;\n    }\n\n    /**\n     * @dev Returns the multiplication of two unsigned integers, reverting on\n     * overflow.\n     *\n     * Counterpart to Solidity's `*` operator.\n     *\n     * Requirements:\n     * - Multiplication cannot overflow.\n     */\n    function mul(uint256 a, uint256 b) internal pure returns (uint256) {\n        // Gas optimization: this is cheaper than requiring 'a' not being zero, but the\n        // benefit is lost if 'b' is also tested.\n        // See: https://github.com/OpenZeppelin/openzeppelin-contracts/pull/522\n        if (a == 0) {\n            return 0;\n        }\n\n        uint256 c = a * b;\n        require(c / a == b, \"SafeMath: multiplication overflow\");\n\n        return c;\n    }\n\n    /**\n     * @dev Returns the integer division of two unsigned integers. Reverts on\n     * division by zero. The result is rounded towards zero.\n     *\n     * Counterpart to Solidity's `/` operator. Note: this function uses a\n     * `revert` opcode (which leaves remaining gas untouched) while Solidity\n     * uses an invalid opcode to revert (consuming all remaining gas).\n     *\n     * Requirements:\n     * - The divisor cannot be zero.\n     */\n    function div(uint256 a, uint256 b) internal pure returns (uint256) {\n        return div(a, b, \"SafeMath: division by zero\");\n    }\n\n    /**\n     * @dev Returns the integer division of two unsigned integers. Reverts with custom message on\n     * division by zero. The result is rounded towards zero.\n     *\n     * Counterpart to Solidity's `/` operator. Note: this function uses a\n     * `revert` opcode (which leaves remaining gas untouched) while Solidity\n     * uses an invalid opcode to revert (consuming all remaining gas).\n     *\n     * Requirements:\n     * - The divisor cannot be zero.\n     */\n    function div(uint256 a, uint256 b, string memory errorMessage) internal pure returns (uint256) {\n        // Solidity only automatically asserts when dividing by 0\n        require(b > 0, errorMessage);\n        uint256 c = a / b;\n        // assert(a == b * c + a % b); // There is no case in which this doesn't hold\n\n        return c;\n    }\n\n    /**\n     * @dev Returns the remainder of dividing two unsigned integers. (unsigned integer modulo),\n     * Reverts when dividing by zero.\n     *\n     * Counterpart to Solidity's `%` operator. This function uses a `revert`\n     * opcode (which leaves remaining gas untouched) while Solidity uses an\n     * invalid opcode to revert (consuming all remaining gas).\n     *\n     * Requirements:\n     * - The divisor cannot be zero.\n     */\n    function mod(uint256 a, uint256 b) internal pure returns (uint256) {\n        return mod(a, b, \"SafeMath: modulo by zero\");\n    }\n\n    /**\n     * @dev Returns the remainder of dividing two unsigned integers. (unsigned integer modulo),\n     * Reverts with custom message when dividing by zero.\n     *\n     * Counterpart to Solidity's `%` operator. This function uses a `revert`\n     * opcode (which leaves remaining gas untouched) while Solidity uses an\n     * invalid opcode to revert (consuming all remaining gas).\n     *\n     * Requirements:\n     * - The divisor cannot be zero.\n     */\n    function mod(uint256 a, uint256 b, string memory errorMessage) internal pure returns (uint256) {\n        require(b != 0, errorMessage);\n        return a % b;\n    }\n}\n\n\n\n\n\n\n\n\ncontract Roles is AccessControl {\n    //keccak256(\"admin\")\n    bytes32 public constant ADMIN_ROLE = 0xf23ec0bb4210edd5cba85afd05127efcd2fc6a781bfed49188da1081670b22d8;\n    //keccak256(\"coordinator\")\n    bytes32 public constant COORDINATOR_ROLE = 0xaf8c8b3d1b230c888f16d0aac400b28aa51e631d580aaa7cb46e571590ed44e7;\n    //keccak256(\"courier\")\n    bytes32 public constant COURIER_ROLE = 0x7fc3771f539a03c47afbbf258702c19273ef5e735e24ee7978081dc07288c687;\n    //keccak256(\"manufaturer\")\n    bytes32 public constant MANUFACTURER_ROLE = 0xb528929ed79eb79a87ae6f578d3125509c91bfea9ac8b7fb9f69aa0bc28298dd;\n    //keccka256(\"receiver\")\n    bytes32 public constant RECEIVER_ROLE = 0x5e784e45feb63c375016d4ce5c52a57b0a48b8a170bc2e31463be0d03d1c4db6;\n\n    constructor(address _admin) public {\n        _setupRole(ADMIN_ROLE, _admin);\n        _setRoleAdmin(COORDINATOR_ROLE, ADMIN_ROLE);\n        _setRoleAdmin(COURIER_ROLE, COORDINATOR_ROLE);\n        _setRoleAdmin(MANUFACTURER_ROLE, COORDINATOR_ROLE);\n        _setRoleAdmin(RECEIVER_ROLE, COORDINATOR_ROLE);\n    }\n\n    modifier onlyAdmin() {\n        require(hasRole(ADMIN_ROLE, _msgSender()), \"Only admin is allowed\");\n        _;\n    }\n    modifier onlyCoordinator() {\n        require(\n            hasRole(COORDINATOR_ROLE, _msgSender()),\n            \"Only coordinator is allowed\"\n        );\n        _;\n    }\n    modifier onlyCourier() {\n        require(hasRole(COURIER_ROLE, _msgSender()), \"Only courier is allowed\");\n        _;\n    }\n    modifier onlyManufaturer() {\n        require(\n            hasRole(MANUFACTURER_ROLE, _msgSender()),\n            \"Only manufaturer is allowed\"\n        );\n        _;\n    }\n    function getRole(address _who) public view returns(bytes32){\n          if(hasRole(ADMIN_ROLE,_who)) return ADMIN_ROLE;\n          if(hasRole(COORDINATOR_ROLE,_who)) return COORDINATOR_ROLE;\n          if(hasRole(COURIER_ROLE,_who)) return COURIER_ROLE;\n          if(hasRole(MANUFACTURER_ROLE,_who)) return MANUFACTURER_ROLE;\n          if(hasRole(RECEIVER_ROLE,_who)) return RECEIVER_ROLE;\n    }\n}\n\n\n\ncontract Storage {\n    enum BatchStages {\n        NotStarted,\n        PLAPacked,\n        PLAPickedUpByCourier1, //states chages to this with sig of coordinator and courier both\n        PLARecivedByManufaturer, //states chages to this with sig of courier and manufaturer both\n        MasksReady,\n        MasksPickedUpByCourier2, //states chages to this with sig of manufature and courier both\n        MasksRceivedByReceiver, //states chages to this with sig of courier and reciver both\n        MasksVerifiedForQuality\n    }\n    struct AddressSet {\n        address[] addresses;\n        mapping(address => uint256) addressIndex;\n    }\n    // //what else?\n    // enum CampaignStages{\n    //     campaignStarted,\n    //     campaignFinished\n    // }\n    struct Batch {\n        BatchStages stage;\n        bool isPLAPickedUpCourier1;\n        bool isPLAPickedUpCoordinator;\n        bool isPLARecivedCourier1;\n        bool isPLAReceivedManufacturer;\n        bool isMasksPickedUpCourier2;\n        bool isMasksPickedUpManufacturer;\n        bool isMasksaReceviedCourier2;\n        bool isMasksReceviedReceviver;\n        uint256 amountOfPLA;\n        uint256 amountOfExpectedMasks;\n        uint256 amountOfMasksMade;\n        uint256 tfForDeliveryToManufacturer;\n        uint256 tfForMakingMasks;\n        uint256 tfForDeliveryToReciver;\n        address courier1;\n        address courier2;\n        address manufacturer;\n    }\n\n    struct Campaign {\n        // CampaignStages stage,\n        uint256 totalPLA;\n        uint256 currentPLA;\n        uint256 batchCounter;\n        address coordinator;\n        address receiver;\n        AddressSet manufacturers;\n        AddressSet couriers;\n        mapping(uint256 => Batch) batches;\n        mapping(address => uint256[]) belongsToBatch;\n        // uint256 batchSize;\n    }\n\n    mapping(uint256 => Campaign) campaigns; //campaign's Index in the campaigns array + 1 (becuse 0 means it is not in the array)\n    uint256 public campaignCounter = 1;\n    mapping(address => uint256[]) belongsToCampign;\n}\n\n\ncontract CampaignGenerator is Ownable, Roles, Storage {\n    using SafeMath for uint256;\n\n    event CampaignStarted(uint256 campaignId);\n    event PLAPacked(uint256 campaignId, uint256 branchId);\n    event PLAPickedUpByCourier1(uint256 campaignId, uint256 branchId); //emits with sig of coordinator and courier both\n    event PLARecivedByManufacturer(uint256 campaignId, uint256 branchId); //emits with sig of courier and manufaturer both\n    event MasksReady(\n        uint256 campaignId,\n        uint256 branchId,\n        uint256 amountOfMasksMade\n    );\n    event MasksPickedUpByCourier2(uint256 campaignId, uint256 branchId); //emits with sig of manufature and courier both\n    event MasksRceivedByReceiver(uint256 campaignId, uint256 branchId); //emitswith sig of courier and reciver both\n    event MasksVerifiedForQuality(uint256 campaignId, uint256 branchId);\n\n    constructor(address _admin) public Roles(_admin) {}\n\n    function makeCoordinator(address _who) public onlyAdmin() {\n        grantRole(COORDINATOR_ROLE, _who);\n    }\n\n    function startCampaign(\n        address[] memory _manufacturers,\n        address[] memory _couriers,\n        address _receiver,\n        uint256 _totalPLA\n    ) public onlyCoordinator() returns (uint256 campaignId) {\n        campaignId = campaignCounter;\n        Campaign storage campaign = campaigns[campaignId];\n        campaignCounter = campaignCounter.add(1);\n\n        belongsToCampign[_msgSender()].push(campaignId);\n        //In future iteration campaign id can be deterministically generated form title and description of the campaign i.e. keccak(title+description)\n\n        campaign.coordinator = _msgSender();\n\n        for (uint256 i = 0; i < _manufacturers.length; i = i.add(1)) {\n            grantRole(MANUFACTURER_ROLE, _manufacturers[i]);\n            campaign.manufacturers.addressIndex[_manufacturers[i]] = i.add(1);\n            belongsToCampign[_manufacturers[i]].push(campaignId);\n        }\n        for (uint256 i = 0; i < _couriers.length; i = i.add(1)) {\n            grantRole(COURIER_ROLE, _couriers[i]);\n            campaign.couriers.addressIndex[_couriers[i]] = i.add(1);\n            belongsToCampign[_couriers[i]].push(campaignId);\n        }\n\n        campaign.manufacturers.addresses = _manufacturers;\n        campaign.couriers.addresses = _couriers;\n\n        //add receiver\n        grantRole(RECEIVER_ROLE, _receiver);\n        campaign.receiver = _receiver;\n        belongsToCampign[_receiver].push(campaignId);\n        campaign.batchCounter = 0;\n\n        campaign.totalPLA = _totalPLA;\n        campaign.currentPLA = _totalPLA;\n        emit CampaignStarted(campaignId);\n    }\n\n    function addManufacturers(\n        uint256 _campaignId,\n        address[] memory _manufacturers\n    ) public onlyCoordinator() {\n        require(\n            campaigns[_campaignId].coordinator == _msgSender(),\n            \"Only coordinator of camapignId is allowed\"\n        );\n        Campaign storage campaign = campaigns[_campaignId];\n        uint256 arrayLength = campaign.manufacturers.addresses.length;\n\n        for (uint256 i = 0; i < _manufacturers.length; i = i.add(1)) {\n            grantRole(MANUFACTURER_ROLE, _manufacturers[i]);\n\n            campaign.manufacturers.addresses.push(_manufacturers[i]);\n            campaign.manufacturers.addressIndex[_manufacturers[i]] = arrayLength\n                .add(i.add(1));\n            belongsToCampign[_manufacturers[i]].push(_campaignId);\n        }\n    }\n\n    function addCouriers(uint256 _campaignId, address[] memory _couriers)\n        public\n        onlyCoordinator()\n    {\n        require(\n            campaigns[_campaignId].coordinator == _msgSender(),\n            \"Only coordinator of camapignId is allowed\"\n        );\n        Campaign storage campaign = campaigns[_campaignId];\n        uint256 arrayLength = campaign.couriers.addresses.length;\n\n        for (uint256 i = 0; i < _couriers.length; i = i.add(1)) {\n            grantRole(MANUFACTURER_ROLE, _couriers[i]);\n\n            campaign.couriers.addresses.push(_couriers[i]);\n            campaign.couriers.addressIndex[_couriers[i]] = arrayLength.add(\n                i.add(1)\n            );\n            belongsToCampign[_couriers[i]].push(_campaignId);\n        }\n    }\n\n    function createNewBatch(\n        uint256 _campaignId,\n        uint256 _amountOfPLA,\n        uint256 _amountOfExpectedMasks,\n        uint256 _tfForDeliveryToManufacturer,\n        uint256 _tfForMakingMasks,\n        uint256 _tfForDeliveryToReciver,\n        address _courier1,\n        address _courier2,\n        address _manufacturer\n    ) public onlyCoordinator() returns (uint256 batchId) {\n        require(\n            campaigns[_campaignId].coordinator == _msgSender(),\n            \"Only coordinator of camapignId is allowed\"\n        );\n        require(\n            campaigns[_campaignId].couriers.addressIndex[_courier1] != 0,\n            \"add courier to campaign first\"\n        );\n        require(\n            campaigns[_campaignId].couriers.addressIndex[_courier2] != 0,\n            \"add courier to campaign first\"\n        );\n        require(\n            campaigns[_campaignId].manufacturers.addressIndex[_manufacturer] !=\n                0,\n            \"add manufaturer to campaign first\"\n        );\n        campaigns[_campaignId].batchCounter = campaigns[_campaignId]\n            .batchCounter\n            .add(1);\n\n        batchId = campaigns[_campaignId].batchCounter;\n        Batch storage batch = campaigns[_campaignId].batches[batchId];\n        //substract the PLA from currentPLA\n        campaigns[_campaignId].currentPLA = campaigns[_campaignId]\n            .currentPLA\n            .sub(_amountOfPLA);\n        //update the batchStage\n        batch.stage = BatchStages.PLAPacked;\n\n        batch.amountOfPLA = _amountOfPLA;\n        batch.amountOfExpectedMasks = _amountOfExpectedMasks;\n\n        batch.tfForDeliveryToManufacturer = _tfForDeliveryToManufacturer;\n\n        batch.tfForMakingMasks = _tfForMakingMasks;\n\n        batch.tfForDeliveryToReciver = _tfForDeliveryToReciver;\n\n        batch.courier1 = _courier1;\n        campaigns[_campaignId].belongsToBatch[_courier1].push(batchId);\n\n        batch.courier2 = _courier2;\n        campaigns[_campaignId].belongsToBatch[_courier2].push(batchId);\n\n        batch.manufacturer = _manufacturer;\n        campaigns[_campaignId].belongsToBatch[_manufacturer].push(batchId);\n\n        emit PLAPacked(_campaignId, batchId);\n    }\n\n    //the chain Starts\n    function confirmPLAPickedUpByCourier1(uint256 _campaignId, uint256 _batchId)\n        public\n        returns (bool stageChange)\n    {\n        require(\n            campaigns[_campaignId].coordinator == _msgSender() ||\n                campaigns[_campaignId].batches[_batchId].courier1 ==\n                _msgSender(),\n            \"Only coordinator of camapignId or courier is allowed\"\n        );\n        stageChange = false;\n        if (campaigns[_campaignId].coordinator == _msgSender()) {\n            campaigns[_campaignId].batches[_batchId]\n                .isPLAPickedUpCoordinator = true;\n        }\n        if (campaigns[_campaignId].batches[_batchId].courier1 == _msgSender()) {\n            campaigns[_campaignId].batches[_batchId]\n                .isPLAPickedUpCourier1 = true;\n        }\n        if (\n            campaigns[_campaignId].batches[_batchId].isPLAPickedUpCoordinator ==\n            true &&\n            campaigns[_campaignId].batches[_batchId].isPLAPickedUpCourier1 ==\n            true\n        ) {\n            campaigns[_campaignId].batches[_batchId].stage = BatchStages\n                .PLAPickedUpByCourier1;\n\n            emit PLAPickedUpByCourier1(_campaignId, _batchId);\n            stageChange = true;\n        }\n    }\n\n    function confirmPLARecivedByManufacturer(\n        uint256 _campaignId,\n        uint256 _batchId\n    ) public returns (bool stageChange) {\n        require(\n            campaigns[_campaignId].batches[_batchId].manufacturer ==\n                _msgSender() ||\n                campaigns[_campaignId].batches[_batchId].courier1 ==\n                _msgSender(),\n            \"Only manufacturer or courier of batch is allowed\"\n        );\n        stageChange = false;\n        if (\n            campaigns[_campaignId].batches[_batchId].manufacturer ==\n            _msgSender()\n        ) {\n            campaigns[_campaignId].batches[_batchId]\n                .isPLAReceivedManufacturer = true;\n        }\n        if (campaigns[_campaignId].batches[_batchId].courier1 == _msgSender()) {\n            campaigns[_campaignId].batches[_batchId]\n                .isPLARecivedCourier1 = true;\n        }\n        if (\n            campaigns[_campaignId].batches[_batchId]\n                .isPLAReceivedManufacturer ==\n            true &&\n            campaigns[_campaignId].batches[_batchId].isPLARecivedCourier1 ==\n            true\n        ) {\n            campaigns[_campaignId].batches[_batchId].stage = BatchStages\n                .PLARecivedByManufaturer;\n\n            emit PLARecivedByManufacturer(_campaignId, _batchId);\n            stageChange = true;\n        }\n    }\n\n    function confirmMasksMade(\n        uint256 _campaignId,\n        uint256 _batchId,\n        uint256 _amountOfMasksMade\n    ) public {\n        require(\n            campaigns[_campaignId].batches[_batchId].manufacturer ==\n                _msgSender(),\n            \"Only manufacturer of batch is allowed\"\n        );\n        campaigns[_campaignId].batches[_batchId]\n            .amountOfMasksMade = _amountOfMasksMade;\n        campaigns[_campaignId].batches[_batchId].stage = BatchStages.MasksReady;\n        emit MasksReady(_campaignId, _batchId, _amountOfMasksMade);\n    }\n\n    function confirmMasksPickedUpByCourier2(\n        uint256 _campaignId,\n        uint256 _batchId\n    ) public returns (bool stageChange) {\n        require(\n            campaigns[_campaignId].batches[_batchId].manufacturer ==\n                _msgSender() ||\n                campaigns[_campaignId].batches[_batchId].courier2 ==\n                _msgSender(),\n            \"Only manufacturer or courier of batch is allowed\"\n        );\n        stageChange = false;\n        if (\n            campaigns[_campaignId].batches[_batchId].manufacturer ==\n            _msgSender()\n        ) {\n            campaigns[_campaignId].batches[_batchId]\n                .isMasksPickedUpManufacturer = true;\n        }\n        if (campaigns[_campaignId].batches[_batchId].courier2 == _msgSender()) {\n            campaigns[_campaignId].batches[_batchId]\n                .isMasksPickedUpCourier2 = true;\n        }\n        if (\n            campaigns[_campaignId].batches[_batchId]\n                .isMasksPickedUpManufacturer ==\n            true &&\n            campaigns[_campaignId].batches[_batchId].isMasksPickedUpCourier2 ==\n            true\n        ) {\n            campaigns[_campaignId].batches[_batchId].stage = BatchStages\n                .MasksPickedUpByCourier2;\n\n            emit MasksPickedUpByCourier2(_campaignId, _batchId);\n            stageChange = true;\n        }\n    }\n\n    function confirmMasksRceivedByReceiver(\n        uint256 _campaignId,\n        uint256 _batchId\n    ) public returns (bool stageChange) {\n        require(\n            campaigns[_campaignId].receiver == _msgSender() ||\n                campaigns[_campaignId].batches[_batchId].courier2 ==\n                _msgSender(),\n            \"Only reciver of camapignId or courier is allowed\"\n        );\n        stageChange = false;\n        if (campaigns[_campaignId].receiver == _msgSender()) {\n            campaigns[_campaignId].batches[_batchId]\n                .isMasksReceviedReceviver = true;\n        }\n        if (campaigns[_campaignId].batches[_batchId].courier2 == _msgSender()) {\n            campaigns[_campaignId].batches[_batchId]\n                .isMasksaReceviedCourier2 = true;\n        }\n        if (\n            campaigns[_campaignId].batches[_batchId].isMasksReceviedReceviver ==\n            true &&\n            campaigns[_campaignId].batches[_batchId].isMasksaReceviedCourier2 ==\n            true\n        ) {\n            campaigns[_campaignId].batches[_batchId].stage = BatchStages\n                .MasksRceivedByReceiver;\n\n            emit MasksRceivedByReceiver(_campaignId, _batchId);\n            stageChange = true;\n        }\n    }\n\n    //for test\n    function getCampaignDetalis(uint256 _campaignId)\n        public\n        view\n        returns (\n            uint256 totalPLA,\n            uint256 currentPLA,\n            uint256 totalBatches,\n            address coordinator,\n            address receiver,\n            address[] memory manufacturers,\n            address[] memory couriers\n        )\n    {\n        coordinator = campaigns[_campaignId].coordinator;\n        totalPLA = campaigns[_campaignId].totalPLA;\n        currentPLA = campaigns[_campaignId].currentPLA;\n        receiver = campaigns[_campaignId].receiver;\n        totalBatches = campaigns[_campaignId].batchCounter;\n        manufacturers = campaigns[_campaignId].manufacturers.addresses;\n        couriers = campaigns[_campaignId].couriers.addresses;\n    }\n\n    function getBatchDetails(uint256 _campaignId, uint256 _batchId)\n        public\n        view\n        returns (Batch memory batch)\n    {\n        batch = campaigns[_campaignId].batches[_batchId];\n    }\n\n    //given the address returns all the campaigns it is part of\n    function partOfWhichCampaigns(address _who)\n        public\n        view\n        returns (uint256[] memory)\n    {\n        return belongsToCampign[_who];\n    }\n\n    //given campaignId and address returns all the batches it is part of for that capaign\n    function partOfWhichBatches(uint256 _campaignId, address _who)\n        public\n        view\n        returns (uint256[] memory)\n    {\n        return campaigns[_campaignId].belongsToBatch[_who];\n    }\n}\n",
  "sourcePath": "/media/dhiraj/code/gitcoin/COVID19-supply-chain-tracking-for-3D-printed-protective-gear/ourContracts/contracts/CampaignGenerator_flat.sol",
  "compiler": {
    "name": "solc",
    "version": "0.6.2+commit.bacdbe57.Emscripten.clang"
  },
  "schemaVersion": "3.1.0",
  "updatedAt": "2020-05-07T14:58:57.618Z",
  "devdoc": {
    "methods": {
      "getRoleAdmin(bytes32)": {
        "details": "Returns the admin role that controls `role`. See {grantRole} and {revokeRole}.     * To change a role's admin, use {_setRoleAdmin}."
      },
      "getRoleMember(bytes32,uint256)": {
        "details": "Returns one of the accounts that have `role`. `index` must be a value between 0 and {getRoleMemberCount}, non-inclusive.     * Role bearers are not sorted in any particular way, and their ordering may change at any point.     * WARNING: When using {getRoleMember} and {getRoleMemberCount}, make sure you perform all queries on the same block. See the following https://forum.openzeppelin.com/t/iterating-over-elements-on-enumerableset-in-openzeppelin-contracts/2296[forum post] for more information."
      },
      "getRoleMemberCount(bytes32)": {
        "details": "Returns the number of accounts that have `role`. Can be used together with {getRoleMember} to enumerate all bearers of a role."
      },
      "grantRole(bytes32,address)": {
        "details": "Grants `role` to `account`.     * If `account` had not been already granted `role`, emits a {RoleGranted} event.     * Requirements:     * - the caller must have ``role``'s admin role."
      },
      "hasRole(bytes32,address)": {
        "details": "Returns `true` if `account` has been granted `role`."
      },
      "owner()": {
        "details": "Returns the address of the current owner."
      },
      "renounceOwnership()": {
        "details": "Leaves the contract without owner. It will not be possible to call `onlyOwner` functions anymore. Can only be called by the current owner.     * NOTE: Renouncing ownership will leave the contract without an owner, thereby removing any functionality that is only available to the owner."
      },
      "renounceRole(bytes32,address)": {
        "details": "Revokes `role` from the calling account.     * Roles are often managed via {grantRole} and {revokeRole}: this function's purpose is to provide a mechanism for accounts to lose their privileges if they are compromised (such as when a trusted device is misplaced).     * If the calling account had been granted `role`, emits a {RoleRevoked} event.     * Requirements:     * - the caller must be `account`."
      },
      "transferOwnership(address)": {
        "details": "Transfers ownership of the contract to a new account (`newOwner`). Can only be called by the current owner."
      }
    }
  },
  "userdoc": {
    "methods": {}
  }
}