{
  "contractName": "CampaignGenerator",
  "abi": [
    {
      "inputs": [
        {
          "internalType": "address",
          "name": "_admin",
          "type": "address"
        }
      ],
      "stateMutability": "nonpayable",
      "type": "constructor"
    },
    {
      "anonymous": false,
      "inputs": [
        {
          "indexed": false,
          "internalType": "uint256",
          "name": "campaignId",
          "type": "uint256"
        }
      ],
      "name": "CampaignStarted",
      "type": "event"
    },
    {
      "anonymous": false,
      "inputs": [
        {
          "indexed": false,
          "internalType": "uint256",
          "name": "campaignId",
          "type": "uint256"
        },
        {
          "indexed": false,
          "internalType": "uint256",
          "name": "branchId",
          "type": "uint256"
        }
      ],
      "name": "MasksPickedUpByCourier2",
      "type": "event"
    },
    {
      "anonymous": false,
      "inputs": [
        {
          "indexed": false,
          "internalType": "uint256",
          "name": "campaignId",
          "type": "uint256"
        },
        {
          "indexed": false,
          "internalType": "uint256",
          "name": "branchId",
          "type": "uint256"
        }
      ],
      "name": "MasksRceivedByReceiver",
      "type": "event"
    },
    {
      "anonymous": false,
      "inputs": [
        {
          "indexed": false,
          "internalType": "uint256",
          "name": "campaignId",
          "type": "uint256"
        },
        {
          "indexed": false,
          "internalType": "uint256",
          "name": "branchId",
          "type": "uint256"
        },
        {
          "indexed": false,
          "internalType": "uint256",
          "name": "amountOfMasksMade",
          "type": "uint256"
        }
      ],
      "name": "MasksReady",
      "type": "event"
    },
    {
      "anonymous": false,
      "inputs": [
        {
          "indexed": false,
          "internalType": "uint256",
          "name": "campaignId",
          "type": "uint256"
        },
        {
          "indexed": false,
          "internalType": "uint256",
          "name": "branchId",
          "type": "uint256"
        }
      ],
      "name": "MasksVerifiedForQuality",
      "type": "event"
    },
    {
      "anonymous": false,
      "inputs": [
        {
          "indexed": true,
          "internalType": "address",
          "name": "previousOwner",
          "type": "address"
        },
        {
          "indexed": true,
          "internalType": "address",
          "name": "newOwner",
          "type": "address"
        }
      ],
      "name": "OwnershipTransferred",
      "type": "event"
    },
    {
      "anonymous": false,
      "inputs": [
        {
          "indexed": false,
          "internalType": "uint256",
          "name": "campaignId",
          "type": "uint256"
        },
        {
          "indexed": false,
          "internalType": "uint256",
          "name": "branchId",
          "type": "uint256"
        }
      ],
      "name": "PLAPacked",
      "type": "event"
    },
    {
      "anonymous": false,
      "inputs": [
        {
          "indexed": false,
          "internalType": "uint256",
          "name": "campaignId",
          "type": "uint256"
        },
        {
          "indexed": false,
          "internalType": "uint256",
          "name": "branchId",
          "type": "uint256"
        }
      ],
      "name": "PLAPickedUpByCourier1",
      "type": "event"
    },
    {
      "anonymous": false,
      "inputs": [
        {
          "indexed": false,
          "internalType": "uint256",
          "name": "campaignId",
          "type": "uint256"
        },
        {
          "indexed": false,
          "internalType": "uint256",
          "name": "branchId",
          "type": "uint256"
        }
      ],
      "name": "PLARecivedByManufacturer",
      "type": "event"
    },
    {
      "anonymous": false,
      "inputs": [
        {
          "indexed": true,
          "internalType": "bytes32",
          "name": "role",
          "type": "bytes32"
        },
        {
          "indexed": true,
          "internalType": "address",
          "name": "account",
          "type": "address"
        },
        {
          "indexed": true,
          "internalType": "address",
          "name": "sender",
          "type": "address"
        }
      ],
      "name": "RoleGranted",
      "type": "event"
    },
    {
      "anonymous": false,
      "inputs": [
        {
          "indexed": true,
          "internalType": "bytes32",
          "name": "role",
          "type": "bytes32"
        },
        {
          "indexed": true,
          "internalType": "address",
          "name": "account",
          "type": "address"
        },
        {
          "indexed": true,
          "internalType": "address",
          "name": "sender",
          "type": "address"
        }
      ],
      "name": "RoleRevoked",
      "type": "event"
    },
    {
      "inputs": [],
      "name": "ADMIN_ROLE",
      "outputs": [
        {
          "internalType": "bytes32",
          "name": "",
          "type": "bytes32"
        }
      ],
      "stateMutability": "view",
      "type": "function"
    },
    {
      "inputs": [],
      "name": "COORDINATOR_ROLE",
      "outputs": [
        {
          "internalType": "bytes32",
          "name": "",
          "type": "bytes32"
        }
      ],
      "stateMutability": "view",
      "type": "function"
    },
    {
      "inputs": [],
      "name": "COURIER_ROLE",
      "outputs": [
        {
          "internalType": "bytes32",
          "name": "",
          "type": "bytes32"
        }
      ],
      "stateMutability": "view",
      "type": "function"
    },
    {
      "inputs": [],
      "name": "DEFAULT_ADMIN_ROLE",
      "outputs": [
        {
          "internalType": "bytes32",
          "name": "",
          "type": "bytes32"
        }
      ],
      "stateMutability": "view",
      "type": "function"
    },
    {
      "inputs": [],
      "name": "MANUFATURER_ROLE",
      "outputs": [
        {
          "internalType": "bytes32",
          "name": "",
          "type": "bytes32"
        }
      ],
      "stateMutability": "view",
      "type": "function"
    },
    {
      "inputs": [],
      "name": "RECIVER_ROLE",
      "outputs": [
        {
          "internalType": "bytes32",
          "name": "",
          "type": "bytes32"
        }
      ],
      "stateMutability": "view",
      "type": "function"
    },
    {
      "inputs": [],
      "name": "campaignCounter",
      "outputs": [
        {
          "internalType": "uint256",
          "name": "",
          "type": "uint256"
        }
      ],
      "stateMutability": "view",
      "type": "function"
    },
    {
      "inputs": [
        {
          "internalType": "bytes32",
          "name": "role",
          "type": "bytes32"
        }
      ],
      "name": "getRoleAdmin",
      "outputs": [
        {
          "internalType": "bytes32",
          "name": "",
          "type": "bytes32"
        }
      ],
      "stateMutability": "view",
      "type": "function"
    },
    {
      "inputs": [
        {
          "internalType": "bytes32",
          "name": "role",
          "type": "bytes32"
        },
        {
          "internalType": "uint256",
          "name": "index",
          "type": "uint256"
        }
      ],
      "name": "getRoleMember",
      "outputs": [
        {
          "internalType": "address",
          "name": "",
          "type": "address"
        }
      ],
      "stateMutability": "view",
      "type": "function"
    },
    {
      "inputs": [
        {
          "internalType": "bytes32",
          "name": "role",
          "type": "bytes32"
        }
      ],
      "name": "getRoleMemberCount",
      "outputs": [
        {
          "internalType": "uint256",
          "name": "",
          "type": "uint256"
        }
      ],
      "stateMutability": "view",
      "type": "function"
    },
    {
      "inputs": [
        {
          "internalType": "bytes32",
          "name": "role",
          "type": "bytes32"
        },
        {
          "internalType": "address",
          "name": "account",
          "type": "address"
        }
      ],
      "name": "hasRole",
      "outputs": [
        {
          "internalType": "bool",
          "name": "",
          "type": "bool"
        }
      ],
      "stateMutability": "view",
      "type": "function"
    },
    {
      "inputs": [],
      "name": "owner",
      "outputs": [
        {
          "internalType": "address",
          "name": "",
          "type": "address"
        }
      ],
      "stateMutability": "view",
      "type": "function"
    },
    {
      "inputs": [],
      "name": "renounceOwnership",
      "outputs": [],
      "stateMutability": "nonpayable",
      "type": "function"
    },
    {
      "inputs": [
        {
          "internalType": "bytes32",
          "name": "role",
          "type": "bytes32"
        },
        {
          "internalType": "address",
          "name": "account",
          "type": "address"
        }
      ],
      "name": "renounceRole",
      "outputs": [],
      "stateMutability": "nonpayable",
      "type": "function"
    },
    {
      "inputs": [
        {
          "internalType": "address",
          "name": "newOwner",
          "type": "address"
        }
      ],
      "name": "transferOwnership",
      "outputs": [],
      "stateMutability": "nonpayable",
      "type": "function"
    },
    {
      "inputs": [
        {
          "internalType": "address",
          "name": "",
          "type": "address"
        }
      ],
      "name": "whichRole",
      "outputs": [
        {
          "internalType": "bytes32",
          "name": "",
          "type": "bytes32"
        }
      ],
      "stateMutability": "view",
      "type": "function"
    },
    {
      "inputs": [
        {
          "internalType": "address",
          "name": "_who",
          "type": "address"
        }
      ],
      "name": "makeCoordinator",
      "outputs": [],
      "stateMutability": "nonpayable",
      "type": "function"
    },
    {
      "inputs": [
        {
          "internalType": "address[]",
          "name": "_manufacturers",
          "type": "address[]"
        },
        {
          "internalType": "address[]",
          "name": "_couriers",
          "type": "address[]"
        },
        {
          "internalType": "address",
          "name": "_receiver",
          "type": "address"
        },
        {
          "internalType": "uint256",
          "name": "_totalPLA",
          "type": "uint256"
        }
      ],
      "name": "startCampaign",
      "outputs": [
        {
          "internalType": "uint256",
          "name": "campaignId",
          "type": "uint256"
        }
      ],
      "stateMutability": "nonpayable",
      "type": "function"
    },
    {
      "inputs": [
        {
          "internalType": "uint256",
          "name": "_campaignId",
          "type": "uint256"
        },
        {
          "internalType": "address[]",
          "name": "_manufacturers",
          "type": "address[]"
        }
      ],
      "name": "addManufacturers",
      "outputs": [],
      "stateMutability": "nonpayable",
      "type": "function"
    },
    {
      "inputs": [
        {
          "internalType": "uint256",
          "name": "_campaignId",
          "type": "uint256"
        },
        {
          "internalType": "address[]",
          "name": "_couriers",
          "type": "address[]"
        }
      ],
      "name": "addCouriers",
      "outputs": [],
      "stateMutability": "nonpayable",
      "type": "function"
    },
    {
      "inputs": [
        {
          "internalType": "uint256",
          "name": "_campaignId",
          "type": "uint256"
        },
        {
          "internalType": "uint256",
          "name": "_amountOfPLA",
          "type": "uint256"
        },
        {
          "internalType": "uint256",
          "name": "_amountOfExpectedMasks",
          "type": "uint256"
        },
        {
          "internalType": "uint256",
          "name": "_tfForDeliveryToManufacturer",
          "type": "uint256"
        },
        {
          "internalType": "uint256",
          "name": "_tfForMakingMasks",
          "type": "uint256"
        },
        {
          "internalType": "uint256",
          "name": "_tfForDeliveryToReciver",
          "type": "uint256"
        },
        {
          "internalType": "address",
          "name": "_courier1",
          "type": "address"
        },
        {
          "internalType": "address",
          "name": "_courier2",
          "type": "address"
        },
        {
          "internalType": "address",
          "name": "_manufacturer",
          "type": "address"
        }
      ],
      "name": "createNewBatch",
      "outputs": [
        {
          "internalType": "uint256",
          "name": "batchId",
          "type": "uint256"
        }
      ],
      "stateMutability": "nonpayable",
      "type": "function"
    },
    {
      "inputs": [
        {
          "internalType": "uint256",
          "name": "_campaignId",
          "type": "uint256"
        },
        {
          "internalType": "uint256",
          "name": "_batchId",
          "type": "uint256"
        }
      ],
      "name": "confirmPLAPickedUpByCourier1",
      "outputs": [
        {
          "internalType": "bool",
          "name": "stageChange",
          "type": "bool"
        }
      ],
      "stateMutability": "nonpayable",
      "type": "function"
    },
    {
      "inputs": [
        {
          "internalType": "uint256",
          "name": "_campaignId",
          "type": "uint256"
        },
        {
          "internalType": "uint256",
          "name": "_batchId",
          "type": "uint256"
        }
      ],
      "name": "confirmPLARecivedByManufacturer",
      "outputs": [
        {
          "internalType": "bool",
          "name": "stageChange",
          "type": "bool"
        }
      ],
      "stateMutability": "nonpayable",
      "type": "function"
    },
    {
      "inputs": [
        {
          "internalType": "uint256",
          "name": "_campaignId",
          "type": "uint256"
        },
        {
          "internalType": "uint256",
          "name": "_batchId",
          "type": "uint256"
        },
        {
          "internalType": "uint256",
          "name": "_amountOfMasksMade",
          "type": "uint256"
        }
      ],
      "name": "confirmMasksMade",
      "outputs": [],
      "stateMutability": "nonpayable",
      "type": "function"
    },
    {
      "inputs": [
        {
          "internalType": "uint256",
          "name": "_campaignId",
          "type": "uint256"
        },
        {
          "internalType": "uint256",
          "name": "_batchId",
          "type": "uint256"
        }
      ],
      "name": "confirmMasksPickedUpByCourier2",
      "outputs": [
        {
          "internalType": "bool",
          "name": "stageChange",
          "type": "bool"
        }
      ],
      "stateMutability": "nonpayable",
      "type": "function"
    },
    {
      "inputs": [
        {
          "internalType": "uint256",
          "name": "_campaignId",
          "type": "uint256"
        },
        {
          "internalType": "uint256",
          "name": "_batchId",
          "type": "uint256"
        }
      ],
      "name": "confirmMasksRceivedByReceiver",
      "outputs": [
        {
          "internalType": "bool",
          "name": "stageChange",
          "type": "bool"
        }
      ],
      "stateMutability": "nonpayable",
      "type": "function"
    },
    {
      "inputs": [
        {
          "internalType": "uint256",
          "name": "_campaignId",
          "type": "uint256"
        }
      ],
      "name": "getCampaignDetalis",
      "outputs": [
        {
          "internalType": "uint256",
          "name": "totalPLA",
          "type": "uint256"
        },
        {
          "internalType": "uint256",
          "name": "currentPLA",
          "type": "uint256"
        },
        {
          "internalType": "uint256",
          "name": "totalBatches",
          "type": "uint256"
        },
        {
          "internalType": "address",
          "name": "coordinator",
          "type": "address"
        },
        {
          "internalType": "address",
          "name": "receiver",
          "type": "address"
        },
        {
          "internalType": "address[]",
          "name": "manufacturers",
          "type": "address[]"
        },
        {
          "internalType": "address[]",
          "name": "couriers",
          "type": "address[]"
        }
      ],
      "stateMutability": "view",
      "type": "function"
    },
    {
      "inputs": [
        {
          "internalType": "uint256",
          "name": "_campaignId",
          "type": "uint256"
        },
        {
          "internalType": "uint256",
          "name": "_batchId",
          "type": "uint256"
        }
      ],
      "name": "getBatchDetails",
      "outputs": [
        {
          "components": [
            {
              "internalType": "enum Storage.BatchStages",
              "name": "stage",
              "type": "uint8"
            },
            {
              "internalType": "bool",
              "name": "isPLAPickedUpCourier1",
              "type": "bool"
            },
            {
              "internalType": "bool",
              "name": "isPLAPickedUpCoordinator",
              "type": "bool"
            },
            {
              "internalType": "bool",
              "name": "isPLARecivedCourier1",
              "type": "bool"
            },
            {
              "internalType": "bool",
              "name": "isPLAReceivedManufacturer",
              "type": "bool"
            },
            {
              "internalType": "bool",
              "name": "isMasksPickedUpCourier2",
              "type": "bool"
            },
            {
              "internalType": "bool",
              "name": "isMasksPickedUpManufacturer",
              "type": "bool"
            },
            {
              "internalType": "bool",
              "name": "isMasksaReceviedCourier2",
              "type": "bool"
            },
            {
              "internalType": "bool",
              "name": "isMasksReceviedReceviver",
              "type": "bool"
            },
            {
              "internalType": "uint256",
              "name": "amountOfPLA",
              "type": "uint256"
            },
            {
              "internalType": "uint256",
              "name": "amountOfExpectedMasks",
              "type": "uint256"
            },
            {
              "internalType": "uint256",
              "name": "amountOfMasksMade",
              "type": "uint256"
            },
            {
              "internalType": "uint256",
              "name": "tfForDeliveryToManufacturer",
              "type": "uint256"
            },
            {
              "internalType": "uint256",
              "name": "tfForMakingMasks",
              "type": "uint256"
            },
            {
              "internalType": "uint256",
              "name": "tfForDeliveryToReciver",
              "type": "uint256"
            },
            {
              "internalType": "address",
              "name": "courier1",
              "type": "address"
            },
            {
              "internalType": "address",
              "name": "courier2",
              "type": "address"
            },
            {
              "internalType": "address",
              "name": "manufacturer",
              "type": "address"
            }
          ],
          "internalType": "struct Storage.Batch",
          "name": "batch",
          "type": "tuple"
        }
      ],
      "stateMutability": "view",
      "type": "function"
    },
    {
      "inputs": [
        {
          "internalType": "address",
          "name": "_who",
          "type": "address"
        }
      ],
      "name": "partOfWhichCampaigns",
      "outputs": [
        {
          "internalType": "uint256[]",
          "name": "",
          "type": "uint256[]"
        }
      ],
      "stateMutability": "view",
      "type": "function"
    },
    {
      "inputs": [
        {
          "internalType": "uint256",
          "name": "_campaignId",
          "type": "uint256"
        },
        {
          "internalType": "address",
          "name": "_who",
          "type": "address"
        }
      ],
      "name": "partOfWhichBatches",
      "outputs": [
        {
          "internalType": "uint256[]",
          "name": "",
          "type": "uint256[]"
        }
      ],
      "stateMutability": "view",
      "type": "function"
    }
  ],
  "bytecode": "0x608060405260016004553480156200001657600080fd5b50604051620056993803806200569983398181016040526200003c919081019062000522565b8060006200004f6200028a60201b60201c565b9050806000806101000a81548173ffffffffffffffffffffffffffffffffffffffff021916908373ffffffffffffffffffffffffffffffffffffffff1602179055508073ffffffffffffffffffffffffffffffffffffffff16600073ffffffffffffffffffffffffffffffffffffffff167f8be0079c531659141344cd1fd0a4f28419497f9722a3daafe3b4186f6b6457e060405160405180910390a350620001227ff23ec0bb4210edd5cba85afd05127efcd2fc6a781bfed49188da1081670b22d860001b826200029260201b60201c565b6200017a7faf8c8b3d1b230c888f16d0aac400b28aa51e631d580aaa7cb46e571590ed44e760001b7ff23ec0bb4210edd5cba85afd05127efcd2fc6a781bfed49188da1081670b22d860001b620002a860201b60201c565b620001d27f7fc3771f539a03c47afbbf258702c19273ef5e735e24ee7978081dc07288c68760001b7faf8c8b3d1b230c888f16d0aac400b28aa51e631d580aaa7cb46e571590ed44e760001b620002a860201b60201c565b6200022a7fb528929ed79eb79a87ae6f578d3125509c91bfea9ac8b7fb9f69aa0bc28298dd60001b7faf8c8b3d1b230c888f16d0aac400b28aa51e631d580aaa7cb46e571590ed44e760001b620002a860201b60201c565b620002827f5e784e45feb63c375016d4ce5c52a57b0a48b8a170bc2e31463be0d03d1c4db660001b7faf8c8b3d1b230c888f16d0aac400b28aa51e631d580aaa7cb46e571590ed44e760001b620002a860201b60201c565b505062000637565b600033905090565b620002a48282620002c760201b60201c565b5050565b8060016000848152602001908152602001600020600201819055505050565b6000801b600260008373ffffffffffffffffffffffffffffffffffffffff1673ffffffffffffffffffffffffffffffffffffffff16815260200190815260200160002054146200034e576040517f08c379a00000000000000000000000000000000000000000000000000000000081526004016200034590620005b6565b60405180910390fd5b81600260008373ffffffffffffffffffffffffffffffffffffffff1673ffffffffffffffffffffffffffffffffffffffff16815260200190815260200160002081905550620003c181600160008581526020019081526020016000206000016200043660201b62003a6a1790919060201c565b156200043257620003d76200028a60201b60201c565b73ffffffffffffffffffffffffffffffffffffffff168173ffffffffffffffffffffffffffffffffffffffff16837f2f8788117e7eff1d82e926ec794901d17c78024a50270940304540a733656f0d60405160405180910390a45b5050565b600062000466836000018373ffffffffffffffffffffffffffffffffffffffff1660001b6200046e60201b60201c565b905092915050565b6000620004828383620004e860201b60201c565b620004dd578260000182908060018154018082558091505060019003906000526020600020016000909190919091505582600001805490508360010160008481526020019081526020016000208190555060019050620004e2565b600090505b92915050565b600080836001016000848152602001908152602001600020541415905092915050565b6000815190506200051c816200061d565b92915050565b6000602082840312156200053557600080fd5b600062000545848285016200050b565b91505092915050565b60006200055d602d83620005d8565b91507f5573657220616c726561647920686173206120726f6c6528736565207768696360008301527f68526f6c65206d6574686f6429000000000000000000000000000000000000006020830152604082019050919050565b60006020820190508181036000830152620005d1816200054e565b9050919050565b600082825260208201905092915050565b6000620005f682620005fd565b9050919050565b600073ffffffffffffffffffffffffffffffffffffffff82169050919050565b6200062881620005e9565b81146200063457600080fd5b50565b61505280620006476000396000f3fe608060405234801561001057600080fd5b50600436106101da5760003560e01c806391d1485411610104578063ca15c873116100a2578063dd9e9ea511610071578063dd9e9ea5146105bd578063f241f909146105ed578063f2fde38b1461061d578063fca604d714610639576101da565b8063ca15c8731461050f578063cd0dc7801461053f578063cfb4983c1461056f578063d6d193671461059f576101da565b8063997be196116100de578063997be1961461046f578063a217fddf146104a5578063b74af3c7146104c3578063b9d7c86d146104f3576101da565b806391d148541461040357806391e9100d1461043357806392b8a6c814610451576101da565b8063595094271161017c57806375b238fc1161014b57806375b238fc1461037b57806387f1d19c146103995780638da5cb5b146103b55780639010d07c146103d3576101da565b806359509427146102f35780636b366cb5146103235780636e28458314610341578063715018a614610371576101da565b806322f15edc116101b857806322f15edc1461025b578063248a9ca31461027757806336568abe146102a7578063518828e4146102c3576101da565b806308c8aed3146101df57806312e8df1d146101fb57806317d05a1f1461022b575b600080fd5b6101f960048036036101f49190810190613e69565b610657565b005b6102156004803603610210919081019061407f565b6106fa565b6040516102229190614ac0565b60405180910390f35b61024560048036036102409190810190613e92565b610acb565b6040516102529190614d34565b60405180910390f35b6102756004803603610270919081019061402b565b61103f565b005b610291600480360361028c9190810190613f25565b611369565b60405161029e9190614adb565b60405180910390f35b6102c160048036036102bc9190810190613f4e565b611389565b005b6102dd60048036036102d8919081019061407f565b61140c565b6040516102ea9190614ac0565b60405180910390f35b61030d60048036036103089190810190613e69565b611804565b60405161031a9190614a9e565b60405180910390f35b61032b61189b565b6040516103389190614adb565b60405180910390f35b61035b6004803603610356919081019061410a565b6118c2565b6040516103689190614d34565b60405180910390f35b610379611f4c565b005b6103836120a1565b6040516103909190614adb565b60405180910390f35b6103b360048036036103ae919081019061402b565b6120c8565b005b6103bd6123f2565b6040516103ca9190614a83565b60405180910390f35b6103ed60048036036103e89190810190613f8a565b61241b565b6040516103fa9190614a83565b60405180910390f35b61041d60048036036104189190810190613f4e565b61244d565b60405161042a9190614ac0565b60405180910390f35b61043b61247f565b6040516104489190614adb565b60405180910390f35b6104596124a6565b6040516104669190614adb565b60405180910390f35b61048960048036036104849190810190613fc6565b6124cd565b60405161049c9796959493929190614daf565b60405180910390f35b6104ad6126e0565b6040516104ba9190614adb565b60405180910390f35b6104dd60048036036104d8919081019061407f565b6126e7565b6040516104ea9190614d18565b60405180910390f35b61050d600480360361050891908101906140bb565b61296d565b005b61052960048036036105249190810190613f25565b612ae7565b6040516105369190614d34565b60405180910390f35b6105596004803603610554919081019061407f565b612b0e565b6040516105669190614ac0565b60405180910390f35b6105896004803603610584919081019061407f565b612f07565b6040516105969190614ac0565b60405180910390f35b6105a76132d8565b6040516105b49190614adb565b60405180910390f35b6105d760048036036105d29190810190613e69565b6132ff565b6040516105e49190614adb565b60405180910390f35b61060760048036036106029190810190613fef565b613317565b6040516106149190614a9e565b60405180910390f35b61063760048036036106329190810190613e69565b6133c3565b005b610641613587565b60405161064e9190614d34565b60405180910390f35b61068b7ff23ec0bb4210edd5cba85afd05127efcd2fc6a781bfed49188da1081670b22d860001b61068661358d565b61244d565b6106ca576040517f08c379a00000000000000000000000000000000000000000000000000000000081526004016106c190614c98565b60405180910390fd5b6106f77faf8c8b3d1b230c888f16d0aac400b28aa51e631d580aaa7cb46e571590ed44e760001b82613595565b50565b600061070461358d565b73ffffffffffffffffffffffffffffffffffffffff166003600085815260200190815260200160002060030160009054906101000a900473ffffffffffffffffffffffffffffffffffffffff1673ffffffffffffffffffffffffffffffffffffffff1614806107ef575061077661358d565b73ffffffffffffffffffffffffffffffffffffffff1660036000858152602001908152602001600020600901600084815260200190815260200160002060070160009054906101000a900473ffffffffffffffffffffffffffffffffffffffff1673ffffffffffffffffffffffffffffffffffffffff16145b61082e576040517f08c379a000000000000000000000000000000000000000000000000000000000815260040161082590614bd8565b60405180910390fd5b6000905061083a61358d565b73ffffffffffffffffffffffffffffffffffffffff166003600085815260200190815260200160002060030160009054906101000a900473ffffffffffffffffffffffffffffffffffffffff1673ffffffffffffffffffffffffffffffffffffffff1614156108e757600160036000858152602001908152602001600020600901600084815260200190815260200160002060000160026101000a81548160ff0219169083151502179055505b6108ef61358d565b73ffffffffffffffffffffffffffffffffffffffff1660036000858152602001908152602001600020600901600084815260200190815260200160002060070160009054906101000a900473ffffffffffffffffffffffffffffffffffffffff1673ffffffffffffffffffffffffffffffffffffffff1614156109b057600160036000858152602001908152602001600020600901600084815260200190815260200160002060000160016101000a81548160ff0219169083151502179055505b6001151560036000858152602001908152602001600020600901600084815260200190815260200160002060000160029054906101000a900460ff161515148015610a3657506001151560036000858152602001908152602001600020600901600084815260200190815260200160002060000160019054906101000a900460ff161515145b15610ac557600260036000858152602001908152602001600020600901600084815260200190815260200160002060000160006101000a81548160ff02191690836007811115610a8257fe5b02179055507fce02b750acf4627269a555da22c6d51e4bf4efacaedecb887879277eac29a7978383604051610ab8929190614d4f565b60405180910390a1600190505b92915050565b6000610b017faf8c8b3d1b230c888f16d0aac400b28aa51e631d580aaa7cb46e571590ed44e760001b610afc61358d565b61244d565b610b40576040517f08c379a0000000000000000000000000000000000000000000000000000000008152600401610b3790614c18565b60405180910390fd5b60045490506000600360008381526020019081526020016000209050610b72600160045461360990919063ffffffff16565b60048190555060056000610b8461358d565b73ffffffffffffffffffffffffffffffffffffffff1673ffffffffffffffffffffffffffffffffffffffff168152602001908152602001600020829080600181540180825580915050600190039060005260206000200160009091909190915055610bed61358d565b8160030160006101000a81548173ffffffffffffffffffffffffffffffffffffffff021916908373ffffffffffffffffffffffffffffffffffffffff16021790555060008090505b8651811015610d8157610c7e7fb528929ed79eb79a87ae6f578d3125509c91bfea9ac8b7fb9f69aa0bc28298dd60001b888381518110610c7157fe5b6020026020010151613595565b610c9260018261360990919063ffffffff16565b826005016001016000898481518110610ca757fe5b602002602001015173ffffffffffffffffffffffffffffffffffffffff1673ffffffffffffffffffffffffffffffffffffffff1681526020019081526020016000208190555060056000888381518110610cfd57fe5b602002602001015173ffffffffffffffffffffffffffffffffffffffff1673ffffffffffffffffffffffffffffffffffffffff168152602001908152602001600020839080600181540180825580915050600190039060005260206000200160009091909190915055610d7a60018261360990919063ffffffff16565b9050610c35565b5060008090505b8551811015610ed457610dd17f7fc3771f539a03c47afbbf258702c19273ef5e735e24ee7978081dc07288c68760001b878381518110610dc457fe5b6020026020010151613595565b610de560018261360990919063ffffffff16565b826007016001016000888481518110610dfa57fe5b602002602001015173ffffffffffffffffffffffffffffffffffffffff1673ffffffffffffffffffffffffffffffffffffffff1681526020019081526020016000208190555060056000878381518110610e5057fe5b602002602001015173ffffffffffffffffffffffffffffffffffffffff1673ffffffffffffffffffffffffffffffffffffffff168152602001908152602001600020839080600181540180825580915050600190039060005260206000200160009091909190915055610ecd60018261360990919063ffffffff16565b9050610d88565b5085816005016000019080519060200190610ef0929190613bf2565b5084816007016000019080519060200190610f0c929190613bf2565b50610f3a7f5e784e45feb63c375016d4ce5c52a57b0a48b8a170bc2e31463be0d03d1c4db660001b85613595565b838160040160006101000a81548173ffffffffffffffffffffffffffffffffffffffff021916908373ffffffffffffffffffffffffffffffffffffffff160217905550600560008573ffffffffffffffffffffffffffffffffffffffff1673ffffffffffffffffffffffffffffffffffffffff168152602001908152602001600020829080600181540180825580915050600190039060005260206000200160009091909190915055600081600201819055508281600001819055508281600101819055507f503a7c5d84c6afa3203956e339356fc5a3a8d5c44090f3ca0bfce18e820d789e8260405161102e9190614d34565b60405180910390a150949350505050565b6110737faf8c8b3d1b230c888f16d0aac400b28aa51e631d580aaa7cb46e571590ed44e760001b61106e61358d565b61244d565b6110b2576040517f08c379a00000000000000000000000000000000000000000000000000000000081526004016110a990614c18565b60405180910390fd5b6110ba61358d565b73ffffffffffffffffffffffffffffffffffffffff166003600084815260200190815260200160002060030160009054906101000a900473ffffffffffffffffffffffffffffffffffffffff1673ffffffffffffffffffffffffffffffffffffffff161461115d576040517f08c379a000000000000000000000000000000000000000000000000000000000815260040161115490614c58565b60405180910390fd5b600060036000848152602001908152602001600020905060008160070160000180549050905060008090505b8351811015611362576111d27fb528929ed79eb79a87ae6f578d3125509c91bfea9ac8b7fb9f69aa0bc28298dd60001b8583815181106111c557fe5b6020026020010151613595565b826007016000018482815181106111e557fe5b60200260200101519080600181540180825580915050600190039060005260206000200160009091909190916101000a81548173ffffffffffffffffffffffffffffffffffffffff021916908373ffffffffffffffffffffffffffffffffffffffff16021790555061127361126460018361360990919063ffffffff16565b8361360990919063ffffffff16565b83600701600101600086848151811061128857fe5b602002602001015173ffffffffffffffffffffffffffffffffffffffff1673ffffffffffffffffffffffffffffffffffffffff16815260200190815260200160002081905550600560008583815181106112de57fe5b602002602001015173ffffffffffffffffffffffffffffffffffffffff1673ffffffffffffffffffffffffffffffffffffffff16815260200190815260200160002085908060018154018082558091505060019003906000526020600020016000909190919091505561135b60018261360990919063ffffffff16565b9050611189565b5050505050565b600060016000838152602001908152602001600020600201549050919050565b61139161358d565b73ffffffffffffffffffffffffffffffffffffffff168173ffffffffffffffffffffffffffffffffffffffff16146113fe576040517f08c379a00000000000000000000000000000000000000000000000000000000081526004016113f590614cf8565b60405180910390fd5b611408828261365e565b5050565b600061141661358d565b73ffffffffffffffffffffffffffffffffffffffff1660036000858152602001908152602001600020600901600084815260200190815260200160002060090160009054906101000a900473ffffffffffffffffffffffffffffffffffffffff1673ffffffffffffffffffffffffffffffffffffffff161480611515575061149c61358d565b73ffffffffffffffffffffffffffffffffffffffff1660036000858152602001908152602001600020600901600084815260200190815260200160002060070160009054906101000a900473ffffffffffffffffffffffffffffffffffffffff1673ffffffffffffffffffffffffffffffffffffffff16145b611554576040517f08c379a000000000000000000000000000000000000000000000000000000000815260040161154b90614cd8565b60405180910390fd5b6000905061156061358d565b73ffffffffffffffffffffffffffffffffffffffff1660036000858152602001908152602001600020600901600084815260200190815260200160002060090160009054906101000a900473ffffffffffffffffffffffffffffffffffffffff1673ffffffffffffffffffffffffffffffffffffffff16141561162157600160036000858152602001908152602001600020600901600084815260200190815260200160002060000160046101000a81548160ff0219169083151502179055505b61162961358d565b73ffffffffffffffffffffffffffffffffffffffff1660036000858152602001908152602001600020600901600084815260200190815260200160002060070160009054906101000a900473ffffffffffffffffffffffffffffffffffffffff1673ffffffffffffffffffffffffffffffffffffffff1614156116ea57600160036000858152602001908152602001600020600901600084815260200190815260200160002060000160036101000a81548160ff0219169083151502179055505b6001151560036000858152602001908152602001600020600901600084815260200190815260200160002060000160049054906101000a900460ff16151514801561177057506001151560036000858152602001908152602001600020600901600084815260200190815260200160002060000160039054906101000a900460ff161515145b156117fe576003806000858152602001908152602001600020600901600084815260200190815260200160002060000160006101000a81548160ff021916908360078111156117bb57fe5b02179055507fea5b9a09f5cda7a400ab3299370eb751979df1575364bf7575f0d1bfe7e43b7d83836040516117f1929190614d4f565b60405180910390a1600190505b92915050565b6060600560008373ffffffffffffffffffffffffffffffffffffffff1673ffffffffffffffffffffffffffffffffffffffff16815260200190815260200160002080548060200260200160405190810160405280929190818152602001828054801561188f57602002820191906000526020600020905b81548152602001906001019080831161187b575b50505050509050919050565b7faf8c8b3d1b230c888f16d0aac400b28aa51e631d580aaa7cb46e571590ed44e760001b81565b60006118f87faf8c8b3d1b230c888f16d0aac400b28aa51e631d580aaa7cb46e571590ed44e760001b6118f361358d565b61244d565b611937576040517f08c379a000000000000000000000000000000000000000000000000000000000815260040161192e90614c18565b60405180910390fd5b61193f61358d565b73ffffffffffffffffffffffffffffffffffffffff16600360008c815260200190815260200160002060030160009054906101000a900473ffffffffffffffffffffffffffffffffffffffff1673ffffffffffffffffffffffffffffffffffffffff16146119e2576040517f08c379a00000000000000000000000000000000000000000000000000000000081526004016119d990614c58565b60405180910390fd5b6000600360008c815260200190815260200160002060070160010160008673ffffffffffffffffffffffffffffffffffffffff1673ffffffffffffffffffffffffffffffffffffffff168152602001908152602001600020541415611a7c576040517f08c379a0000000000000000000000000000000000000000000000000000000008152600401611a7390614cb8565b60405180910390fd5b6000600360008c815260200190815260200160002060070160010160008573ffffffffffffffffffffffffffffffffffffffff1673ffffffffffffffffffffffffffffffffffffffff168152602001908152602001600020541415611b16576040517f08c379a0000000000000000000000000000000000000000000000000000000008152600401611b0d90614cb8565b60405180910390fd5b6000600360008c815260200190815260200160002060050160010160008473ffffffffffffffffffffffffffffffffffffffff1673ffffffffffffffffffffffffffffffffffffffff168152602001908152602001600020541415611bb0576040517f08c379a0000000000000000000000000000000000000000000000000000000008152600401611ba790614b58565b60405180910390fd5b611bda6001600360008d81526020019081526020016000206002015461360990919063ffffffff16565b600360008c815260200190815260200160002060020181905550600360008b81526020019081526020016000206002015490506000600360008c815260200190815260200160002060090160008381526020019081526020016000209050611c618a600360008e81526020019081526020016000206001015461373990919063ffffffff16565b600360008d81526020019081526020016000206001018190555060018160000160006101000a81548160ff02191690836007811115611c9c57fe5b0217905550898160010181905550888160020181905550878160040181905550868160050181905550858160060181905550848160070160006101000a81548173ffffffffffffffffffffffffffffffffffffffff021916908373ffffffffffffffffffffffffffffffffffffffff160217905550600360008c8152602001908152602001600020600a0160008673ffffffffffffffffffffffffffffffffffffffff1673ffffffffffffffffffffffffffffffffffffffff168152602001908152602001600020829080600181540180825580915050600190039060005260206000200160009091909190915055838160080160006101000a81548173ffffffffffffffffffffffffffffffffffffffff021916908373ffffffffffffffffffffffffffffffffffffffff160217905550600360008c8152602001908152602001600020600a0160008573ffffffffffffffffffffffffffffffffffffffff1673ffffffffffffffffffffffffffffffffffffffff168152602001908152602001600020829080600181540180825580915050600190039060005260206000200160009091909190915055828160090160006101000a81548173ffffffffffffffffffffffffffffffffffffffff021916908373ffffffffffffffffffffffffffffffffffffffff160217905550600360008c8152602001908152602001600020600a0160008473ffffffffffffffffffffffffffffffffffffffff1673ffffffffffffffffffffffffffffffffffffffff1681526020019081526020016000208290806001815401808255809150506001900390600052602060002001600090919091909150557fef58603955539807736c5925e4d5b3ad4322eb3810b5b1bf36975955970895178b83604051611f36929190614d4f565b60405180910390a1509998505050505050505050565b611f5461358d565b73ffffffffffffffffffffffffffffffffffffffff166000809054906101000a900473ffffffffffffffffffffffffffffffffffffffff1673ffffffffffffffffffffffffffffffffffffffff1614611fe2576040517f08c379a0000000000000000000000000000000000000000000000000000000008152600401611fd990614c78565b60405180910390fd5b600073ffffffffffffffffffffffffffffffffffffffff166000809054906101000a900473ffffffffffffffffffffffffffffffffffffffff1673ffffffffffffffffffffffffffffffffffffffff167f8be0079c531659141344cd1fd0a4f28419497f9722a3daafe3b4186f6b6457e060405160405180910390a360008060006101000a81548173ffffffffffffffffffffffffffffffffffffffff021916908373ffffffffffffffffffffffffffffffffffffffff160217905550565b7ff23ec0bb4210edd5cba85afd05127efcd2fc6a781bfed49188da1081670b22d860001b81565b6120fc7faf8c8b3d1b230c888f16d0aac400b28aa51e631d580aaa7cb46e571590ed44e760001b6120f761358d565b61244d565b61213b576040517f08c379a000000000000000000000000000000000000000000000000000000000815260040161213290614c18565b60405180910390fd5b61214361358d565b73ffffffffffffffffffffffffffffffffffffffff166003600084815260200190815260200160002060030160009054906101000a900473ffffffffffffffffffffffffffffffffffffffff1673ffffffffffffffffffffffffffffffffffffffff16146121e6576040517f08c379a00000000000000000000000000000000000000000000000000000000081526004016121dd90614c58565b60405180910390fd5b600060036000848152602001908152602001600020905060008160050160000180549050905060008090505b83518110156123eb5761225b7fb528929ed79eb79a87ae6f578d3125509c91bfea9ac8b7fb9f69aa0bc28298dd60001b85838151811061224e57fe5b6020026020010151613595565b8260050160000184828151811061226e57fe5b60200260200101519080600181540180825580915050600190039060005260206000200160009091909190916101000a81548173ffffffffffffffffffffffffffffffffffffffff021916908373ffffffffffffffffffffffffffffffffffffffff1602179055506122fc6122ed60018361360990919063ffffffff16565b8361360990919063ffffffff16565b83600501600101600086848151811061231157fe5b602002602001015173ffffffffffffffffffffffffffffffffffffffff1673ffffffffffffffffffffffffffffffffffffffff168152602001908152602001600020819055506005600085838151811061236757fe5b602002602001015173ffffffffffffffffffffffffffffffffffffffff1673ffffffffffffffffffffffffffffffffffffffff1681526020019081526020016000208590806001815401808255809150506001900390600052602060002001600090919091909150556123e460018261360990919063ffffffff16565b9050612212565b5050505050565b60008060009054906101000a900473ffffffffffffffffffffffffffffffffffffffff16905090565b6000612445826001600086815260200190815260200160002060000161378390919063ffffffff16565b905092915050565b6000612477826001600086815260200190815260200160002060000161379d90919063ffffffff16565b905092915050565b7f5e784e45feb63c375016d4ce5c52a57b0a48b8a170bc2e31463be0d03d1c4db660001b81565b7f7fc3771f539a03c47afbbf258702c19273ef5e735e24ee7978081dc07288c68760001b81565b60008060008060006060806003600089815260200190815260200160002060030160009054906101000a900473ffffffffffffffffffffffffffffffffffffffff16935060036000898152602001908152602001600020600001549650600360008981526020019081526020016000206001015495506003600089815260200190815260200160002060040160009054906101000a900473ffffffffffffffffffffffffffffffffffffffff169250600360008981526020019081526020016000206002015494506003600089815260200190815260200160002060050160000180548060200260200160405190810160405280929190818152602001828054801561262e57602002820191906000526020600020905b8160009054906101000a900473ffffffffffffffffffffffffffffffffffffffff1673ffffffffffffffffffffffffffffffffffffffff16815260200190600101908083116125e4575b50505050509150600360008981526020019081526020016000206007016000018054806020026020016040519081016040528092919081815260200182805480156126ce57602002820191906000526020600020905b8160009054906101000a900473ffffffffffffffffffffffffffffffffffffffff1673ffffffffffffffffffffffffffffffffffffffff1681526020019060010190808311612684575b50505050509050919395979092949650565b6000801b81565b6126ef613c7c565b600360008481526020019081526020016000206009016000838152602001908152602001600020604051806102400160405290816000820160009054906101000a900460ff16600781111561274057fe5b600781111561274b57fe5b81526020016000820160019054906101000a900460ff161515151581526020016000820160029054906101000a900460ff161515151581526020016000820160039054906101000a900460ff161515151581526020016000820160049054906101000a900460ff161515151581526020016000820160059054906101000a900460ff161515151581526020016000820160069054906101000a900460ff161515151581526020016000820160079054906101000a900460ff161515151581526020016000820160089054906101000a900460ff161515151581526020016001820154815260200160028201548152602001600382015481526020016004820154815260200160058201548152602001600682015481526020016007820160009054906101000a900473ffffffffffffffffffffffffffffffffffffffff1673ffffffffffffffffffffffffffffffffffffffff1673ffffffffffffffffffffffffffffffffffffffff1681526020016008820160009054906101000a900473ffffffffffffffffffffffffffffffffffffffff1673ffffffffffffffffffffffffffffffffffffffff1673ffffffffffffffffffffffffffffffffffffffff1681526020016009820160009054906101000a900473ffffffffffffffffffffffffffffffffffffffff1673ffffffffffffffffffffffffffffffffffffffff1673ffffffffffffffffffffffffffffffffffffffff1681525050905092915050565b61297561358d565b73ffffffffffffffffffffffffffffffffffffffff1660036000858152602001908152602001600020600901600084815260200190815260200160002060090160009054906101000a900473ffffffffffffffffffffffffffffffffffffffff1673ffffffffffffffffffffffffffffffffffffffff1614612a2c576040517f08c379a0000000000000000000000000000000000000000000000000000000008152600401612a2390614bf8565b60405180910390fd5b8060036000858152602001908152602001600020600901600084815260200190815260200160002060030181905550600460036000858152602001908152602001600020600901600084815260200190815260200160002060000160006101000a81548160ff02191690836007811115612aa257fe5b02179055507fb39f6fe30ae4ea54eff79d31c2afcdea552f5a0820c855d0f6e4e1d117d16b2e838383604051612ada93929190614d78565b60405180910390a1505050565b6000612b07600160008481526020019081526020016000206000016137cd565b9050919050565b6000612b1861358d565b73ffffffffffffffffffffffffffffffffffffffff1660036000858152602001908152602001600020600901600084815260200190815260200160002060090160009054906101000a900473ffffffffffffffffffffffffffffffffffffffff1673ffffffffffffffffffffffffffffffffffffffff161480612c175750612b9e61358d565b73ffffffffffffffffffffffffffffffffffffffff1660036000858152602001908152602001600020600901600084815260200190815260200160002060080160009054906101000a900473ffffffffffffffffffffffffffffffffffffffff1673ffffffffffffffffffffffffffffffffffffffff16145b612c56576040517f08c379a0000000000000000000000000000000000000000000000000000000008152600401612c4d90614cd8565b60405180910390fd5b60009050612c6261358d565b73ffffffffffffffffffffffffffffffffffffffff1660036000858152602001908152602001600020600901600084815260200190815260200160002060090160009054906101000a900473ffffffffffffffffffffffffffffffffffffffff1673ffffffffffffffffffffffffffffffffffffffff161415612d2357600160036000858152602001908152602001600020600901600084815260200190815260200160002060000160066101000a81548160ff0219169083151502179055505b612d2b61358d565b73ffffffffffffffffffffffffffffffffffffffff1660036000858152602001908152602001600020600901600084815260200190815260200160002060080160009054906101000a900473ffffffffffffffffffffffffffffffffffffffff1673ffffffffffffffffffffffffffffffffffffffff161415612dec57600160036000858152602001908152602001600020600901600084815260200190815260200160002060000160056101000a81548160ff0219169083151502179055505b6001151560036000858152602001908152602001600020600901600084815260200190815260200160002060000160069054906101000a900460ff161515148015612e7257506001151560036000858152602001908152602001600020600901600084815260200190815260200160002060000160059054906101000a900460ff161515145b15612f0157600560036000858152602001908152602001600020600901600084815260200190815260200160002060000160006101000a81548160ff02191690836007811115612ebe57fe5b02179055507f1cca725889d27a46f38b58dd66a77cba5bc3d254b9c502b10ae4d7846cfa42638383604051612ef4929190614d4f565b60405180910390a1600190505b92915050565b6000612f1161358d565b73ffffffffffffffffffffffffffffffffffffffff166003600085815260200190815260200160002060040160009054906101000a900473ffffffffffffffffffffffffffffffffffffffff1673ffffffffffffffffffffffffffffffffffffffff161480612ffc5750612f8361358d565b73ffffffffffffffffffffffffffffffffffffffff1660036000858152602001908152602001600020600901600084815260200190815260200160002060080160009054906101000a900473ffffffffffffffffffffffffffffffffffffffff1673ffffffffffffffffffffffffffffffffffffffff16145b61303b576040517f08c379a000000000000000000000000000000000000000000000000000000000815260040161303290614b98565b60405180910390fd5b6000905061304761358d565b73ffffffffffffffffffffffffffffffffffffffff166003600085815260200190815260200160002060040160009054906101000a900473ffffffffffffffffffffffffffffffffffffffff1673ffffffffffffffffffffffffffffffffffffffff1614156130f457600160036000858152602001908152602001600020600901600084815260200190815260200160002060000160086101000a81548160ff0219169083151502179055505b6130fc61358d565b73ffffffffffffffffffffffffffffffffffffffff1660036000858152602001908152602001600020600901600084815260200190815260200160002060080160009054906101000a900473ffffffffffffffffffffffffffffffffffffffff1673ffffffffffffffffffffffffffffffffffffffff1614156131bd57600160036000858152602001908152602001600020600901600084815260200190815260200160002060000160076101000a81548160ff0219169083151502179055505b6001151560036000858152602001908152602001600020600901600084815260200190815260200160002060000160089054906101000a900460ff16151514801561324357506001151560036000858152602001908152602001600020600901600084815260200190815260200160002060000160079054906101000a900460ff161515145b156132d257600660036000858152602001908152602001600020600901600084815260200190815260200160002060000160006101000a81548160ff0219169083600781111561328f57fe5b02179055507f6fe789f01467d87832cddfe60c4c0e2171e09c7d7f7163cace200495d6408bf383836040516132c5929190614d4f565b60405180910390a1600190505b92915050565b7fb528929ed79eb79a87ae6f578d3125509c91bfea9ac8b7fb9f69aa0bc28298dd60001b81565b60026020528060005260406000206000915090505481565b606060036000848152602001908152602001600020600a0160008373ffffffffffffffffffffffffffffffffffffffff1673ffffffffffffffffffffffffffffffffffffffff1681526020019081526020016000208054806020026020016040519081016040528092919081815260200182805480156133b657602002820191906000526020600020905b8154815260200190600101908083116133a2575b5050505050905092915050565b6133cb61358d565b73ffffffffffffffffffffffffffffffffffffffff166000809054906101000a900473ffffffffffffffffffffffffffffffffffffffff1673ffffffffffffffffffffffffffffffffffffffff1614613459576040517f08c379a000000000000000000000000000000000000000000000000000000000815260040161345090614c78565b60405180910390fd5b600073ffffffffffffffffffffffffffffffffffffffff168173ffffffffffffffffffffffffffffffffffffffff1614156134c9576040517f08c379a00000000000000000000000000000000000000000000000000000000081526004016134c090614b78565b60405180910390fd5b8073ffffffffffffffffffffffffffffffffffffffff166000809054906101000a900473ffffffffffffffffffffffffffffffffffffffff1673ffffffffffffffffffffffffffffffffffffffff167f8be0079c531659141344cd1fd0a4f28419497f9722a3daafe3b4186f6b6457e060405160405180910390a3806000806101000a81548173ffffffffffffffffffffffffffffffffffffffff021916908373ffffffffffffffffffffffffffffffffffffffff16021790555050565b60045481565b600033905090565b6135bc60016000848152602001908152602001600020600201546135b761358d565b61244d565b6135fb576040517f08c379a00000000000000000000000000000000000000000000000000000000081526004016135f290614b38565b60405180910390fd5b61360582826137e2565b5050565b600080828401905083811015613654576040517f08c379a000000000000000000000000000000000000000000000000000000000815260040161364b90614bb8565b60405180910390fd5b8091505092915050565b6000801b600260008373ffffffffffffffffffffffffffffffffffffffff1673ffffffffffffffffffffffffffffffffffffffff168152602001908152602001600020819055506136cd816001600085815260200190815260200160002060000161393e90919063ffffffff16565b15613735576136da61358d565b73ffffffffffffffffffffffffffffffffffffffff168173ffffffffffffffffffffffffffffffffffffffff16837ff6391f5c32d9c69d2a47ea670b442974b53935d1edc7fd64eb21e047a839171b60405160405180910390a45b5050565b600061377b83836040518060400160405280601e81526020017f536166654d6174683a207375627472616374696f6e206f766572666c6f77000081525061396e565b905092915050565b600061379283600001836139c9565b60001c905092915050565b60006137c5836000018373ffffffffffffffffffffffffffffffffffffffff1660001b613a36565b905092915050565b60006137db82600001613a59565b9050919050565b6000801b600260008373ffffffffffffffffffffffffffffffffffffffff1673ffffffffffffffffffffffffffffffffffffffff1681526020019081526020016000205414613866576040517f08c379a000000000000000000000000000000000000000000000000000000000815260040161385d90614c38565b60405180910390fd5b81600260008373ffffffffffffffffffffffffffffffffffffffff1673ffffffffffffffffffffffffffffffffffffffff168152602001908152602001600020819055506138d28160016000858152602001908152602001600020600001613a6a90919063ffffffff16565b1561393a576138df61358d565b73ffffffffffffffffffffffffffffffffffffffff168173ffffffffffffffffffffffffffffffffffffffff16837f2f8788117e7eff1d82e926ec794901d17c78024a50270940304540a733656f0d60405160405180910390a45b5050565b6000613966836000018373ffffffffffffffffffffffffffffffffffffffff1660001b613a9a565b905092915050565b60008383111582906139b6576040517f08c379a00000000000000000000000000000000000000000000000000000000081526004016139ad9190614af6565b60405180910390fd5b5060008385039050809150509392505050565b600081836000018054905011613a14576040517f08c379a0000000000000000000000000000000000000000000000000000000008152600401613a0b90614b18565b60405180910390fd5b826000018281548110613a2357fe5b9060005260206000200154905092915050565b600080836001016000848152602001908152602001600020541415905092915050565b600081600001805490509050919050565b6000613a92836000018373ffffffffffffffffffffffffffffffffffffffff1660001b613b82565b905092915050565b60008083600101600084815260200190815260200160002054905060008114613b765760006001820390506000600186600001805490500390506000866000018281548110613ae557fe5b9060005260206000200154905080876000018481548110613b0257fe5b9060005260206000200181905550600183018760010160008381526020019081526020016000208190555086600001805480613b3a57fe5b60019003818190600052602060002001600090559055866001016000878152602001908152602001600020600090556001945050505050613b7c565b60009150505b92915050565b6000613b8e8383613a36565b613be7578260000182908060018154018082558091505060019003906000526020600020016000909190919091505582600001805490508360010160008481526020019081526020016000208190555060019050613bec565b600090505b92915050565b828054828255906000526020600020908101928215613c6b579160200282015b82811115613c6a5782518260006101000a81548173ffffffffffffffffffffffffffffffffffffffff021916908373ffffffffffffffffffffffffffffffffffffffff16021790555091602001919060010190613c12565b5b509050613c789190613d64565b5090565b60405180610240016040528060006007811115613c9557fe5b8152602001600015158152602001600015158152602001600015158152602001600015158152602001600015158152602001600015158152602001600015158152602001600015158152602001600081526020016000815260200160008152602001600081526020016000815260200160008152602001600073ffffffffffffffffffffffffffffffffffffffff168152602001600073ffffffffffffffffffffffffffffffffffffffff168152602001600073ffffffffffffffffffffffffffffffffffffffff1681525090565b613da491905b80821115613da057600081816101000a81549073ffffffffffffffffffffffffffffffffffffffff021916905550600101613d6a565b5090565b90565b600081359050613db681614fd7565b92915050565b600082601f830112613dcd57600080fd5b8135613de0613ddb82614e59565b614e2c565b91508181835260208401935060208101905083856020840282011115613e0557600080fd5b60005b83811015613e355781613e1b8882613da7565b845260208401935060208301925050600181019050613e08565b5050505092915050565b600081359050613e4e81614fee565b92915050565b600081359050613e6381615005565b92915050565b600060208284031215613e7b57600080fd5b6000613e8984828501613da7565b91505092915050565b60008060008060808587031215613ea857600080fd5b600085013567ffffffffffffffff811115613ec257600080fd5b613ece87828801613dbc565b945050602085013567ffffffffffffffff811115613eeb57600080fd5b613ef787828801613dbc565b9350506040613f0887828801613da7565b9250506060613f1987828801613e54565b91505092959194509250565b600060208284031215613f3757600080fd5b6000613f4584828501613e3f565b91505092915050565b60008060408385031215613f6157600080fd5b6000613f6f85828601613e3f565b9250506020613f8085828601613da7565b9150509250929050565b60008060408385031215613f9d57600080fd5b6000613fab85828601613e3f565b9250506020613fbc85828601613e54565b9150509250929050565b600060208284031215613fd857600080fd5b6000613fe684828501613e54565b91505092915050565b6000806040838503121561400257600080fd5b600061401085828601613e54565b925050602061402185828601613da7565b9150509250929050565b6000806040838503121561403e57600080fd5b600061404c85828601613e54565b925050602083013567ffffffffffffffff81111561406957600080fd5b61407585828601613dbc565b9150509250929050565b6000806040838503121561409257600080fd5b60006140a085828601613e54565b92505060206140b185828601613e54565b9150509250929050565b6000806000606084860312156140d057600080fd5b60006140de86828701613e54565b93505060206140ef86828701613e54565b925050604061410086828701613e54565b9150509250925092565b60008060008060008060008060006101208a8c03121561412957600080fd5b60006141378c828d01613e54565b99505060206141488c828d01613e54565b98505060406141598c828d01613e54565b975050606061416a8c828d01613e54565b965050608061417b8c828d01613e54565b95505060a061418c8c828d01613e54565b94505060c061419d8c828d01613da7565b93505060e06141ae8c828d01613da7565b9250506101006141c08c828d01613da7565b9150509295985092959850929598565b60006141dc8383614200565b60208301905092915050565b60006141f48383614a65565b60208301905092915050565b61420981614f0f565b82525050565b61421881614f0f565b82525050565b600061422982614ea1565b6142338185614edc565b935061423e83614e81565b8060005b8381101561426f57815161425688826141d0565b975061426183614ec2565b925050600181019050614242565b5085935050505092915050565b600061428782614eac565b6142918185614eed565b935061429c83614e91565b8060005b838110156142cd5781516142b488826141e8565b97506142bf83614ecf565b9250506001810190506142a0565b5085935050505092915050565b6142e381614f21565b82525050565b6142f281614f21565b82525050565b61430181614f2d565b82525050565b61431081614f74565b82525050565b600061432182614eb7565b61432b8185614efe565b935061433b818560208601614f86565b61434481614fb9565b840191505092915050565b600061435c602283614efe565b91507f456e756d657261626c655365743a20696e646578206f7574206f6620626f756e60008301527f64730000000000000000000000000000000000000000000000000000000000006020830152604082019050919050565b60006143c2602f83614efe565b91507f416363657373436f6e74726f6c3a2073656e646572206d75737420626520616e60008301527f2061646d696e20746f206772616e7400000000000000000000000000000000006020830152604082019050919050565b6000614428602183614efe565b91507f616464206d616e756661747572657220746f2063616d706169676e206669727360008301527f74000000000000000000000000000000000000000000000000000000000000006020830152604082019050919050565b600061448e602683614efe565b91507f4f776e61626c653a206e6577206f776e657220697320746865207a65726f206160008301527f64647265737300000000000000000000000000000000000000000000000000006020830152604082019050919050565b60006144f4603083614efe565b91507f4f6e6c792072656369766572206f662063616d617069676e4964206f7220636f60008301527f757269657220697320616c6c6f776564000000000000000000000000000000006020830152604082019050919050565b600061455a601b83614efe565b91507f536166654d6174683a206164646974696f6e206f766572666c6f7700000000006000830152602082019050919050565b600061459a603483614efe565b91507f4f6e6c7920636f6f7264696e61746f72206f662063616d617069676e4964206f60008301527f7220636f757269657220697320616c6c6f7765640000000000000000000000006020830152604082019050919050565b6000614600602583614efe565b91507f4f6e6c79206d616e756661637475726572206f6620626174636820697320616c60008301527f6c6f7765640000000000000000000000000000000000000000000000000000006020830152604082019050919050565b6000614666601b83614efe565b91507f4f6e6c7920636f6f7264696e61746f7220697320616c6c6f77656400000000006000830152602082019050919050565b60006146a6602d83614efe565b91507f5573657220616c726561647920686173206120726f6c6528736565207768696360008301527f68526f6c65206d6574686f6429000000000000000000000000000000000000006020830152604082019050919050565b600061470c602983614efe565b91507f4f6e6c7920636f6f7264696e61746f72206f662063616d617069676e4964206960008301527f7320616c6c6f77656400000000000000000000000000000000000000000000006020830152604082019050919050565b6000614772602083614efe565b91507f4f776e61626c653a2063616c6c6572206973206e6f7420746865206f776e65726000830152602082019050919050565b60006147b2601583614efe565b91507f4f6e6c792061646d696e20697320616c6c6f77656400000000000000000000006000830152602082019050919050565b60006147f2601d83614efe565b91507f61646420636f757269657220746f2063616d706169676e2066697273740000006000830152602082019050919050565b6000614832603083614efe565b91507f4f6e6c79206d616e756661637475726572206f7220636f7572696572206f662060008301527f626174636820697320616c6c6f776564000000000000000000000000000000006020830152604082019050919050565b6000614898602f83614efe565b91507f416363657373436f6e74726f6c3a2063616e206f6e6c792072656e6f756e636560008301527f20726f6c657320666f722073656c6600000000000000000000000000000000006020830152604082019050919050565b610240820160008201516149086000850182614307565b50602082015161491b60208501826142da565b50604082015161492e60408501826142da565b50606082015161494160608501826142da565b50608082015161495460808501826142da565b5060a082015161496760a08501826142da565b5060c082015161497a60c08501826142da565b5060e082015161498d60e08501826142da565b506101008201516149a26101008501826142da565b506101208201516149b7610120850182614a65565b506101408201516149cc610140850182614a65565b506101608201516149e1610160850182614a65565b506101808201516149f6610180850182614a65565b506101a0820151614a0b6101a0850182614a65565b506101c0820151614a206101c0850182614a65565b506101e0820151614a356101e0850182614200565b50610200820151614a4a610200850182614200565b50610220820151614a5f610220850182614200565b50505050565b614a6e81614f6a565b82525050565b614a7d81614f6a565b82525050565b6000602082019050614a98600083018461420f565b92915050565b60006020820190508181036000830152614ab8818461427c565b905092915050565b6000602082019050614ad560008301846142e9565b92915050565b6000602082019050614af060008301846142f8565b92915050565b60006020820190508181036000830152614b108184614316565b905092915050565b60006020820190508181036000830152614b318161434f565b9050919050565b60006020820190508181036000830152614b51816143b5565b9050919050565b60006020820190508181036000830152614b718161441b565b9050919050565b60006020820190508181036000830152614b9181614481565b9050919050565b60006020820190508181036000830152614bb1816144e7565b9050919050565b60006020820190508181036000830152614bd18161454d565b9050919050565b60006020820190508181036000830152614bf18161458d565b9050919050565b60006020820190508181036000830152614c11816145f3565b9050919050565b60006020820190508181036000830152614c3181614659565b9050919050565b60006020820190508181036000830152614c5181614699565b9050919050565b60006020820190508181036000830152614c71816146ff565b9050919050565b60006020820190508181036000830152614c9181614765565b9050919050565b60006020820190508181036000830152614cb1816147a5565b9050919050565b60006020820190508181036000830152614cd1816147e5565b9050919050565b60006020820190508181036000830152614cf181614825565b9050919050565b60006020820190508181036000830152614d118161488b565b9050919050565b600061024082019050614d2e60008301846148f1565b92915050565b6000602082019050614d496000830184614a74565b92915050565b6000604082019050614d646000830185614a74565b614d716020830184614a74565b9392505050565b6000606082019050614d8d6000830186614a74565b614d9a6020830185614a74565b614da76040830184614a74565b949350505050565b600060e082019050614dc4600083018a614a74565b614dd16020830189614a74565b614dde6040830188614a74565b614deb606083018761420f565b614df8608083018661420f565b81810360a0830152614e0a818561421e565b905081810360c0830152614e1e818461421e565b905098975050505050505050565b6000604051905081810181811067ffffffffffffffff82111715614e4f57600080fd5b8060405250919050565b600067ffffffffffffffff821115614e7057600080fd5b602082029050602081019050919050565b6000819050602082019050919050565b6000819050602082019050919050565b600081519050919050565b600081519050919050565b600081519050919050565b6000602082019050919050565b6000602082019050919050565b600082825260208201905092915050565b600082825260208201905092915050565b600082825260208201905092915050565b6000614f1a82614f4a565b9050919050565b60008115159050919050565b6000819050919050565b6000819050614f4582614fca565b919050565b600073ffffffffffffffffffffffffffffffffffffffff82169050919050565b6000819050919050565b6000614f7f82614f37565b9050919050565b60005b83811015614fa4578082015181840152602081019050614f89565b83811115614fb3576000848401525b50505050565b6000601f19601f8301169050919050565b60088110614fd457fe5b50565b614fe081614f0f565b8114614feb57600080fd5b50565b614ff781614f2d565b811461500257600080fd5b50565b61500e81614f6a565b811461501957600080fd5b5056fea2646970667358221220b6b295fd5e595dc000e6194355e47f667a3856a6e7efe2a8cb1ee41a4a3ce95264736f6c63430006020033",
  "source": "pragma solidity ^0.6.0;\npragma experimental ABIEncoderV2;\n\nimport \"./utils/EnumerableSet.sol\";\nimport \"./access/AccessControl.sol\";\nimport \"./access/Ownable.sol\";\nimport \"./math/SafeMath.sol\";\n\nimport \"./Roles.sol\";\n\n\ncontract Storage {\n    enum BatchStages {\n        NotStarted,\n        PLAPacked,\n        PLAPickedUpByCourier1, //states chages to this with sig of coordinator and courier both\n        PLARecivedByManufaturer, //states chages to this with sig of courier and manufaturer both\n        MasksReady,\n        MasksPickedUpByCourier2, //states chages to this with sig of manufature and courier both\n        MasksRceivedByReceiver, //states chages to this with sig of courier and reciver both\n        MasksVerifiedForQuality\n    }\n    struct AddressSet {\n        address[] addresses;\n        mapping(address => uint256) addressIndex;\n    }\n    // //what else?\n    // enum CampaignStages{\n    //     campaignStarted,\n    //     campaignFinished\n    // }\n    struct Batch {\n        BatchStages stage;\n        bool isPLAPickedUpCourier1;\n        bool isPLAPickedUpCoordinator;\n        bool isPLARecivedCourier1;\n        bool isPLAReceivedManufacturer;\n        bool isMasksPickedUpCourier2;\n        bool isMasksPickedUpManufacturer;\n        bool isMasksaReceviedCourier2;\n        bool isMasksReceviedReceviver;\n        uint256 amountOfPLA;\n        uint256 amountOfExpectedMasks;\n        uint256 amountOfMasksMade;\n        uint256 tfForDeliveryToManufacturer;\n        uint256 tfForMakingMasks;\n        uint256 tfForDeliveryToReciver;\n        address courier1;\n        address courier2;\n        address manufacturer;\n    }\n\n    struct Campaign {\n        // CampaignStages stage,\n        uint256 totalPLA;\n        uint256 currentPLA;\n        uint256 batchCounter;\n        address coordinator;\n        address receiver;\n        AddressSet manufacturers;\n        AddressSet couriers;\n        mapping(uint256 => Batch) batches;\n        mapping(address=>uint256[]) belongsToBatch;\n        // uint256 batchSize;\n    }\n\n    mapping(uint256 => Campaign) campaigns; //campaign's Index in the campaigns array + 1 (becuse 0 means it is not in the array)\n    uint256 public campaignCounter = 1;\n    mapping(address => uint256[]) belongsToCampign;\n    \n    \n}\n\n\ncontract CampaignGenerator is Ownable, Roles, Storage {\n    using SafeMath for uint256;\n\n    event CampaignStarted(uint256 campaignId);\n    event PLAPacked(uint256 campaignId, uint256 branchId);\n    event PLAPickedUpByCourier1(uint256 campaignId, uint256 branchId); //emits with sig of coordinator and courier both\n    event PLARecivedByManufacturer(uint256 campaignId, uint256 branchId); //emits with sig of courier and manufaturer both\n    event MasksReady(\n        uint256 campaignId,\n        uint256 branchId,\n        uint256 amountOfMasksMade\n    );\n    event MasksPickedUpByCourier2(uint256 campaignId, uint256 branchId); //emits with sig of manufature and courier both\n    event MasksRceivedByReceiver(uint256 campaignId, uint256 branchId); //emitswith sig of courier and reciver both\n    event MasksVerifiedForQuality(uint256 campaignId, uint256 branchId);\n\n    constructor(address _admin) public Roles(_admin) {}\n\n    function makeCoordinator(address _who) public onlyAdmin() {\n        grantRole(COORDINATOR_ROLE, _who);\n    }\n\n    function startCampaign(\n        address[] memory _manufacturers,\n        address[] memory _couriers,\n        address _receiver,\n        uint256 _totalPLA\n    ) public onlyCoordinator() returns (uint256 campaignId) {\n        campaignId = campaignCounter;\n        Campaign storage campaign = campaigns[campaignId];\n        campaignCounter = campaignCounter.add(1);\n\n         belongsToCampign[_msgSender()].push(campaignId);\n        //In future iteration campaign id can be deterministically generated form title and description of the campaign i.e. keccak(title+description)\n\n        campaign.coordinator = _msgSender();\n\n        for (uint256 i = 0; i < _manufacturers.length; i = i.add(1)) {\n            grantRole(MANUFATURER_ROLE, _manufacturers[i]);\n            campaign.manufacturers.addressIndex[_manufacturers[i]] = i.add(1);\n            belongsToCampign[_manufacturers[i]].push(campaignId);\n        }\n        for (uint256 i = 0; i < _couriers.length; i = i.add(1)) {\n            grantRole(COURIER_ROLE, _couriers[i]);\n            campaign.couriers.addressIndex[_couriers[i]] = i.add(1);\n            belongsToCampign[_couriers[i]].push(campaignId);\n        }\n\n        campaign.manufacturers.addresses = _manufacturers;\n        campaign.couriers.addresses = _couriers;\n\n        //add receiver\n        grantRole(RECIVER_ROLE,_receiver);\n        campaign.receiver = _receiver;\n        belongsToCampign[_receiver].push(campaignId);\n        campaign.batchCounter = 0;\n\n        campaign.totalPLA = _totalPLA;\n        campaign.currentPLA = _totalPLA;\n        emit CampaignStarted(campaignId);\n    }\n\n    function addManufacturers(\n        uint256 _campaignId,\n        address[] memory _manufacturers\n    ) public onlyCoordinator() {\n        require(\n            campaigns[_campaignId].coordinator == _msgSender(),\n            \"Only coordinator of camapignId is allowed\"\n        );\n        Campaign storage campaign = campaigns[_campaignId];\n        uint256 arrayLength = campaign.manufacturers.addresses.length;\n\n        for (uint256 i = 0; i < _manufacturers.length; i = i.add(1)) {\n            grantRole(MANUFATURER_ROLE, _manufacturers[i]);\n\n            campaign.manufacturers.addresses.push(_manufacturers[i]);\n            campaign.manufacturers.addressIndex[_manufacturers[i]] = arrayLength\n                .add(i.add(1));\n            belongsToCampign[_manufacturers[i]].push(_campaignId);\n        }\n    }\n\n    function addCouriers(uint256 _campaignId, address[] memory _couriers)\n        public\n        onlyCoordinator()\n    {\n        require(\n            campaigns[_campaignId].coordinator == _msgSender(),\n            \"Only coordinator of camapignId is allowed\"\n        );\n        Campaign storage campaign = campaigns[_campaignId];\n        uint256 arrayLength = campaign.couriers.addresses.length;\n\n        for (uint256 i = 0; i < _couriers.length; i = i.add(1)) {\n            grantRole(MANUFATURER_ROLE, _couriers[i]);\n\n            campaign.couriers.addresses.push(_couriers[i]);\n            campaign.couriers.addressIndex[_couriers[i]] = arrayLength.add(\n                i.add(1)\n            );\n             belongsToCampign[_couriers[i]].push(_campaignId);\n        }\n    }\n\n    function createNewBatch(\n        uint256 _campaignId,\n        uint256 _amountOfPLA,\n        uint256 _amountOfExpectedMasks,\n        uint256 _tfForDeliveryToManufacturer,\n        uint256 _tfForMakingMasks,\n        uint256 _tfForDeliveryToReciver,\n        address _courier1,\n        address _courier2,\n        address _manufacturer\n    ) public onlyCoordinator() returns(uint256 batchId){\n        require(\n            campaigns[_campaignId].coordinator == _msgSender(),\n            \"Only coordinator of camapignId is allowed\"\n        );\n        require(\n            campaigns[_campaignId].couriers.addressIndex[_courier1] != 0,\n            \"add courier to campaign first\"\n        );\n        require(\n            campaigns[_campaignId].couriers.addressIndex[_courier2] != 0,\n            \"add courier to campaign first\"\n        );\n        require(\n            campaigns[_campaignId].manufacturers.addressIndex[_manufacturer] != 0,\n            \"add manufaturer to campaign first\"\n        );\n        campaigns[_campaignId].batchCounter = campaigns[_campaignId]\n            .batchCounter\n            .add(1);\n\n        batchId = campaigns[_campaignId].batchCounter;\n        Batch storage batch = campaigns[_campaignId].batches[batchId];\n        //substract the PLA from currentPLA\n        campaigns[_campaignId].currentPLA = campaigns[_campaignId].currentPLA.sub(_amountOfPLA);\n        //update the batchStage\n        batch.stage = BatchStages.PLAPacked;\n\n        batch.amountOfPLA = _amountOfPLA;\n        batch.amountOfExpectedMasks = _amountOfExpectedMasks;\n\n        batch.tfForDeliveryToManufacturer = _tfForDeliveryToManufacturer;\n\n        batch.tfForMakingMasks = _tfForMakingMasks;\n\n        batch.tfForDeliveryToReciver = _tfForDeliveryToReciver;\n\n        batch.courier1 = _courier1;\n        campaigns[_campaignId].belongsToBatch[_courier1].push(batchId);\n\n        batch.courier2 = _courier2;\n        campaigns[_campaignId].belongsToBatch[_courier2].push(batchId);\n\n        batch.manufacturer = _manufacturer;\n        campaigns[_campaignId].belongsToBatch[_manufacturer].push(batchId);\n\n        emit PLAPacked(_campaignId, batchId);\n    }\n\n    //the chain Starts\n    function confirmPLAPickedUpByCourier1(uint256 _campaignId, uint256 _batchId)\n        public\n        returns (bool stageChange)\n    {\n        require(\n            campaigns[_campaignId].coordinator == _msgSender() ||\n                campaigns[_campaignId].batches[_batchId].courier1 ==\n                _msgSender(),\n            \"Only coordinator of camapignId or courier is allowed\"\n        );\n        stageChange = false;\n        if (campaigns[_campaignId].coordinator == _msgSender()) {\n            campaigns[_campaignId].batches[_batchId]\n                .isPLAPickedUpCoordinator = true;\n        }\n        if (campaigns[_campaignId].batches[_batchId].courier1 == _msgSender()) {\n            campaigns[_campaignId].batches[_batchId]\n                .isPLAPickedUpCourier1 = true;\n        }\n        if (\n            campaigns[_campaignId].batches[_batchId].isPLAPickedUpCoordinator ==\n            true &&\n            campaigns[_campaignId].batches[_batchId].isPLAPickedUpCourier1 ==\n            true\n        ) {\n            campaigns[_campaignId].batches[_batchId].stage = BatchStages\n                .PLAPickedUpByCourier1;\n\n            emit PLAPickedUpByCourier1(_campaignId, _batchId);\n            stageChange = true;\n        }\n    }\n\n    function confirmPLARecivedByManufacturer(\n        uint256 _campaignId,\n        uint256 _batchId\n    ) public returns (bool stageChange) {\n        require(\n            campaigns[_campaignId].batches[_batchId].manufacturer ==\n                _msgSender() ||\n                campaigns[_campaignId].batches[_batchId].courier1 ==\n                _msgSender(),\n            \"Only manufacturer or courier of batch is allowed\"\n        );\n        stageChange = false;\n        if (\n            campaigns[_campaignId].batches[_batchId].manufacturer ==\n            _msgSender()\n        ) {\n            campaigns[_campaignId].batches[_batchId]\n                .isPLAReceivedManufacturer = true;\n        }\n        if (campaigns[_campaignId].batches[_batchId].courier1 == _msgSender()) {\n            campaigns[_campaignId].batches[_batchId]\n                .isPLARecivedCourier1 = true;\n        }\n        if (\n            campaigns[_campaignId].batches[_batchId]\n                .isPLAReceivedManufacturer ==\n            true &&\n            campaigns[_campaignId].batches[_batchId].isPLARecivedCourier1 ==\n            true\n        ) {\n            campaigns[_campaignId].batches[_batchId].stage = BatchStages\n                .PLARecivedByManufaturer;\n\n            emit PLARecivedByManufacturer(_campaignId, _batchId);\n            stageChange = true;\n        }\n    }\n\n    function confirmMasksMade(\n        uint256 _campaignId,\n        uint256 _batchId,\n        uint256 _amountOfMasksMade\n    ) public {\n        require(\n            campaigns[_campaignId].batches[_batchId].manufacturer ==\n                _msgSender(),\n            \"Only manufacturer of batch is allowed\"\n        );\n        campaigns[_campaignId].batches[_batchId]\n            .amountOfMasksMade = _amountOfMasksMade;\n        campaigns[_campaignId].batches[_batchId].stage = BatchStages.MasksReady;\n        emit MasksReady(_campaignId, _batchId, _amountOfMasksMade);\n    }\n\n    function confirmMasksPickedUpByCourier2(\n        uint256 _campaignId,\n        uint256 _batchId\n    ) public returns (bool stageChange) {\n        require(\n            campaigns[_campaignId].batches[_batchId].manufacturer ==\n                _msgSender() ||\n                campaigns[_campaignId].batches[_batchId].courier2 ==\n                _msgSender(),\n            \"Only manufacturer or courier of batch is allowed\"\n        );\n        stageChange = false;\n        if (\n            campaigns[_campaignId].batches[_batchId].manufacturer ==\n            _msgSender()\n        ) {\n            campaigns[_campaignId].batches[_batchId]\n                .isMasksPickedUpManufacturer = true;\n        }\n        if (campaigns[_campaignId].batches[_batchId].courier2 == _msgSender()) {\n            campaigns[_campaignId].batches[_batchId]\n                .isMasksPickedUpCourier2 = true;\n        }\n        if (\n            campaigns[_campaignId].batches[_batchId]\n                .isMasksPickedUpManufacturer ==\n            true &&\n            campaigns[_campaignId].batches[_batchId].isMasksPickedUpCourier2 ==\n            true\n        ) {\n            campaigns[_campaignId].batches[_batchId].stage = BatchStages\n                .MasksPickedUpByCourier2;\n\n            emit MasksPickedUpByCourier2(_campaignId, _batchId);\n            stageChange = true;\n        }\n    }\n\n    function confirmMasksRceivedByReceiver(\n        uint256 _campaignId,\n        uint256 _batchId\n    ) public returns (bool stageChange) {\n        require(\n            campaigns[_campaignId].receiver == _msgSender() ||\n                campaigns[_campaignId].batches[_batchId].courier2 ==\n                _msgSender(),\n            \"Only reciver of camapignId or courier is allowed\"\n        );\n        stageChange = false;\n        if (campaigns[_campaignId].receiver == _msgSender()) {\n            campaigns[_campaignId].batches[_batchId]\n                .isMasksReceviedReceviver = true;\n        }\n        if (campaigns[_campaignId].batches[_batchId].courier2 == _msgSender()) {\n            campaigns[_campaignId].batches[_batchId]\n                .isMasksaReceviedCourier2 = true;\n        }\n        if (\n            campaigns[_campaignId].batches[_batchId].isMasksReceviedReceviver ==\n            true &&\n            campaigns[_campaignId].batches[_batchId].isMasksaReceviedCourier2 ==\n            true\n        ) {\n            campaigns[_campaignId].batches[_batchId].stage = BatchStages\n                .MasksRceivedByReceiver;\n\n            emit MasksRceivedByReceiver(_campaignId, _batchId);\n            stageChange = true;\n        }\n    }\n\n    //for test\n    function getCampaignDetalis(uint256 _campaignId)\n        public\n        view\n        returns (\n            uint256 totalPLA,\n            uint256 currentPLA,\n            uint256 totalBatches,\n            address coordinator,\n            address receiver,\n            address[] memory manufacturers,\n            address[] memory couriers\n        )\n    {\n        coordinator = campaigns[_campaignId].coordinator;\n        totalPLA = campaigns[_campaignId].totalPLA;\n        currentPLA = campaigns[_campaignId].currentPLA;\n        receiver = campaigns[_campaignId].receiver;\n        totalBatches = campaigns[_campaignId].batchCounter;\n        manufacturers = campaigns[_campaignId].manufacturers.addresses;\n        couriers = campaigns[_campaignId].couriers.addresses;\n\n    }\n\n    function getBatchDetails(uint256 _campaignId, uint256 _batchId)\n        public\n        view\n        returns (Batch memory batch)\n    {\n        batch = campaigns[_campaignId].batches[_batchId];\n    }\n    //given the address returns all the campaigns it is part of\n    function partOfWhichCampaigns(address _who) public view returns(uint256[] memory){\n        return belongsToCampign[_who];\n    }\n    //given campaignId and address returns all the batches it is part of for that capaign\n    function partOfWhichBatches(uint256 _campaignId,address _who)public view returns(uint256[] memory){\n        return campaigns[_campaignId].belongsToBatch[_who];\n    }\n}\n",
  "sourcePath": "/home/safu/ethereum/covid19/fromgit/COVID19-supply-chain-tracking-for-3D-printed-protective-gear/ourContracts/contracts/CampaignGenerator.sol",
  "compiler": {
    "name": "solc",
    "version": "0.6.2+commit.bacdbe57.Emscripten.clang"
  },
  "schemaVersion": "3.1.0",
  "updatedAt": "2020-05-06T05:54:04.197Z",
  "devdoc": {
    "methods": {
      "getRoleAdmin(bytes32)": {
        "details": "Returns the admin role that controls `role`. See {grantRole} and {revokeRole}.     * To change a role's admin, use {_setRoleAdmin}."
      },
      "getRoleMember(bytes32,uint256)": {
        "details": "Returns one of the accounts that have `role`. `index` must be a value between 0 and {getRoleMemberCount}, non-inclusive.     * Role bearers are not sorted in any particular way, and their ordering may change at any point.     * WARNING: When using {getRoleMember} and {getRoleMemberCount}, make sure you perform all queries on the same block. See the following https://forum.openzeppelin.com/t/iterating-over-elements-on-enumerableset-in-openzeppelin-contracts/2296[forum post] for more information."
      },
      "getRoleMemberCount(bytes32)": {
        "details": "Returns the number of accounts that have `role`. Can be used together with {getRoleMember} to enumerate all bearers of a role."
      },
      "hasRole(bytes32,address)": {
        "details": "Returns `true` if `account` has been granted `role`."
      },
      "owner()": {
        "details": "Returns the address of the current owner."
      },
      "renounceOwnership()": {
        "details": "Leaves the contract without owner. It will not be possible to call `onlyOwner` functions anymore. Can only be called by the current owner.     * NOTE: Renouncing ownership will leave the contract without an owner, thereby removing any functionality that is only available to the owner."
      },
      "renounceRole(bytes32,address)": {
        "details": "Revokes `role` from the calling account.     * Roles are often managed via {grantRole} and {revokeRole}: this function's purpose is to provide a mechanism for accounts to lose their privileges if they are compromised (such as when a trusted device is misplaced).     * If the calling account had been granted `role`, emits a {RoleRevoked} event.     * Requirements:     * - the caller must be `account`."
      },
      "transferOwnership(address)": {
        "details": "Transfers ownership of the contract to a new account (`newOwner`). Can only be called by the current owner."
      }
    }
  },
  "userdoc": {
    "methods": {}
  }
}