{
  "contractName": "CampaignGenerator",
  "abi": [
    {
      "inputs": [
        {
          "internalType": "address",
          "name": "_admin",
          "type": "address"
        }
      ],
      "stateMutability": "nonpayable",
      "type": "constructor"
    },
    {
      "anonymous": false,
      "inputs": [
        {
          "indexed": false,
          "internalType": "uint256",
          "name": "campaignId",
          "type": "uint256"
        }
      ],
      "name": "CampaignStarted",
      "type": "event"
    },
    {
      "anonymous": false,
      "inputs": [
        {
          "indexed": false,
          "internalType": "uint256",
          "name": "campaignId",
          "type": "uint256"
        },
        {
          "indexed": false,
          "internalType": "uint256",
          "name": "branchId",
          "type": "uint256"
        }
      ],
      "name": "MasksPickedUpByCourier2",
      "type": "event"
    },
    {
      "anonymous": false,
      "inputs": [
        {
          "indexed": false,
          "internalType": "uint256",
          "name": "campaignId",
          "type": "uint256"
        },
        {
          "indexed": false,
          "internalType": "uint256",
          "name": "branchId",
          "type": "uint256"
        }
      ],
      "name": "MasksRceivedByReceiver",
      "type": "event"
    },
    {
      "anonymous": false,
      "inputs": [
        {
          "indexed": false,
          "internalType": "uint256",
          "name": "campaignId",
          "type": "uint256"
        },
        {
          "indexed": false,
          "internalType": "uint256",
          "name": "branchId",
          "type": "uint256"
        },
        {
          "indexed": false,
          "internalType": "uint256",
          "name": "amountOfMasksMade",
          "type": "uint256"
        }
      ],
      "name": "MasksReady",
      "type": "event"
    },
    {
      "anonymous": false,
      "inputs": [
        {
          "indexed": false,
          "internalType": "uint256",
          "name": "campaignId",
          "type": "uint256"
        },
        {
          "indexed": false,
          "internalType": "uint256",
          "name": "branchId",
          "type": "uint256"
        }
      ],
      "name": "MasksVerifiedForQuality",
      "type": "event"
    },
    {
      "anonymous": false,
      "inputs": [
        {
          "indexed": true,
          "internalType": "address",
          "name": "previousOwner",
          "type": "address"
        },
        {
          "indexed": true,
          "internalType": "address",
          "name": "newOwner",
          "type": "address"
        }
      ],
      "name": "OwnershipTransferred",
      "type": "event"
    },
    {
      "anonymous": false,
      "inputs": [
        {
          "indexed": false,
          "internalType": "uint256",
          "name": "campaignId",
          "type": "uint256"
        },
        {
          "indexed": false,
          "internalType": "uint256",
          "name": "branchId",
          "type": "uint256"
        }
      ],
      "name": "PLAPacked",
      "type": "event"
    },
    {
      "anonymous": false,
      "inputs": [
        {
          "indexed": false,
          "internalType": "uint256",
          "name": "campaignId",
          "type": "uint256"
        },
        {
          "indexed": false,
          "internalType": "uint256",
          "name": "branchId",
          "type": "uint256"
        }
      ],
      "name": "PLAPickedUpByCourier1",
      "type": "event"
    },
    {
      "anonymous": false,
      "inputs": [
        {
          "indexed": false,
          "internalType": "uint256",
          "name": "campaignId",
          "type": "uint256"
        },
        {
          "indexed": false,
          "internalType": "uint256",
          "name": "branchId",
          "type": "uint256"
        }
      ],
      "name": "PLARecivedByManufacturer",
      "type": "event"
    },
    {
      "anonymous": false,
      "inputs": [
        {
          "indexed": true,
          "internalType": "bytes32",
          "name": "role",
          "type": "bytes32"
        },
        {
          "indexed": true,
          "internalType": "address",
          "name": "account",
          "type": "address"
        },
        {
          "indexed": true,
          "internalType": "address",
          "name": "sender",
          "type": "address"
        }
      ],
      "name": "RoleGranted",
      "type": "event"
    },
    {
      "anonymous": false,
      "inputs": [
        {
          "indexed": true,
          "internalType": "bytes32",
          "name": "role",
          "type": "bytes32"
        },
        {
          "indexed": true,
          "internalType": "address",
          "name": "account",
          "type": "address"
        },
        {
          "indexed": true,
          "internalType": "address",
          "name": "sender",
          "type": "address"
        }
      ],
      "name": "RoleRevoked",
      "type": "event"
    },
    {
      "inputs": [],
      "name": "ADMIN_ROLE",
      "outputs": [
        {
          "internalType": "bytes32",
          "name": "",
          "type": "bytes32"
        }
      ],
      "stateMutability": "view",
      "type": "function"
    },
    {
      "inputs": [],
      "name": "COORDINATOR_ROLE",
      "outputs": [
        {
          "internalType": "bytes32",
          "name": "",
          "type": "bytes32"
        }
      ],
      "stateMutability": "view",
      "type": "function"
    },
    {
      "inputs": [],
      "name": "COURIER_ROLE",
      "outputs": [
        {
          "internalType": "bytes32",
          "name": "",
          "type": "bytes32"
        }
      ],
      "stateMutability": "view",
      "type": "function"
    },
    {
      "inputs": [],
      "name": "DEFAULT_ADMIN_ROLE",
      "outputs": [
        {
          "internalType": "bytes32",
          "name": "",
          "type": "bytes32"
        }
      ],
      "stateMutability": "view",
      "type": "function"
    },
    {
      "inputs": [],
      "name": "MANUFATURER_ROLE",
      "outputs": [
        {
          "internalType": "bytes32",
          "name": "",
          "type": "bytes32"
        }
      ],
      "stateMutability": "view",
      "type": "function"
    },
    {
      "inputs": [],
      "name": "RECIVER_ROLE",
      "outputs": [
        {
          "internalType": "bytes32",
          "name": "",
          "type": "bytes32"
        }
      ],
      "stateMutability": "view",
      "type": "function"
    },
    {
      "inputs": [
        {
          "internalType": "bytes32",
          "name": "role",
          "type": "bytes32"
        },
        {
          "internalType": "address",
          "name": "account",
          "type": "address"
        }
      ],
      "name": "_setupRole",
      "outputs": [],
      "stateMutability": "nonpayable",
      "type": "function"
    },
    {
      "inputs": [],
      "name": "campaignCounter",
      "outputs": [
        {
          "internalType": "uint256",
          "name": "",
          "type": "uint256"
        }
      ],
      "stateMutability": "view",
      "type": "function"
    },
    {
      "inputs": [
        {
          "internalType": "bytes32",
          "name": "role",
          "type": "bytes32"
        }
      ],
      "name": "getRoleAdmin",
      "outputs": [
        {
          "internalType": "bytes32",
          "name": "",
          "type": "bytes32"
        }
      ],
      "stateMutability": "view",
      "type": "function"
    },
    {
      "inputs": [
        {
          "internalType": "bytes32",
          "name": "role",
          "type": "bytes32"
        },
        {
          "internalType": "uint256",
          "name": "index",
          "type": "uint256"
        }
      ],
      "name": "getRoleMember",
      "outputs": [
        {
          "internalType": "address",
          "name": "",
          "type": "address"
        }
      ],
      "stateMutability": "view",
      "type": "function"
    },
    {
      "inputs": [
        {
          "internalType": "bytes32",
          "name": "role",
          "type": "bytes32"
        }
      ],
      "name": "getRoleMemberCount",
      "outputs": [
        {
          "internalType": "uint256",
          "name": "",
          "type": "uint256"
        }
      ],
      "stateMutability": "view",
      "type": "function"
    },
    {
      "inputs": [
        {
          "internalType": "bytes32",
          "name": "role",
          "type": "bytes32"
        },
        {
          "internalType": "address",
          "name": "account",
          "type": "address"
        }
      ],
      "name": "hasRole",
      "outputs": [
        {
          "internalType": "bool",
          "name": "",
          "type": "bool"
        }
      ],
      "stateMutability": "view",
      "type": "function"
    },
    {
      "inputs": [],
      "name": "owner",
      "outputs": [
        {
          "internalType": "address",
          "name": "",
          "type": "address"
        }
      ],
      "stateMutability": "view",
      "type": "function"
    },
    {
      "inputs": [],
      "name": "renounceOwnership",
      "outputs": [],
      "stateMutability": "nonpayable",
      "type": "function"
    },
    {
      "inputs": [
        {
          "internalType": "bytes32",
          "name": "role",
          "type": "bytes32"
        },
        {
          "internalType": "address",
          "name": "account",
          "type": "address"
        }
      ],
      "name": "renounceRole",
      "outputs": [],
      "stateMutability": "nonpayable",
      "type": "function"
    },
    {
      "inputs": [
        {
          "internalType": "address",
          "name": "newOwner",
          "type": "address"
        }
      ],
      "name": "transferOwnership",
      "outputs": [],
      "stateMutability": "nonpayable",
      "type": "function"
    },
    {
      "inputs": [
        {
          "internalType": "address",
          "name": "",
          "type": "address"
        }
      ],
      "name": "whichRole",
      "outputs": [
        {
          "internalType": "bytes32",
          "name": "",
          "type": "bytes32"
        }
      ],
      "stateMutability": "view",
      "type": "function"
    },
    {
      "inputs": [
        {
          "internalType": "address",
          "name": "_who",
          "type": "address"
        }
      ],
      "name": "makeCoordinator",
      "outputs": [],
      "stateMutability": "nonpayable",
      "type": "function"
    },
    {
      "inputs": [
        {
          "internalType": "address[]",
          "name": "_manufacturers",
          "type": "address[]"
        },
        {
          "internalType": "address[]",
          "name": "_couriers",
          "type": "address[]"
        },
        {
          "internalType": "address",
          "name": "_receiver",
          "type": "address"
        },
        {
          "internalType": "uint256",
          "name": "_totalPLA",
          "type": "uint256"
        }
      ],
      "name": "startCampaign",
      "outputs": [
        {
          "internalType": "uint256",
          "name": "campaignId",
          "type": "uint256"
        }
      ],
      "stateMutability": "nonpayable",
      "type": "function"
    },
    {
      "inputs": [
        {
          "internalType": "uint256",
          "name": "_campaignId",
          "type": "uint256"
        },
        {
          "internalType": "address[]",
          "name": "_manufacturers",
          "type": "address[]"
        }
      ],
      "name": "addManufacturers",
      "outputs": [],
      "stateMutability": "nonpayable",
      "type": "function"
    },
    {
      "inputs": [
        {
          "internalType": "uint256",
          "name": "_campaignId",
          "type": "uint256"
        },
        {
          "internalType": "address[]",
          "name": "_couriers",
          "type": "address[]"
        }
      ],
      "name": "addCouriers",
      "outputs": [],
      "stateMutability": "nonpayable",
      "type": "function"
    },
    {
      "inputs": [
        {
          "internalType": "uint256",
          "name": "_campaignId",
          "type": "uint256"
        },
        {
          "internalType": "uint256",
          "name": "_amountOfPLA",
          "type": "uint256"
        },
        {
          "internalType": "uint256",
          "name": "_amountOfExpectedMasks",
          "type": "uint256"
        },
        {
          "internalType": "uint256",
          "name": "_tfForDeliveryToManufacturer",
          "type": "uint256"
        },
        {
          "internalType": "uint256",
          "name": "_tfForMakingMasks",
          "type": "uint256"
        },
        {
          "internalType": "uint256",
          "name": "_tfForDeliveryToReciver",
          "type": "uint256"
        },
        {
          "internalType": "address",
          "name": "_courier1",
          "type": "address"
        },
        {
          "internalType": "address",
          "name": "_courier2",
          "type": "address"
        },
        {
          "internalType": "address",
          "name": "_manufacturer",
          "type": "address"
        }
      ],
      "name": "createNewBatch",
      "outputs": [
        {
          "internalType": "uint256",
          "name": "batchId",
          "type": "uint256"
        }
      ],
      "stateMutability": "nonpayable",
      "type": "function"
    },
    {
      "inputs": [
        {
          "internalType": "uint256",
          "name": "_campaignId",
          "type": "uint256"
        },
        {
          "internalType": "uint256",
          "name": "_batchId",
          "type": "uint256"
        }
      ],
      "name": "confirmPLAPickedUpByCourier1",
      "outputs": [
        {
          "internalType": "bool",
          "name": "stageChange",
          "type": "bool"
        }
      ],
      "stateMutability": "nonpayable",
      "type": "function"
    },
    {
      "inputs": [
        {
          "internalType": "uint256",
          "name": "_campaignId",
          "type": "uint256"
        },
        {
          "internalType": "uint256",
          "name": "_batchId",
          "type": "uint256"
        }
      ],
      "name": "confirmPLARecivedByManufacturer",
      "outputs": [
        {
          "internalType": "bool",
          "name": "stageChange",
          "type": "bool"
        }
      ],
      "stateMutability": "nonpayable",
      "type": "function"
    },
    {
      "inputs": [
        {
          "internalType": "uint256",
          "name": "_campaignId",
          "type": "uint256"
        },
        {
          "internalType": "uint256",
          "name": "_batchId",
          "type": "uint256"
        },
        {
          "internalType": "uint256",
          "name": "_amountOfMasksMade",
          "type": "uint256"
        }
      ],
      "name": "confirmMasksMade",
      "outputs": [],
      "stateMutability": "nonpayable",
      "type": "function"
    },
    {
      "inputs": [
        {
          "internalType": "uint256",
          "name": "_campaignId",
          "type": "uint256"
        },
        {
          "internalType": "uint256",
          "name": "_batchId",
          "type": "uint256"
        }
      ],
      "name": "confirmMasksPickedUpByCourier2",
      "outputs": [
        {
          "internalType": "bool",
          "name": "stageChange",
          "type": "bool"
        }
      ],
      "stateMutability": "nonpayable",
      "type": "function"
    },
    {
      "inputs": [
        {
          "internalType": "uint256",
          "name": "_campaignId",
          "type": "uint256"
        },
        {
          "internalType": "uint256",
          "name": "_batchId",
          "type": "uint256"
        }
      ],
      "name": "confirmMasksRceivedByReceiver",
      "outputs": [
        {
          "internalType": "bool",
          "name": "stageChange",
          "type": "bool"
        }
      ],
      "stateMutability": "nonpayable",
      "type": "function"
    },
    {
      "inputs": [
        {
          "internalType": "uint256",
          "name": "_campaignId",
          "type": "uint256"
        }
      ],
      "name": "getCampaignDetalis",
      "outputs": [
        {
          "internalType": "uint256",
          "name": "totalPLA",
          "type": "uint256"
        },
        {
          "internalType": "uint256",
          "name": "currentPLA",
          "type": "uint256"
        },
        {
          "internalType": "uint256",
          "name": "totalBatches",
          "type": "uint256"
        },
        {
          "internalType": "address",
          "name": "coordinator",
          "type": "address"
        },
        {
          "internalType": "address",
          "name": "receiver",
          "type": "address"
        },
        {
          "internalType": "address[]",
          "name": "manufacturers",
          "type": "address[]"
        },
        {
          "internalType": "address[]",
          "name": "couriers",
          "type": "address[]"
        }
      ],
      "stateMutability": "view",
      "type": "function"
    },
    {
      "inputs": [
        {
          "internalType": "uint256",
          "name": "_campaignId",
          "type": "uint256"
        },
        {
          "internalType": "uint256",
          "name": "_batchId",
          "type": "uint256"
        }
      ],
      "name": "getBatchDetails",
      "outputs": [
        {
          "components": [
            {
              "internalType": "enum Storage.BatchStages",
              "name": "stage",
              "type": "uint8"
            },
            {
              "internalType": "bool",
              "name": "isPLAPickedUpCourier1",
              "type": "bool"
            },
            {
              "internalType": "bool",
              "name": "isPLAPickedUpCoordinator",
              "type": "bool"
            },
            {
              "internalType": "bool",
              "name": "isPLARecivedCourier1",
              "type": "bool"
            },
            {
              "internalType": "bool",
              "name": "isPLAReceivedManufacturer",
              "type": "bool"
            },
            {
              "internalType": "bool",
              "name": "isMasksPickedUpCourier2",
              "type": "bool"
            },
            {
              "internalType": "bool",
              "name": "isMasksPickedUpManufacturer",
              "type": "bool"
            },
            {
              "internalType": "bool",
              "name": "isMasksaReceviedCourier2",
              "type": "bool"
            },
            {
              "internalType": "bool",
              "name": "isMasksReceviedReceviver",
              "type": "bool"
            },
            {
              "internalType": "uint256",
              "name": "amountOfPLA",
              "type": "uint256"
            },
            {
              "internalType": "uint256",
              "name": "amountOfExpectedMasks",
              "type": "uint256"
            },
            {
              "internalType": "uint256",
              "name": "amountOfMasksMade",
              "type": "uint256"
            },
            {
              "internalType": "uint256",
              "name": "tfForDeliveryToManufacturer",
              "type": "uint256"
            },
            {
              "internalType": "uint256",
              "name": "tfForMakingMasks",
              "type": "uint256"
            },
            {
              "internalType": "uint256",
              "name": "tfForDeliveryToReciver",
              "type": "uint256"
            },
            {
              "internalType": "address",
              "name": "courier1",
              "type": "address"
            },
            {
              "internalType": "address",
              "name": "courier2",
              "type": "address"
            },
            {
              "internalType": "address",
              "name": "manufacturer",
              "type": "address"
            }
          ],
          "internalType": "struct Storage.Batch",
          "name": "batch",
          "type": "tuple"
        }
      ],
      "stateMutability": "view",
      "type": "function"
    },
    {
      "inputs": [
        {
          "internalType": "address",
          "name": "_who",
          "type": "address"
        }
      ],
      "name": "partOfWhichCampaigns",
      "outputs": [
        {
          "internalType": "uint256[]",
          "name": "",
          "type": "uint256[]"
        }
      ],
      "stateMutability": "view",
      "type": "function"
    },
    {
      "inputs": [
        {
          "internalType": "uint256",
          "name": "_campaignId",
          "type": "uint256"
        },
        {
          "internalType": "address",
          "name": "_who",
          "type": "address"
        }
      ],
      "name": "partOfWhichBatches",
      "outputs": [
        {
          "internalType": "uint256[]",
          "name": "",
          "type": "uint256[]"
        }
      ],
      "stateMutability": "view",
      "type": "function"
    }
  ],
  "bytecode": "0x608060405260016004553480156200001657600080fd5b50604051620056ce380380620056ce83398181016040526200003c919081019062000522565b8060006200004f6200028a60201b60201c565b9050806000806101000a81548173ffffffffffffffffffffffffffffffffffffffff021916908373ffffffffffffffffffffffffffffffffffffffff1602179055508073ffffffffffffffffffffffffffffffffffffffff16600073ffffffffffffffffffffffffffffffffffffffff167f8be0079c531659141344cd1fd0a4f28419497f9722a3daafe3b4186f6b6457e060405160405180910390a350620001227ff23ec0bb4210edd5cba85afd05127efcd2fc6a781bfed49188da1081670b22d860001b826200029260201b60201c565b6200017a7faf8c8b3d1b230c888f16d0aac400b28aa51e631d580aaa7cb46e571590ed44e760001b7ff23ec0bb4210edd5cba85afd05127efcd2fc6a781bfed49188da1081670b22d860001b620002a860201b60201c565b620001d27f7fc3771f539a03c47afbbf258702c19273ef5e735e24ee7978081dc07288c68760001b7faf8c8b3d1b230c888f16d0aac400b28aa51e631d580aaa7cb46e571590ed44e760001b620002a860201b60201c565b6200022a7fb528929ed79eb79a87ae6f578d3125509c91bfea9ac8b7fb9f69aa0bc28298dd60001b7faf8c8b3d1b230c888f16d0aac400b28aa51e631d580aaa7cb46e571590ed44e760001b620002a860201b60201c565b620002827f5e784e45feb63c375016d4ce5c52a57b0a48b8a170bc2e31463be0d03d1c4db660001b7faf8c8b3d1b230c888f16d0aac400b28aa51e631d580aaa7cb46e571590ed44e760001b620002a860201b60201c565b505062000637565b600033905090565b620002a48282620002c760201b60201c565b5050565b8060016000848152602001908152602001600020600201819055505050565b6000801b600260008373ffffffffffffffffffffffffffffffffffffffff1673ffffffffffffffffffffffffffffffffffffffff16815260200190815260200160002054146200034e576040517f08c379a00000000000000000000000000000000000000000000000000000000081526004016200034590620005b6565b60405180910390fd5b81600260008373ffffffffffffffffffffffffffffffffffffffff1673ffffffffffffffffffffffffffffffffffffffff16815260200190815260200160002081905550620003c181600160008581526020019081526020016000206000016200043660201b620039a31790919060201c565b156200043257620003d76200028a60201b60201c565b73ffffffffffffffffffffffffffffffffffffffff168173ffffffffffffffffffffffffffffffffffffffff16837f2f8788117e7eff1d82e926ec794901d17c78024a50270940304540a733656f0d60405160405180910390a45b5050565b600062000466836000018373ffffffffffffffffffffffffffffffffffffffff1660001b6200046e60201b60201c565b905092915050565b6000620004828383620004e860201b60201c565b620004dd578260000182908060018154018082558091505060019003906000526020600020016000909190919091505582600001805490508360010160008481526020019081526020016000208190555060019050620004e2565b600090505b92915050565b600080836001016000848152602001908152602001600020541415905092915050565b6000815190506200051c816200061d565b92915050565b6000602082840312156200053557600080fd5b600062000545848285016200050b565b91505092915050565b60006200055d602d83620005d8565b91507f5573657220616c726561647920686173206120726f6c6528736565207768696360008301527f68526f6c65206d6574686f6429000000000000000000000000000000000000006020830152604082019050919050565b60006020820190508181036000830152620005d1816200054e565b9050919050565b600082825260208201905092915050565b6000620005f682620005fd565b9050919050565b600073ffffffffffffffffffffffffffffffffffffffff82169050919050565b6200062881620005e9565b81146200063457600080fd5b50565b61508780620006476000396000f3fe608060405234801561001057600080fd5b50600436106101e55760003560e01c80639010d07c1161010f578063ca15c873116100a2578063dd9e9ea511610071578063dd9e9ea5146105e4578063f241f90914610614578063f2fde38b14610644578063fca604d714610660576101e5565b8063ca15c87314610536578063cd0dc78014610566578063cfb4983c14610596578063d6d19367146105c6576101e5565b8063997be196116100de578063997be19614610496578063a217fddf146104cc578063b74af3c7146104ea578063b9d7c86d1461051a576101e5565b80639010d07c146103fa57806391d148541461042a57806391e9100d1461045a57806392b8a6c814610478576101e5565b8063518828e411610187578063715018a611610156578063715018a61461039857806375b238fc146103a257806387f1d19c146103c05780638da5cb5b146103dc576101e5565b8063518828e4146102ea578063595094271461031a5780636b366cb51461034a5780636e28458314610368576101e5565b806322f15edc116101c357806322f15edc14610266578063248a9ca31461028257806336568abe146102b25780634fa943a6146102ce576101e5565b806308c8aed3146101ea57806312e8df1d1461020657806317d05a1f14610236575b600080fd5b61020460048036036101ff9190810190613e9e565b61067e565b005b610220600480360361021b91908101906140b4565b610721565b60405161022d9190614af5565b60405180910390f35b610250600480360361024b9190810190613ec7565b610af2565b60405161025d9190614d69565b60405180910390f35b610280600480360361027b9190810190614060565b611066565b005b61029c60048036036102979190810190613f5a565b611390565b6040516102a99190614b10565b60405180910390f35b6102cc60048036036102c79190810190613f83565b6113b0565b005b6102e860048036036102e39190810190613f83565b611433565b005b61030460048036036102ff91908101906140b4565b611441565b6040516103119190614af5565b60405180910390f35b610334600480360361032f9190810190613e9e565b611839565b6040516103419190614ad3565b60405180910390f35b6103526118d0565b60405161035f9190614b10565b60405180910390f35b610382600480360361037d919081019061413f565b6118f7565b60405161038f9190614d69565b60405180910390f35b6103a0611f81565b005b6103aa6120d6565b6040516103b79190614b10565b60405180910390f35b6103da60048036036103d59190810190614060565b6120fd565b005b6103e4612427565b6040516103f19190614ab8565b60405180910390f35b610414600480360361040f9190810190613fbf565b612450565b6040516104219190614ab8565b60405180910390f35b610444600480360361043f9190810190613f83565b612482565b6040516104519190614af5565b60405180910390f35b6104626124b4565b60405161046f9190614b10565b60405180910390f35b6104806124db565b60405161048d9190614b10565b60405180910390f35b6104b060048036036104ab9190810190613ffb565b612502565b6040516104c39796959493929190614de4565b60405180910390f35b6104d4612715565b6040516104e19190614b10565b60405180910390f35b61050460048036036104ff91908101906140b4565b61271c565b6040516105119190614d4d565b60405180910390f35b610534600480360361052f91908101906140f0565b6129a2565b005b610550600480360361054b9190810190613f5a565b612b1c565b60405161055d9190614d69565b60405180910390f35b610580600480360361057b91908101906140b4565b612b43565b60405161058d9190614af5565b60405180910390f35b6105b060048036036105ab91908101906140b4565b612f3c565b6040516105bd9190614af5565b60405180910390f35b6105ce61330d565b6040516105db9190614b10565b60405180910390f35b6105fe60048036036105f99190810190613e9e565b613334565b60405161060b9190614b10565b60405180910390f35b61062e60048036036106299190810190614024565b61334c565b60405161063b9190614ad3565b60405180910390f35b61065e60048036036106599190810190613e9e565b6133f8565b005b6106686135bc565b6040516106759190614d69565b60405180910390f35b6106b27ff23ec0bb4210edd5cba85afd05127efcd2fc6a781bfed49188da1081670b22d860001b6106ad6135c2565b612482565b6106f1576040517f08c379a00000000000000000000000000000000000000000000000000000000081526004016106e890614ccd565b60405180910390fd5b61071e7faf8c8b3d1b230c888f16d0aac400b28aa51e631d580aaa7cb46e571590ed44e760001b826135ca565b50565b600061072b6135c2565b73ffffffffffffffffffffffffffffffffffffffff166003600085815260200190815260200160002060030160009054906101000a900473ffffffffffffffffffffffffffffffffffffffff1673ffffffffffffffffffffffffffffffffffffffff161480610816575061079d6135c2565b73ffffffffffffffffffffffffffffffffffffffff1660036000858152602001908152602001600020600901600084815260200190815260200160002060070160009054906101000a900473ffffffffffffffffffffffffffffffffffffffff1673ffffffffffffffffffffffffffffffffffffffff16145b610855576040517f08c379a000000000000000000000000000000000000000000000000000000000815260040161084c90614c0d565b60405180910390fd5b600090506108616135c2565b73ffffffffffffffffffffffffffffffffffffffff166003600085815260200190815260200160002060030160009054906101000a900473ffffffffffffffffffffffffffffffffffffffff1673ffffffffffffffffffffffffffffffffffffffff16141561090e57600160036000858152602001908152602001600020600901600084815260200190815260200160002060000160026101000a81548160ff0219169083151502179055505b6109166135c2565b73ffffffffffffffffffffffffffffffffffffffff1660036000858152602001908152602001600020600901600084815260200190815260200160002060070160009054906101000a900473ffffffffffffffffffffffffffffffffffffffff1673ffffffffffffffffffffffffffffffffffffffff1614156109d757600160036000858152602001908152602001600020600901600084815260200190815260200160002060000160016101000a81548160ff0219169083151502179055505b6001151560036000858152602001908152602001600020600901600084815260200190815260200160002060000160029054906101000a900460ff161515148015610a5d57506001151560036000858152602001908152602001600020600901600084815260200190815260200160002060000160019054906101000a900460ff161515145b15610aec57600260036000858152602001908152602001600020600901600084815260200190815260200160002060000160006101000a81548160ff02191690836007811115610aa957fe5b02179055507fce02b750acf4627269a555da22c6d51e4bf4efacaedecb887879277eac29a7978383604051610adf929190614d84565b60405180910390a1600190505b92915050565b6000610b287faf8c8b3d1b230c888f16d0aac400b28aa51e631d580aaa7cb46e571590ed44e760001b610b236135c2565b612482565b610b67576040517f08c379a0000000000000000000000000000000000000000000000000000000008152600401610b5e90614c4d565b60405180910390fd5b60045490506000600360008381526020019081526020016000209050610b99600160045461363e90919063ffffffff16565b60048190555060056000610bab6135c2565b73ffffffffffffffffffffffffffffffffffffffff1673ffffffffffffffffffffffffffffffffffffffff168152602001908152602001600020829080600181540180825580915050600190039060005260206000200160009091909190915055610c146135c2565b8160030160006101000a81548173ffffffffffffffffffffffffffffffffffffffff021916908373ffffffffffffffffffffffffffffffffffffffff16021790555060008090505b8651811015610da857610ca57fb528929ed79eb79a87ae6f578d3125509c91bfea9ac8b7fb9f69aa0bc28298dd60001b888381518110610c9857fe5b60200260200101516135ca565b610cb960018261363e90919063ffffffff16565b826005016001016000898481518110610cce57fe5b602002602001015173ffffffffffffffffffffffffffffffffffffffff1673ffffffffffffffffffffffffffffffffffffffff1681526020019081526020016000208190555060056000888381518110610d2457fe5b602002602001015173ffffffffffffffffffffffffffffffffffffffff1673ffffffffffffffffffffffffffffffffffffffff168152602001908152602001600020839080600181540180825580915050600190039060005260206000200160009091909190915055610da160018261363e90919063ffffffff16565b9050610c5c565b5060008090505b8551811015610efb57610df87f7fc3771f539a03c47afbbf258702c19273ef5e735e24ee7978081dc07288c68760001b878381518110610deb57fe5b60200260200101516135ca565b610e0c60018261363e90919063ffffffff16565b826007016001016000888481518110610e2157fe5b602002602001015173ffffffffffffffffffffffffffffffffffffffff1673ffffffffffffffffffffffffffffffffffffffff1681526020019081526020016000208190555060056000878381518110610e7757fe5b602002602001015173ffffffffffffffffffffffffffffffffffffffff1673ffffffffffffffffffffffffffffffffffffffff168152602001908152602001600020839080600181540180825580915050600190039060005260206000200160009091909190915055610ef460018261363e90919063ffffffff16565b9050610daf565b5085816005016000019080519060200190610f17929190613c27565b5084816007016000019080519060200190610f33929190613c27565b50610f617f5e784e45feb63c375016d4ce5c52a57b0a48b8a170bc2e31463be0d03d1c4db660001b856135ca565b838160040160006101000a81548173ffffffffffffffffffffffffffffffffffffffff021916908373ffffffffffffffffffffffffffffffffffffffff160217905550600560008573ffffffffffffffffffffffffffffffffffffffff1673ffffffffffffffffffffffffffffffffffffffff168152602001908152602001600020829080600181540180825580915050600190039060005260206000200160009091909190915055600081600201819055508281600001819055508281600101819055507f503a7c5d84c6afa3203956e339356fc5a3a8d5c44090f3ca0bfce18e820d789e826040516110559190614d69565b60405180910390a150949350505050565b61109a7faf8c8b3d1b230c888f16d0aac400b28aa51e631d580aaa7cb46e571590ed44e760001b6110956135c2565b612482565b6110d9576040517f08c379a00000000000000000000000000000000000000000000000000000000081526004016110d090614c4d565b60405180910390fd5b6110e16135c2565b73ffffffffffffffffffffffffffffffffffffffff166003600084815260200190815260200160002060030160009054906101000a900473ffffffffffffffffffffffffffffffffffffffff1673ffffffffffffffffffffffffffffffffffffffff1614611184576040517f08c379a000000000000000000000000000000000000000000000000000000000815260040161117b90614c8d565b60405180910390fd5b600060036000848152602001908152602001600020905060008160070160000180549050905060008090505b8351811015611389576111f97fb528929ed79eb79a87ae6f578d3125509c91bfea9ac8b7fb9f69aa0bc28298dd60001b8583815181106111ec57fe5b60200260200101516135ca565b8260070160000184828151811061120c57fe5b60200260200101519080600181540180825580915050600190039060005260206000200160009091909190916101000a81548173ffffffffffffffffffffffffffffffffffffffff021916908373ffffffffffffffffffffffffffffffffffffffff16021790555061129a61128b60018361363e90919063ffffffff16565b8361363e90919063ffffffff16565b8360070160010160008684815181106112af57fe5b602002602001015173ffffffffffffffffffffffffffffffffffffffff1673ffffffffffffffffffffffffffffffffffffffff168152602001908152602001600020819055506005600085838151811061130557fe5b602002602001015173ffffffffffffffffffffffffffffffffffffffff1673ffffffffffffffffffffffffffffffffffffffff16815260200190815260200160002085908060018154018082558091505060019003906000526020600020016000909190919091505561138260018261363e90919063ffffffff16565b90506111b0565b5050505050565b600060016000838152602001908152602001600020600201549050919050565b6113b86135c2565b73ffffffffffffffffffffffffffffffffffffffff168173ffffffffffffffffffffffffffffffffffffffff1614611425576040517f08c379a000000000000000000000000000000000000000000000000000000000815260040161141c90614d2d565b60405180910390fd5b61142f8282613693565b5050565b61143d828261376e565b5050565b600061144b6135c2565b73ffffffffffffffffffffffffffffffffffffffff1660036000858152602001908152602001600020600901600084815260200190815260200160002060090160009054906101000a900473ffffffffffffffffffffffffffffffffffffffff1673ffffffffffffffffffffffffffffffffffffffff16148061154a57506114d16135c2565b73ffffffffffffffffffffffffffffffffffffffff1660036000858152602001908152602001600020600901600084815260200190815260200160002060070160009054906101000a900473ffffffffffffffffffffffffffffffffffffffff1673ffffffffffffffffffffffffffffffffffffffff16145b611589576040517f08c379a000000000000000000000000000000000000000000000000000000000815260040161158090614d0d565b60405180910390fd5b600090506115956135c2565b73ffffffffffffffffffffffffffffffffffffffff1660036000858152602001908152602001600020600901600084815260200190815260200160002060090160009054906101000a900473ffffffffffffffffffffffffffffffffffffffff1673ffffffffffffffffffffffffffffffffffffffff16141561165657600160036000858152602001908152602001600020600901600084815260200190815260200160002060000160046101000a81548160ff0219169083151502179055505b61165e6135c2565b73ffffffffffffffffffffffffffffffffffffffff1660036000858152602001908152602001600020600901600084815260200190815260200160002060070160009054906101000a900473ffffffffffffffffffffffffffffffffffffffff1673ffffffffffffffffffffffffffffffffffffffff16141561171f57600160036000858152602001908152602001600020600901600084815260200190815260200160002060000160036101000a81548160ff0219169083151502179055505b6001151560036000858152602001908152602001600020600901600084815260200190815260200160002060000160049054906101000a900460ff1615151480156117a557506001151560036000858152602001908152602001600020600901600084815260200190815260200160002060000160039054906101000a900460ff161515145b15611833576003806000858152602001908152602001600020600901600084815260200190815260200160002060000160006101000a81548160ff021916908360078111156117f057fe5b02179055507fea5b9a09f5cda7a400ab3299370eb751979df1575364bf7575f0d1bfe7e43b7d8383604051611826929190614d84565b60405180910390a1600190505b92915050565b6060600560008373ffffffffffffffffffffffffffffffffffffffff1673ffffffffffffffffffffffffffffffffffffffff1681526020019081526020016000208054806020026020016040519081016040528092919081815260200182805480156118c457602002820191906000526020600020905b8154815260200190600101908083116118b0575b50505050509050919050565b7faf8c8b3d1b230c888f16d0aac400b28aa51e631d580aaa7cb46e571590ed44e760001b81565b600061192d7faf8c8b3d1b230c888f16d0aac400b28aa51e631d580aaa7cb46e571590ed44e760001b6119286135c2565b612482565b61196c576040517f08c379a000000000000000000000000000000000000000000000000000000000815260040161196390614c4d565b60405180910390fd5b6119746135c2565b73ffffffffffffffffffffffffffffffffffffffff16600360008c815260200190815260200160002060030160009054906101000a900473ffffffffffffffffffffffffffffffffffffffff1673ffffffffffffffffffffffffffffffffffffffff1614611a17576040517f08c379a0000000000000000000000000000000000000000000000000000000008152600401611a0e90614c8d565b60405180910390fd5b6000600360008c815260200190815260200160002060070160010160008673ffffffffffffffffffffffffffffffffffffffff1673ffffffffffffffffffffffffffffffffffffffff168152602001908152602001600020541415611ab1576040517f08c379a0000000000000000000000000000000000000000000000000000000008152600401611aa890614ced565b60405180910390fd5b6000600360008c815260200190815260200160002060070160010160008573ffffffffffffffffffffffffffffffffffffffff1673ffffffffffffffffffffffffffffffffffffffff168152602001908152602001600020541415611b4b576040517f08c379a0000000000000000000000000000000000000000000000000000000008152600401611b4290614ced565b60405180910390fd5b6000600360008c815260200190815260200160002060050160010160008473ffffffffffffffffffffffffffffffffffffffff1673ffffffffffffffffffffffffffffffffffffffff168152602001908152602001600020541415611be5576040517f08c379a0000000000000000000000000000000000000000000000000000000008152600401611bdc90614b8d565b60405180910390fd5b611c0f6001600360008d81526020019081526020016000206002015461363e90919063ffffffff16565b600360008c815260200190815260200160002060020181905550600360008b81526020019081526020016000206002015490506000600360008c815260200190815260200160002060090160008381526020019081526020016000209050611c968a600360008e8152602001908152602001600020600101546138ca90919063ffffffff16565b600360008d81526020019081526020016000206001018190555060018160000160006101000a81548160ff02191690836007811115611cd157fe5b0217905550898160010181905550888160020181905550878160040181905550868160050181905550858160060181905550848160070160006101000a81548173ffffffffffffffffffffffffffffffffffffffff021916908373ffffffffffffffffffffffffffffffffffffffff160217905550600360008c8152602001908152602001600020600a0160008673ffffffffffffffffffffffffffffffffffffffff1673ffffffffffffffffffffffffffffffffffffffff168152602001908152602001600020829080600181540180825580915050600190039060005260206000200160009091909190915055838160080160006101000a81548173ffffffffffffffffffffffffffffffffffffffff021916908373ffffffffffffffffffffffffffffffffffffffff160217905550600360008c8152602001908152602001600020600a0160008573ffffffffffffffffffffffffffffffffffffffff1673ffffffffffffffffffffffffffffffffffffffff168152602001908152602001600020829080600181540180825580915050600190039060005260206000200160009091909190915055828160090160006101000a81548173ffffffffffffffffffffffffffffffffffffffff021916908373ffffffffffffffffffffffffffffffffffffffff160217905550600360008c8152602001908152602001600020600a0160008473ffffffffffffffffffffffffffffffffffffffff1673ffffffffffffffffffffffffffffffffffffffff1681526020019081526020016000208290806001815401808255809150506001900390600052602060002001600090919091909150557fef58603955539807736c5925e4d5b3ad4322eb3810b5b1bf36975955970895178b83604051611f6b929190614d84565b60405180910390a1509998505050505050505050565b611f896135c2565b73ffffffffffffffffffffffffffffffffffffffff166000809054906101000a900473ffffffffffffffffffffffffffffffffffffffff1673ffffffffffffffffffffffffffffffffffffffff1614612017576040517f08c379a000000000000000000000000000000000000000000000000000000000815260040161200e90614cad565b60405180910390fd5b600073ffffffffffffffffffffffffffffffffffffffff166000809054906101000a900473ffffffffffffffffffffffffffffffffffffffff1673ffffffffffffffffffffffffffffffffffffffff167f8be0079c531659141344cd1fd0a4f28419497f9722a3daafe3b4186f6b6457e060405160405180910390a360008060006101000a81548173ffffffffffffffffffffffffffffffffffffffff021916908373ffffffffffffffffffffffffffffffffffffffff160217905550565b7ff23ec0bb4210edd5cba85afd05127efcd2fc6a781bfed49188da1081670b22d860001b81565b6121317faf8c8b3d1b230c888f16d0aac400b28aa51e631d580aaa7cb46e571590ed44e760001b61212c6135c2565b612482565b612170576040517f08c379a000000000000000000000000000000000000000000000000000000000815260040161216790614c4d565b60405180910390fd5b6121786135c2565b73ffffffffffffffffffffffffffffffffffffffff166003600084815260200190815260200160002060030160009054906101000a900473ffffffffffffffffffffffffffffffffffffffff1673ffffffffffffffffffffffffffffffffffffffff161461221b576040517f08c379a000000000000000000000000000000000000000000000000000000000815260040161221290614c8d565b60405180910390fd5b600060036000848152602001908152602001600020905060008160050160000180549050905060008090505b8351811015612420576122907fb528929ed79eb79a87ae6f578d3125509c91bfea9ac8b7fb9f69aa0bc28298dd60001b85838151811061228357fe5b60200260200101516135ca565b826005016000018482815181106122a357fe5b60200260200101519080600181540180825580915050600190039060005260206000200160009091909190916101000a81548173ffffffffffffffffffffffffffffffffffffffff021916908373ffffffffffffffffffffffffffffffffffffffff16021790555061233161232260018361363e90919063ffffffff16565b8361363e90919063ffffffff16565b83600501600101600086848151811061234657fe5b602002602001015173ffffffffffffffffffffffffffffffffffffffff1673ffffffffffffffffffffffffffffffffffffffff168152602001908152602001600020819055506005600085838151811061239c57fe5b602002602001015173ffffffffffffffffffffffffffffffffffffffff1673ffffffffffffffffffffffffffffffffffffffff16815260200190815260200160002085908060018154018082558091505060019003906000526020600020016000909190919091505561241960018261363e90919063ffffffff16565b9050612247565b5050505050565b60008060009054906101000a900473ffffffffffffffffffffffffffffffffffffffff16905090565b600061247a826001600086815260200190815260200160002060000161391490919063ffffffff16565b905092915050565b60006124ac826001600086815260200190815260200160002060000161392e90919063ffffffff16565b905092915050565b7f5e784e45feb63c375016d4ce5c52a57b0a48b8a170bc2e31463be0d03d1c4db660001b81565b7f7fc3771f539a03c47afbbf258702c19273ef5e735e24ee7978081dc07288c68760001b81565b60008060008060006060806003600089815260200190815260200160002060030160009054906101000a900473ffffffffffffffffffffffffffffffffffffffff16935060036000898152602001908152602001600020600001549650600360008981526020019081526020016000206001015495506003600089815260200190815260200160002060040160009054906101000a900473ffffffffffffffffffffffffffffffffffffffff169250600360008981526020019081526020016000206002015494506003600089815260200190815260200160002060050160000180548060200260200160405190810160405280929190818152602001828054801561266357602002820191906000526020600020905b8160009054906101000a900473ffffffffffffffffffffffffffffffffffffffff1673ffffffffffffffffffffffffffffffffffffffff1681526020019060010190808311612619575b505050505091506003600089815260200190815260200160002060070160000180548060200260200160405190810160405280929190818152602001828054801561270357602002820191906000526020600020905b8160009054906101000a900473ffffffffffffffffffffffffffffffffffffffff1673ffffffffffffffffffffffffffffffffffffffff16815260200190600101908083116126b9575b50505050509050919395979092949650565b6000801b81565b612724613cb1565b600360008481526020019081526020016000206009016000838152602001908152602001600020604051806102400160405290816000820160009054906101000a900460ff16600781111561277557fe5b600781111561278057fe5b81526020016000820160019054906101000a900460ff161515151581526020016000820160029054906101000a900460ff161515151581526020016000820160039054906101000a900460ff161515151581526020016000820160049054906101000a900460ff161515151581526020016000820160059054906101000a900460ff161515151581526020016000820160069054906101000a900460ff161515151581526020016000820160079054906101000a900460ff161515151581526020016000820160089054906101000a900460ff161515151581526020016001820154815260200160028201548152602001600382015481526020016004820154815260200160058201548152602001600682015481526020016007820160009054906101000a900473ffffffffffffffffffffffffffffffffffffffff1673ffffffffffffffffffffffffffffffffffffffff1673ffffffffffffffffffffffffffffffffffffffff1681526020016008820160009054906101000a900473ffffffffffffffffffffffffffffffffffffffff1673ffffffffffffffffffffffffffffffffffffffff1673ffffffffffffffffffffffffffffffffffffffff1681526020016009820160009054906101000a900473ffffffffffffffffffffffffffffffffffffffff1673ffffffffffffffffffffffffffffffffffffffff1673ffffffffffffffffffffffffffffffffffffffff1681525050905092915050565b6129aa6135c2565b73ffffffffffffffffffffffffffffffffffffffff1660036000858152602001908152602001600020600901600084815260200190815260200160002060090160009054906101000a900473ffffffffffffffffffffffffffffffffffffffff1673ffffffffffffffffffffffffffffffffffffffff1614612a61576040517f08c379a0000000000000000000000000000000000000000000000000000000008152600401612a5890614c2d565b60405180910390fd5b8060036000858152602001908152602001600020600901600084815260200190815260200160002060030181905550600460036000858152602001908152602001600020600901600084815260200190815260200160002060000160006101000a81548160ff02191690836007811115612ad757fe5b02179055507fb39f6fe30ae4ea54eff79d31c2afcdea552f5a0820c855d0f6e4e1d117d16b2e838383604051612b0f93929190614dad565b60405180910390a1505050565b6000612b3c6001600084815260200190815260200160002060000161395e565b9050919050565b6000612b4d6135c2565b73ffffffffffffffffffffffffffffffffffffffff1660036000858152602001908152602001600020600901600084815260200190815260200160002060090160009054906101000a900473ffffffffffffffffffffffffffffffffffffffff1673ffffffffffffffffffffffffffffffffffffffff161480612c4c5750612bd36135c2565b73ffffffffffffffffffffffffffffffffffffffff1660036000858152602001908152602001600020600901600084815260200190815260200160002060080160009054906101000a900473ffffffffffffffffffffffffffffffffffffffff1673ffffffffffffffffffffffffffffffffffffffff16145b612c8b576040517f08c379a0000000000000000000000000000000000000000000000000000000008152600401612c8290614d0d565b60405180910390fd5b60009050612c976135c2565b73ffffffffffffffffffffffffffffffffffffffff1660036000858152602001908152602001600020600901600084815260200190815260200160002060090160009054906101000a900473ffffffffffffffffffffffffffffffffffffffff1673ffffffffffffffffffffffffffffffffffffffff161415612d5857600160036000858152602001908152602001600020600901600084815260200190815260200160002060000160066101000a81548160ff0219169083151502179055505b612d606135c2565b73ffffffffffffffffffffffffffffffffffffffff1660036000858152602001908152602001600020600901600084815260200190815260200160002060080160009054906101000a900473ffffffffffffffffffffffffffffffffffffffff1673ffffffffffffffffffffffffffffffffffffffff161415612e2157600160036000858152602001908152602001600020600901600084815260200190815260200160002060000160056101000a81548160ff0219169083151502179055505b6001151560036000858152602001908152602001600020600901600084815260200190815260200160002060000160069054906101000a900460ff161515148015612ea757506001151560036000858152602001908152602001600020600901600084815260200190815260200160002060000160059054906101000a900460ff161515145b15612f3657600560036000858152602001908152602001600020600901600084815260200190815260200160002060000160006101000a81548160ff02191690836007811115612ef357fe5b02179055507f1cca725889d27a46f38b58dd66a77cba5bc3d254b9c502b10ae4d7846cfa42638383604051612f29929190614d84565b60405180910390a1600190505b92915050565b6000612f466135c2565b73ffffffffffffffffffffffffffffffffffffffff166003600085815260200190815260200160002060040160009054906101000a900473ffffffffffffffffffffffffffffffffffffffff1673ffffffffffffffffffffffffffffffffffffffff1614806130315750612fb86135c2565b73ffffffffffffffffffffffffffffffffffffffff1660036000858152602001908152602001600020600901600084815260200190815260200160002060080160009054906101000a900473ffffffffffffffffffffffffffffffffffffffff1673ffffffffffffffffffffffffffffffffffffffff16145b613070576040517f08c379a000000000000000000000000000000000000000000000000000000000815260040161306790614bcd565b60405180910390fd5b6000905061307c6135c2565b73ffffffffffffffffffffffffffffffffffffffff166003600085815260200190815260200160002060040160009054906101000a900473ffffffffffffffffffffffffffffffffffffffff1673ffffffffffffffffffffffffffffffffffffffff16141561312957600160036000858152602001908152602001600020600901600084815260200190815260200160002060000160086101000a81548160ff0219169083151502179055505b6131316135c2565b73ffffffffffffffffffffffffffffffffffffffff1660036000858152602001908152602001600020600901600084815260200190815260200160002060080160009054906101000a900473ffffffffffffffffffffffffffffffffffffffff1673ffffffffffffffffffffffffffffffffffffffff1614156131f257600160036000858152602001908152602001600020600901600084815260200190815260200160002060000160076101000a81548160ff0219169083151502179055505b6001151560036000858152602001908152602001600020600901600084815260200190815260200160002060000160089054906101000a900460ff16151514801561327857506001151560036000858152602001908152602001600020600901600084815260200190815260200160002060000160079054906101000a900460ff161515145b1561330757600660036000858152602001908152602001600020600901600084815260200190815260200160002060000160006101000a81548160ff021916908360078111156132c457fe5b02179055507f6fe789f01467d87832cddfe60c4c0e2171e09c7d7f7163cace200495d6408bf383836040516132fa929190614d84565b60405180910390a1600190505b92915050565b7fb528929ed79eb79a87ae6f578d3125509c91bfea9ac8b7fb9f69aa0bc28298dd60001b81565b60026020528060005260406000206000915090505481565b606060036000848152602001908152602001600020600a0160008373ffffffffffffffffffffffffffffffffffffffff1673ffffffffffffffffffffffffffffffffffffffff1681526020019081526020016000208054806020026020016040519081016040528092919081815260200182805480156133eb57602002820191906000526020600020905b8154815260200190600101908083116133d7575b5050505050905092915050565b6134006135c2565b73ffffffffffffffffffffffffffffffffffffffff166000809054906101000a900473ffffffffffffffffffffffffffffffffffffffff1673ffffffffffffffffffffffffffffffffffffffff161461348e576040517f08c379a000000000000000000000000000000000000000000000000000000000815260040161348590614cad565b60405180910390fd5b600073ffffffffffffffffffffffffffffffffffffffff168173ffffffffffffffffffffffffffffffffffffffff1614156134fe576040517f08c379a00000000000000000000000000000000000000000000000000000000081526004016134f590614bad565b60405180910390fd5b8073ffffffffffffffffffffffffffffffffffffffff166000809054906101000a900473ffffffffffffffffffffffffffffffffffffffff1673ffffffffffffffffffffffffffffffffffffffff167f8be0079c531659141344cd1fd0a4f28419497f9722a3daafe3b4186f6b6457e060405160405180910390a3806000806101000a81548173ffffffffffffffffffffffffffffffffffffffff021916908373ffffffffffffffffffffffffffffffffffffffff16021790555050565b60045481565b600033905090565b6135f160016000848152602001908152602001600020600201546135ec6135c2565b612482565b613630576040517f08c379a000000000000000000000000000000000000000000000000000000000815260040161362790614b6d565b60405180910390fd5b61363a828261376e565b5050565b600080828401905083811015613689576040517f08c379a000000000000000000000000000000000000000000000000000000000815260040161368090614bed565b60405180910390fd5b8091505092915050565b6000801b600260008373ffffffffffffffffffffffffffffffffffffffff1673ffffffffffffffffffffffffffffffffffffffff16815260200190815260200160002081905550613702816001600085815260200190815260200160002060000161397390919063ffffffff16565b1561376a5761370f6135c2565b73ffffffffffffffffffffffffffffffffffffffff168173ffffffffffffffffffffffffffffffffffffffff16837ff6391f5c32d9c69d2a47ea670b442974b53935d1edc7fd64eb21e047a839171b60405160405180910390a45b5050565b6000801b600260008373ffffffffffffffffffffffffffffffffffffffff1673ffffffffffffffffffffffffffffffffffffffff16815260200190815260200160002054146137f2576040517f08c379a00000000000000000000000000000000000000000000000000000000081526004016137e990614c6d565b60405180910390fd5b81600260008373ffffffffffffffffffffffffffffffffffffffff1673ffffffffffffffffffffffffffffffffffffffff1681526020019081526020016000208190555061385e81600160008581526020019081526020016000206000016139a390919063ffffffff16565b156138c65761386b6135c2565b73ffffffffffffffffffffffffffffffffffffffff168173ffffffffffffffffffffffffffffffffffffffff16837f2f8788117e7eff1d82e926ec794901d17c78024a50270940304540a733656f0d60405160405180910390a45b5050565b600061390c83836040518060400160405280601e81526020017f536166654d6174683a207375627472616374696f6e206f766572666c6f7700008152506139d3565b905092915050565b60006139238360000183613a2e565b60001c905092915050565b6000613956836000018373ffffffffffffffffffffffffffffffffffffffff1660001b613a9b565b905092915050565b600061396c82600001613abe565b9050919050565b600061399b836000018373ffffffffffffffffffffffffffffffffffffffff1660001b613acf565b905092915050565b60006139cb836000018373ffffffffffffffffffffffffffffffffffffffff1660001b613bb7565b905092915050565b6000838311158290613a1b576040517f08c379a0000000000000000000000000000000000000000000000000000000008152600401613a129190614b2b565b60405180910390fd5b5060008385039050809150509392505050565b600081836000018054905011613a79576040517f08c379a0000000000000000000000000000000000000000000000000000000008152600401613a7090614b4d565b60405180910390fd5b826000018281548110613a8857fe5b9060005260206000200154905092915050565b600080836001016000848152602001908152602001600020541415905092915050565b600081600001805490509050919050565b60008083600101600084815260200190815260200160002054905060008114613bab5760006001820390506000600186600001805490500390506000866000018281548110613b1a57fe5b9060005260206000200154905080876000018481548110613b3757fe5b9060005260206000200181905550600183018760010160008381526020019081526020016000208190555086600001805480613b6f57fe5b60019003818190600052602060002001600090559055866001016000878152602001908152602001600020600090556001945050505050613bb1565b60009150505b92915050565b6000613bc38383613a9b565b613c1c578260000182908060018154018082558091505060019003906000526020600020016000909190919091505582600001805490508360010160008481526020019081526020016000208190555060019050613c21565b600090505b92915050565b828054828255906000526020600020908101928215613ca0579160200282015b82811115613c9f5782518260006101000a81548173ffffffffffffffffffffffffffffffffffffffff021916908373ffffffffffffffffffffffffffffffffffffffff16021790555091602001919060010190613c47565b5b509050613cad9190613d99565b5090565b60405180610240016040528060006007811115613cca57fe5b8152602001600015158152602001600015158152602001600015158152602001600015158152602001600015158152602001600015158152602001600015158152602001600015158152602001600081526020016000815260200160008152602001600081526020016000815260200160008152602001600073ffffffffffffffffffffffffffffffffffffffff168152602001600073ffffffffffffffffffffffffffffffffffffffff168152602001600073ffffffffffffffffffffffffffffffffffffffff1681525090565b613dd991905b80821115613dd557600081816101000a81549073ffffffffffffffffffffffffffffffffffffffff021916905550600101613d9f565b5090565b90565b600081359050613deb8161500c565b92915050565b600082601f830112613e0257600080fd5b8135613e15613e1082614e8e565b614e61565b91508181835260208401935060208101905083856020840282011115613e3a57600080fd5b60005b83811015613e6a5781613e508882613ddc565b845260208401935060208301925050600181019050613e3d565b5050505092915050565b600081359050613e8381615023565b92915050565b600081359050613e988161503a565b92915050565b600060208284031215613eb057600080fd5b6000613ebe84828501613ddc565b91505092915050565b60008060008060808587031215613edd57600080fd5b600085013567ffffffffffffffff811115613ef757600080fd5b613f0387828801613df1565b945050602085013567ffffffffffffffff811115613f2057600080fd5b613f2c87828801613df1565b9350506040613f3d87828801613ddc565b9250506060613f4e87828801613e89565b91505092959194509250565b600060208284031215613f6c57600080fd5b6000613f7a84828501613e74565b91505092915050565b60008060408385031215613f9657600080fd5b6000613fa485828601613e74565b9250506020613fb585828601613ddc565b9150509250929050565b60008060408385031215613fd257600080fd5b6000613fe085828601613e74565b9250506020613ff185828601613e89565b9150509250929050565b60006020828403121561400d57600080fd5b600061401b84828501613e89565b91505092915050565b6000806040838503121561403757600080fd5b600061404585828601613e89565b925050602061405685828601613ddc565b9150509250929050565b6000806040838503121561407357600080fd5b600061408185828601613e89565b925050602083013567ffffffffffffffff81111561409e57600080fd5b6140aa85828601613df1565b9150509250929050565b600080604083850312156140c757600080fd5b60006140d585828601613e89565b92505060206140e685828601613e89565b9150509250929050565b60008060006060848603121561410557600080fd5b600061411386828701613e89565b935050602061412486828701613e89565b925050604061413586828701613e89565b9150509250925092565b60008060008060008060008060006101208a8c03121561415e57600080fd5b600061416c8c828d01613e89565b995050602061417d8c828d01613e89565b985050604061418e8c828d01613e89565b975050606061419f8c828d01613e89565b96505060806141b08c828d01613e89565b95505060a06141c18c828d01613e89565b94505060c06141d28c828d01613ddc565b93505060e06141e38c828d01613ddc565b9250506101006141f58c828d01613ddc565b9150509295985092959850929598565b60006142118383614235565b60208301905092915050565b60006142298383614a9a565b60208301905092915050565b61423e81614f44565b82525050565b61424d81614f44565b82525050565b600061425e82614ed6565b6142688185614f11565b935061427383614eb6565b8060005b838110156142a457815161428b8882614205565b975061429683614ef7565b925050600181019050614277565b5085935050505092915050565b60006142bc82614ee1565b6142c68185614f22565b93506142d183614ec6565b8060005b838110156143025781516142e9888261421d565b97506142f483614f04565b9250506001810190506142d5565b5085935050505092915050565b61431881614f56565b82525050565b61432781614f56565b82525050565b61433681614f62565b82525050565b61434581614fa9565b82525050565b600061435682614eec565b6143608185614f33565b9350614370818560208601614fbb565b61437981614fee565b840191505092915050565b6000614391602283614f33565b91507f456e756d657261626c655365743a20696e646578206f7574206f6620626f756e60008301527f64730000000000000000000000000000000000000000000000000000000000006020830152604082019050919050565b60006143f7602f83614f33565b91507f416363657373436f6e74726f6c3a2073656e646572206d75737420626520616e60008301527f2061646d696e20746f206772616e7400000000000000000000000000000000006020830152604082019050919050565b600061445d602183614f33565b91507f616464206d616e756661747572657220746f2063616d706169676e206669727360008301527f74000000000000000000000000000000000000000000000000000000000000006020830152604082019050919050565b60006144c3602683614f33565b91507f4f776e61626c653a206e6577206f776e657220697320746865207a65726f206160008301527f64647265737300000000000000000000000000000000000000000000000000006020830152604082019050919050565b6000614529603083614f33565b91507f4f6e6c792072656369766572206f662063616d617069676e4964206f7220636f60008301527f757269657220697320616c6c6f776564000000000000000000000000000000006020830152604082019050919050565b600061458f601b83614f33565b91507f536166654d6174683a206164646974696f6e206f766572666c6f7700000000006000830152602082019050919050565b60006145cf603483614f33565b91507f4f6e6c7920636f6f7264696e61746f72206f662063616d617069676e4964206f60008301527f7220636f757269657220697320616c6c6f7765640000000000000000000000006020830152604082019050919050565b6000614635602583614f33565b91507f4f6e6c79206d616e756661637475726572206f6620626174636820697320616c60008301527f6c6f7765640000000000000000000000000000000000000000000000000000006020830152604082019050919050565b600061469b601b83614f33565b91507f4f6e6c7920636f6f7264696e61746f7220697320616c6c6f77656400000000006000830152602082019050919050565b60006146db602d83614f33565b91507f5573657220616c726561647920686173206120726f6c6528736565207768696360008301527f68526f6c65206d6574686f6429000000000000000000000000000000000000006020830152604082019050919050565b6000614741602983614f33565b91507f4f6e6c7920636f6f7264696e61746f72206f662063616d617069676e4964206960008301527f7320616c6c6f77656400000000000000000000000000000000000000000000006020830152604082019050919050565b60006147a7602083614f33565b91507f4f776e61626c653a2063616c6c6572206973206e6f7420746865206f776e65726000830152602082019050919050565b60006147e7601583614f33565b91507f4f6e6c792061646d696e20697320616c6c6f77656400000000000000000000006000830152602082019050919050565b6000614827601d83614f33565b91507f61646420636f757269657220746f2063616d706169676e2066697273740000006000830152602082019050919050565b6000614867603083614f33565b91507f4f6e6c79206d616e756661637475726572206f7220636f7572696572206f662060008301527f626174636820697320616c6c6f776564000000000000000000000000000000006020830152604082019050919050565b60006148cd602f83614f33565b91507f416363657373436f6e74726f6c3a2063616e206f6e6c792072656e6f756e636560008301527f20726f6c657320666f722073656c6600000000000000000000000000000000006020830152604082019050919050565b6102408201600082015161493d600085018261433c565b506020820151614950602085018261430f565b506040820151614963604085018261430f565b506060820151614976606085018261430f565b506080820151614989608085018261430f565b5060a082015161499c60a085018261430f565b5060c08201516149af60c085018261430f565b5060e08201516149c260e085018261430f565b506101008201516149d761010085018261430f565b506101208201516149ec610120850182614a9a565b50610140820151614a01610140850182614a9a565b50610160820151614a16610160850182614a9a565b50610180820151614a2b610180850182614a9a565b506101a0820151614a406101a0850182614a9a565b506101c0820151614a556101c0850182614a9a565b506101e0820151614a6a6101e0850182614235565b50610200820151614a7f610200850182614235565b50610220820151614a94610220850182614235565b50505050565b614aa381614f9f565b82525050565b614ab281614f9f565b82525050565b6000602082019050614acd6000830184614244565b92915050565b60006020820190508181036000830152614aed81846142b1565b905092915050565b6000602082019050614b0a600083018461431e565b92915050565b6000602082019050614b25600083018461432d565b92915050565b60006020820190508181036000830152614b45818461434b565b905092915050565b60006020820190508181036000830152614b6681614384565b9050919050565b60006020820190508181036000830152614b86816143ea565b9050919050565b60006020820190508181036000830152614ba681614450565b9050919050565b60006020820190508181036000830152614bc6816144b6565b9050919050565b60006020820190508181036000830152614be68161451c565b9050919050565b60006020820190508181036000830152614c0681614582565b9050919050565b60006020820190508181036000830152614c26816145c2565b9050919050565b60006020820190508181036000830152614c4681614628565b9050919050565b60006020820190508181036000830152614c668161468e565b9050919050565b60006020820190508181036000830152614c86816146ce565b9050919050565b60006020820190508181036000830152614ca681614734565b9050919050565b60006020820190508181036000830152614cc68161479a565b9050919050565b60006020820190508181036000830152614ce6816147da565b9050919050565b60006020820190508181036000830152614d068161481a565b9050919050565b60006020820190508181036000830152614d268161485a565b9050919050565b60006020820190508181036000830152614d46816148c0565b9050919050565b600061024082019050614d636000830184614926565b92915050565b6000602082019050614d7e6000830184614aa9565b92915050565b6000604082019050614d996000830185614aa9565b614da66020830184614aa9565b9392505050565b6000606082019050614dc26000830186614aa9565b614dcf6020830185614aa9565b614ddc6040830184614aa9565b949350505050565b600060e082019050614df9600083018a614aa9565b614e066020830189614aa9565b614e136040830188614aa9565b614e206060830187614244565b614e2d6080830186614244565b81810360a0830152614e3f8185614253565b905081810360c0830152614e538184614253565b905098975050505050505050565b6000604051905081810181811067ffffffffffffffff82111715614e8457600080fd5b8060405250919050565b600067ffffffffffffffff821115614ea557600080fd5b602082029050602081019050919050565b6000819050602082019050919050565b6000819050602082019050919050565b600081519050919050565b600081519050919050565b600081519050919050565b6000602082019050919050565b6000602082019050919050565b600082825260208201905092915050565b600082825260208201905092915050565b600082825260208201905092915050565b6000614f4f82614f7f565b9050919050565b60008115159050919050565b6000819050919050565b6000819050614f7a82614fff565b919050565b600073ffffffffffffffffffffffffffffffffffffffff82169050919050565b6000819050919050565b6000614fb482614f6c565b9050919050565b60005b83811015614fd9578082015181840152602081019050614fbe565b83811115614fe8576000848401525b50505050565b6000601f19601f8301169050919050565b6008811061500957fe5b50565b61501581614f44565b811461502057600080fd5b50565b61502c81614f62565b811461503757600080fd5b50565b61504381614f9f565b811461504e57600080fd5b5056fea26469706673582212201bbe3010cadf3e91ffe9a082cbf63745331d9adf4409c3e87d63e10a54b257a364736f6c63430006020033",
  "source": "pragma solidity ^0.6.0;\n\n/*\n * @dev Provides information about the current execution context, including the\n * sender of the transaction and its data. While these are generally available\n * via msg.sender and msg.data, they should not be accessed in such a direct\n * manner, since when dealing with GSN meta-transactions the account sending and\n * paying for execution may not be the actual sender (as far as an application\n * is concerned).\n *\n * This contract is only required for intermediate, library-like contracts.\n */\ncontract Context {\n    // Empty internal constructor, to prevent people from mistakenly deploying\n    // an instance of this contract, which should be used via inheritance.\n    constructor () internal {}\n\n    function _msgSender() internal view virtual returns (address payable) {\n        return msg.sender;\n    }\n\n    function _msgData() internal view virtual returns (bytes memory) {\n        this; // silence state mutability warning without generating bytecode - see https://github.com/ethereum/solidity/issues/2691\n        return msg.data;\n    }\n}\n\n\n/**\n * @dev Library for managing\n * https://en.wikipedia.org/wiki/Set_(abstract_data_type)[sets] of primitive\n * types.\n *\n * Sets have the following properties:\n *\n * - Elements are added, removed, and checked for existence in constant time\n * (O(1)).\n * - Elements are enumerated in O(n). No guarantees are made on the ordering.\n *\n * ```\n * contract Example {\n *     // Add the library methods\n *     using EnumerableSet for EnumerableSet.AddressSet;\n *\n *     // Declare a set state variable\n *     EnumerableSet.AddressSet private mySet;\n * }\n * ```\n *\n * As of v3.0.0, only sets of type `address` (`AddressSet`) and `uint256`\n * (`UintSet`) are supported.\n */\nlibrary EnumerableSet {\n    // To implement this library for multiple types with as little code\n    // repetition as possible, we write it in terms of a generic Set type with\n    // bytes32 values.\n    // The Set implementation uses private functions, and user-facing\n    // implementations (such as AddressSet) are just wrappers around the\n    // underlying Set.\n    // This means that we can only create new EnumerableSets for types that fit\n    // in bytes32.\n\n    struct Set {\n        // Storage of set values\n        bytes32[] _values;\n\n        // Position of the value in the `values` array, plus 1 because index 0\n        // means a value is not in the set.\n        mapping (bytes32 => uint256) _indexes;\n    }\n\n    /**\n     * @dev Add a value to a set. O(1).\n     *\n     * Returns true if the value was added to the set, that is if it was not\n     * already present.\n     */\n    function _add(Set storage set, bytes32 value) private returns (bool) {\n        if (!_contains(set, value)) {\n            set._values.push(value);\n            // The value is stored at length-1, but we add 1 to all indexes\n            // and use 0 as a sentinel value\n            set._indexes[value] = set._values.length;\n            return true;\n        } else {\n            return false;\n        }\n    }\n\n    /**\n     * @dev Removes a value from a set. O(1).\n     *\n     * Returns true if the value was removed from the set, that is if it was\n     * present.\n     */\n    function _remove(Set storage set, bytes32 value) private returns (bool) {\n        // We read and store the value's index to prevent multiple reads from the same storage slot\n        uint256 valueIndex = set._indexes[value];\n\n        if (valueIndex != 0) { // Equivalent to contains(set, value)\n            // To delete an element from the _values array in O(1), we swap the element to delete with the last one in\n            // the array, and then remove the last element (sometimes called as 'swap and pop').\n            // This modifies the order of the array, as noted in {at}.\n\n            uint256 toDeleteIndex = valueIndex - 1;\n            uint256 lastIndex = set._values.length - 1;\n\n            // When the value to delete is the last one, the swap operation is unnecessary. However, since this occurs\n            // so rarely, we still do the swap anyway to avoid the gas cost of adding an 'if' statement.\n\n            bytes32 lastvalue = set._values[lastIndex];\n\n            // Move the last value to the index where the value to delete is\n            set._values[toDeleteIndex] = lastvalue;\n            // Update the index for the moved value\n            set._indexes[lastvalue] = toDeleteIndex + 1; // All indexes are 1-based\n\n            // Delete the slot where the moved value was stored\n            set._values.pop();\n\n            // Delete the index for the deleted slot\n            delete set._indexes[value];\n\n            return true;\n        } else {\n            return false;\n        }\n    }\n\n    /**\n     * @dev Returns true if the value is in the set. O(1).\n     */\n    function _contains(Set storage set, bytes32 value) private view returns (bool) {\n        return set._indexes[value] != 0;\n    }\n\n    /**\n     * @dev Returns the number of values on the set. O(1).\n     */\n    function _length(Set storage set) private view returns (uint256) {\n        return set._values.length;\n    }\n\n   /**\n    * @dev Returns the value stored at position `index` in the set. O(1).\n    *\n    * Note that there are no guarantees on the ordering of values inside the\n    * array, and it may change when more values are added or removed.\n    *\n    * Requirements:\n    *\n    * - `index` must be strictly less than {length}.\n    */\n    function _at(Set storage set, uint256 index) private view returns (bytes32) {\n        require(set._values.length > index, \"EnumerableSet: index out of bounds\");\n        return set._values[index];\n    }\n\n    // AddressSet\n\n    struct AddressSet {\n        Set _inner;\n    }\n\n    /**\n     * @dev Add a value to a set. O(1).\n     *\n     * Returns true if the value was added to the set, that is if it was not\n     * already present.\n     */\n    function add(AddressSet storage set, address value) internal returns (bool) {\n        return _add(set._inner, bytes32(uint256(value)));\n    }\n\n    /**\n     * @dev Removes a value from a set. O(1).\n     *\n     * Returns true if the value was removed from the set, that is if it was\n     * present.\n     */\n    function remove(AddressSet storage set, address value) internal returns (bool) {\n        return _remove(set._inner, bytes32(uint256(value)));\n    }\n\n    /**\n     * @dev Returns true if the value is in the set. O(1).\n     */\n    function contains(AddressSet storage set, address value) internal view returns (bool) {\n        return _contains(set._inner, bytes32(uint256(value)));\n    }\n\n    /**\n     * @dev Returns the number of values in the set. O(1).\n     */\n    function length(AddressSet storage set) internal view returns (uint256) {\n        return _length(set._inner);\n    }\n\n   /**\n    * @dev Returns the value stored at position `index` in the set. O(1).\n    *\n    * Note that there are no guarantees on the ordering of values inside the\n    * array, and it may change when more values are added or removed.\n    *\n    * Requirements:\n    *\n    * - `index` must be strictly less than {length}.\n    */\n    function at(AddressSet storage set, uint256 index) internal view returns (address) {\n        return address(uint256(_at(set._inner, index)));\n    }\n\n\n    // UintSet\n\n    struct UintSet {\n        Set _inner;\n    }\n\n    /**\n     * @dev Add a value to a set. O(1).\n     *\n     * Returns true if the value was added to the set, that is if it was not\n     * already present.\n     */\n    function add(UintSet storage set, uint256 value) internal returns (bool) {\n        return _add(set._inner, bytes32(value));\n    }\n\n    /**\n     * @dev Removes a value from a set. O(1).\n     *\n     * Returns true if the value was removed from the set, that is if it was\n     * present.\n     */\n    function remove(UintSet storage set, uint256 value) internal returns (bool) {\n        return _remove(set._inner, bytes32(value));\n    }\n\n    /**\n     * @dev Returns true if the value is in the set. O(1).\n     */\n    function contains(UintSet storage set, uint256 value) internal view returns (bool) {\n        return _contains(set._inner, bytes32(value));\n    }\n\n    /**\n     * @dev Returns the number of values on the set. O(1).\n     */\n    function length(UintSet storage set) internal view returns (uint256) {\n        return _length(set._inner);\n    }\n\n   /**\n    * @dev Returns the value stored at position `index` in the set. O(1).\n    *\n    * Note that there are no guarantees on the ordering of values inside the\n    * array, and it may change when more values are added or removed.\n    *\n    * Requirements:\n    *\n    * - `index` must be strictly less than {length}.\n    */\n    function at(UintSet storage set, uint256 index) internal view returns (uint256) {\n        return uint256(_at(set._inner, index));\n    }\n}\n\npragma experimental ABIEncoderV2;\n\n\n\n\n\n\n\n/**\n * @dev Collection of functions related to the address type\n */\nlibrary Address {\n    /**\n     * @dev Returns true if `account` is a contract.\n     *\n     * [IMPORTANT]\n     * ====\n     * It is unsafe to assume that an address for which this function returns\n     * false is an externally-owned account (EOA) and not a contract.\n     *\n     * Among others, `isContract` will return false for the following\n     * types of addresses:\n     *\n     *  - an externally-owned account\n     *  - a contract in construction\n     *  - an address where a contract will be created\n     *  - an address where a contract lived, but was destroyed\n     * ====\n     */\n    function isContract(address account) internal view returns (bool) {\n        // According to EIP-1052, 0x0 is the value returned for not-yet created accounts\n        // and 0xc5d2460186f7233c927e7db2dcc703c0e500b653ca82273b7bfad8045d85a470 is returned\n        // for accounts without code, i.e. `keccak256('')`\n        bytes32 codehash;\n        bytes32 accountHash = 0xc5d2460186f7233c927e7db2dcc703c0e500b653ca82273b7bfad8045d85a470;\n        // solhint-disable-next-line no-inline-assembly\n        assembly { codehash := extcodehash(account) }\n        return (codehash != accountHash && codehash != 0x0);\n    }\n\n    /**\n     * @dev Replacement for Solidity's `transfer`: sends `amount` wei to\n     * `recipient`, forwarding all available gas and reverting on errors.\n     *\n     * https://eips.ethereum.org/EIPS/eip-1884[EIP1884] increases the gas cost\n     * of certain opcodes, possibly making contracts go over the 2300 gas limit\n     * imposed by `transfer`, making them unable to receive funds via\n     * `transfer`. {sendValue} removes this limitation.\n     *\n     * https://diligence.consensys.net/posts/2019/09/stop-using-soliditys-transfer-now/[Learn more].\n     *\n     * IMPORTANT: because control is transferred to `recipient`, care must be\n     * taken to not create reentrancy vulnerabilities. Consider using\n     * {ReentrancyGuard} or the\n     * https://solidity.readthedocs.io/en/v0.5.11/security-considerations.html#use-the-checks-effects-interactions-pattern[checks-effects-interactions pattern].\n     */\n    function sendValue(address payable recipient, uint256 amount) internal {\n        require(address(this).balance >= amount, \"Address: insufficient balance\");\n\n        // solhint-disable-next-line avoid-low-level-calls, avoid-call-value\n        (bool success, ) = recipient.call{ value: amount }(\"\");\n        require(success, \"Address: unable to send value, recipient may have reverted\");\n    }\n}\n\n\n\n/**\n * @dev Contract module that allows children to implement role-based access\n * control mechanisms.\n *\n * Roles are referred to by their `bytes32` identifier. These should be exposed\n * in the external API and be unique. The best way to achieve this is by\n * using `public constant` hash digests:\n *\n * ```\n * bytes32 public constant MY_ROLE = keccak256(\"MY_ROLE\");\n * ```\n *\n * Roles can be used to represent a set of permissions. To restrict access to a\n * function call, use {hasRole}:\n *\n * ```\n * function foo() public {\n *     require(hasRole(MY_ROLE, _msgSender()));\n *     ...\n * }\n * ```\n *\n * Roles can be granted and revoked dynamically via the {grantRole} and\n * {revokeRole} functions. Each role has an associated admin role, and only\n * accounts that have a role's admin role can call {grantRole} and {revokeRole}.\n *\n * By default, the admin role for all roles is `DEFAULT_ADMIN_ROLE`, which means\n * that only accounts with this role will be able to grant or revoke other\n * roles. More complex role relationships can be created by using\n * {_setRoleAdmin}.\n */\nabstract contract AccessControl is Context {\n    using EnumerableSet for EnumerableSet.AddressSet;\n    using Address for address;\n\n    struct RoleData {\n        EnumerableSet.AddressSet members;\n        bytes32 adminRole;\n    }\n\n    mapping (bytes32 => RoleData) private _roles;\n    mapping(address=>bytes32) public whichRole;\n\n    bytes32 public constant DEFAULT_ADMIN_ROLE = 0x00;\n\n    /**\n     * @dev Emitted when `account` is granted `role`.\n     *\n     * `sender` is the account that originated the contract call, an admin role\n     * bearer except when using {_setupRole}.\n     */\n    event RoleGranted(bytes32 indexed role, address indexed account, address indexed sender);\n\n    /**\n     * @dev Emitted when `account` is revoked `role`.\n     *\n     * `sender` is the account that originated the contract call:\n     *   - if using `revokeRole`, it is the admin role bearer\n     *   - if using `renounceRole`, it is the role bearer (i.e. `account`)\n     */\n    event RoleRevoked(bytes32 indexed role, address indexed account, address indexed sender);\n\n    /**\n     * @dev Returns `true` if `account` has been granted `role`.\n     */\n    function hasRole(bytes32 role, address account) public view returns (bool) {\n        return _roles[role].members.contains(account);\n    }\n\n    /**\n     * @dev Returns the number of accounts that have `role`. Can be used\n     * together with {getRoleMember} to enumerate all bearers of a role.\n     */\n    function getRoleMemberCount(bytes32 role) public view returns (uint256) {\n        return _roles[role].members.length();\n    }\n\n    /**\n     * @dev Returns one of the accounts that have `role`. `index` must be a\n     * value between 0 and {getRoleMemberCount}, non-inclusive.\n     *\n     * Role bearers are not sorted in any particular way, and their ordering may\n     * change at any point.\n     *\n     * WARNING: When using {getRoleMember} and {getRoleMemberCount}, make sure\n     * you perform all queries on the same block. See the following\n     * https://forum.openzeppelin.com/t/iterating-over-elements-on-enumerableset-in-openzeppelin-contracts/2296[forum post]\n     * for more information.\n     */\n    function getRoleMember(bytes32 role, uint256 index) public view returns (address) {\n        return _roles[role].members.at(index);\n    }\n\n    /**\n     * @dev Returns the admin role that controls `role`. See {grantRole} and\n     * {revokeRole}.\n     *\n     * To change a role's admin, use {_setRoleAdmin}.\n     */\n    function getRoleAdmin(bytes32 role) public view returns (bytes32) {\n        return _roles[role].adminRole;\n    }\n\n    /**\n     * @dev Grants `role` to `account`.\n     *\n     * If `account` had not been already granted `role`, emits a {RoleGranted}\n     * event.\n     *\n     * Requirements:\n     *\n     * - the caller must have ``role``'s admin role.\n     */\n    function grantRole(bytes32 role, address account) internal virtual {\n        require(hasRole(_roles[role].adminRole, _msgSender()), \"AccessControl: sender must be an admin to grant\");\n        _grantRole(role, account);\n    }\n\n    /**\n     * @dev Revokes `role` from `account`.\n     *\n     * If `account` had been granted `role`, emits a {RoleRevoked} event.\n     *\n     * Requirements:\n     *\n     * - the caller must have ``role``'s admin role.\n     */\n    function revokeRole(bytes32 role, address account) internal virtual {\n        require(hasRole(_roles[role].adminRole, _msgSender()), \"AccessControl: sender must be an admin to revoke\");\n\n        _revokeRole(role, account);\n    }\n\n    /**\n     * @dev Revokes `role` from the calling account.\n     *\n     * Roles are often managed via {grantRole} and {revokeRole}: this function's\n     * purpose is to provide a mechanism for accounts to lose their privileges\n     * if they are compromised (such as when a trusted device is misplaced).\n     *\n     * If the calling account had been granted `role`, emits a {RoleRevoked}\n     * event.\n     *\n     * Requirements:\n     *\n     * - the caller must be `account`.\n     */\n    function renounceRole(bytes32 role, address account) public virtual {\n        require(account == _msgSender(), \"AccessControl: can only renounce roles for self\");\n\n        _revokeRole(role, account);\n    }\n\n    /**\n     * @dev Grants `role` to `account`.\n     *\n     * If `account` had not been already granted `role`, emits a {RoleGranted}\n     * event. Note that unlike {grantRole}, this function doesn't perform any\n     * checks on the calling account.\n     *\n     * [WARNING]\n     * ====\n     * This function should only be called from the constructor when setting\n     * up the initial roles for the system.\n     *\n     * Using this function in any other way is effectively circumventing the admin\n     * system imposed by {AccessControl}.\n     * ====\n     */\n    function _setupRole(bytes32 role, address account) public virtual {\n\n        _grantRole(role, account);\n    }\n\n    /**\n     * @dev Sets `adminRole` as ``role``'s admin role.\n     */\n    function _setRoleAdmin(bytes32 role, bytes32 adminRole) internal virtual {\n        _roles[role].adminRole = adminRole;\n    }\n\n    function _grantRole(bytes32 role, address account) private {\n        require(whichRole[account] == 0x0000000000000000000000000000000000000000000000000000000000000000,\"User already has a role(see whichRole method)\");\n        whichRole[account] = role;\n        if (_roles[role].members.add(account)) {\n            emit RoleGranted(role, account, _msgSender());\n        }\n    }\n\n    function _revokeRole(bytes32 role, address account) private {\n        whichRole[account] = 0x0000000000000000000000000000000000000000000000000000000000000000;\n        if (_roles[role].members.remove(account)) {\n            emit RoleRevoked(role, account, _msgSender());\n        }\n    }\n}\n\n\n\n\n/**\n * @dev Contract module which provides a basic access control mechanism, where\n * there is an account (an owner) that can be granted exclusive access to\n * specific functions.\n *\n * By default, the owner account will be the one that deploys the contract. This\n * can later be changed with {transferOwnership}.\n *\n * This module is used through inheritance. It will make available the modifier\n * `onlyOwner`, which can be applied to your functions to restrict their use to\n * the owner.\n */\ncontract Ownable is Context {\n    address private _owner;\n\n    event OwnershipTransferred(address indexed previousOwner, address indexed newOwner);\n\n    /**\n     * @dev Initializes the contract setting the deployer as the initial owner.\n     */\n    constructor () internal {\n        address msgSender = _msgSender();\n        _owner = msgSender;\n        emit OwnershipTransferred(address(0), msgSender);\n    }\n\n    /**\n     * @dev Returns the address of the current owner.\n     */\n    function owner() public view returns (address) {\n        return _owner;\n    }\n\n    /**\n     * @dev Throws if called by any account other than the owner.\n     */\n    modifier onlyOwner() {\n        require(_owner == _msgSender(), \"Ownable: caller is not the owner\");\n        _;\n    }\n\n    /**\n     * @dev Leaves the contract without owner. It will not be possible to call\n     * `onlyOwner` functions anymore. Can only be called by the current owner.\n     *\n     * NOTE: Renouncing ownership will leave the contract without an owner,\n     * thereby removing any functionality that is only available to the owner.\n     */\n    function renounceOwnership() public virtual onlyOwner {\n        emit OwnershipTransferred(_owner, address(0));\n        _owner = address(0);\n    }\n\n    /**\n     * @dev Transfers ownership of the contract to a new account (`newOwner`).\n     * Can only be called by the current owner.\n     */\n    function transferOwnership(address newOwner) public virtual onlyOwner {\n        require(newOwner != address(0), \"Ownable: new owner is the zero address\");\n        emit OwnershipTransferred(_owner, newOwner);\n        _owner = newOwner;\n    }\n}\n\n\n\n/**\n * @dev Wrappers over Solidity's arithmetic operations with added overflow\n * checks.\n *\n * Arithmetic operations in Solidity wrap on overflow. This can easily result\n * in bugs, because programmers usually assume that an overflow raises an\n * error, which is the standard behavior in high level programming languages.\n * `SafeMath` restores this intuition by reverting the transaction when an\n * operation overflows.\n *\n * Using this library instead of the unchecked operations eliminates an entire\n * class of bugs, so it's recommended to use it always.\n */\nlibrary SafeMath {\n    /**\n     * @dev Returns the addition of two unsigned integers, reverting on\n     * overflow.\n     *\n     * Counterpart to Solidity's `+` operator.\n     *\n     * Requirements:\n     * - Addition cannot overflow.\n     */\n    function add(uint256 a, uint256 b) internal pure returns (uint256) {\n        uint256 c = a + b;\n        require(c >= a, \"SafeMath: addition overflow\");\n\n        return c;\n    }\n\n    /**\n     * @dev Returns the subtraction of two unsigned integers, reverting on\n     * overflow (when the result is negative).\n     *\n     * Counterpart to Solidity's `-` operator.\n     *\n     * Requirements:\n     * - Subtraction cannot overflow.\n     */\n    function sub(uint256 a, uint256 b) internal pure returns (uint256) {\n        return sub(a, b, \"SafeMath: subtraction overflow\");\n    }\n\n    /**\n     * @dev Returns the subtraction of two unsigned integers, reverting with custom message on\n     * overflow (when the result is negative).\n     *\n     * Counterpart to Solidity's `-` operator.\n     *\n     * Requirements:\n     * - Subtraction cannot overflow.\n     */\n    function sub(uint256 a, uint256 b, string memory errorMessage) internal pure returns (uint256) {\n        require(b <= a, errorMessage);\n        uint256 c = a - b;\n\n        return c;\n    }\n\n    /**\n     * @dev Returns the multiplication of two unsigned integers, reverting on\n     * overflow.\n     *\n     * Counterpart to Solidity's `*` operator.\n     *\n     * Requirements:\n     * - Multiplication cannot overflow.\n     */\n    function mul(uint256 a, uint256 b) internal pure returns (uint256) {\n        // Gas optimization: this is cheaper than requiring 'a' not being zero, but the\n        // benefit is lost if 'b' is also tested.\n        // See: https://github.com/OpenZeppelin/openzeppelin-contracts/pull/522\n        if (a == 0) {\n            return 0;\n        }\n\n        uint256 c = a * b;\n        require(c / a == b, \"SafeMath: multiplication overflow\");\n\n        return c;\n    }\n\n    /**\n     * @dev Returns the integer division of two unsigned integers. Reverts on\n     * division by zero. The result is rounded towards zero.\n     *\n     * Counterpart to Solidity's `/` operator. Note: this function uses a\n     * `revert` opcode (which leaves remaining gas untouched) while Solidity\n     * uses an invalid opcode to revert (consuming all remaining gas).\n     *\n     * Requirements:\n     * - The divisor cannot be zero.\n     */\n    function div(uint256 a, uint256 b) internal pure returns (uint256) {\n        return div(a, b, \"SafeMath: division by zero\");\n    }\n\n    /**\n     * @dev Returns the integer division of two unsigned integers. Reverts with custom message on\n     * division by zero. The result is rounded towards zero.\n     *\n     * Counterpart to Solidity's `/` operator. Note: this function uses a\n     * `revert` opcode (which leaves remaining gas untouched) while Solidity\n     * uses an invalid opcode to revert (consuming all remaining gas).\n     *\n     * Requirements:\n     * - The divisor cannot be zero.\n     */\n    function div(uint256 a, uint256 b, string memory errorMessage) internal pure returns (uint256) {\n        // Solidity only automatically asserts when dividing by 0\n        require(b > 0, errorMessage);\n        uint256 c = a / b;\n        // assert(a == b * c + a % b); // There is no case in which this doesn't hold\n\n        return c;\n    }\n\n    /**\n     * @dev Returns the remainder of dividing two unsigned integers. (unsigned integer modulo),\n     * Reverts when dividing by zero.\n     *\n     * Counterpart to Solidity's `%` operator. This function uses a `revert`\n     * opcode (which leaves remaining gas untouched) while Solidity uses an\n     * invalid opcode to revert (consuming all remaining gas).\n     *\n     * Requirements:\n     * - The divisor cannot be zero.\n     */\n    function mod(uint256 a, uint256 b) internal pure returns (uint256) {\n        return mod(a, b, \"SafeMath: modulo by zero\");\n    }\n\n    /**\n     * @dev Returns the remainder of dividing two unsigned integers. (unsigned integer modulo),\n     * Reverts with custom message when dividing by zero.\n     *\n     * Counterpart to Solidity's `%` operator. This function uses a `revert`\n     * opcode (which leaves remaining gas untouched) while Solidity uses an\n     * invalid opcode to revert (consuming all remaining gas).\n     *\n     * Requirements:\n     * - The divisor cannot be zero.\n     */\n    function mod(uint256 a, uint256 b, string memory errorMessage) internal pure returns (uint256) {\n        require(b != 0, errorMessage);\n        return a % b;\n    }\n}\n\n\n\n\n\n\n\n\ncontract Roles is AccessControl {\n    //keccak256(\"admin\")\n    bytes32 public constant ADMIN_ROLE = 0xf23ec0bb4210edd5cba85afd05127efcd2fc6a781bfed49188da1081670b22d8;\n    //keccak256(\"coordinator\")\n    bytes32 public constant COORDINATOR_ROLE = 0xaf8c8b3d1b230c888f16d0aac400b28aa51e631d580aaa7cb46e571590ed44e7;\n    //keccak256(\"courier\")\n    bytes32 public constant COURIER_ROLE = 0x7fc3771f539a03c47afbbf258702c19273ef5e735e24ee7978081dc07288c687;\n    //keccak256(\"manufaturer\")\n    bytes32 public constant MANUFATURER_ROLE = 0xb528929ed79eb79a87ae6f578d3125509c91bfea9ac8b7fb9f69aa0bc28298dd;\n    //keccka256(\"receiver\")\n    bytes32 public constant RECIVER_ROLE = 0x5e784e45feb63c375016d4ce5c52a57b0a48b8a170bc2e31463be0d03d1c4db6;\n    constructor(address _admin) public {\n        _setupRole(ADMIN_ROLE, _admin);\n        _setRoleAdmin(COORDINATOR_ROLE, ADMIN_ROLE);\n        _setRoleAdmin(COURIER_ROLE, COORDINATOR_ROLE);\n        _setRoleAdmin(MANUFATURER_ROLE, COORDINATOR_ROLE);\n        _setRoleAdmin(RECIVER_ROLE,COORDINATOR_ROLE);\n    }\n\n    modifier onlyAdmin() {\n        require(hasRole(ADMIN_ROLE, _msgSender()), \"Only admin is allowed\");\n        _;\n    }\n    modifier onlyCoordinator() {\n        require(\n            hasRole(COORDINATOR_ROLE, _msgSender()),\n            \"Only coordinator is allowed\"\n        );\n        _;\n    }\n    modifier onlyCourier() {\n        require(hasRole(COURIER_ROLE, _msgSender()), \"Only courier is allowed\");\n        _;\n    }\n    modifier onlyManufaturer() {\n        require(\n            hasRole(MANUFATURER_ROLE, _msgSender()),\n            \"Only manufaturer is allowed\"\n        );\n        _;\n    }\n}\n\n\n\ncontract Storage {\n    enum BatchStages {\n        NotStarted,\n        PLAPacked,\n        PLAPickedUpByCourier1, //states chages to this with sig of coordinator and courier both\n        PLARecivedByManufaturer, //states chages to this with sig of courier and manufaturer both\n        MasksReady,\n        MasksPickedUpByCourier2, //states chages to this with sig of manufature and courier both\n        MasksRceivedByReceiver, //states chages to this with sig of courier and reciver both\n        MasksVerifiedForQuality\n    }\n    struct AddressSet {\n        address[] addresses;\n        mapping(address => uint256) addressIndex;\n    }\n    // //what else?\n    // enum CampaignStages{\n    //     campaignStarted,\n    //     campaignFinished\n    // }\n    struct Batch {\n        BatchStages stage;\n        bool isPLAPickedUpCourier1;\n        bool isPLAPickedUpCoordinator;\n        bool isPLARecivedCourier1;\n        bool isPLAReceivedManufacturer;\n        bool isMasksPickedUpCourier2;\n        bool isMasksPickedUpManufacturer;\n        bool isMasksaReceviedCourier2;\n        bool isMasksReceviedReceviver;\n        uint256 amountOfPLA;\n        uint256 amountOfExpectedMasks;\n        uint256 amountOfMasksMade;\n        uint256 tfForDeliveryToManufacturer;\n        uint256 tfForMakingMasks;\n        uint256 tfForDeliveryToReciver;\n        address courier1;\n        address courier2;\n        address manufacturer;\n    }\n\n    struct Campaign {\n        // CampaignStages stage,\n        uint256 totalPLA;\n        uint256 currentPLA;\n        uint256 batchCounter;\n        address coordinator;\n        address receiver;\n        AddressSet manufacturers;\n        AddressSet couriers;\n        mapping(uint256 => Batch) batches;\n        mapping(address=>uint256[]) belongsToBatch;\n        // uint256 batchSize;\n    }\n\n    mapping(uint256 => Campaign) campaigns; //campaign's Index in the campaigns array + 1 (becuse 0 means it is not in the array)\n    uint256 public campaignCounter = 1;\n    mapping(address => uint256[]) belongsToCampign;\n    \n    \n}\n\n\ncontract CampaignGenerator is Ownable, Roles, Storage {\n    using SafeMath for uint256;\n\n    event CampaignStarted(uint256 campaignId);\n    event PLAPacked(uint256 campaignId, uint256 branchId);\n    event PLAPickedUpByCourier1(uint256 campaignId, uint256 branchId); //emits with sig of coordinator and courier both\n    event PLARecivedByManufacturer(uint256 campaignId, uint256 branchId); //emits with sig of courier and manufaturer both\n    event MasksReady(\n        uint256 campaignId,\n        uint256 branchId,\n        uint256 amountOfMasksMade\n    );\n    event MasksPickedUpByCourier2(uint256 campaignId, uint256 branchId); //emits with sig of manufature and courier both\n    event MasksRceivedByReceiver(uint256 campaignId, uint256 branchId); //emitswith sig of courier and reciver both\n    event MasksVerifiedForQuality(uint256 campaignId, uint256 branchId);\n\n    constructor(address _admin) public Roles(_admin) {}\n\n    function makeCoordinator(address _who) public onlyAdmin() {\n        grantRole(COORDINATOR_ROLE, _who);\n    }\n\n    function startCampaign(\n        address[] memory _manufacturers,\n        address[] memory _couriers,\n        address _receiver,\n        uint256 _totalPLA\n    ) public onlyCoordinator() returns (uint256 campaignId) {\n        campaignId = campaignCounter;\n        Campaign storage campaign = campaigns[campaignId];\n        campaignCounter = campaignCounter.add(1);\n\n         belongsToCampign[_msgSender()].push(campaignId);\n        //In future iteration campaign id can be deterministically generated form title and description of the campaign i.e. keccak(title+description)\n\n        campaign.coordinator = _msgSender();\n\n        for (uint256 i = 0; i < _manufacturers.length; i = i.add(1)) {\n            grantRole(MANUFATURER_ROLE, _manufacturers[i]);\n            campaign.manufacturers.addressIndex[_manufacturers[i]] = i.add(1);\n            belongsToCampign[_manufacturers[i]].push(campaignId);\n        }\n        for (uint256 i = 0; i < _couriers.length; i = i.add(1)) {\n            grantRole(COURIER_ROLE, _couriers[i]);\n            campaign.couriers.addressIndex[_couriers[i]] = i.add(1);\n            belongsToCampign[_couriers[i]].push(campaignId);\n        }\n\n        campaign.manufacturers.addresses = _manufacturers;\n        campaign.couriers.addresses = _couriers;\n\n        //add receiver\n        grantRole(RECIVER_ROLE,_receiver);\n        campaign.receiver = _receiver;\n        belongsToCampign[_receiver].push(campaignId);\n        campaign.batchCounter = 0;\n\n        campaign.totalPLA = _totalPLA;\n        campaign.currentPLA = _totalPLA;\n        emit CampaignStarted(campaignId);\n    }\n\n    function addManufacturers(\n        uint256 _campaignId,\n        address[] memory _manufacturers\n    ) public onlyCoordinator() {\n        require(\n            campaigns[_campaignId].coordinator == _msgSender(),\n            \"Only coordinator of camapignId is allowed\"\n        );\n        Campaign storage campaign = campaigns[_campaignId];\n        uint256 arrayLength = campaign.manufacturers.addresses.length;\n\n        for (uint256 i = 0; i < _manufacturers.length; i = i.add(1)) {\n            grantRole(MANUFATURER_ROLE, _manufacturers[i]);\n\n            campaign.manufacturers.addresses.push(_manufacturers[i]);\n            campaign.manufacturers.addressIndex[_manufacturers[i]] = arrayLength\n                .add(i.add(1));\n            belongsToCampign[_manufacturers[i]].push(_campaignId);\n        }\n    }\n\n    function addCouriers(uint256 _campaignId, address[] memory _couriers)\n        public\n        onlyCoordinator()\n    {\n        require(\n            campaigns[_campaignId].coordinator == _msgSender(),\n            \"Only coordinator of camapignId is allowed\"\n        );\n        Campaign storage campaign = campaigns[_campaignId];\n        uint256 arrayLength = campaign.couriers.addresses.length;\n\n        for (uint256 i = 0; i < _couriers.length; i = i.add(1)) {\n            grantRole(MANUFATURER_ROLE, _couriers[i]);\n\n            campaign.couriers.addresses.push(_couriers[i]);\n            campaign.couriers.addressIndex[_couriers[i]] = arrayLength.add(\n                i.add(1)\n            );\n             belongsToCampign[_couriers[i]].push(_campaignId);\n        }\n    }\n\n    function createNewBatch(\n        uint256 _campaignId,\n        uint256 _amountOfPLA,\n        uint256 _amountOfExpectedMasks,\n        uint256 _tfForDeliveryToManufacturer,\n        uint256 _tfForMakingMasks,\n        uint256 _tfForDeliveryToReciver,\n        address _courier1,\n        address _courier2,\n        address _manufacturer\n    ) public onlyCoordinator() returns(uint256 batchId){\n        require(\n            campaigns[_campaignId].coordinator == _msgSender(),\n            \"Only coordinator of camapignId is allowed\"\n        );\n        require(\n            campaigns[_campaignId].couriers.addressIndex[_courier1] != 0,\n            \"add courier to campaign first\"\n        );\n        require(\n            campaigns[_campaignId].couriers.addressIndex[_courier2] != 0,\n            \"add courier to campaign first\"\n        );\n        require(\n            campaigns[_campaignId].manufacturers.addressIndex[_manufacturer] != 0,\n            \"add manufaturer to campaign first\"\n        );\n        campaigns[_campaignId].batchCounter = campaigns[_campaignId]\n            .batchCounter\n            .add(1);\n\n        batchId = campaigns[_campaignId].batchCounter;\n        Batch storage batch = campaigns[_campaignId].batches[batchId];\n        //substract the PLA from currentPLA\n        campaigns[_campaignId].currentPLA = campaigns[_campaignId].currentPLA.sub(_amountOfPLA);\n        //update the batchStage\n        batch.stage = BatchStages.PLAPacked;\n\n        batch.amountOfPLA = _amountOfPLA;\n        batch.amountOfExpectedMasks = _amountOfExpectedMasks;\n\n        batch.tfForDeliveryToManufacturer = _tfForDeliveryToManufacturer;\n\n        batch.tfForMakingMasks = _tfForMakingMasks;\n\n        batch.tfForDeliveryToReciver = _tfForDeliveryToReciver;\n\n        batch.courier1 = _courier1;\n        campaigns[_campaignId].belongsToBatch[_courier1].push(batchId);\n\n        batch.courier2 = _courier2;\n        campaigns[_campaignId].belongsToBatch[_courier2].push(batchId);\n\n        batch.manufacturer = _manufacturer;\n        campaigns[_campaignId].belongsToBatch[_manufacturer].push(batchId);\n\n        emit PLAPacked(_campaignId, batchId);\n    }\n\n    //the chain Starts\n    function confirmPLAPickedUpByCourier1(uint256 _campaignId, uint256 _batchId)\n        public\n        returns (bool stageChange)\n    {\n        require(\n            campaigns[_campaignId].coordinator == _msgSender() ||\n                campaigns[_campaignId].batches[_batchId].courier1 ==\n                _msgSender(),\n            \"Only coordinator of camapignId or courier is allowed\"\n        );\n        stageChange = false;\n        if (campaigns[_campaignId].coordinator == _msgSender()) {\n            campaigns[_campaignId].batches[_batchId]\n                .isPLAPickedUpCoordinator = true;\n        }\n        if (campaigns[_campaignId].batches[_batchId].courier1 == _msgSender()) {\n            campaigns[_campaignId].batches[_batchId]\n                .isPLAPickedUpCourier1 = true;\n        }\n        if (\n            campaigns[_campaignId].batches[_batchId].isPLAPickedUpCoordinator ==\n            true &&\n            campaigns[_campaignId].batches[_batchId].isPLAPickedUpCourier1 ==\n            true\n        ) {\n            campaigns[_campaignId].batches[_batchId].stage = BatchStages\n                .PLAPickedUpByCourier1;\n\n            emit PLAPickedUpByCourier1(_campaignId, _batchId);\n            stageChange = true;\n        }\n    }\n\n    function confirmPLARecivedByManufacturer(\n        uint256 _campaignId,\n        uint256 _batchId\n    ) public returns (bool stageChange) {\n        require(\n            campaigns[_campaignId].batches[_batchId].manufacturer ==\n                _msgSender() ||\n                campaigns[_campaignId].batches[_batchId].courier1 ==\n                _msgSender(),\n            \"Only manufacturer or courier of batch is allowed\"\n        );\n        stageChange = false;\n        if (\n            campaigns[_campaignId].batches[_batchId].manufacturer ==\n            _msgSender()\n        ) {\n            campaigns[_campaignId].batches[_batchId]\n                .isPLAReceivedManufacturer = true;\n        }\n        if (campaigns[_campaignId].batches[_batchId].courier1 == _msgSender()) {\n            campaigns[_campaignId].batches[_batchId]\n                .isPLARecivedCourier1 = true;\n        }\n        if (\n            campaigns[_campaignId].batches[_batchId]\n                .isPLAReceivedManufacturer ==\n            true &&\n            campaigns[_campaignId].batches[_batchId].isPLARecivedCourier1 ==\n            true\n        ) {\n            campaigns[_campaignId].batches[_batchId].stage = BatchStages\n                .PLARecivedByManufaturer;\n\n            emit PLARecivedByManufacturer(_campaignId, _batchId);\n            stageChange = true;\n        }\n    }\n\n    function confirmMasksMade(\n        uint256 _campaignId,\n        uint256 _batchId,\n        uint256 _amountOfMasksMade\n    ) public {\n        require(\n            campaigns[_campaignId].batches[_batchId].manufacturer ==\n                _msgSender(),\n            \"Only manufacturer of batch is allowed\"\n        );\n        campaigns[_campaignId].batches[_batchId]\n            .amountOfMasksMade = _amountOfMasksMade;\n        campaigns[_campaignId].batches[_batchId].stage = BatchStages.MasksReady;\n        emit MasksReady(_campaignId, _batchId, _amountOfMasksMade);\n    }\n\n    function confirmMasksPickedUpByCourier2(\n        uint256 _campaignId,\n        uint256 _batchId\n    ) public returns (bool stageChange) {\n        require(\n            campaigns[_campaignId].batches[_batchId].manufacturer ==\n                _msgSender() ||\n                campaigns[_campaignId].batches[_batchId].courier2 ==\n                _msgSender(),\n            \"Only manufacturer or courier of batch is allowed\"\n        );\n        stageChange = false;\n        if (\n            campaigns[_campaignId].batches[_batchId].manufacturer ==\n            _msgSender()\n        ) {\n            campaigns[_campaignId].batches[_batchId]\n                .isMasksPickedUpManufacturer = true;\n        }\n        if (campaigns[_campaignId].batches[_batchId].courier2 == _msgSender()) {\n            campaigns[_campaignId].batches[_batchId]\n                .isMasksPickedUpCourier2 = true;\n        }\n        if (\n            campaigns[_campaignId].batches[_batchId]\n                .isMasksPickedUpManufacturer ==\n            true &&\n            campaigns[_campaignId].batches[_batchId].isMasksPickedUpCourier2 ==\n            true\n        ) {\n            campaigns[_campaignId].batches[_batchId].stage = BatchStages\n                .MasksPickedUpByCourier2;\n\n            emit MasksPickedUpByCourier2(_campaignId, _batchId);\n            stageChange = true;\n        }\n    }\n\n    function confirmMasksRceivedByReceiver(\n        uint256 _campaignId,\n        uint256 _batchId\n    ) public returns (bool stageChange) {\n        require(\n            campaigns[_campaignId].receiver == _msgSender() ||\n                campaigns[_campaignId].batches[_batchId].courier2 ==\n                _msgSender(),\n            \"Only reciver of camapignId or courier is allowed\"\n        );\n        stageChange = false;\n        if (campaigns[_campaignId].receiver == _msgSender()) {\n            campaigns[_campaignId].batches[_batchId]\n                .isMasksReceviedReceviver = true;\n        }\n        if (campaigns[_campaignId].batches[_batchId].courier2 == _msgSender()) {\n            campaigns[_campaignId].batches[_batchId]\n                .isMasksaReceviedCourier2 = true;\n        }\n        if (\n            campaigns[_campaignId].batches[_batchId].isMasksReceviedReceviver ==\n            true &&\n            campaigns[_campaignId].batches[_batchId].isMasksaReceviedCourier2 ==\n            true\n        ) {\n            campaigns[_campaignId].batches[_batchId].stage = BatchStages\n                .MasksRceivedByReceiver;\n\n            emit MasksRceivedByReceiver(_campaignId, _batchId);\n            stageChange = true;\n        }\n    }\n\n    //for test\n    function getCampaignDetalis(uint256 _campaignId)\n        public\n        view\n        returns (\n            uint256 totalPLA,\n            uint256 currentPLA,\n            uint256 totalBatches,\n            address coordinator,\n            address receiver,\n            address[] memory manufacturers,\n            address[] memory couriers\n        )\n    {\n        coordinator = campaigns[_campaignId].coordinator;\n        totalPLA = campaigns[_campaignId].totalPLA;\n        currentPLA = campaigns[_campaignId].currentPLA;\n        receiver = campaigns[_campaignId].receiver;\n        totalBatches = campaigns[_campaignId].batchCounter;\n        manufacturers = campaigns[_campaignId].manufacturers.addresses;\n        couriers = campaigns[_campaignId].couriers.addresses;\n\n    }\n\n    function getBatchDetails(uint256 _campaignId, uint256 _batchId)\n        public\n        view\n        returns (Batch memory batch)\n    {\n        batch = campaigns[_campaignId].batches[_batchId];\n    }\n    //given the address returns all the campaigns it is part of\n    function partOfWhichCampaigns(address _who) public view returns(uint256[] memory){\n        return belongsToCampign[_who];\n    }\n    //given campaignId and address returns all the batches it is part of for that capaign\n    function partOfWhichBatches(uint256 _campaignId,address _who)public view returns(uint256[] memory){\n        return campaigns[_campaignId].belongsToBatch[_who];\n    }\n}\n\n",
  "sourcePath": "/home/safu/ethereum/covid19/fromgit/COVID19-supply-chain-tracking-for-3D-printed-protective-gear/ourContracts/contracts/CampaignGenerator_flat.sol",
  "compiler": {
    "name": "solc",
    "version": "0.6.2+commit.bacdbe57.Emscripten.clang"
  },
  "schemaVersion": "3.1.0",
  "updatedAt": "2020-05-06T06:30:03.367Z",
  "devdoc": {
    "methods": {
      "_setupRole(bytes32,address)": {
        "details": "Grants `role` to `account`.     * If `account` had not been already granted `role`, emits a {RoleGranted} event. Note that unlike {grantRole}, this function doesn't perform any checks on the calling account.     * [WARNING] ==== This function should only be called from the constructor when setting up the initial roles for the system.     * Using this function in any other way is effectively circumventing the admin system imposed by {AccessControl}. ===="
      },
      "getRoleAdmin(bytes32)": {
        "details": "Returns the admin role that controls `role`. See {grantRole} and {revokeRole}.     * To change a role's admin, use {_setRoleAdmin}."
      },
      "getRoleMember(bytes32,uint256)": {
        "details": "Returns one of the accounts that have `role`. `index` must be a value between 0 and {getRoleMemberCount}, non-inclusive.     * Role bearers are not sorted in any particular way, and their ordering may change at any point.     * WARNING: When using {getRoleMember} and {getRoleMemberCount}, make sure you perform all queries on the same block. See the following https://forum.openzeppelin.com/t/iterating-over-elements-on-enumerableset-in-openzeppelin-contracts/2296[forum post] for more information."
      },
      "getRoleMemberCount(bytes32)": {
        "details": "Returns the number of accounts that have `role`. Can be used together with {getRoleMember} to enumerate all bearers of a role."
      },
      "hasRole(bytes32,address)": {
        "details": "Returns `true` if `account` has been granted `role`."
      },
      "owner()": {
        "details": "Returns the address of the current owner."
      },
      "renounceOwnership()": {
        "details": "Leaves the contract without owner. It will not be possible to call `onlyOwner` functions anymore. Can only be called by the current owner.     * NOTE: Renouncing ownership will leave the contract without an owner, thereby removing any functionality that is only available to the owner."
      },
      "renounceRole(bytes32,address)": {
        "details": "Revokes `role` from the calling account.     * Roles are often managed via {grantRole} and {revokeRole}: this function's purpose is to provide a mechanism for accounts to lose their privileges if they are compromised (such as when a trusted device is misplaced).     * If the calling account had been granted `role`, emits a {RoleRevoked} event.     * Requirements:     * - the caller must be `account`."
      },
      "transferOwnership(address)": {
        "details": "Transfers ownership of the contract to a new account (`newOwner`). Can only be called by the current owner."
      }
    }
  },
  "userdoc": {
    "methods": {}
  }
}