{
  "contractName": "Roles",
  "abi": [
    {
      "inputs": [
        {
          "internalType": "address",
          "name": "_admin",
          "type": "address"
        }
      ],
      "stateMutability": "nonpayable",
      "type": "constructor"
    },
    {
      "anonymous": false,
      "inputs": [
        {
          "indexed": true,
          "internalType": "bytes32",
          "name": "role",
          "type": "bytes32"
        },
        {
          "indexed": true,
          "internalType": "address",
          "name": "account",
          "type": "address"
        },
        {
          "indexed": true,
          "internalType": "address",
          "name": "sender",
          "type": "address"
        }
      ],
      "name": "RoleGranted",
      "type": "event"
    },
    {
      "anonymous": false,
      "inputs": [
        {
          "indexed": true,
          "internalType": "bytes32",
          "name": "role",
          "type": "bytes32"
        },
        {
          "indexed": true,
          "internalType": "address",
          "name": "account",
          "type": "address"
        },
        {
          "indexed": true,
          "internalType": "address",
          "name": "sender",
          "type": "address"
        }
      ],
      "name": "RoleRevoked",
      "type": "event"
    },
    {
      "inputs": [],
      "name": "ADMIN_ROLE",
      "outputs": [
        {
          "internalType": "bytes32",
          "name": "",
          "type": "bytes32"
        }
      ],
      "stateMutability": "view",
      "type": "function"
    },
    {
      "inputs": [],
      "name": "COORDINATOR_ROLE",
      "outputs": [
        {
          "internalType": "bytes32",
          "name": "",
          "type": "bytes32"
        }
      ],
      "stateMutability": "view",
      "type": "function"
    },
    {
      "inputs": [],
      "name": "COURIER_ROLE",
      "outputs": [
        {
          "internalType": "bytes32",
          "name": "",
          "type": "bytes32"
        }
      ],
      "stateMutability": "view",
      "type": "function"
    },
    {
      "inputs": [],
      "name": "DEFAULT_ADMIN_ROLE",
      "outputs": [
        {
          "internalType": "bytes32",
          "name": "",
          "type": "bytes32"
        }
      ],
      "stateMutability": "view",
      "type": "function"
    },
    {
      "inputs": [],
      "name": "MANUFATURER_ROLE",
      "outputs": [
        {
          "internalType": "bytes32",
          "name": "",
          "type": "bytes32"
        }
      ],
      "stateMutability": "view",
      "type": "function"
    },
    {
      "inputs": [],
      "name": "RECIVER_ROLE",
      "outputs": [
        {
          "internalType": "bytes32",
          "name": "",
          "type": "bytes32"
        }
      ],
      "stateMutability": "view",
      "type": "function"
    },
    {
      "inputs": [
        {
          "internalType": "bytes32",
          "name": "role",
          "type": "bytes32"
        }
      ],
      "name": "getRoleAdmin",
      "outputs": [
        {
          "internalType": "bytes32",
          "name": "",
          "type": "bytes32"
        }
      ],
      "stateMutability": "view",
      "type": "function"
    },
    {
      "inputs": [
        {
          "internalType": "bytes32",
          "name": "role",
          "type": "bytes32"
        },
        {
          "internalType": "uint256",
          "name": "index",
          "type": "uint256"
        }
      ],
      "name": "getRoleMember",
      "outputs": [
        {
          "internalType": "address",
          "name": "",
          "type": "address"
        }
      ],
      "stateMutability": "view",
      "type": "function"
    },
    {
      "inputs": [
        {
          "internalType": "bytes32",
          "name": "role",
          "type": "bytes32"
        }
      ],
      "name": "getRoleMemberCount",
      "outputs": [
        {
          "internalType": "uint256",
          "name": "",
          "type": "uint256"
        }
      ],
      "stateMutability": "view",
      "type": "function"
    },
    {
      "inputs": [
        {
          "internalType": "bytes32",
          "name": "role",
          "type": "bytes32"
        },
        {
          "internalType": "address",
          "name": "account",
          "type": "address"
        }
      ],
      "name": "hasRole",
      "outputs": [
        {
          "internalType": "bool",
          "name": "",
          "type": "bool"
        }
      ],
      "stateMutability": "view",
      "type": "function"
    },
    {
      "inputs": [
        {
          "internalType": "bytes32",
          "name": "role",
          "type": "bytes32"
        },
        {
          "internalType": "address",
          "name": "account",
          "type": "address"
        }
      ],
      "name": "renounceRole",
      "outputs": [],
      "stateMutability": "nonpayable",
      "type": "function"
    },
    {
      "inputs": [
        {
          "internalType": "address",
          "name": "",
          "type": "address"
        }
      ],
      "name": "whichRole",
      "outputs": [
        {
          "internalType": "bytes32",
          "name": "",
          "type": "bytes32"
        }
      ],
      "stateMutability": "view",
      "type": "function"
    }
  ],
  "bytecode": "0x60806040523480156200001157600080fd5b5060405162000e8338038062000e83833981810160405260208110156200003757600080fd5b81019080805190602001909291905050506200007d7ff23ec0bb4210edd5cba85afd05127efcd2fc6a781bfed49188da1081670b22d860001b82620001e460201b60201c565b620000d57faf8c8b3d1b230c888f16d0aac400b28aa51e631d580aaa7cb46e571590ed44e760001b7ff23ec0bb4210edd5cba85afd05127efcd2fc6a781bfed49188da1081670b22d860001b620001fa60201b60201c565b6200012d7f7fc3771f539a03c47afbbf258702c19273ef5e735e24ee7978081dc07288c68760001b7faf8c8b3d1b230c888f16d0aac400b28aa51e631d580aaa7cb46e571590ed44e760001b620001fa60201b60201c565b620001857fb528929ed79eb79a87ae6f578d3125509c91bfea9ac8b7fb9f69aa0bc28298dd60001b7faf8c8b3d1b230c888f16d0aac400b28aa51e631d580aaa7cb46e571590ed44e760001b620001fa60201b60201c565b620001dd7f5e784e45feb63c375016d4ce5c52a57b0a48b8a170bc2e31463be0d03d1c4db660001b7faf8c8b3d1b230c888f16d0aac400b28aa51e631d580aaa7cb46e571590ed44e760001b620001fa60201b60201c565b5062000478565b620001f682826200021860201b60201c565b5050565b80600080848152602001908152602001600020600201819055505050565b6000801b600160008373ffffffffffffffffffffffffffffffffffffffff1673ffffffffffffffffffffffffffffffffffffffff1681526020019081526020016000205414620002b4576040517f08c379a000000000000000000000000000000000000000000000000000000000815260040180806020018281038252602d81526020018062000e56602d913960400191505060405180910390fd5b81600160008373ffffffffffffffffffffffffffffffffffffffff1673ffffffffffffffffffffffffffffffffffffffff1681526020019081526020016000208190555062000326816000808581526020019081526020016000206000016200039b60201b620008a71790919060201c565b1562000397576200033c620003d360201b60201c565b73ffffffffffffffffffffffffffffffffffffffff168173ffffffffffffffffffffffffffffffffffffffff16837f2f8788117e7eff1d82e926ec794901d17c78024a50270940304540a733656f0d60405160405180910390a45b5050565b6000620003cb836000018373ffffffffffffffffffffffffffffffffffffffff1660001b620003db60201b60201c565b905092915050565b600033905090565b6000620003ef83836200045560201b60201c565b6200044a5782600001829080600181540180825580915050600190039060005260206000200160009091909190915055826000018054905083600101600084815260200190815260200160002081905550600190506200044f565b600090505b92915050565b600080836001016000848152602001908152602001600020541415905092915050565b6109ce80620004886000396000f3fe608060405234801561001057600080fd5b50600436106100b45760003560e01c806391e9100d1161007157806391e9100d1461026357806392b8a6c814610281578063a217fddf1461029f578063ca15c873146102bd578063d6d19367146102ff578063dd9e9ea51461031d576100b4565b8063248a9ca3146100b957806336568abe146100fb5780636b366cb51461014957806375b238fc146101675780639010d07c1461018557806391d14854146101fd575b600080fd5b6100e5600480360360208110156100cf57600080fd5b8101908080359060200190929190505050610375565b6040518082815260200191505060405180910390f35b6101476004803603604081101561011157600080fd5b8101908080359060200190929190803573ffffffffffffffffffffffffffffffffffffffff169060200190929190505050610394565b005b61015161042d565b6040518082815260200191505060405180910390f35b61016f610454565b6040518082815260200191505060405180910390f35b6101bb6004803603604081101561019b57600080fd5b81019080803590602001909291908035906020019092919050505061047b565b604051808273ffffffffffffffffffffffffffffffffffffffff1673ffffffffffffffffffffffffffffffffffffffff16815260200191505060405180910390f35b6102496004803603604081101561021357600080fd5b8101908080359060200190929190803573ffffffffffffffffffffffffffffffffffffffff1690602001909291905050506104ac565b604051808215151515815260200191505060405180910390f35b61026b6104dd565b6040518082815260200191505060405180910390f35b610289610504565b6040518082815260200191505060405180910390f35b6102a761052b565b6040518082815260200191505060405180910390f35b6102e9600480360360208110156102d357600080fd5b8101908080359060200190929190505050610532565b6040518082815260200191505060405180910390f35b610307610558565b6040518082815260200191505060405180910390f35b61035f6004803603602081101561033357600080fd5b81019080803573ffffffffffffffffffffffffffffffffffffffff16906020019092919050505061057f565b6040518082815260200191505060405180910390f35b6000806000838152602001908152602001600020600201549050919050565b61039c610597565b73ffffffffffffffffffffffffffffffffffffffff168173ffffffffffffffffffffffffffffffffffffffff161461041f576040517f08c379a000000000000000000000000000000000000000000000000000000000815260040180806020018281038252602f81526020018061096a602f913960400191505060405180910390fd5b610429828261059f565b5050565b7faf8c8b3d1b230c888f16d0aac400b28aa51e631d580aaa7cb46e571590ed44e760001b81565b7ff23ec0bb4210edd5cba85afd05127efcd2fc6a781bfed49188da1081670b22d860001b81565b60006104a48260008086815260200190815260200160002060000161067990919063ffffffff16565b905092915050565b60006104d58260008086815260200190815260200160002060000161069390919063ffffffff16565b905092915050565b7f5e784e45feb63c375016d4ce5c52a57b0a48b8a170bc2e31463be0d03d1c4db660001b81565b7f7fc3771f539a03c47afbbf258702c19273ef5e735e24ee7978081dc07288c68760001b81565b6000801b81565b60006105516000808481526020019081526020016000206000016106c3565b9050919050565b7fb528929ed79eb79a87ae6f578d3125509c91bfea9ac8b7fb9f69aa0bc28298dd60001b81565b60016020528060005260406000206000915090505481565b600033905090565b6000801b600160008373ffffffffffffffffffffffffffffffffffffffff1673ffffffffffffffffffffffffffffffffffffffff1681526020019081526020016000208190555061060d816000808581526020019081526020016000206000016106d890919063ffffffff16565b156106755761061a610597565b73ffffffffffffffffffffffffffffffffffffffff168173ffffffffffffffffffffffffffffffffffffffff16837ff6391f5c32d9c69d2a47ea670b442974b53935d1edc7fd64eb21e047a839171b60405160405180910390a45b5050565b60006106888360000183610708565b60001c905092915050565b60006106bb836000018373ffffffffffffffffffffffffffffffffffffffff1660001b61078b565b905092915050565b60006106d1826000016107ae565b9050919050565b6000610700836000018373ffffffffffffffffffffffffffffffffffffffff1660001b6107bf565b905092915050565b600081836000018054905011610769576040517f08c379a00000000000000000000000000000000000000000000000000000000081526004018080602001828103825260228152602001806109486022913960400191505060405180910390fd5b82600001828154811061077857fe5b9060005260206000200154905092915050565b600080836001016000848152602001908152602001600020541415905092915050565b600081600001805490509050919050565b6000808360010160008481526020019081526020016000205490506000811461089b576000600182039050600060018660000180549050039050600086600001828154811061080a57fe5b906000526020600020015490508087600001848154811061082757fe5b906000526020600020018190555060018301876001016000838152602001908152602001600020819055508660000180548061085f57fe5b600190038181906000526020600020016000905590558660010160008781526020019081526020016000206000905560019450505050506108a1565b60009150505b92915050565b60006108cf836000018373ffffffffffffffffffffffffffffffffffffffff1660001b6108d7565b905092915050565b60006108e3838361078b565b61093c578260000182908060018154018082558091505060019003906000526020600020016000909190919091505582600001805490508360010160008481526020019081526020016000208190555060019050610941565b600090505b9291505056fe456e756d657261626c655365743a20696e646578206f7574206f6620626f756e6473416363657373436f6e74726f6c3a2063616e206f6e6c792072656e6f756e636520726f6c657320666f722073656c66a264697066735822122075c3add3027617bdb9738c9fec0db7a2759268f63eebfb22e23356c6276dcf5164736f6c634300060200335573657220616c726561647920686173206120726f6c6528736565207768696368526f6c65206d6574686f6429",
  "source": "pragma solidity ^0.6.0;\n\nimport \"./access/AccessControl.sol\";\nimport \"./access/Ownable.sol\";\n\n\ncontract Roles is AccessControl {\n    //keccak256(\"admin\")\n    bytes32 public constant ADMIN_ROLE = 0xf23ec0bb4210edd5cba85afd05127efcd2fc6a781bfed49188da1081670b22d8;\n    //keccak256(\"coordinator\")\n    bytes32 public constant COORDINATOR_ROLE = 0xaf8c8b3d1b230c888f16d0aac400b28aa51e631d580aaa7cb46e571590ed44e7;\n    //keccak256(\"courier\")\n    bytes32 public constant COURIER_ROLE = 0x7fc3771f539a03c47afbbf258702c19273ef5e735e24ee7978081dc07288c687;\n    //keccak256(\"manufaturer\")\n    bytes32 public constant MANUFATURER_ROLE = 0xb528929ed79eb79a87ae6f578d3125509c91bfea9ac8b7fb9f69aa0bc28298dd;\n    //keccka256(\"receiver\")\n    bytes32 public constant RECIVER_ROLE = 0x5e784e45feb63c375016d4ce5c52a57b0a48b8a170bc2e31463be0d03d1c4db6;\n    constructor(address _admin) public {\n        _setupRole(ADMIN_ROLE, _admin);\n        _setRoleAdmin(COORDINATOR_ROLE, ADMIN_ROLE);\n        _setRoleAdmin(COURIER_ROLE, COORDINATOR_ROLE);\n        _setRoleAdmin(MANUFATURER_ROLE, COORDINATOR_ROLE);\n        _setRoleAdmin(RECIVER_ROLE,COORDINATOR_ROLE);\n    }\n\n    modifier onlyAdmin() {\n        require(hasRole(ADMIN_ROLE, _msgSender()), \"Only admin is allowed\");\n        _;\n    }\n    modifier onlyCoordinator() {\n        require(\n            hasRole(COORDINATOR_ROLE, _msgSender()),\n            \"Only coordinator is allowed\"\n        );\n        _;\n    }\n    modifier onlyCourier() {\n        require(hasRole(COURIER_ROLE, _msgSender()), \"Only courier is allowed\");\n        _;\n    }\n    modifier onlyManufaturer() {\n        require(\n            hasRole(MANUFATURER_ROLE, _msgSender()),\n            \"Only manufaturer is allowed\"\n        );\n        _;\n    }\n}\n",
  "sourcePath": "/home/safu/ethereum/covid19/fromgit/COVID19-supply-chain-tracking-for-3D-printed-protective-gear/ourContracts/contracts/Roles.sol",
  "compiler": {
    "name": "solc",
    "version": "0.6.2+commit.bacdbe57.Emscripten.clang"
  },
  "schemaVersion": "3.1.0",
  "updatedAt": "2020-05-06T05:24:27.278Z",
  "devdoc": {
    "methods": {
      "getRoleAdmin(bytes32)": {
        "details": "Returns the admin role that controls `role`. See {grantRole} and {revokeRole}.     * To change a role's admin, use {_setRoleAdmin}."
      },
      "getRoleMember(bytes32,uint256)": {
        "details": "Returns one of the accounts that have `role`. `index` must be a value between 0 and {getRoleMemberCount}, non-inclusive.     * Role bearers are not sorted in any particular way, and their ordering may change at any point.     * WARNING: When using {getRoleMember} and {getRoleMemberCount}, make sure you perform all queries on the same block. See the following https://forum.openzeppelin.com/t/iterating-over-elements-on-enumerableset-in-openzeppelin-contracts/2296[forum post] for more information."
      },
      "getRoleMemberCount(bytes32)": {
        "details": "Returns the number of accounts that have `role`. Can be used together with {getRoleMember} to enumerate all bearers of a role."
      },
      "hasRole(bytes32,address)": {
        "details": "Returns `true` if `account` has been granted `role`."
      },
      "renounceRole(bytes32,address)": {
        "details": "Revokes `role` from the calling account.     * Roles are often managed via {grantRole} and {revokeRole}: this function's purpose is to provide a mechanism for accounts to lose their privileges if they are compromised (such as when a trusted device is misplaced).     * If the calling account had been granted `role`, emits a {RoleRevoked} event.     * Requirements:     * - the caller must be `account`."
      }
    }
  },
  "userdoc": {
    "methods": {}
  }
}