{
  "contractName": "Storage",
  "abi": [
    {
      "inputs": [],
      "name": "campaignCounter",
      "outputs": [
        {
          "internalType": "uint256",
          "name": "",
          "type": "uint256"
        }
      ],
      "stateMutability": "view",
      "type": "function"
    }
  ],
  "bytecode": "0x60806040526001805534801561001457600080fd5b5060b3806100236000396000f3fe6080604052348015600f57600080fd5b506004361060285760003560e01c8063fca604d714602d575b600080fd5b60336047565b604051603e9190605a565b60405180910390f35b60015481565b6054816073565b82525050565b6000602082019050606d6000830184604d565b92915050565b600081905091905056fea2646970667358221220cb56b812206630a99fb6f3e337fba4c9488dfe617f7083414ca6d5337e2e6c1b64736f6c63430006020033",
  "source": "pragma solidity ^0.6.0;\n\n/*\n * @dev Provides information about the current execution context, including the\n * sender of the transaction and its data. While these are generally available\n * via msg.sender and msg.data, they should not be accessed in such a direct\n * manner, since when dealing with GSN meta-transactions the account sending and\n * paying for execution may not be the actual sender (as far as an application\n * is concerned).\n *\n * This contract is only required for intermediate, library-like contracts.\n */\ncontract Context {\n    // Empty internal constructor, to prevent people from mistakenly deploying\n    // an instance of this contract, which should be used via inheritance.\n    constructor () internal {}\n\n    function _msgSender() internal view virtual returns (address payable) {\n        return msg.sender;\n    }\n\n    function _msgData() internal view virtual returns (bytes memory) {\n        this; // silence state mutability warning without generating bytecode - see https://github.com/ethereum/solidity/issues/2691\n        return msg.data;\n    }\n}\n\n\n/**\n * @dev Library for managing\n * https://en.wikipedia.org/wiki/Set_(abstract_data_type)[sets] of primitive\n * types.\n *\n * Sets have the following properties:\n *\n * - Elements are added, removed, and checked for existence in constant time\n * (O(1)).\n * - Elements are enumerated in O(n). No guarantees are made on the ordering.\n *\n * ```\n * contract Example {\n *     // Add the library methods\n *     using EnumerableSet for EnumerableSet.AddressSet;\n *\n *     // Declare a set state variable\n *     EnumerableSet.AddressSet private mySet;\n * }\n * ```\n *\n * As of v3.0.0, only sets of type `address` (`AddressSet`) and `uint256`\n * (`UintSet`) are supported.\n */\nlibrary EnumerableSet {\n    // To implement this library for multiple types with as little code\n    // repetition as possible, we write it in terms of a generic Set type with\n    // bytes32 values.\n    // The Set implementation uses private functions, and user-facing\n    // implementations (such as AddressSet) are just wrappers around the\n    // underlying Set.\n    // This means that we can only create new EnumerableSets for types that fit\n    // in bytes32.\n\n    struct Set {\n        // Storage of set values\n        bytes32[] _values;\n\n        // Position of the value in the `values` array, plus 1 because index 0\n        // means a value is not in the set.\n        mapping (bytes32 => uint256) _indexes;\n    }\n\n    /**\n     * @dev Add a value to a set. O(1).\n     *\n     * Returns true if the value was added to the set, that is if it was not\n     * already present.\n     */\n    function _add(Set storage set, bytes32 value) private returns (bool) {\n        if (!_contains(set, value)) {\n            set._values.push(value);\n            // The value is stored at length-1, but we add 1 to all indexes\n            // and use 0 as a sentinel value\n            set._indexes[value] = set._values.length;\n            return true;\n        } else {\n            return false;\n        }\n    }\n\n    /**\n     * @dev Removes a value from a set. O(1).\n     *\n     * Returns true if the value was removed from the set, that is if it was\n     * present.\n     */\n    function _remove(Set storage set, bytes32 value) private returns (bool) {\n        // We read and store the value's index to prevent multiple reads from the same storage slot\n        uint256 valueIndex = set._indexes[value];\n\n        if (valueIndex != 0) { // Equivalent to contains(set, value)\n            // To delete an element from the _values array in O(1), we swap the element to delete with the last one in\n            // the array, and then remove the last element (sometimes called as 'swap and pop').\n            // This modifies the order of the array, as noted in {at}.\n\n            uint256 toDeleteIndex = valueIndex - 1;\n            uint256 lastIndex = set._values.length - 1;\n\n            // When the value to delete is the last one, the swap operation is unnecessary. However, since this occurs\n            // so rarely, we still do the swap anyway to avoid the gas cost of adding an 'if' statement.\n\n            bytes32 lastvalue = set._values[lastIndex];\n\n            // Move the last value to the index where the value to delete is\n            set._values[toDeleteIndex] = lastvalue;\n            // Update the index for the moved value\n            set._indexes[lastvalue] = toDeleteIndex + 1; // All indexes are 1-based\n\n            // Delete the slot where the moved value was stored\n            set._values.pop();\n\n            // Delete the index for the deleted slot\n            delete set._indexes[value];\n\n            return true;\n        } else {\n            return false;\n        }\n    }\n\n    /**\n     * @dev Returns true if the value is in the set. O(1).\n     */\n    function _contains(Set storage set, bytes32 value) private view returns (bool) {\n        return set._indexes[value] != 0;\n    }\n\n    /**\n     * @dev Returns the number of values on the set. O(1).\n     */\n    function _length(Set storage set) private view returns (uint256) {\n        return set._values.length;\n    }\n\n   /**\n    * @dev Returns the value stored at position `index` in the set. O(1).\n    *\n    * Note that there are no guarantees on the ordering of values inside the\n    * array, and it may change when more values are added or removed.\n    *\n    * Requirements:\n    *\n    * - `index` must be strictly less than {length}.\n    */\n    function _at(Set storage set, uint256 index) private view returns (bytes32) {\n        require(set._values.length > index, \"EnumerableSet: index out of bounds\");\n        return set._values[index];\n    }\n\n    // AddressSet\n\n    struct AddressSet {\n        Set _inner;\n    }\n\n    /**\n     * @dev Add a value to a set. O(1).\n     *\n     * Returns true if the value was added to the set, that is if it was not\n     * already present.\n     */\n    function add(AddressSet storage set, address value) internal returns (bool) {\n        return _add(set._inner, bytes32(uint256(value)));\n    }\n\n    /**\n     * @dev Removes a value from a set. O(1).\n     *\n     * Returns true if the value was removed from the set, that is if it was\n     * present.\n     */\n    function remove(AddressSet storage set, address value) internal returns (bool) {\n        return _remove(set._inner, bytes32(uint256(value)));\n    }\n\n    /**\n     * @dev Returns true if the value is in the set. O(1).\n     */\n    function contains(AddressSet storage set, address value) internal view returns (bool) {\n        return _contains(set._inner, bytes32(uint256(value)));\n    }\n\n    /**\n     * @dev Returns the number of values in the set. O(1).\n     */\n    function length(AddressSet storage set) internal view returns (uint256) {\n        return _length(set._inner);\n    }\n\n   /**\n    * @dev Returns the value stored at position `index` in the set. O(1).\n    *\n    * Note that there are no guarantees on the ordering of values inside the\n    * array, and it may change when more values are added or removed.\n    *\n    * Requirements:\n    *\n    * - `index` must be strictly less than {length}.\n    */\n    function at(AddressSet storage set, uint256 index) internal view returns (address) {\n        return address(uint256(_at(set._inner, index)));\n    }\n\n\n    // UintSet\n\n    struct UintSet {\n        Set _inner;\n    }\n\n    /**\n     * @dev Add a value to a set. O(1).\n     *\n     * Returns true if the value was added to the set, that is if it was not\n     * already present.\n     */\n    function add(UintSet storage set, uint256 value) internal returns (bool) {\n        return _add(set._inner, bytes32(value));\n    }\n\n    /**\n     * @dev Removes a value from a set. O(1).\n     *\n     * Returns true if the value was removed from the set, that is if it was\n     * present.\n     */\n    function remove(UintSet storage set, uint256 value) internal returns (bool) {\n        return _remove(set._inner, bytes32(value));\n    }\n\n    /**\n     * @dev Returns true if the value is in the set. O(1).\n     */\n    function contains(UintSet storage set, uint256 value) internal view returns (bool) {\n        return _contains(set._inner, bytes32(value));\n    }\n\n    /**\n     * @dev Returns the number of values on the set. O(1).\n     */\n    function length(UintSet storage set) internal view returns (uint256) {\n        return _length(set._inner);\n    }\n\n   /**\n    * @dev Returns the value stored at position `index` in the set. O(1).\n    *\n    * Note that there are no guarantees on the ordering of values inside the\n    * array, and it may change when more values are added or removed.\n    *\n    * Requirements:\n    *\n    * - `index` must be strictly less than {length}.\n    */\n    function at(UintSet storage set, uint256 index) internal view returns (uint256) {\n        return uint256(_at(set._inner, index));\n    }\n}\n\npragma experimental ABIEncoderV2;\n\n\n\n\n\n\n\n/**\n * @dev Collection of functions related to the address type\n */\nlibrary Address {\n    /**\n     * @dev Returns true if `account` is a contract.\n     *\n     * [IMPORTANT]\n     * ====\n     * It is unsafe to assume that an address for which this function returns\n     * false is an externally-owned account (EOA) and not a contract.\n     *\n     * Among others, `isContract` will return false for the following\n     * types of addresses:\n     *\n     *  - an externally-owned account\n     *  - a contract in construction\n     *  - an address where a contract will be created\n     *  - an address where a contract lived, but was destroyed\n     * ====\n     */\n    function isContract(address account) internal view returns (bool) {\n        // According to EIP-1052, 0x0 is the value returned for not-yet created accounts\n        // and 0xc5d2460186f7233c927e7db2dcc703c0e500b653ca82273b7bfad8045d85a470 is returned\n        // for accounts without code, i.e. `keccak256('')`\n        bytes32 codehash;\n        bytes32 accountHash = 0xc5d2460186f7233c927e7db2dcc703c0e500b653ca82273b7bfad8045d85a470;\n        // solhint-disable-next-line no-inline-assembly\n        assembly { codehash := extcodehash(account) }\n        return (codehash != accountHash && codehash != 0x0);\n    }\n\n    /**\n     * @dev Replacement for Solidity's `transfer`: sends `amount` wei to\n     * `recipient`, forwarding all available gas and reverting on errors.\n     *\n     * https://eips.ethereum.org/EIPS/eip-1884[EIP1884] increases the gas cost\n     * of certain opcodes, possibly making contracts go over the 2300 gas limit\n     * imposed by `transfer`, making them unable to receive funds via\n     * `transfer`. {sendValue} removes this limitation.\n     *\n     * https://diligence.consensys.net/posts/2019/09/stop-using-soliditys-transfer-now/[Learn more].\n     *\n     * IMPORTANT: because control is transferred to `recipient`, care must be\n     * taken to not create reentrancy vulnerabilities. Consider using\n     * {ReentrancyGuard} or the\n     * https://solidity.readthedocs.io/en/v0.5.11/security-considerations.html#use-the-checks-effects-interactions-pattern[checks-effects-interactions pattern].\n     */\n    function sendValue(address payable recipient, uint256 amount) internal {\n        require(address(this).balance >= amount, \"Address: insufficient balance\");\n\n        // solhint-disable-next-line avoid-low-level-calls, avoid-call-value\n        (bool success, ) = recipient.call{ value: amount }(\"\");\n        require(success, \"Address: unable to send value, recipient may have reverted\");\n    }\n}\n\n\n\n/**\n * @dev Contract module that allows children to implement role-based access\n * control mechanisms.\n *\n * Roles are referred to by their `bytes32` identifier. These should be exposed\n * in the external API and be unique. The best way to achieve this is by\n * using `public constant` hash digests:\n *\n * ```\n * bytes32 public constant MY_ROLE = keccak256(\"MY_ROLE\");\n * ```\n *\n * Roles can be used to represent a set of permissions. To restrict access to a\n * function call, use {hasRole}:\n *\n * ```\n * function foo() public {\n *     require(hasRole(MY_ROLE, _msgSender()));\n *     ...\n * }\n * ```\n *\n * Roles can be granted and revoked dynamically via the {grantRole} and\n * {revokeRole} functions. Each role has an associated admin role, and only\n * accounts that have a role's admin role can call {grantRole} and {revokeRole}.\n *\n * By default, the admin role for all roles is `DEFAULT_ADMIN_ROLE`, which means\n * that only accounts with this role will be able to grant or revoke other\n * roles. More complex role relationships can be created by using\n * {_setRoleAdmin}.\n */\nabstract contract AccessControl is Context {\n    using EnumerableSet for EnumerableSet.AddressSet;\n    using Address for address;\n\n    struct RoleData {\n        EnumerableSet.AddressSet members;\n        bytes32 adminRole;\n    }\n\n    mapping (bytes32 => RoleData) private _roles;\n    mapping(address=>bytes32) public whichRole;\n\n    bytes32 public constant DEFAULT_ADMIN_ROLE = 0x00;\n\n    /**\n     * @dev Emitted when `account` is granted `role`.\n     *\n     * `sender` is the account that originated the contract call, an admin role\n     * bearer except when using {_setupRole}.\n     */\n    event RoleGranted(bytes32 indexed role, address indexed account, address indexed sender);\n\n    /**\n     * @dev Emitted when `account` is revoked `role`.\n     *\n     * `sender` is the account that originated the contract call:\n     *   - if using `revokeRole`, it is the admin role bearer\n     *   - if using `renounceRole`, it is the role bearer (i.e. `account`)\n     */\n    event RoleRevoked(bytes32 indexed role, address indexed account, address indexed sender);\n\n    /**\n     * @dev Returns `true` if `account` has been granted `role`.\n     */\n    function hasRole(bytes32 role, address account) public view returns (bool) {\n        return _roles[role].members.contains(account);\n    }\n\n    /**\n     * @dev Returns the number of accounts that have `role`. Can be used\n     * together with {getRoleMember} to enumerate all bearers of a role.\n     */\n    function getRoleMemberCount(bytes32 role) public view returns (uint256) {\n        return _roles[role].members.length();\n    }\n\n    /**\n     * @dev Returns one of the accounts that have `role`. `index` must be a\n     * value between 0 and {getRoleMemberCount}, non-inclusive.\n     *\n     * Role bearers are not sorted in any particular way, and their ordering may\n     * change at any point.\n     *\n     * WARNING: When using {getRoleMember} and {getRoleMemberCount}, make sure\n     * you perform all queries on the same block. See the following\n     * https://forum.openzeppelin.com/t/iterating-over-elements-on-enumerableset-in-openzeppelin-contracts/2296[forum post]\n     * for more information.\n     */\n    function getRoleMember(bytes32 role, uint256 index) public view returns (address) {\n        return _roles[role].members.at(index);\n    }\n\n    /**\n     * @dev Returns the admin role that controls `role`. See {grantRole} and\n     * {revokeRole}.\n     *\n     * To change a role's admin, use {_setRoleAdmin}.\n     */\n    function getRoleAdmin(bytes32 role) public view returns (bytes32) {\n        return _roles[role].adminRole;\n    }\n\n    /**\n     * @dev Grants `role` to `account`.\n     *\n     * If `account` had not been already granted `role`, emits a {RoleGranted}\n     * event.\n     *\n     * Requirements:\n     *\n     * - the caller must have ``role``'s admin role.\n     */\n    function grantRole(bytes32 role, address account) internal virtual {\n        require(hasRole(_roles[role].adminRole, _msgSender()), \"AccessControl: sender must be an admin to grant\");\n        _grantRole(role, account);\n    }\n\n    /**\n     * @dev Revokes `role` from `account`.\n     *\n     * If `account` had been granted `role`, emits a {RoleRevoked} event.\n     *\n     * Requirements:\n     *\n     * - the caller must have ``role``'s admin role.\n     */\n    function revokeRole(bytes32 role, address account) internal virtual {\n        require(hasRole(_roles[role].adminRole, _msgSender()), \"AccessControl: sender must be an admin to revoke\");\n\n        _revokeRole(role, account);\n    }\n\n    /**\n     * @dev Revokes `role` from the calling account.\n     *\n     * Roles are often managed via {grantRole} and {revokeRole}: this function's\n     * purpose is to provide a mechanism for accounts to lose their privileges\n     * if they are compromised (such as when a trusted device is misplaced).\n     *\n     * If the calling account had been granted `role`, emits a {RoleRevoked}\n     * event.\n     *\n     * Requirements:\n     *\n     * - the caller must be `account`.\n     */\n    function renounceRole(bytes32 role, address account) public virtual {\n        require(account == _msgSender(), \"AccessControl: can only renounce roles for self\");\n\n        _revokeRole(role, account);\n    }\n\n    /**\n     * @dev Grants `role` to `account`.\n     *\n     * If `account` had not been already granted `role`, emits a {RoleGranted}\n     * event. Note that unlike {grantRole}, this function doesn't perform any\n     * checks on the calling account.\n     *\n     * [WARNING]\n     * ====\n     * This function should only be called from the constructor when setting\n     * up the initial roles for the system.\n     *\n     * Using this function in any other way is effectively circumventing the admin\n     * system imposed by {AccessControl}.\n     * ====\n     */\n    function _setupRole(bytes32 role, address account) public virtual {\n\n        _grantRole(role, account);\n    }\n\n    /**\n     * @dev Sets `adminRole` as ``role``'s admin role.\n     */\n    function _setRoleAdmin(bytes32 role, bytes32 adminRole) internal virtual {\n        _roles[role].adminRole = adminRole;\n    }\n\n    function _grantRole(bytes32 role, address account) private {\n        require(whichRole[account] == 0x0000000000000000000000000000000000000000000000000000000000000000,\"User already has a role(see whichRole method)\");\n        whichRole[account] = role;\n        if (_roles[role].members.add(account)) {\n            emit RoleGranted(role, account, _msgSender());\n        }\n    }\n\n    function _revokeRole(bytes32 role, address account) private {\n        whichRole[account] = 0x0000000000000000000000000000000000000000000000000000000000000000;\n        if (_roles[role].members.remove(account)) {\n            emit RoleRevoked(role, account, _msgSender());\n        }\n    }\n}\n\n\n\n\n/**\n * @dev Contract module which provides a basic access control mechanism, where\n * there is an account (an owner) that can be granted exclusive access to\n * specific functions.\n *\n * By default, the owner account will be the one that deploys the contract. This\n * can later be changed with {transferOwnership}.\n *\n * This module is used through inheritance. It will make available the modifier\n * `onlyOwner`, which can be applied to your functions to restrict their use to\n * the owner.\n */\ncontract Ownable is Context {\n    address private _owner;\n\n    event OwnershipTransferred(address indexed previousOwner, address indexed newOwner);\n\n    /**\n     * @dev Initializes the contract setting the deployer as the initial owner.\n     */\n    constructor () internal {\n        address msgSender = _msgSender();\n        _owner = msgSender;\n        emit OwnershipTransferred(address(0), msgSender);\n    }\n\n    /**\n     * @dev Returns the address of the current owner.\n     */\n    function owner() public view returns (address) {\n        return _owner;\n    }\n\n    /**\n     * @dev Throws if called by any account other than the owner.\n     */\n    modifier onlyOwner() {\n        require(_owner == _msgSender(), \"Ownable: caller is not the owner\");\n        _;\n    }\n\n    /**\n     * @dev Leaves the contract without owner. It will not be possible to call\n     * `onlyOwner` functions anymore. Can only be called by the current owner.\n     *\n     * NOTE: Renouncing ownership will leave the contract without an owner,\n     * thereby removing any functionality that is only available to the owner.\n     */\n    function renounceOwnership() public virtual onlyOwner {\n        emit OwnershipTransferred(_owner, address(0));\n        _owner = address(0);\n    }\n\n    /**\n     * @dev Transfers ownership of the contract to a new account (`newOwner`).\n     * Can only be called by the current owner.\n     */\n    function transferOwnership(address newOwner) public virtual onlyOwner {\n        require(newOwner != address(0), \"Ownable: new owner is the zero address\");\n        emit OwnershipTransferred(_owner, newOwner);\n        _owner = newOwner;\n    }\n}\n\n\n\n/**\n * @dev Wrappers over Solidity's arithmetic operations with added overflow\n * checks.\n *\n * Arithmetic operations in Solidity wrap on overflow. This can easily result\n * in bugs, because programmers usually assume that an overflow raises an\n * error, which is the standard behavior in high level programming languages.\n * `SafeMath` restores this intuition by reverting the transaction when an\n * operation overflows.\n *\n * Using this library instead of the unchecked operations eliminates an entire\n * class of bugs, so it's recommended to use it always.\n */\nlibrary SafeMath {\n    /**\n     * @dev Returns the addition of two unsigned integers, reverting on\n     * overflow.\n     *\n     * Counterpart to Solidity's `+` operator.\n     *\n     * Requirements:\n     * - Addition cannot overflow.\n     */\n    function add(uint256 a, uint256 b) internal pure returns (uint256) {\n        uint256 c = a + b;\n        require(c >= a, \"SafeMath: addition overflow\");\n\n        return c;\n    }\n\n    /**\n     * @dev Returns the subtraction of two unsigned integers, reverting on\n     * overflow (when the result is negative).\n     *\n     * Counterpart to Solidity's `-` operator.\n     *\n     * Requirements:\n     * - Subtraction cannot overflow.\n     */\n    function sub(uint256 a, uint256 b) internal pure returns (uint256) {\n        return sub(a, b, \"SafeMath: subtraction overflow\");\n    }\n\n    /**\n     * @dev Returns the subtraction of two unsigned integers, reverting with custom message on\n     * overflow (when the result is negative).\n     *\n     * Counterpart to Solidity's `-` operator.\n     *\n     * Requirements:\n     * - Subtraction cannot overflow.\n     */\n    function sub(uint256 a, uint256 b, string memory errorMessage) internal pure returns (uint256) {\n        require(b <= a, errorMessage);\n        uint256 c = a - b;\n\n        return c;\n    }\n\n    /**\n     * @dev Returns the multiplication of two unsigned integers, reverting on\n     * overflow.\n     *\n     * Counterpart to Solidity's `*` operator.\n     *\n     * Requirements:\n     * - Multiplication cannot overflow.\n     */\n    function mul(uint256 a, uint256 b) internal pure returns (uint256) {\n        // Gas optimization: this is cheaper than requiring 'a' not being zero, but the\n        // benefit is lost if 'b' is also tested.\n        // See: https://github.com/OpenZeppelin/openzeppelin-contracts/pull/522\n        if (a == 0) {\n            return 0;\n        }\n\n        uint256 c = a * b;\n        require(c / a == b, \"SafeMath: multiplication overflow\");\n\n        return c;\n    }\n\n    /**\n     * @dev Returns the integer division of two unsigned integers. Reverts on\n     * division by zero. The result is rounded towards zero.\n     *\n     * Counterpart to Solidity's `/` operator. Note: this function uses a\n     * `revert` opcode (which leaves remaining gas untouched) while Solidity\n     * uses an invalid opcode to revert (consuming all remaining gas).\n     *\n     * Requirements:\n     * - The divisor cannot be zero.\n     */\n    function div(uint256 a, uint256 b) internal pure returns (uint256) {\n        return div(a, b, \"SafeMath: division by zero\");\n    }\n\n    /**\n     * @dev Returns the integer division of two unsigned integers. Reverts with custom message on\n     * division by zero. The result is rounded towards zero.\n     *\n     * Counterpart to Solidity's `/` operator. Note: this function uses a\n     * `revert` opcode (which leaves remaining gas untouched) while Solidity\n     * uses an invalid opcode to revert (consuming all remaining gas).\n     *\n     * Requirements:\n     * - The divisor cannot be zero.\n     */\n    function div(uint256 a, uint256 b, string memory errorMessage) internal pure returns (uint256) {\n        // Solidity only automatically asserts when dividing by 0\n        require(b > 0, errorMessage);\n        uint256 c = a / b;\n        // assert(a == b * c + a % b); // There is no case in which this doesn't hold\n\n        return c;\n    }\n\n    /**\n     * @dev Returns the remainder of dividing two unsigned integers. (unsigned integer modulo),\n     * Reverts when dividing by zero.\n     *\n     * Counterpart to Solidity's `%` operator. This function uses a `revert`\n     * opcode (which leaves remaining gas untouched) while Solidity uses an\n     * invalid opcode to revert (consuming all remaining gas).\n     *\n     * Requirements:\n     * - The divisor cannot be zero.\n     */\n    function mod(uint256 a, uint256 b) internal pure returns (uint256) {\n        return mod(a, b, \"SafeMath: modulo by zero\");\n    }\n\n    /**\n     * @dev Returns the remainder of dividing two unsigned integers. (unsigned integer modulo),\n     * Reverts with custom message when dividing by zero.\n     *\n     * Counterpart to Solidity's `%` operator. This function uses a `revert`\n     * opcode (which leaves remaining gas untouched) while Solidity uses an\n     * invalid opcode to revert (consuming all remaining gas).\n     *\n     * Requirements:\n     * - The divisor cannot be zero.\n     */\n    function mod(uint256 a, uint256 b, string memory errorMessage) internal pure returns (uint256) {\n        require(b != 0, errorMessage);\n        return a % b;\n    }\n}\n\n\n\n\n\n\n\n\ncontract Roles is AccessControl {\n    //keccak256(\"admin\")\n    bytes32 public constant ADMIN_ROLE = 0xf23ec0bb4210edd5cba85afd05127efcd2fc6a781bfed49188da1081670b22d8;\n    //keccak256(\"coordinator\")\n    bytes32 public constant COORDINATOR_ROLE = 0xaf8c8b3d1b230c888f16d0aac400b28aa51e631d580aaa7cb46e571590ed44e7;\n    //keccak256(\"courier\")\n    bytes32 public constant COURIER_ROLE = 0x7fc3771f539a03c47afbbf258702c19273ef5e735e24ee7978081dc07288c687;\n    //keccak256(\"manufaturer\")\n    bytes32 public constant MANUFATURER_ROLE = 0xb528929ed79eb79a87ae6f578d3125509c91bfea9ac8b7fb9f69aa0bc28298dd;\n    //keccka256(\"receiver\")\n    bytes32 public constant RECIVER_ROLE = 0x5e784e45feb63c375016d4ce5c52a57b0a48b8a170bc2e31463be0d03d1c4db6;\n    constructor(address _admin) public {\n        _setupRole(ADMIN_ROLE, _admin);\n        _setRoleAdmin(COORDINATOR_ROLE, ADMIN_ROLE);\n        _setRoleAdmin(COURIER_ROLE, COORDINATOR_ROLE);\n        _setRoleAdmin(MANUFATURER_ROLE, COORDINATOR_ROLE);\n        _setRoleAdmin(RECIVER_ROLE,COORDINATOR_ROLE);\n    }\n\n    modifier onlyAdmin() {\n        require(hasRole(ADMIN_ROLE, _msgSender()), \"Only admin is allowed\");\n        _;\n    }\n    modifier onlyCoordinator() {\n        require(\n            hasRole(COORDINATOR_ROLE, _msgSender()),\n            \"Only coordinator is allowed\"\n        );\n        _;\n    }\n    modifier onlyCourier() {\n        require(hasRole(COURIER_ROLE, _msgSender()), \"Only courier is allowed\");\n        _;\n    }\n    modifier onlyManufaturer() {\n        require(\n            hasRole(MANUFATURER_ROLE, _msgSender()),\n            \"Only manufaturer is allowed\"\n        );\n        _;\n    }\n}\n\n\n\ncontract Storage {\n    enum BatchStages {\n        NotStarted,\n        PLAPacked,\n        PLAPickedUpByCourier1, //states chages to this with sig of coordinator and courier both\n        PLARecivedByManufaturer, //states chages to this with sig of courier and manufaturer both\n        MasksReady,\n        MasksPickedUpByCourier2, //states chages to this with sig of manufature and courier both\n        MasksRceivedByReceiver, //states chages to this with sig of courier and reciver both\n        MasksVerifiedForQuality\n    }\n    struct AddressSet {\n        address[] addresses;\n        mapping(address => uint256) addressIndex;\n    }\n    // //what else?\n    // enum CampaignStages{\n    //     campaignStarted,\n    //     campaignFinished\n    // }\n    struct Batch {\n        BatchStages stage;\n        bool isPLAPickedUpCourier1;\n        bool isPLAPickedUpCoordinator;\n        bool isPLARecivedCourier1;\n        bool isPLAReceivedManufacturer;\n        bool isMasksPickedUpCourier2;\n        bool isMasksPickedUpManufacturer;\n        bool isMasksaReceviedCourier2;\n        bool isMasksReceviedReceviver;\n        uint256 amountOfPLA;\n        uint256 amountOfExpectedMasks;\n        uint256 amountOfMasksMade;\n        uint256 tfForDeliveryToManufacturer;\n        uint256 tfForMakingMasks;\n        uint256 tfForDeliveryToReciver;\n        address courier1;\n        address courier2;\n        address manufacturer;\n    }\n\n    struct Campaign {\n        // CampaignStages stage,\n        uint256 totalPLA;\n        uint256 currentPLA;\n        uint256 batchCounter;\n        address coordinator;\n        address receiver;\n        AddressSet manufacturers;\n        AddressSet couriers;\n        mapping(uint256 => Batch) batches;\n        mapping(address=>uint256[]) belongsToBatch;\n        // uint256 batchSize;\n    }\n\n    mapping(uint256 => Campaign) campaigns; //campaign's Index in the campaigns array + 1 (becuse 0 means it is not in the array)\n    uint256 public campaignCounter = 1;\n    mapping(address => uint256[]) belongsToCampign;\n    \n    \n}\n\n\ncontract CampaignGenerator is Ownable, Roles, Storage {\n    using SafeMath for uint256;\n\n    event CampaignStarted(uint256 campaignId);\n    event PLAPacked(uint256 campaignId, uint256 branchId);\n    event PLAPickedUpByCourier1(uint256 campaignId, uint256 branchId); //emits with sig of coordinator and courier both\n    event PLARecivedByManufacturer(uint256 campaignId, uint256 branchId); //emits with sig of courier and manufaturer both\n    event MasksReady(\n        uint256 campaignId,\n        uint256 branchId,\n        uint256 amountOfMasksMade\n    );\n    event MasksPickedUpByCourier2(uint256 campaignId, uint256 branchId); //emits with sig of manufature and courier both\n    event MasksRceivedByReceiver(uint256 campaignId, uint256 branchId); //emitswith sig of courier and reciver both\n    event MasksVerifiedForQuality(uint256 campaignId, uint256 branchId);\n\n    constructor(address _admin) public Roles(_admin) {}\n\n    function makeCoordinator(address _who) public onlyAdmin() {\n        grantRole(COORDINATOR_ROLE, _who);\n    }\n\n    function startCampaign(\n        address[] memory _manufacturers,\n        address[] memory _couriers,\n        address _receiver,\n        uint256 _totalPLA\n    ) public onlyCoordinator() returns (uint256 campaignId) {\n        campaignId = campaignCounter;\n        Campaign storage campaign = campaigns[campaignId];\n        campaignCounter = campaignCounter.add(1);\n\n         belongsToCampign[_msgSender()].push(campaignId);\n        //In future iteration campaign id can be deterministically generated form title and description of the campaign i.e. keccak(title+description)\n\n        campaign.coordinator = _msgSender();\n\n        for (uint256 i = 0; i < _manufacturers.length; i = i.add(1)) {\n            grantRole(MANUFATURER_ROLE, _manufacturers[i]);\n            campaign.manufacturers.addressIndex[_manufacturers[i]] = i.add(1);\n            belongsToCampign[_manufacturers[i]].push(campaignId);\n        }\n        for (uint256 i = 0; i < _couriers.length; i = i.add(1)) {\n            grantRole(COURIER_ROLE, _couriers[i]);\n            campaign.couriers.addressIndex[_couriers[i]] = i.add(1);\n            belongsToCampign[_couriers[i]].push(campaignId);\n        }\n\n        campaign.manufacturers.addresses = _manufacturers;\n        campaign.couriers.addresses = _couriers;\n\n        //add receiver\n        grantRole(RECIVER_ROLE,_receiver);\n        campaign.receiver = _receiver;\n        belongsToCampign[_receiver].push(campaignId);\n        campaign.batchCounter = 0;\n\n        campaign.totalPLA = _totalPLA;\n        campaign.currentPLA = _totalPLA;\n        emit CampaignStarted(campaignId);\n    }\n\n    function addManufacturers(\n        uint256 _campaignId,\n        address[] memory _manufacturers\n    ) public onlyCoordinator() {\n        require(\n            campaigns[_campaignId].coordinator == _msgSender(),\n            \"Only coordinator of camapignId is allowed\"\n        );\n        Campaign storage campaign = campaigns[_campaignId];\n        uint256 arrayLength = campaign.manufacturers.addresses.length;\n\n        for (uint256 i = 0; i < _manufacturers.length; i = i.add(1)) {\n            grantRole(MANUFATURER_ROLE, _manufacturers[i]);\n\n            campaign.manufacturers.addresses.push(_manufacturers[i]);\n            campaign.manufacturers.addressIndex[_manufacturers[i]] = arrayLength\n                .add(i.add(1));\n            belongsToCampign[_manufacturers[i]].push(_campaignId);\n        }\n    }\n\n    function addCouriers(uint256 _campaignId, address[] memory _couriers)\n        public\n        onlyCoordinator()\n    {\n        require(\n            campaigns[_campaignId].coordinator == _msgSender(),\n            \"Only coordinator of camapignId is allowed\"\n        );\n        Campaign storage campaign = campaigns[_campaignId];\n        uint256 arrayLength = campaign.couriers.addresses.length;\n\n        for (uint256 i = 0; i < _couriers.length; i = i.add(1)) {\n            grantRole(MANUFATURER_ROLE, _couriers[i]);\n\n            campaign.couriers.addresses.push(_couriers[i]);\n            campaign.couriers.addressIndex[_couriers[i]] = arrayLength.add(\n                i.add(1)\n            );\n             belongsToCampign[_couriers[i]].push(_campaignId);\n        }\n    }\n\n    function createNewBatch(\n        uint256 _campaignId,\n        uint256 _amountOfPLA,\n        uint256 _amountOfExpectedMasks,\n        uint256 _tfForDeliveryToManufacturer,\n        uint256 _tfForMakingMasks,\n        uint256 _tfForDeliveryToReciver,\n        address _courier1,\n        address _courier2,\n        address _manufacturer\n    ) public onlyCoordinator() returns(uint256 batchId){\n        require(\n            campaigns[_campaignId].coordinator == _msgSender(),\n            \"Only coordinator of camapignId is allowed\"\n        );\n        require(\n            campaigns[_campaignId].couriers.addressIndex[_courier1] != 0,\n            \"add courier to campaign first\"\n        );\n        require(\n            campaigns[_campaignId].couriers.addressIndex[_courier2] != 0,\n            \"add courier to campaign first\"\n        );\n        require(\n            campaigns[_campaignId].manufacturers.addressIndex[_manufacturer] != 0,\n            \"add manufaturer to campaign first\"\n        );\n        campaigns[_campaignId].batchCounter = campaigns[_campaignId]\n            .batchCounter\n            .add(1);\n\n        batchId = campaigns[_campaignId].batchCounter;\n        Batch storage batch = campaigns[_campaignId].batches[batchId];\n        //substract the PLA from currentPLA\n        campaigns[_campaignId].currentPLA = campaigns[_campaignId].currentPLA.sub(_amountOfPLA);\n        //update the batchStage\n        batch.stage = BatchStages.PLAPacked;\n\n        batch.amountOfPLA = _amountOfPLA;\n        batch.amountOfExpectedMasks = _amountOfExpectedMasks;\n\n        batch.tfForDeliveryToManufacturer = _tfForDeliveryToManufacturer;\n\n        batch.tfForMakingMasks = _tfForMakingMasks;\n\n        batch.tfForDeliveryToReciver = _tfForDeliveryToReciver;\n\n        batch.courier1 = _courier1;\n        campaigns[_campaignId].belongsToBatch[_courier1].push(batchId);\n\n        batch.courier2 = _courier2;\n        campaigns[_campaignId].belongsToBatch[_courier2].push(batchId);\n\n        batch.manufacturer = _manufacturer;\n        campaigns[_campaignId].belongsToBatch[_manufacturer].push(batchId);\n\n        emit PLAPacked(_campaignId, batchId);\n    }\n\n    //the chain Starts\n    function confirmPLAPickedUpByCourier1(uint256 _campaignId, uint256 _batchId)\n        public\n        returns (bool stageChange)\n    {\n        require(\n            campaigns[_campaignId].coordinator == _msgSender() ||\n                campaigns[_campaignId].batches[_batchId].courier1 ==\n                _msgSender(),\n            \"Only coordinator of camapignId or courier is allowed\"\n        );\n        stageChange = false;\n        if (campaigns[_campaignId].coordinator == _msgSender()) {\n            campaigns[_campaignId].batches[_batchId]\n                .isPLAPickedUpCoordinator = true;\n        }\n        if (campaigns[_campaignId].batches[_batchId].courier1 == _msgSender()) {\n            campaigns[_campaignId].batches[_batchId]\n                .isPLAPickedUpCourier1 = true;\n        }\n        if (\n            campaigns[_campaignId].batches[_batchId].isPLAPickedUpCoordinator ==\n            true &&\n            campaigns[_campaignId].batches[_batchId].isPLAPickedUpCourier1 ==\n            true\n        ) {\n            campaigns[_campaignId].batches[_batchId].stage = BatchStages\n                .PLAPickedUpByCourier1;\n\n            emit PLAPickedUpByCourier1(_campaignId, _batchId);\n            stageChange = true;\n        }\n    }\n\n    function confirmPLARecivedByManufacturer(\n        uint256 _campaignId,\n        uint256 _batchId\n    ) public returns (bool stageChange) {\n        require(\n            campaigns[_campaignId].batches[_batchId].manufacturer ==\n                _msgSender() ||\n                campaigns[_campaignId].batches[_batchId].courier1 ==\n                _msgSender(),\n            \"Only manufacturer or courier of batch is allowed\"\n        );\n        stageChange = false;\n        if (\n            campaigns[_campaignId].batches[_batchId].manufacturer ==\n            _msgSender()\n        ) {\n            campaigns[_campaignId].batches[_batchId]\n                .isPLAReceivedManufacturer = true;\n        }\n        if (campaigns[_campaignId].batches[_batchId].courier1 == _msgSender()) {\n            campaigns[_campaignId].batches[_batchId]\n                .isPLARecivedCourier1 = true;\n        }\n        if (\n            campaigns[_campaignId].batches[_batchId]\n                .isPLAReceivedManufacturer ==\n            true &&\n            campaigns[_campaignId].batches[_batchId].isPLARecivedCourier1 ==\n            true\n        ) {\n            campaigns[_campaignId].batches[_batchId].stage = BatchStages\n                .PLARecivedByManufaturer;\n\n            emit PLARecivedByManufacturer(_campaignId, _batchId);\n            stageChange = true;\n        }\n    }\n\n    function confirmMasksMade(\n        uint256 _campaignId,\n        uint256 _batchId,\n        uint256 _amountOfMasksMade\n    ) public {\n        require(\n            campaigns[_campaignId].batches[_batchId].manufacturer ==\n                _msgSender(),\n            \"Only manufacturer of batch is allowed\"\n        );\n        campaigns[_campaignId].batches[_batchId]\n            .amountOfMasksMade = _amountOfMasksMade;\n        campaigns[_campaignId].batches[_batchId].stage = BatchStages.MasksReady;\n        emit MasksReady(_campaignId, _batchId, _amountOfMasksMade);\n    }\n\n    function confirmMasksPickedUpByCourier2(\n        uint256 _campaignId,\n        uint256 _batchId\n    ) public returns (bool stageChange) {\n        require(\n            campaigns[_campaignId].batches[_batchId].manufacturer ==\n                _msgSender() ||\n                campaigns[_campaignId].batches[_batchId].courier2 ==\n                _msgSender(),\n            \"Only manufacturer or courier of batch is allowed\"\n        );\n        stageChange = false;\n        if (\n            campaigns[_campaignId].batches[_batchId].manufacturer ==\n            _msgSender()\n        ) {\n            campaigns[_campaignId].batches[_batchId]\n                .isMasksPickedUpManufacturer = true;\n        }\n        if (campaigns[_campaignId].batches[_batchId].courier2 == _msgSender()) {\n            campaigns[_campaignId].batches[_batchId]\n                .isMasksPickedUpCourier2 = true;\n        }\n        if (\n            campaigns[_campaignId].batches[_batchId]\n                .isMasksPickedUpManufacturer ==\n            true &&\n            campaigns[_campaignId].batches[_batchId].isMasksPickedUpCourier2 ==\n            true\n        ) {\n            campaigns[_campaignId].batches[_batchId].stage = BatchStages\n                .MasksPickedUpByCourier2;\n\n            emit MasksPickedUpByCourier2(_campaignId, _batchId);\n            stageChange = true;\n        }\n    }\n\n    function confirmMasksRceivedByReceiver(\n        uint256 _campaignId,\n        uint256 _batchId\n    ) public returns (bool stageChange) {\n        require(\n            campaigns[_campaignId].receiver == _msgSender() ||\n                campaigns[_campaignId].batches[_batchId].courier2 ==\n                _msgSender(),\n            \"Only reciver of camapignId or courier is allowed\"\n        );\n        stageChange = false;\n        if (campaigns[_campaignId].receiver == _msgSender()) {\n            campaigns[_campaignId].batches[_batchId]\n                .isMasksReceviedReceviver = true;\n        }\n        if (campaigns[_campaignId].batches[_batchId].courier2 == _msgSender()) {\n            campaigns[_campaignId].batches[_batchId]\n                .isMasksaReceviedCourier2 = true;\n        }\n        if (\n            campaigns[_campaignId].batches[_batchId].isMasksReceviedReceviver ==\n            true &&\n            campaigns[_campaignId].batches[_batchId].isMasksaReceviedCourier2 ==\n            true\n        ) {\n            campaigns[_campaignId].batches[_batchId].stage = BatchStages\n                .MasksRceivedByReceiver;\n\n            emit MasksRceivedByReceiver(_campaignId, _batchId);\n            stageChange = true;\n        }\n    }\n\n    //for test\n    function getCampaignDetalis(uint256 _campaignId)\n        public\n        view\n        returns (\n            uint256 totalPLA,\n            uint256 currentPLA,\n            uint256 totalBatches,\n            address coordinator,\n            address receiver,\n            address[] memory manufacturers,\n            address[] memory couriers\n        )\n    {\n        coordinator = campaigns[_campaignId].coordinator;\n        totalPLA = campaigns[_campaignId].totalPLA;\n        currentPLA = campaigns[_campaignId].currentPLA;\n        receiver = campaigns[_campaignId].receiver;\n        totalBatches = campaigns[_campaignId].batchCounter;\n        manufacturers = campaigns[_campaignId].manufacturers.addresses;\n        couriers = campaigns[_campaignId].couriers.addresses;\n\n    }\n\n    function getBatchDetails(uint256 _campaignId, uint256 _batchId)\n        public\n        view\n        returns (Batch memory batch)\n    {\n        batch = campaigns[_campaignId].batches[_batchId];\n    }\n    //given the address returns all the campaigns it is part of\n    function partOfWhichCampaigns(address _who) public view returns(uint256[] memory){\n        return belongsToCampign[_who];\n    }\n    //given campaignId and address returns all the batches it is part of for that capaign\n    function partOfWhichBatches(uint256 _campaignId,address _who)public view returns(uint256[] memory){\n        return campaigns[_campaignId].belongsToBatch[_who];\n    }\n}\n\n",
  "sourcePath": "/home/safu/ethereum/covid19/fromgit/COVID19-supply-chain-tracking-for-3D-printed-protective-gear/ourContracts/contracts/CampaignGenerator_flat.sol",
  "compiler": {
    "name": "solc",
    "version": "0.6.2+commit.bacdbe57.Emscripten.clang"
  },
  "schemaVersion": "3.1.0",
  "updatedAt": "2020-05-06T06:30:03.437Z",
  "devdoc": {
    "methods": {}
  },
  "userdoc": {
    "methods": {}
  }
}