{
  "contractName": "CampaignGenerator",
  "abi": [
    {
      "inputs": [
        {
          "internalType": "address",
          "name": "_admin",
          "type": "address"
        }
      ],
      "stateMutability": "nonpayable",
      "type": "constructor"
    },
    {
      "anonymous": false,
      "inputs": [
        {
          "indexed": false,
          "internalType": "uint256",
          "name": "campaignId",
          "type": "uint256"
        }
      ],
      "name": "CampaignStarted",
      "type": "event"
    },
    {
      "anonymous": false,
      "inputs": [
        {
          "indexed": false,
          "internalType": "uint256",
          "name": "campaignId",
          "type": "uint256"
        },
        {
          "indexed": false,
          "internalType": "uint256",
          "name": "branchId",
          "type": "uint256"
        }
      ],
      "name": "MasksPickedUpByCourier2",
      "type": "event"
    },
    {
      "anonymous": false,
      "inputs": [
        {
          "indexed": false,
          "internalType": "uint256",
          "name": "campaignId",
          "type": "uint256"
        },
        {
          "indexed": false,
          "internalType": "uint256",
          "name": "branchId",
          "type": "uint256"
        }
      ],
      "name": "MasksRceivedByReceiver",
      "type": "event"
    },
    {
      "anonymous": false,
      "inputs": [
        {
          "indexed": false,
          "internalType": "uint256",
          "name": "campaignId",
          "type": "uint256"
        },
        {
          "indexed": false,
          "internalType": "uint256",
          "name": "branchId",
          "type": "uint256"
        },
        {
          "indexed": false,
          "internalType": "uint256",
          "name": "amountOfMasksMade",
          "type": "uint256"
        }
      ],
      "name": "MasksReady",
      "type": "event"
    },
    {
      "anonymous": false,
      "inputs": [
        {
          "indexed": false,
          "internalType": "uint256",
          "name": "campaignId",
          "type": "uint256"
        },
        {
          "indexed": false,
          "internalType": "uint256",
          "name": "branchId",
          "type": "uint256"
        }
      ],
      "name": "MasksVerifiedForQuality",
      "type": "event"
    },
    {
      "anonymous": false,
      "inputs": [
        {
          "indexed": true,
          "internalType": "address",
          "name": "previousOwner",
          "type": "address"
        },
        {
          "indexed": true,
          "internalType": "address",
          "name": "newOwner",
          "type": "address"
        }
      ],
      "name": "OwnershipTransferred",
      "type": "event"
    },
    {
      "anonymous": false,
      "inputs": [
        {
          "indexed": false,
          "internalType": "uint256",
          "name": "campaignId",
          "type": "uint256"
        },
        {
          "indexed": false,
          "internalType": "uint256",
          "name": "branchId",
          "type": "uint256"
        }
      ],
      "name": "PLAPacked",
      "type": "event"
    },
    {
      "anonymous": false,
      "inputs": [
        {
          "indexed": false,
          "internalType": "uint256",
          "name": "campaignId",
          "type": "uint256"
        },
        {
          "indexed": false,
          "internalType": "uint256",
          "name": "branchId",
          "type": "uint256"
        }
      ],
      "name": "PLAPickedUpByCourier1",
      "type": "event"
    },
    {
      "anonymous": false,
      "inputs": [
        {
          "indexed": false,
          "internalType": "uint256",
          "name": "campaignId",
          "type": "uint256"
        },
        {
          "indexed": false,
          "internalType": "uint256",
          "name": "branchId",
          "type": "uint256"
        }
      ],
      "name": "PLARecivedByManufacturer",
      "type": "event"
    },
    {
      "anonymous": false,
      "inputs": [
        {
          "indexed": true,
          "internalType": "bytes32",
          "name": "role",
          "type": "bytes32"
        },
        {
          "indexed": true,
          "internalType": "address",
          "name": "account",
          "type": "address"
        },
        {
          "indexed": true,
          "internalType": "address",
          "name": "sender",
          "type": "address"
        }
      ],
      "name": "RoleGranted",
      "type": "event"
    },
    {
      "anonymous": false,
      "inputs": [
        {
          "indexed": true,
          "internalType": "bytes32",
          "name": "role",
          "type": "bytes32"
        },
        {
          "indexed": true,
          "internalType": "address",
          "name": "account",
          "type": "address"
        },
        {
          "indexed": true,
          "internalType": "address",
          "name": "sender",
          "type": "address"
        }
      ],
      "name": "RoleRevoked",
      "type": "event"
    },
    {
      "inputs": [],
      "name": "ADMIN_ROLE",
      "outputs": [
        {
          "internalType": "bytes32",
          "name": "",
          "type": "bytes32"
        }
      ],
      "stateMutability": "view",
      "type": "function",
      "constant": true
    },
    {
      "inputs": [],
      "name": "COORDINATOR_ROLE",
      "outputs": [
        {
          "internalType": "bytes32",
          "name": "",
          "type": "bytes32"
        }
      ],
      "stateMutability": "view",
      "type": "function",
      "constant": true
    },
    {
      "inputs": [],
      "name": "COURIER_ROLE",
      "outputs": [
        {
          "internalType": "bytes32",
          "name": "",
          "type": "bytes32"
        }
      ],
      "stateMutability": "view",
      "type": "function",
      "constant": true
    },
    {
      "inputs": [],
      "name": "DEFAULT_ADMIN_ROLE",
      "outputs": [
        {
          "internalType": "bytes32",
          "name": "",
          "type": "bytes32"
        }
      ],
      "stateMutability": "view",
      "type": "function",
      "constant": true
    },
    {
      "inputs": [],
      "name": "MANUFATURER_ROLE",
      "outputs": [
        {
          "internalType": "bytes32",
          "name": "",
          "type": "bytes32"
        }
      ],
      "stateMutability": "view",
      "type": "function",
      "constant": true
    },
    {
      "inputs": [],
      "name": "RECIVER_ROLE",
      "outputs": [
        {
          "internalType": "bytes32",
          "name": "",
          "type": "bytes32"
        }
      ],
      "stateMutability": "view",
      "type": "function",
      "constant": true
    },
    {
      "inputs": [],
      "name": "campaignCounter",
      "outputs": [
        {
          "internalType": "uint256",
          "name": "",
          "type": "uint256"
        }
      ],
      "stateMutability": "view",
      "type": "function",
      "constant": true
    },
    {
      "inputs": [
        {
          "internalType": "address",
          "name": "_who",
          "type": "address"
        }
      ],
      "name": "getRole",
      "outputs": [
        {
          "internalType": "bytes32",
          "name": "",
          "type": "bytes32"
        }
      ],
      "stateMutability": "view",
      "type": "function",
      "constant": true
    },
    {
      "inputs": [
        {
          "internalType": "bytes32",
          "name": "role",
          "type": "bytes32"
        }
      ],
      "name": "getRoleAdmin",
      "outputs": [
        {
          "internalType": "bytes32",
          "name": "",
          "type": "bytes32"
        }
      ],
      "stateMutability": "view",
      "type": "function",
      "constant": true
    },
    {
      "inputs": [
        {
          "internalType": "bytes32",
          "name": "role",
          "type": "bytes32"
        },
        {
          "internalType": "uint256",
          "name": "index",
          "type": "uint256"
        }
      ],
      "name": "getRoleMember",
      "outputs": [
        {
          "internalType": "address",
          "name": "",
          "type": "address"
        }
      ],
      "stateMutability": "view",
      "type": "function",
      "constant": true
    },
    {
      "inputs": [
        {
          "internalType": "bytes32",
          "name": "role",
          "type": "bytes32"
        }
      ],
      "name": "getRoleMemberCount",
      "outputs": [
        {
          "internalType": "uint256",
          "name": "",
          "type": "uint256"
        }
      ],
      "stateMutability": "view",
      "type": "function",
      "constant": true
    },
    {
      "inputs": [
        {
          "internalType": "bytes32",
          "name": "role",
          "type": "bytes32"
        },
        {
          "internalType": "address",
          "name": "account",
          "type": "address"
        }
      ],
      "name": "hasRole",
      "outputs": [
        {
          "internalType": "bool",
          "name": "",
          "type": "bool"
        }
      ],
      "stateMutability": "view",
      "type": "function",
      "constant": true
    },
    {
      "inputs": [],
      "name": "owner",
      "outputs": [
        {
          "internalType": "address",
          "name": "",
          "type": "address"
        }
      ],
      "stateMutability": "view",
      "type": "function",
      "constant": true
    },
    {
      "inputs": [],
      "name": "renounceOwnership",
      "outputs": [],
      "stateMutability": "nonpayable",
      "type": "function"
    },
    {
      "inputs": [
        {
          "internalType": "bytes32",
          "name": "role",
          "type": "bytes32"
        },
        {
          "internalType": "address",
          "name": "account",
          "type": "address"
        }
      ],
      "name": "renounceRole",
      "outputs": [],
      "stateMutability": "nonpayable",
      "type": "function"
    },
    {
      "inputs": [
        {
          "internalType": "address",
          "name": "newOwner",
          "type": "address"
        }
      ],
      "name": "transferOwnership",
      "outputs": [],
      "stateMutability": "nonpayable",
      "type": "function"
    },
    {
      "inputs": [
        {
          "internalType": "address",
          "name": "_who",
          "type": "address"
        }
      ],
      "name": "makeCoordinator",
      "outputs": [],
      "stateMutability": "nonpayable",
      "type": "function"
    },
    {
      "inputs": [
        {
          "internalType": "address[]",
          "name": "_manufacturers",
          "type": "address[]"
        },
        {
          "internalType": "address[]",
          "name": "_couriers",
          "type": "address[]"
        },
        {
          "internalType": "address",
          "name": "_receiver",
          "type": "address"
        },
        {
          "internalType": "uint256",
          "name": "_totalPLA",
          "type": "uint256"
        }
      ],
      "name": "startCampaign",
      "outputs": [
        {
          "internalType": "uint256",
          "name": "campaignId",
          "type": "uint256"
        }
      ],
      "stateMutability": "nonpayable",
      "type": "function"
    },
    {
      "inputs": [
        {
          "internalType": "uint256",
          "name": "_campaignId",
          "type": "uint256"
        },
        {
          "internalType": "address[]",
          "name": "_manufacturers",
          "type": "address[]"
        }
      ],
      "name": "addManufacturers",
      "outputs": [],
      "stateMutability": "nonpayable",
      "type": "function"
    },
    {
      "inputs": [
        {
          "internalType": "uint256",
          "name": "_campaignId",
          "type": "uint256"
        },
        {
          "internalType": "address[]",
          "name": "_couriers",
          "type": "address[]"
        }
      ],
      "name": "addCouriers",
      "outputs": [],
      "stateMutability": "nonpayable",
      "type": "function"
    },
    {
      "inputs": [
        {
          "internalType": "uint256",
          "name": "_campaignId",
          "type": "uint256"
        },
        {
          "internalType": "uint256",
          "name": "_amountOfPLA",
          "type": "uint256"
        },
        {
          "internalType": "uint256",
          "name": "_amountOfMasksMade",
          "type": "uint256"
        },
        {
          "internalType": "uint256",
          "name": "_tfForDeliveryToManufacturer",
          "type": "uint256"
        },
        {
          "internalType": "uint256",
          "name": "_tfForMakingMasks",
          "type": "uint256"
        },
        {
          "internalType": "uint256",
          "name": "_tfForDeliveryToReciver",
          "type": "uint256"
        },
        {
          "internalType": "address",
          "name": "_courier1",
          "type": "address"
        },
        {
          "internalType": "address",
          "name": "_courier2",
          "type": "address"
        },
        {
          "internalType": "address",
          "name": "_manufacturer",
          "type": "address"
        }
      ],
      "name": "createNewBatch",
      "outputs": [],
      "stateMutability": "nonpayable",
      "type": "function"
    },
    {
      "inputs": [
        {
          "internalType": "uint256",
          "name": "_campaignId",
          "type": "uint256"
        },
        {
          "internalType": "uint256",
          "name": "_batchId",
          "type": "uint256"
        }
      ],
      "name": "confirmPLAPickedUpByCourier1",
      "outputs": [
        {
          "internalType": "bool",
          "name": "stageChange",
          "type": "bool"
        }
      ],
      "stateMutability": "nonpayable",
      "type": "function"
    },
    {
      "inputs": [
        {
          "internalType": "uint256",
          "name": "_campaignId",
          "type": "uint256"
        },
        {
          "internalType": "uint256",
          "name": "_batchId",
          "type": "uint256"
        }
      ],
      "name": "confirmPLARecivedByManufacturer",
      "outputs": [
        {
          "internalType": "bool",
          "name": "stageChange",
          "type": "bool"
        }
      ],
      "stateMutability": "nonpayable",
      "type": "function"
    },
    {
      "inputs": [
        {
          "internalType": "uint256",
          "name": "_campaignId",
          "type": "uint256"
        },
        {
          "internalType": "uint256",
          "name": "_batchId",
          "type": "uint256"
        },
        {
          "internalType": "uint256",
          "name": "_amountOfMasksMade",
          "type": "uint256"
        }
      ],
      "name": "confirmMasksMade",
      "outputs": [],
      "stateMutability": "nonpayable",
      "type": "function"
    },
    {
      "inputs": [
        {
          "internalType": "uint256",
          "name": "_campaignId",
          "type": "uint256"
        },
        {
          "internalType": "uint256",
          "name": "_batchId",
          "type": "uint256"
        }
      ],
      "name": "confirmMasksPickedUpByCourier2",
      "outputs": [
        {
          "internalType": "bool",
          "name": "stageChange",
          "type": "bool"
        }
      ],
      "stateMutability": "nonpayable",
      "type": "function"
    },
    {
      "inputs": [
        {
          "internalType": "uint256",
          "name": "_campaignId",
          "type": "uint256"
        },
        {
          "internalType": "uint256",
          "name": "_batchId",
          "type": "uint256"
        }
      ],
      "name": "confirmMasksRceivedByReceiver",
      "outputs": [
        {
          "internalType": "bool",
          "name": "stageChange",
          "type": "bool"
        }
      ],
      "stateMutability": "nonpayable",
      "type": "function"
    },
    {
      "inputs": [
        {
          "internalType": "uint256",
          "name": "_campaignId",
          "type": "uint256"
        }
      ],
      "name": "getCampaignDetalis",
      "outputs": [
        {
          "internalType": "address",
          "name": "coordinator",
          "type": "address"
        },
        {
          "internalType": "uint256",
          "name": "totalPLA",
          "type": "uint256"
        },
        {
          "internalType": "address[]",
          "name": "manufacturers",
          "type": "address[]"
        },
        {
          "internalType": "address[]",
          "name": "couriers",
          "type": "address[]"
        },
        {
          "internalType": "uint256",
          "name": "lastOfManufactures",
          "type": "uint256"
        },
        {
          "internalType": "uint256",
          "name": "lastOfCaouriers",
          "type": "uint256"
        }
      ],
      "stateMutability": "view",
      "type": "function",
      "constant": true
    },
    {
      "inputs": [
        {
          "internalType": "uint256",
          "name": "_campaignId",
          "type": "uint256"
        },
        {
          "internalType": "uint256",
          "name": "_batchId",
          "type": "uint256"
        }
      ],
      "name": "getBatchDetails",
      "outputs": [
        {
          "components": [
            {
              "internalType": "enum Storage.BatchStages",
              "name": "stage",
              "type": "uint8"
            },
            {
              "internalType": "bool",
              "name": "isPLAPickedUpCourier1",
              "type": "bool"
            },
            {
              "internalType": "bool",
              "name": "isPLAPickedUpCoordinator",
              "type": "bool"
            },
            {
              "internalType": "bool",
              "name": "isPLARecivedCourier1",
              "type": "bool"
            },
            {
              "internalType": "bool",
              "name": "isPLAReceivedManufacturer",
              "type": "bool"
            },
            {
              "internalType": "bool",
              "name": "isMasksPickedUpCourier2",
              "type": "bool"
            },
            {
              "internalType": "bool",
              "name": "isMasksPickedUpManufacturer",
              "type": "bool"
            },
            {
              "internalType": "bool",
              "name": "isMasksaReceviedCourier2",
              "type": "bool"
            },
            {
              "internalType": "bool",
              "name": "isMasksReceviedReceviver",
              "type": "bool"
            },
            {
              "internalType": "uint256",
              "name": "amountOfPLA",
              "type": "uint256"
            },
            {
              "internalType": "uint256",
              "name": "amountOfExpectedMasks",
              "type": "uint256"
            },
            {
              "internalType": "uint256",
              "name": "amountOfMasksMade",
              "type": "uint256"
            },
            {
              "internalType": "uint256",
              "name": "tfForDeliveryToManufacturer",
              "type": "uint256"
            },
            {
              "internalType": "uint256",
              "name": "tfForMakingMasks",
              "type": "uint256"
            },
            {
              "internalType": "uint256",
              "name": "tfForDeliveryToReciver",
              "type": "uint256"
            },
            {
              "internalType": "address",
              "name": "courier1",
              "type": "address"
            },
            {
              "internalType": "address",
              "name": "courier2",
              "type": "address"
            },
            {
              "internalType": "address",
              "name": "manufacturer",
              "type": "address"
            }
          ],
          "internalType": "struct Storage.Batch",
          "name": "batch",
          "type": "tuple"
        }
      ],
      "stateMutability": "view",
      "type": "function",
      "constant": true
    }
  ],
  "bytecode": "0x608060405260016003553480156200001657600080fd5b5060405162004d7d38038062004d7d83398181016040526200003c9190810190620003ff565b8060006200004f6200023260201b60201c565b9050806000806101000a81548173ffffffffffffffffffffffffffffffffffffffff021916908373ffffffffffffffffffffffffffffffffffffffff1602179055508073ffffffffffffffffffffffffffffffffffffffff16600073ffffffffffffffffffffffffffffffffffffffff167f8be0079c531659141344cd1fd0a4f28419497f9722a3daafe3b4186f6b6457e060405160405180910390a350620001227ff23ec0bb4210edd5cba85afd05127efcd2fc6a781bfed49188da1081670b22d860001b826200023a60201b60201c565b6200017a7faf8c8b3d1b230c888f16d0aac400b28aa51e631d580aaa7cb46e571590ed44e760001b7ff23ec0bb4210edd5cba85afd05127efcd2fc6a781bfed49188da1081670b22d860001b6200025060201b60201c565b620001d27f7fc3771f539a03c47afbbf258702c19273ef5e735e24ee7978081dc07288c68760001b7faf8c8b3d1b230c888f16d0aac400b28aa51e631d580aaa7cb46e571590ed44e760001b6200025060201b60201c565b6200022a7fb528929ed79eb79a87ae6f578d3125509c91bfea9ac8b7fb9f69aa0bc28298dd60001b7faf8c8b3d1b230c888f16d0aac400b28aa51e631d580aaa7cb46e571590ed44e760001b6200025060201b60201c565b505062000479565b600033905090565b6200024c82826200026f60201b60201c565b5050565b8060016000848152602001908152602001600020600201819055505050565b6200029e81600160008581526020019081526020016000206000016200031360201b620034f71790919060201c565b156200030f57620002b46200023260201b60201c565b73ffffffffffffffffffffffffffffffffffffffff168173ffffffffffffffffffffffffffffffffffffffff16837f2f8788117e7eff1d82e926ec794901d17c78024a50270940304540a733656f0d60405160405180910390a45b5050565b600062000343836000018373ffffffffffffffffffffffffffffffffffffffff1660001b6200034b60201b60201c565b905092915050565b60006200035f8383620003c560201b60201c565b620003ba578260000182908060018154018082558091505060019003906000526020600020016000909190919091505582600001805490508360010160008481526020019081526020016000208190555060019050620003bf565b600090505b92915050565b600080836001016000848152602001908152602001600020541415905092915050565b600081519050620003f9816200045f565b92915050565b6000602082840312156200041257600080fd5b60006200042284828501620003e8565b91505092915050565b600062000438826200043f565b9050919050565b600073ffffffffffffffffffffffffffffffffffffffff82169050919050565b6200046a816200042b565b81146200047657600080fd5b50565b6148f480620004896000396000f3fe608060405234801561001057600080fd5b50600436106101c45760003560e01c80639010d07c116100f9578063b9d7c86d11610097578063cfb4983c11610071578063cfb4983c14610544578063d6d1936714610574578063f2fde38b14610592578063fca604d7146105ae576101c4565b8063b9d7c86d146104c8578063ca15c873146104e4578063cd0dc78014610514576101c4565b806392b8a6c8116100d357806392b8a6c814610427578063997be19614610445578063a217fddf1461047a578063b74af3c714610498576101c4565b80639010d07c146103a957806391d14854146103d957806391e9100d14610409576101c4565b8063518828e411610166578063715018a611610140578063715018a61461034757806375b238fc1461035157806387f1d19c1461036f5780638da5cb5b1461038b576101c4565b8063518828e4146102dd5780636b366cb51461030d5780636e2845831461032b576101c4565b806322f15edc116101a257806322f15edc14610245578063248a9ca31461026157806336568abe1461029157806344276733146102ad576101c4565b806308c8aed3146101c957806312e8df1d146101e557806317d05a1f14610215575b600080fd5b6101e360048036036101de91908101906138f6565b6105cc565b005b6101ff60048036036101fa9190810190613ad0565b61066f565b60405161020c919061449e565b60405180910390f35b61022f600480360361022a919081019061391f565b610a40565b60405161023c91906146d0565b60405180910390f35b61025f600480360361025a9190810190613a7c565b610db9565b005b61027b600480360361027691908101906139b2565b61106a565b60405161028891906144b9565b60405180910390f35b6102ab60048036036102a691908101906139db565b61108a565b005b6102c760048036036102c291908101906138f6565b61110d565b6040516102d491906144b9565b60405180910390f35b6102f760048036036102f29190810190613ad0565b6112c6565b604051610304919061449e565b60405180910390f35b6103156116be565b60405161032291906144b9565b60405180910390f35b61034560048036036103409190810190613b5b565b6116e5565b005b61034f611bbd565b005b610359611d12565b60405161036691906144b9565b60405180910390f35b61038960048036036103849190810190613a7c565b611d39565b005b610393611fea565b6040516103a09190614414565b60405180910390f35b6103c360048036036103be9190810190613a17565b612013565b6040516103d09190614414565b60405180910390f35b6103f360048036036103ee91908101906139db565b612045565b604051610400919061449e565b60405180910390f35b610411612077565b60405161041e91906144b9565b60405180910390f35b61042f61208e565b60405161043c91906144b9565b60405180910390f35b61045f600480360361045a9190810190613a53565b6120b5565b6040516104719695949392919061442f565b60405180910390f35b6104826123e5565b60405161048f91906144b9565b60405180910390f35b6104b260048036036104ad9190810190613ad0565b6123ec565b6040516104bf91906146b4565b60405180910390f35b6104e260048036036104dd9190810190613b0c565b612672565b005b6104fe60048036036104f991908101906139b2565b6127ec565b60405161050b91906146d0565b60405180910390f35b61052e60048036036105299190810190613ad0565b612813565b60405161053b919061449e565b60405180910390f35b61055e60048036036105599190810190613ad0565b612c0c565b60405161056b919061449e565b60405180910390f35b61057c612fdd565b60405161058991906144b9565b60405180910390f35b6105ac60048036036105a791908101906138f6565b613004565b005b6105b66131c8565b6040516105c391906146d0565b60405180910390f35b6106007ff23ec0bb4210edd5cba85afd05127efcd2fc6a781bfed49188da1081670b22d860001b6105fb6131ce565b612045565b61063f576040517f08c379a000000000000000000000000000000000000000000000000000000000815260040161063690614634565b60405180910390fd5b61066c7faf8c8b3d1b230c888f16d0aac400b28aa51e631d580aaa7cb46e571590ed44e760001b826131d6565b50565b60006106796131ce565b73ffffffffffffffffffffffffffffffffffffffff166002600085815260200190815260200160002060020160009054906101000a900473ffffffffffffffffffffffffffffffffffffffff1673ffffffffffffffffffffffffffffffffffffffff16148061076457506106eb6131ce565b73ffffffffffffffffffffffffffffffffffffffff1660026000858152602001908152602001600020600801600084815260200190815260200160002060070160009054906101000a900473ffffffffffffffffffffffffffffffffffffffff1673ffffffffffffffffffffffffffffffffffffffff16145b6107a3576040517f08c379a000000000000000000000000000000000000000000000000000000000815260040161079a90614594565b60405180910390fd5b600090506107af6131ce565b73ffffffffffffffffffffffffffffffffffffffff166002600085815260200190815260200160002060020160009054906101000a900473ffffffffffffffffffffffffffffffffffffffff1673ffffffffffffffffffffffffffffffffffffffff16141561085c57600160026000858152602001908152602001600020600801600084815260200190815260200160002060000160026101000a81548160ff0219169083151502179055505b6108646131ce565b73ffffffffffffffffffffffffffffffffffffffff1660026000858152602001908152602001600020600801600084815260200190815260200160002060070160009054906101000a900473ffffffffffffffffffffffffffffffffffffffff1673ffffffffffffffffffffffffffffffffffffffff16141561092557600160026000858152602001908152602001600020600801600084815260200190815260200160002060000160016101000a81548160ff0219169083151502179055505b6001151560026000858152602001908152602001600020600801600084815260200190815260200160002060000160029054906101000a900460ff1615151480156109ab57506001151560026000858152602001908152602001600020600801600084815260200190815260200160002060000160019054906101000a900460ff161515145b15610a3a57600160026000858152602001908152602001600020600801600084815260200190815260200160002060000160006101000a81548160ff021916908360068111156109f757fe5b02179055507fce02b750acf4627269a555da22c6d51e4bf4efacaedecb887879277eac29a7978383604051610a2d9291906146eb565b60405180910390a1600190505b92915050565b6000610a767faf8c8b3d1b230c888f16d0aac400b28aa51e631d580aaa7cb46e571590ed44e760001b610a716131ce565b612045565b610ab5576040517f08c379a0000000000000000000000000000000000000000000000000000000008152600401610aac906145d4565b60405180910390fd5b60035490506000600260008381526020019081526020016000209050610ae7600160035461324a90919063ffffffff16565b600381905550610af56131ce565b8160020160006101000a81548173ffffffffffffffffffffffffffffffffffffffff021916908373ffffffffffffffffffffffffffffffffffffffff16021790555060008090505b8651811015610c1057610b867fb528929ed79eb79a87ae6f578d3125509c91bfea9ac8b7fb9f69aa0bc28298dd60001b888381518110610b7957fe5b60200260200101516131d6565b610b9a60018261324a90919063ffffffff16565b826004016001016000898481518110610baf57fe5b602002602001015173ffffffffffffffffffffffffffffffffffffffff1673ffffffffffffffffffffffffffffffffffffffff16815260200190815260200160002081905550610c0960018261324a90919063ffffffff16565b9050610b3d565b5060008090505b8551811015610cea57610c607f7fc3771f539a03c47afbbf258702c19273ef5e735e24ee7978081dc07288c68760001b878381518110610c5357fe5b60200260200101516131d6565b610c7460018261324a90919063ffffffff16565b826006016001016000888481518110610c8957fe5b602002602001015173ffffffffffffffffffffffffffffffffffffffff1673ffffffffffffffffffffffffffffffffffffffff16815260200190815260200160002081905550610ce360018261324a90919063ffffffff16565b9050610c17565b5085816004016000019080519060200190610d0692919061367f565b5084816006016000019080519060200190610d2292919061367f565b50838160030160006101000a81548173ffffffffffffffffffffffffffffffffffffffff021916908373ffffffffffffffffffffffffffffffffffffffff160217905550600081600101819055508281600001819055507f503a7c5d84c6afa3203956e339356fc5a3a8d5c44090f3ca0bfce18e820d789e82604051610da891906146d0565b60405180910390a150949350505050565b610ded7faf8c8b3d1b230c888f16d0aac400b28aa51e631d580aaa7cb46e571590ed44e760001b610de86131ce565b612045565b610e2c576040517f08c379a0000000000000000000000000000000000000000000000000000000008152600401610e23906145d4565b60405180910390fd5b610e346131ce565b73ffffffffffffffffffffffffffffffffffffffff166002600084815260200190815260200160002060020160009054906101000a900473ffffffffffffffffffffffffffffffffffffffff1673ffffffffffffffffffffffffffffffffffffffff1614610ed7576040517f08c379a0000000000000000000000000000000000000000000000000000000008152600401610ece906145f4565b60405180910390fd5b600060026000848152602001908152602001600020905060008160060160000180549050905060008090505b835181101561106357610f4c7fb528929ed79eb79a87ae6f578d3125509c91bfea9ac8b7fb9f69aa0bc28298dd60001b858381518110610f3f57fe5b60200260200101516131d6565b82600601600001848281518110610f5f57fe5b60200260200101519080600181540180825580915050600190039060005260206000200160009091909190916101000a81548173ffffffffffffffffffffffffffffffffffffffff021916908373ffffffffffffffffffffffffffffffffffffffff160217905550610fed610fde60018361324a90919063ffffffff16565b8361324a90919063ffffffff16565b83600601600101600086848151811061100257fe5b602002602001015173ffffffffffffffffffffffffffffffffffffffff1673ffffffffffffffffffffffffffffffffffffffff1681526020019081526020016000208190555061105c60018261324a90919063ffffffff16565b9050610f03565b5050505050565b600060016000838152602001908152602001600020600201549050919050565b6110926131ce565b73ffffffffffffffffffffffffffffffffffffffff168173ffffffffffffffffffffffffffffffffffffffff16146110ff576040517f08c379a00000000000000000000000000000000000000000000000000000000081526004016110f690614694565b60405180910390fd5b611109828261329f565b5050565b600061113c7ff23ec0bb4210edd5cba85afd05127efcd2fc6a781bfed49188da1081670b22d860001b83612045565b1561116c577ff23ec0bb4210edd5cba85afd05127efcd2fc6a781bfed49188da1081670b22d860001b90506112c1565b6111997faf8c8b3d1b230c888f16d0aac400b28aa51e631d580aaa7cb46e571590ed44e760001b83612045565b156111c9577faf8c8b3d1b230c888f16d0aac400b28aa51e631d580aaa7cb46e571590ed44e760001b90506112c1565b6111f67f7fc3771f539a03c47afbbf258702c19273ef5e735e24ee7978081dc07288c68760001b83612045565b15611226577f7fc3771f539a03c47afbbf258702c19273ef5e735e24ee7978081dc07288c68760001b90506112c1565b6112537fb528929ed79eb79a87ae6f578d3125509c91bfea9ac8b7fb9f69aa0bc28298dd60001b83612045565b15611283577fb528929ed79eb79a87ae6f578d3125509c91bfea9ac8b7fb9f69aa0bc28298dd60001b90506112c1565b6112a0604051611292906143ff565b604051809103902083612045565b156112c0576040516112b1906143ff565b604051809103902090506112c1565b5b919050565b60006112d06131ce565b73ffffffffffffffffffffffffffffffffffffffff1660026000858152602001908152602001600020600801600084815260200190815260200160002060090160009054906101000a900473ffffffffffffffffffffffffffffffffffffffff1673ffffffffffffffffffffffffffffffffffffffff1614806113cf57506113566131ce565b73ffffffffffffffffffffffffffffffffffffffff1660026000858152602001908152602001600020600801600084815260200190815260200160002060070160009054906101000a900473ffffffffffffffffffffffffffffffffffffffff1673ffffffffffffffffffffffffffffffffffffffff16145b61140e576040517f08c379a000000000000000000000000000000000000000000000000000000000815260040161140590614674565b60405180910390fd5b6000905061141a6131ce565b73ffffffffffffffffffffffffffffffffffffffff1660026000858152602001908152602001600020600801600084815260200190815260200160002060090160009054906101000a900473ffffffffffffffffffffffffffffffffffffffff1673ffffffffffffffffffffffffffffffffffffffff1614156114db57600160026000858152602001908152602001600020600801600084815260200190815260200160002060000160046101000a81548160ff0219169083151502179055505b6114e36131ce565b73ffffffffffffffffffffffffffffffffffffffff1660026000858152602001908152602001600020600801600084815260200190815260200160002060070160009054906101000a900473ffffffffffffffffffffffffffffffffffffffff1673ffffffffffffffffffffffffffffffffffffffff1614156115a457600160026000858152602001908152602001600020600801600084815260200190815260200160002060000160036101000a81548160ff0219169083151502179055505b6001151560026000858152602001908152602001600020600801600084815260200190815260200160002060000160049054906101000a900460ff16151514801561162a57506001151560026000858152602001908152602001600020600801600084815260200190815260200160002060000160039054906101000a900460ff161515145b156116b8576002806000858152602001908152602001600020600801600084815260200190815260200160002060000160006101000a81548160ff0219169083600681111561167557fe5b02179055507fea5b9a09f5cda7a400ab3299370eb751979df1575364bf7575f0d1bfe7e43b7d83836040516116ab9291906146eb565b60405180910390a1600190505b92915050565b7faf8c8b3d1b230c888f16d0aac400b28aa51e631d580aaa7cb46e571590ed44e760001b81565b6117197faf8c8b3d1b230c888f16d0aac400b28aa51e631d580aaa7cb46e571590ed44e760001b6117146131ce565b612045565b611758576040517f08c379a000000000000000000000000000000000000000000000000000000000815260040161174f906145d4565b60405180910390fd5b6117606131ce565b73ffffffffffffffffffffffffffffffffffffffff16600260008b815260200190815260200160002060020160009054906101000a900473ffffffffffffffffffffffffffffffffffffffff1673ffffffffffffffffffffffffffffffffffffffff1614611803576040517f08c379a00000000000000000000000000000000000000000000000000000000081526004016117fa906145f4565b60405180910390fd5b6000600260008b815260200190815260200160002060060160010160008573ffffffffffffffffffffffffffffffffffffffff1673ffffffffffffffffffffffffffffffffffffffff16815260200190815260200160002054141561189d576040517f08c379a000000000000000000000000000000000000000000000000000000000815260040161189490614654565b60405180910390fd5b6000600260008b815260200190815260200160002060060160010160008473ffffffffffffffffffffffffffffffffffffffff1673ffffffffffffffffffffffffffffffffffffffff168152602001908152602001600020541415611937576040517f08c379a000000000000000000000000000000000000000000000000000000000815260040161192e90614654565b60405180910390fd5b6000600260008b815260200190815260200160002060040160010160008373ffffffffffffffffffffffffffffffffffffffff1673ffffffffffffffffffffffffffffffffffffffff1681526020019081526020016000205414156119d1576040517f08c379a00000000000000000000000000000000000000000000000000000000081526004016119c890614514565b60405180910390fd5b6119fb6001600260008c81526020019081526020016000206001015461324a90919063ffffffff16565b600260008b8152602001908152602001600020600101819055506000600260008b81526020019081526020016000206001015490506000600260008c81526020019081526020016000206008016000838152602001908152602001600020905060008160000160006101000a81548160ff02191690836006811115611a7c57fe5b0217905550898160010181905550888160030181905550878160040181905550868160050181905550858160060181905550848160070160006101000a81548173ffffffffffffffffffffffffffffffffffffffff021916908373ffffffffffffffffffffffffffffffffffffffff160217905550838160080160006101000a81548173ffffffffffffffffffffffffffffffffffffffff021916908373ffffffffffffffffffffffffffffffffffffffff160217905550828160090160006101000a81548173ffffffffffffffffffffffffffffffffffffffff021916908373ffffffffffffffffffffffffffffffffffffffff1602179055507fef58603955539807736c5925e4d5b3ad4322eb3810b5b1bf36975955970895178b83604051611ba89291906146eb565b60405180910390a15050505050505050505050565b611bc56131ce565b73ffffffffffffffffffffffffffffffffffffffff166000809054906101000a900473ffffffffffffffffffffffffffffffffffffffff1673ffffffffffffffffffffffffffffffffffffffff1614611c53576040517f08c379a0000000000000000000000000000000000000000000000000000000008152600401611c4a90614614565b60405180910390fd5b600073ffffffffffffffffffffffffffffffffffffffff166000809054906101000a900473ffffffffffffffffffffffffffffffffffffffff1673ffffffffffffffffffffffffffffffffffffffff167f8be0079c531659141344cd1fd0a4f28419497f9722a3daafe3b4186f6b6457e060405160405180910390a360008060006101000a81548173ffffffffffffffffffffffffffffffffffffffff021916908373ffffffffffffffffffffffffffffffffffffffff160217905550565b7ff23ec0bb4210edd5cba85afd05127efcd2fc6a781bfed49188da1081670b22d860001b81565b611d6d7faf8c8b3d1b230c888f16d0aac400b28aa51e631d580aaa7cb46e571590ed44e760001b611d686131ce565b612045565b611dac576040517f08c379a0000000000000000000000000000000000000000000000000000000008152600401611da3906145d4565b60405180910390fd5b611db46131ce565b73ffffffffffffffffffffffffffffffffffffffff166002600084815260200190815260200160002060020160009054906101000a900473ffffffffffffffffffffffffffffffffffffffff1673ffffffffffffffffffffffffffffffffffffffff1614611e57576040517f08c379a0000000000000000000000000000000000000000000000000000000008152600401611e4e906145f4565b60405180910390fd5b600060026000848152602001908152602001600020905060008160040160000180549050905060008090505b8351811015611fe357611ecc7fb528929ed79eb79a87ae6f578d3125509c91bfea9ac8b7fb9f69aa0bc28298dd60001b858381518110611ebf57fe5b60200260200101516131d6565b82600401600001848281518110611edf57fe5b60200260200101519080600181540180825580915050600190039060005260206000200160009091909190916101000a81548173ffffffffffffffffffffffffffffffffffffffff021916908373ffffffffffffffffffffffffffffffffffffffff160217905550611f6d611f5e60018361324a90919063ffffffff16565b8361324a90919063ffffffff16565b836004016001016000868481518110611f8257fe5b602002602001015173ffffffffffffffffffffffffffffffffffffffff1673ffffffffffffffffffffffffffffffffffffffff16815260200190815260200160002081905550611fdc60018261324a90919063ffffffff16565b9050611e83565b5050505050565b60008060009054906101000a900473ffffffffffffffffffffffffffffffffffffffff16905090565b600061203d826001600086815260200190815260200160002060000161333390919063ffffffff16565b905092915050565b600061206f826001600086815260200190815260200160002060000161334d90919063ffffffff16565b905092915050565b604051612083906143ff565b604051809103902081565b7f7fc3771f539a03c47afbbf258702c19273ef5e735e24ee7978081dc07288c68760001b81565b6000806060806000806002600088815260200190815260200160002060020160009054906101000a900473ffffffffffffffffffffffffffffffffffffffff16955060026000888152602001908152602001600020600001549450600260008881526020019081526020016000206004016000018054806020026020016040519081016040528092919081815260200182805480156121a957602002820191906000526020600020905b8160009054906101000a900473ffffffffffffffffffffffffffffffffffffffff1673ffffffffffffffffffffffffffffffffffffffff168152602001906001019080831161215f575b505050505093506002600088815260200190815260200160002060060160000180548060200260200160405190810160405280929190818152602001828054801561224957602002820191906000526020600020905b8160009054906101000a900473ffffffffffffffffffffffffffffffffffffffff1673ffffffffffffffffffffffffffffffffffffffff16815260200190600101908083116121ff575b50505050509250600260008881526020019081526020016000206004016001016000600260008a81526020019081526020016000206004016000016001600260008c81526020019081526020016000206004016000018054905003815481106122ae57fe5b9060005260206000200160009054906101000a900473ffffffffffffffffffffffffffffffffffffffff1673ffffffffffffffffffffffffffffffffffffffff1673ffffffffffffffffffffffffffffffffffffffff168152602001908152602001600020549150600260008881526020019081526020016000206006016001016000600260008a81526020019081526020016000206006016000016001600260008c815260200190815260200160002060060160000180549050038154811061237457fe5b9060005260206000200160009054906101000a900473ffffffffffffffffffffffffffffffffffffffff1673ffffffffffffffffffffffffffffffffffffffff1673ffffffffffffffffffffffffffffffffffffffff16815260200190815260200160002054905091939550919395565b6000801b81565b6123f4613709565b600260008481526020019081526020016000206008016000838152602001908152602001600020604051806102400160405290816000820160009054906101000a900460ff16600681111561244557fe5b600681111561245057fe5b81526020016000820160019054906101000a900460ff161515151581526020016000820160029054906101000a900460ff161515151581526020016000820160039054906101000a900460ff161515151581526020016000820160049054906101000a900460ff161515151581526020016000820160059054906101000a900460ff161515151581526020016000820160069054906101000a900460ff161515151581526020016000820160079054906101000a900460ff161515151581526020016000820160089054906101000a900460ff161515151581526020016001820154815260200160028201548152602001600382015481526020016004820154815260200160058201548152602001600682015481526020016007820160009054906101000a900473ffffffffffffffffffffffffffffffffffffffff1673ffffffffffffffffffffffffffffffffffffffff1673ffffffffffffffffffffffffffffffffffffffff1681526020016008820160009054906101000a900473ffffffffffffffffffffffffffffffffffffffff1673ffffffffffffffffffffffffffffffffffffffff1673ffffffffffffffffffffffffffffffffffffffff1681526020016009820160009054906101000a900473ffffffffffffffffffffffffffffffffffffffff1673ffffffffffffffffffffffffffffffffffffffff1673ffffffffffffffffffffffffffffffffffffffff1681525050905092915050565b61267a6131ce565b73ffffffffffffffffffffffffffffffffffffffff1660026000858152602001908152602001600020600801600084815260200190815260200160002060090160009054906101000a900473ffffffffffffffffffffffffffffffffffffffff1673ffffffffffffffffffffffffffffffffffffffff1614612731576040517f08c379a0000000000000000000000000000000000000000000000000000000008152600401612728906145b4565b60405180910390fd5b8060026000858152602001908152602001600020600801600084815260200190815260200160002060030181905550600360026000858152602001908152602001600020600801600084815260200190815260200160002060000160006101000a81548160ff021916908360068111156127a757fe5b02179055507fb39f6fe30ae4ea54eff79d31c2afcdea552f5a0820c855d0f6e4e1d117d16b2e8383836040516127df93929190614714565b60405180910390a1505050565b600061280c6001600084815260200190815260200160002060000161337d565b9050919050565b600061281d6131ce565b73ffffffffffffffffffffffffffffffffffffffff1660026000858152602001908152602001600020600801600084815260200190815260200160002060090160009054906101000a900473ffffffffffffffffffffffffffffffffffffffff1673ffffffffffffffffffffffffffffffffffffffff16148061291c57506128a36131ce565b73ffffffffffffffffffffffffffffffffffffffff1660026000858152602001908152602001600020600801600084815260200190815260200160002060080160009054906101000a900473ffffffffffffffffffffffffffffffffffffffff1673ffffffffffffffffffffffffffffffffffffffff16145b61295b576040517f08c379a000000000000000000000000000000000000000000000000000000000815260040161295290614674565b60405180910390fd5b600090506129676131ce565b73ffffffffffffffffffffffffffffffffffffffff1660026000858152602001908152602001600020600801600084815260200190815260200160002060090160009054906101000a900473ffffffffffffffffffffffffffffffffffffffff1673ffffffffffffffffffffffffffffffffffffffff161415612a2857600160026000858152602001908152602001600020600801600084815260200190815260200160002060000160066101000a81548160ff0219169083151502179055505b612a306131ce565b73ffffffffffffffffffffffffffffffffffffffff1660026000858152602001908152602001600020600801600084815260200190815260200160002060080160009054906101000a900473ffffffffffffffffffffffffffffffffffffffff1673ffffffffffffffffffffffffffffffffffffffff161415612af157600160026000858152602001908152602001600020600801600084815260200190815260200160002060000160056101000a81548160ff0219169083151502179055505b6001151560026000858152602001908152602001600020600801600084815260200190815260200160002060000160069054906101000a900460ff161515148015612b7757506001151560026000858152602001908152602001600020600801600084815260200190815260200160002060000160059054906101000a900460ff161515145b15612c0657600460026000858152602001908152602001600020600801600084815260200190815260200160002060000160006101000a81548160ff02191690836006811115612bc357fe5b02179055507f1cca725889d27a46f38b58dd66a77cba5bc3d254b9c502b10ae4d7846cfa42638383604051612bf99291906146eb565b60405180910390a1600190505b92915050565b6000612c166131ce565b73ffffffffffffffffffffffffffffffffffffffff166002600085815260200190815260200160002060030160009054906101000a900473ffffffffffffffffffffffffffffffffffffffff1673ffffffffffffffffffffffffffffffffffffffff161480612d015750612c886131ce565b73ffffffffffffffffffffffffffffffffffffffff1660026000858152602001908152602001600020600801600084815260200190815260200160002060080160009054906101000a900473ffffffffffffffffffffffffffffffffffffffff1673ffffffffffffffffffffffffffffffffffffffff16145b612d40576040517f08c379a0000000000000000000000000000000000000000000000000000000008152600401612d3790614554565b60405180910390fd5b60009050612d4c6131ce565b73ffffffffffffffffffffffffffffffffffffffff166002600085815260200190815260200160002060030160009054906101000a900473ffffffffffffffffffffffffffffffffffffffff1673ffffffffffffffffffffffffffffffffffffffff161415612df957600160026000858152602001908152602001600020600801600084815260200190815260200160002060000160086101000a81548160ff0219169083151502179055505b612e016131ce565b73ffffffffffffffffffffffffffffffffffffffff1660026000858152602001908152602001600020600801600084815260200190815260200160002060080160009054906101000a900473ffffffffffffffffffffffffffffffffffffffff1673ffffffffffffffffffffffffffffffffffffffff161415612ec257600160026000858152602001908152602001600020600801600084815260200190815260200160002060000160076101000a81548160ff0219169083151502179055505b6001151560026000858152602001908152602001600020600801600084815260200190815260200160002060000160089054906101000a900460ff161515148015612f4857506001151560026000858152602001908152602001600020600801600084815260200190815260200160002060000160079054906101000a900460ff161515145b15612fd757600560026000858152602001908152602001600020600801600084815260200190815260200160002060000160006101000a81548160ff02191690836006811115612f9457fe5b02179055507f6fe789f01467d87832cddfe60c4c0e2171e09c7d7f7163cace200495d6408bf38383604051612fca9291906146eb565b60405180910390a1600190505b92915050565b7fb528929ed79eb79a87ae6f578d3125509c91bfea9ac8b7fb9f69aa0bc28298dd60001b81565b61300c6131ce565b73ffffffffffffffffffffffffffffffffffffffff166000809054906101000a900473ffffffffffffffffffffffffffffffffffffffff1673ffffffffffffffffffffffffffffffffffffffff161461309a576040517f08c379a000000000000000000000000000000000000000000000000000000000815260040161309190614614565b60405180910390fd5b600073ffffffffffffffffffffffffffffffffffffffff168173ffffffffffffffffffffffffffffffffffffffff16141561310a576040517f08c379a000000000000000000000000000000000000000000000000000000000815260040161310190614534565b60405180910390fd5b8073ffffffffffffffffffffffffffffffffffffffff166000809054906101000a900473ffffffffffffffffffffffffffffffffffffffff1673ffffffffffffffffffffffffffffffffffffffff167f8be0079c531659141344cd1fd0a4f28419497f9722a3daafe3b4186f6b6457e060405160405180910390a3806000806101000a81548173ffffffffffffffffffffffffffffffffffffffff021916908373ffffffffffffffffffffffffffffffffffffffff16021790555050565b60035481565b600033905090565b6131fd60016000848152602001908152602001600020600201546131f86131ce565b612045565b61323c576040517f08c379a0000000000000000000000000000000000000000000000000000000008152600401613233906144f4565b60405180910390fd5b6132468282613392565b5050565b600080828401905083811015613295576040517f08c379a000000000000000000000000000000000000000000000000000000000815260040161328c90614574565b60405180910390fd5b8091505092915050565b6132c7816001600085815260200190815260200160002060000161342690919063ffffffff16565b1561332f576132d46131ce565b73ffffffffffffffffffffffffffffffffffffffff168173ffffffffffffffffffffffffffffffffffffffff16837ff6391f5c32d9c69d2a47ea670b442974b53935d1edc7fd64eb21e047a839171b60405160405180910390a45b5050565b60006133428360000183613456565b60001c905092915050565b6000613375836000018373ffffffffffffffffffffffffffffffffffffffff1660001b6134c3565b905092915050565b600061338b826000016134e6565b9050919050565b6133ba81600160008581526020019081526020016000206000016134f790919063ffffffff16565b15613422576133c76131ce565b73ffffffffffffffffffffffffffffffffffffffff168173ffffffffffffffffffffffffffffffffffffffff16837f2f8788117e7eff1d82e926ec794901d17c78024a50270940304540a733656f0d60405160405180910390a45b5050565b600061344e836000018373ffffffffffffffffffffffffffffffffffffffff1660001b613527565b905092915050565b6000818360000180549050116134a1576040517f08c379a0000000000000000000000000000000000000000000000000000000008152600401613498906144d4565b60405180910390fd5b8260000182815481106134b057fe5b9060005260206000200154905092915050565b600080836001016000848152602001908152602001600020541415905092915050565b600081600001805490509050919050565b600061351f836000018373ffffffffffffffffffffffffffffffffffffffff1660001b61360f565b905092915050565b60008083600101600084815260200190815260200160002054905060008114613603576000600182039050600060018660000180549050039050600086600001828154811061357257fe5b906000526020600020015490508087600001848154811061358f57fe5b90600052602060002001819055506001830187600101600083815260200190815260200160002081905550866000018054806135c757fe5b60019003818190600052602060002001600090559055866001016000878152602001908152602001600020600090556001945050505050613609565b60009150505b92915050565b600061361b83836134c3565b613674578260000182908060018154018082558091505060019003906000526020600020016000909190919091505582600001805490508360010160008481526020019081526020016000208190555060019050613679565b600090505b92915050565b8280548282559060005260206000209081019282156136f8579160200282015b828111156136f75782518260006101000a81548173ffffffffffffffffffffffffffffffffffffffff021916908373ffffffffffffffffffffffffffffffffffffffff1602179055509160200191906001019061369f565b5b50905061370591906137f1565b5090565b6040518061024001604052806000600681111561372257fe5b8152602001600015158152602001600015158152602001600015158152602001600015158152602001600015158152602001600015158152602001600015158152602001600015158152602001600081526020016000815260200160008152602001600081526020016000815260200160008152602001600073ffffffffffffffffffffffffffffffffffffffff168152602001600073ffffffffffffffffffffffffffffffffffffffff168152602001600073ffffffffffffffffffffffffffffffffffffffff1681525090565b61383191905b8082111561382d57600081816101000a81549073ffffffffffffffffffffffffffffffffffffffff0219169055506001016137f7565b5090565b90565b60008135905061384381614879565b92915050565b600082601f83011261385a57600080fd5b813561386d61386882614778565b61474b565b9150818183526020840193506020810190508385602084028201111561389257600080fd5b60005b838110156138c257816138a88882613834565b845260208401935060208301925050600181019050613895565b5050505092915050565b6000813590506138db81614890565b92915050565b6000813590506138f0816148a7565b92915050565b60006020828403121561390857600080fd5b600061391684828501613834565b91505092915050565b6000806000806080858703121561393557600080fd5b600085013567ffffffffffffffff81111561394f57600080fd5b61395b87828801613849565b945050602085013567ffffffffffffffff81111561397857600080fd5b61398487828801613849565b935050604061399587828801613834565b92505060606139a6878288016138e1565b91505092959194509250565b6000602082840312156139c457600080fd5b60006139d2848285016138cc565b91505092915050565b600080604083850312156139ee57600080fd5b60006139fc858286016138cc565b9250506020613a0d85828601613834565b9150509250929050565b60008060408385031215613a2a57600080fd5b6000613a38858286016138cc565b9250506020613a49858286016138e1565b9150509250929050565b600060208284031215613a6557600080fd5b6000613a73848285016138e1565b91505092915050565b60008060408385031215613a8f57600080fd5b6000613a9d858286016138e1565b925050602083013567ffffffffffffffff811115613aba57600080fd5b613ac685828601613849565b9150509250929050565b60008060408385031215613ae357600080fd5b6000613af1858286016138e1565b9250506020613b02858286016138e1565b9150509250929050565b600080600060608486031215613b2157600080fd5b6000613b2f868287016138e1565b9350506020613b40868287016138e1565b9250506040613b51868287016138e1565b9150509250925092565b60008060008060008060008060006101208a8c031215613b7a57600080fd5b6000613b888c828d016138e1565b9950506020613b998c828d016138e1565b9850506040613baa8c828d016138e1565b9750506060613bbb8c828d016138e1565b9650506080613bcc8c828d016138e1565b95505060a0613bdd8c828d016138e1565b94505060c0613bee8c828d01613834565b93505060e0613bff8c828d01613834565b925050610100613c118c828d01613834565b9150509295985092959850929598565b6000613c2d8383613c39565b60208301905092915050565b613c42816147f5565b82525050565b613c51816147f5565b82525050565b6000613c62826147b0565b613c6c81856147c8565b9350613c77836147a0565b8060005b83811015613ca8578151613c8f8882613c21565b9750613c9a836147bb565b925050600181019050613c7b565b5085935050505092915050565b613cbe81614807565b82525050565b613ccd81614807565b82525050565b613cdc81614813565b82525050565b613ceb8161485a565b82525050565b6000613cfe6022836147d9565b91507f456e756d657261626c655365743a20696e646578206f7574206f6620626f756e60008301527f64730000000000000000000000000000000000000000000000000000000000006020830152604082019050919050565b6000613d64602f836147d9565b91507f416363657373436f6e74726f6c3a2073656e646572206d75737420626520616e60008301527f2061646d696e20746f206772616e7400000000000000000000000000000000006020830152604082019050919050565b6000613dca6021836147d9565b91507f616464206d616e756661747572657220746f2063616d706169676e206669727360008301527f74000000000000000000000000000000000000000000000000000000000000006020830152604082019050919050565b6000613e306026836147d9565b91507f4f776e61626c653a206e6577206f776e657220697320746865207a65726f206160008301527f64647265737300000000000000000000000000000000000000000000000000006020830152604082019050919050565b6000613e966030836147d9565b91507f4f6e6c792072656369766572206f662063616d617069676e4964206f7220636f60008301527f757269657220697320616c6c6f776564000000000000000000000000000000006020830152604082019050919050565b6000613efc601b836147d9565b91507f536166654d6174683a206164646974696f6e206f766572666c6f7700000000006000830152602082019050919050565b6000613f3c6034836147d9565b91507f4f6e6c7920636f6f7264696e61746f72206f662063616d617069676e4964206f60008301527f7220636f757269657220697320616c6c6f7765640000000000000000000000006020830152604082019050919050565b6000613fa26025836147d9565b91507f4f6e6c79206d616e756661637475726572206f6620626174636820697320616c60008301527f6c6f7765640000000000000000000000000000000000000000000000000000006020830152604082019050919050565b6000614008601b836147d9565b91507f4f6e6c7920636f6f7264696e61746f7220697320616c6c6f77656400000000006000830152602082019050919050565b60006140486029836147d9565b91507f4f6e6c7920636f6f7264696e61746f72206f662063616d617069676e4964206960008301527f7320616c6c6f77656400000000000000000000000000000000000000000000006020830152604082019050919050565b60006140ae6020836147d9565b91507f4f776e61626c653a2063616c6c6572206973206e6f7420746865206f776e65726000830152602082019050919050565b60006140ee6015836147d9565b91507f4f6e6c792061646d696e20697320616c6c6f77656400000000000000000000006000830152602082019050919050565b600061412e6007836147ea565b91507f72656369766572000000000000000000000000000000000000000000000000006000830152600782019050919050565b600061416e601d836147d9565b91507f61646420636f757269657220746f2063616d706169676e2066697273740000006000830152602082019050919050565b60006141ae6030836147d9565b91507f4f6e6c79206d616e756661637475726572206f7220636f7572696572206f662060008301527f626174636820697320616c6c6f776564000000000000000000000000000000006020830152604082019050919050565b6000614214602f836147d9565b91507f416363657373436f6e74726f6c3a2063616e206f6e6c792072656e6f756e636560008301527f20726f6c657320666f722073656c6600000000000000000000000000000000006020830152604082019050919050565b610240820160008201516142846000850182613ce2565b5060208201516142976020850182613cb5565b5060408201516142aa6040850182613cb5565b5060608201516142bd6060850182613cb5565b5060808201516142d06080850182613cb5565b5060a08201516142e360a0850182613cb5565b5060c08201516142f660c0850182613cb5565b5060e082015161430960e0850182613cb5565b5061010082015161431e610100850182613cb5565b506101208201516143336101208501826143e1565b506101408201516143486101408501826143e1565b5061016082015161435d6101608501826143e1565b506101808201516143726101808501826143e1565b506101a08201516143876101a08501826143e1565b506101c082015161439c6101c08501826143e1565b506101e08201516143b16101e0850182613c39565b506102008201516143c6610200850182613c39565b506102208201516143db610220850182613c39565b50505050565b6143ea81614850565b82525050565b6143f981614850565b82525050565b600061440a82614121565b9150819050919050565b60006020820190506144296000830184613c48565b92915050565b600060c0820190506144446000830189613c48565b61445160208301886143f0565b81810360408301526144638187613c57565b905081810360608301526144778186613c57565b905061448660808301856143f0565b61449360a08301846143f0565b979650505050505050565b60006020820190506144b36000830184613cc4565b92915050565b60006020820190506144ce6000830184613cd3565b92915050565b600060208201905081810360008301526144ed81613cf1565b9050919050565b6000602082019050818103600083015261450d81613d57565b9050919050565b6000602082019050818103600083015261452d81613dbd565b9050919050565b6000602082019050818103600083015261454d81613e23565b9050919050565b6000602082019050818103600083015261456d81613e89565b9050919050565b6000602082019050818103600083015261458d81613eef565b9050919050565b600060208201905081810360008301526145ad81613f2f565b9050919050565b600060208201905081810360008301526145cd81613f95565b9050919050565b600060208201905081810360008301526145ed81613ffb565b9050919050565b6000602082019050818103600083015261460d8161403b565b9050919050565b6000602082019050818103600083015261462d816140a1565b9050919050565b6000602082019050818103600083015261464d816140e1565b9050919050565b6000602082019050818103600083015261466d81614161565b9050919050565b6000602082019050818103600083015261468d816141a1565b9050919050565b600060208201905081810360008301526146ad81614207565b9050919050565b6000610240820190506146ca600083018461426d565b92915050565b60006020820190506146e560008301846143f0565b92915050565b600060408201905061470060008301856143f0565b61470d60208301846143f0565b9392505050565b600060608201905061472960008301866143f0565b61473660208301856143f0565b61474360408301846143f0565b949350505050565b6000604051905081810181811067ffffffffffffffff8211171561476e57600080fd5b8060405250919050565b600067ffffffffffffffff82111561478f57600080fd5b602082029050602081019050919050565b6000819050602082019050919050565b600081519050919050565b6000602082019050919050565b600082825260208201905092915050565b600082825260208201905092915050565b600081905092915050565b600061480082614830565b9050919050565b60008115159050919050565b6000819050919050565b600081905061482b8261486c565b919050565b600073ffffffffffffffffffffffffffffffffffffffff82169050919050565b6000819050919050565b60006148658261481d565b9050919050565b6007811061487657fe5b50565b614882816147f5565b811461488d57600080fd5b50565b61489981614813565b81146148a457600080fd5b50565b6148b081614850565b81146148bb57600080fd5b5056fea2646970667358221220383072c1ea290f1e826f0c5a3df01f52aac3da323b575525bba3b65abf4b82a164736f6c63430006020033",
  "source": "pragma solidity ^0.6.2;\n\n/*\n * @dev Provides information about the current execution context, including the\n * sender of the transaction and its data. While these are generally available\n * via msg.sender and msg.data, they should not be accessed in such a direct\n * manner, since when dealing with GSN meta-transactions the account sending and\n * paying for execution may not be the actual sender (as far as an application\n * is concerned).\n *\n * This contract is only required for intermediate, library-like contracts.\n */\ncontract Context {\n    // Empty internal constructor, to prevent people from mistakenly deploying\n    // an instance of this contract, which should be used via inheritance.\n    constructor () internal {}\n\n    function _msgSender() internal view virtual returns (address payable) {\n        return msg.sender;\n    }\n\n    function _msgData() internal view virtual returns (bytes memory) {\n        this; // silence state mutability warning without generating bytecode - see https://github.com/ethereum/solidity/issues/2691\n        return msg.data;\n    }\n}\n\n\n/**\n * @dev Library for managing\n * https://en.wikipedia.org/wiki/Set_(abstract_data_type)[sets] of primitive\n * types.\n *\n * Sets have the following properties:\n *\n * - Elements are added, removed, and checked for existence in constant time\n * (O(1)).\n * - Elements are enumerated in O(n). No guarantees are made on the ordering.\n *\n * ```\n * contract Example {\n *     // Add the library methods\n *     using EnumerableSet for EnumerableSet.AddressSet;\n *\n *     // Declare a set state variable\n *     EnumerableSet.AddressSet private mySet;\n * }\n * ```\n *\n * As of v3.0.0, only sets of type `address` (`AddressSet`) and `uint256`\n * (`UintSet`) are supported.\n */\nlibrary EnumerableSet {\n    // To implement this library for multiple types with as little code\n    // repetition as possible, we write it in terms of a generic Set type with\n    // bytes32 values.\n    // The Set implementation uses private functions, and user-facing\n    // implementations (such as AddressSet) are just wrappers around the\n    // underlying Set.\n    // This means that we can only create new EnumerableSets for types that fit\n    // in bytes32.\n\n    struct Set {\n        // Storage of set values\n        bytes32[] _values;\n\n        // Position of the value in the `values` array, plus 1 because index 0\n        // means a value is not in the set.\n        mapping (bytes32 => uint256) _indexes;\n    }\n\n    /**\n     * @dev Add a value to a set. O(1).\n     *\n     * Returns true if the value was added to the set, that is if it was not\n     * already present.\n     */\n    function _add(Set storage set, bytes32 value) private returns (bool) {\n        if (!_contains(set, value)) {\n            set._values.push(value);\n            // The value is stored at length-1, but we add 1 to all indexes\n            // and use 0 as a sentinel value\n            set._indexes[value] = set._values.length;\n            return true;\n        } else {\n            return false;\n        }\n    }\n\n    /**\n     * @dev Removes a value from a set. O(1).\n     *\n     * Returns true if the value was removed from the set, that is if it was\n     * present.\n     */\n    function _remove(Set storage set, bytes32 value) private returns (bool) {\n        // We read and store the value's index to prevent multiple reads from the same storage slot\n        uint256 valueIndex = set._indexes[value];\n\n        if (valueIndex != 0) { // Equivalent to contains(set, value)\n            // To delete an element from the _values array in O(1), we swap the element to delete with the last one in\n            // the array, and then remove the last element (sometimes called as 'swap and pop').\n            // This modifies the order of the array, as noted in {at}.\n\n            uint256 toDeleteIndex = valueIndex - 1;\n            uint256 lastIndex = set._values.length - 1;\n\n            // When the value to delete is the last one, the swap operation is unnecessary. However, since this occurs\n            // so rarely, we still do the swap anyway to avoid the gas cost of adding an 'if' statement.\n\n            bytes32 lastvalue = set._values[lastIndex];\n\n            // Move the last value to the index where the value to delete is\n            set._values[toDeleteIndex] = lastvalue;\n            // Update the index for the moved value\n            set._indexes[lastvalue] = toDeleteIndex + 1; // All indexes are 1-based\n\n            // Delete the slot where the moved value was stored\n            set._values.pop();\n\n            // Delete the index for the deleted slot\n            delete set._indexes[value];\n\n            return true;\n        } else {\n            return false;\n        }\n    }\n\n    /**\n     * @dev Returns true if the value is in the set. O(1).\n     */\n    function _contains(Set storage set, bytes32 value) private view returns (bool) {\n        return set._indexes[value] != 0;\n    }\n\n    /**\n     * @dev Returns the number of values on the set. O(1).\n     */\n    function _length(Set storage set) private view returns (uint256) {\n        return set._values.length;\n    }\n\n   /**\n    * @dev Returns the value stored at position `index` in the set. O(1).\n    *\n    * Note that there are no guarantees on the ordering of values inside the\n    * array, and it may change when more values are added or removed.\n    *\n    * Requirements:\n    *\n    * - `index` must be strictly less than {length}.\n    */\n    function _at(Set storage set, uint256 index) private view returns (bytes32) {\n        require(set._values.length > index, \"EnumerableSet: index out of bounds\");\n        return set._values[index];\n    }\n\n    // AddressSet\n\n    struct AddressSet {\n        Set _inner;\n    }\n\n    /**\n     * @dev Add a value to a set. O(1).\n     *\n     * Returns true if the value was added to the set, that is if it was not\n     * already present.\n     */\n    function add(AddressSet storage set, address value) internal returns (bool) {\n        return _add(set._inner, bytes32(uint256(value)));\n    }\n\n    /**\n     * @dev Removes a value from a set. O(1).\n     *\n     * Returns true if the value was removed from the set, that is if it was\n     * present.\n     */\n    function remove(AddressSet storage set, address value) internal returns (bool) {\n        return _remove(set._inner, bytes32(uint256(value)));\n    }\n\n    /**\n     * @dev Returns true if the value is in the set. O(1).\n     */\n    function contains(AddressSet storage set, address value) internal view returns (bool) {\n        return _contains(set._inner, bytes32(uint256(value)));\n    }\n\n    /**\n     * @dev Returns the number of values in the set. O(1).\n     */\n    function length(AddressSet storage set) internal view returns (uint256) {\n        return _length(set._inner);\n    }\n\n   /**\n    * @dev Returns the value stored at position `index` in the set. O(1).\n    *\n    * Note that there are no guarantees on the ordering of values inside the\n    * array, and it may change when more values are added or removed.\n    *\n    * Requirements:\n    *\n    * - `index` must be strictly less than {length}.\n    */\n    function at(AddressSet storage set, uint256 index) internal view returns (address) {\n        return address(uint256(_at(set._inner, index)));\n    }\n\n\n    // UintSet\n\n    struct UintSet {\n        Set _inner;\n    }\n\n    /**\n     * @dev Add a value to a set. O(1).\n     *\n     * Returns true if the value was added to the set, that is if it was not\n     * already present.\n     */\n    function add(UintSet storage set, uint256 value) internal returns (bool) {\n        return _add(set._inner, bytes32(value));\n    }\n\n    /**\n     * @dev Removes a value from a set. O(1).\n     *\n     * Returns true if the value was removed from the set, that is if it was\n     * present.\n     */\n    function remove(UintSet storage set, uint256 value) internal returns (bool) {\n        return _remove(set._inner, bytes32(value));\n    }\n\n    /**\n     * @dev Returns true if the value is in the set. O(1).\n     */\n    function contains(UintSet storage set, uint256 value) internal view returns (bool) {\n        return _contains(set._inner, bytes32(value));\n    }\n\n    /**\n     * @dev Returns the number of values on the set. O(1).\n     */\n    function length(UintSet storage set) internal view returns (uint256) {\n        return _length(set._inner);\n    }\n\n   /**\n    * @dev Returns the value stored at position `index` in the set. O(1).\n    *\n    * Note that there are no guarantees on the ordering of values inside the\n    * array, and it may change when more values are added or removed.\n    *\n    * Requirements:\n    *\n    * - `index` must be strictly less than {length}.\n    */\n    function at(UintSet storage set, uint256 index) internal view returns (uint256) {\n        return uint256(_at(set._inner, index));\n    }\n}\n\npragma experimental ABIEncoderV2;\n\n\n\n\n\n\n\n/**\n * @dev Collection of functions related to the address type\n */\nlibrary Address {\n    /**\n     * @dev Returns true if `account` is a contract.\n     *\n     * [IMPORTANT]\n     * ====\n     * It is unsafe to assume that an address for which this function returns\n     * false is an externally-owned account (EOA) and not a contract.\n     *\n     * Among others, `isContract` will return false for the following\n     * types of addresses:\n     *\n     *  - an externally-owned account\n     *  - a contract in construction\n     *  - an address where a contract will be created\n     *  - an address where a contract lived, but was destroyed\n     * ====\n     */\n    function isContract(address account) internal view returns (bool) {\n        // According to EIP-1052, 0x0 is the value returned for not-yet created accounts\n        // and 0xc5d2460186f7233c927e7db2dcc703c0e500b653ca82273b7bfad8045d85a470 is returned\n        // for accounts without code, i.e. `keccak256('')`\n        bytes32 codehash;\n        bytes32 accountHash = 0xc5d2460186f7233c927e7db2dcc703c0e500b653ca82273b7bfad8045d85a470;\n        // solhint-disable-next-line no-inline-assembly\n        assembly { codehash := extcodehash(account) }\n        return (codehash != accountHash && codehash != 0x0);\n    }\n\n    /**\n     * @dev Replacement for Solidity's `transfer`: sends `amount` wei to\n     * `recipient`, forwarding all available gas and reverting on errors.\n     *\n     * https://eips.ethereum.org/EIPS/eip-1884[EIP1884] increases the gas cost\n     * of certain opcodes, possibly making contracts go over the 2300 gas limit\n     * imposed by `transfer`, making them unable to receive funds via\n     * `transfer`. {sendValue} removes this limitation.\n     *\n     * https://diligence.consensys.net/posts/2019/09/stop-using-soliditys-transfer-now/[Learn more].\n     *\n     * IMPORTANT: because control is transferred to `recipient`, care must be\n     * taken to not create reentrancy vulnerabilities. Consider using\n     * {ReentrancyGuard} or the\n     * https://solidity.readthedocs.io/en/v0.5.11/security-considerations.html#use-the-checks-effects-interactions-pattern[checks-effects-interactions pattern].\n     */\n    function sendValue(address payable recipient, uint256 amount) internal {\n        require(address(this).balance >= amount, \"Address: insufficient balance\");\n\n        // solhint-disable-next-line avoid-low-level-calls, avoid-call-value\n        (bool success, ) = recipient.call{ value: amount }(\"\");\n        require(success, \"Address: unable to send value, recipient may have reverted\");\n    }\n}\n\n\n\n/**\n * @dev Contract module that allows children to implement role-based access\n * control mechanisms.\n *\n * Roles are referred to by their `bytes32` identifier. These should be exposed\n * in the external API and be unique. The best way to achieve this is by\n * using `public constant` hash digests:\n *\n * ```\n * bytes32 public constant MY_ROLE = keccak256(\"MY_ROLE\");\n * ```\n *\n * Roles can be used to represent a set of permissions. To restrict access to a\n * function call, use {hasRole}:\n *\n * ```\n * function foo() public {\n *     require(hasRole(MY_ROLE, _msgSender()));\n *     ...\n * }\n * ```\n *\n * Roles can be granted and revoked dynamically via the {grantRole} and\n * {revokeRole} functions. Each role has an associated admin role, and only\n * accounts that have a role's admin role can call {grantRole} and {revokeRole}.\n *\n * By default, the admin role for all roles is `DEFAULT_ADMIN_ROLE`, which means\n * that only accounts with this role will be able to grant or revoke other\n * roles. More complex role relationships can be created by using\n * {_setRoleAdmin}.\n */\nabstract contract AccessControl is Context {\n    using EnumerableSet for EnumerableSet.AddressSet;\n    using Address for address;\n\n    struct RoleData {\n        EnumerableSet.AddressSet members;\n        bytes32 adminRole;\n    }\n\n    mapping (bytes32 => RoleData) private _roles;\n\n    bytes32 public constant DEFAULT_ADMIN_ROLE = 0x00;\n\n    /**\n     * @dev Emitted when `account` is granted `role`.\n     *\n     * `sender` is the account that originated the contract call, an admin role\n     * bearer except when using {_setupRole}.\n     */\n    event RoleGranted(bytes32 indexed role, address indexed account, address indexed sender);\n\n    /**\n     * @dev Emitted when `account` is revoked `role`.\n     *\n     * `sender` is the account that originated the contract call:\n     *   - if using `revokeRole`, it is the admin role bearer\n     *   - if using `renounceRole`, it is the role bearer (i.e. `account`)\n     */\n    event RoleRevoked(bytes32 indexed role, address indexed account, address indexed sender);\n\n    /**\n     * @dev Returns `true` if `account` has been granted `role`.\n     */\n    function hasRole(bytes32 role, address account) public view returns (bool) {\n        return _roles[role].members.contains(account);\n    }\n\n    /**\n     * @dev Returns the number of accounts that have `role`. Can be used\n     * together with {getRoleMember} to enumerate all bearers of a role.\n     */\n    function getRoleMemberCount(bytes32 role) public view returns (uint256) {\n        return _roles[role].members.length();\n    }\n\n    /**\n     * @dev Returns one of the accounts that have `role`. `index` must be a\n     * value between 0 and {getRoleMemberCount}, non-inclusive.\n     *\n     * Role bearers are not sorted in any particular way, and their ordering may\n     * change at any point.\n     *\n     * WARNING: When using {getRoleMember} and {getRoleMemberCount}, make sure\n     * you perform all queries on the same block. See the following\n     * https://forum.openzeppelin.com/t/iterating-over-elements-on-enumerableset-in-openzeppelin-contracts/2296[forum post]\n     * for more information.\n     */\n    function getRoleMember(bytes32 role, uint256 index) public view returns (address) {\n        return _roles[role].members.at(index);\n    }\n\n    /**\n     * @dev Returns the admin role that controls `role`. See {grantRole} and\n     * {revokeRole}.\n     *\n     * To change a role's admin, use {_setRoleAdmin}.\n     */\n    function getRoleAdmin(bytes32 role) public view returns (bytes32) {\n        return _roles[role].adminRole;\n    }\n\n    /**\n     * @dev Grants `role` to `account`.\n     *\n     * If `account` had not been already granted `role`, emits a {RoleGranted}\n     * event.\n     *\n     * Requirements:\n     *\n     * - the caller must have ``role``'s admin role.\n     */\n    function grantRole(bytes32 role, address account) internal virtual {\n        require(hasRole(_roles[role].adminRole, _msgSender()), \"AccessControl: sender must be an admin to grant\");\n\n        _grantRole(role, account);\n    }\n\n    /**\n     * @dev Revokes `role` from `account`.\n     *\n     * If `account` had been granted `role`, emits a {RoleRevoked} event.\n     *\n     * Requirements:\n     *\n     * - the caller must have ``role``'s admin role.\n     */\n    function revokeRole(bytes32 role, address account) internal virtual {\n        require(hasRole(_roles[role].adminRole, _msgSender()), \"AccessControl: sender must be an admin to revoke\");\n\n        _revokeRole(role, account);\n    }\n\n    /**\n     * @dev Revokes `role` from the calling account.\n     *\n     * Roles are often managed via {grantRole} and {revokeRole}: this function's\n     * purpose is to provide a mechanism for accounts to lose their privileges\n     * if they are compromised (such as when a trusted device is misplaced).\n     *\n     * If the calling account had been granted `role`, emits a {RoleRevoked}\n     * event.\n     *\n     * Requirements:\n     *\n     * - the caller must be `account`.\n     */\n    function renounceRole(bytes32 role, address account) public virtual {\n        require(account == _msgSender(), \"AccessControl: can only renounce roles for self\");\n\n        _revokeRole(role, account);\n    }\n\n    /**\n     * @dev Grants `role` to `account`.\n     *\n     * If `account` had not been already granted `role`, emits a {RoleGranted}\n     * event. Note that unlike {grantRole}, this function doesn't perform any\n     * checks on the calling account.\n     *\n     * [WARNING]\n     * ====\n     * This function should only be called from the constructor when setting\n     * up the initial roles for the system.\n     *\n     * Using this function in any other way is effectively circumventing the admin\n     * system imposed by {AccessControl}.\n     * ====\n     */\n    function _setupRole(bytes32 role, address account) internal virtual {\n        _grantRole(role, account);\n    }\n\n    /**\n     * @dev Sets `adminRole` as ``role``'s admin role.\n     */\n    function _setRoleAdmin(bytes32 role, bytes32 adminRole) internal virtual {\n        _roles[role].adminRole = adminRole;\n    }\n\n    function _grantRole(bytes32 role, address account) private {\n        if (_roles[role].members.add(account)) {\n            emit RoleGranted(role, account, _msgSender());\n        }\n    }\n\n    function _revokeRole(bytes32 role, address account) private {\n        if (_roles[role].members.remove(account)) {\n            emit RoleRevoked(role, account, _msgSender());\n        }\n    }\n}\n\n\n\n\n/**\n * @dev Contract module which provides a basic access control mechanism, where\n * there is an account (an owner) that can be granted exclusive access to\n * specific functions.\n *\n * By default, the owner account will be the one that deploys the contract. This\n * can later be changed with {transferOwnership}.\n *\n * This module is used through inheritance. It will make available the modifier\n * `onlyOwner`, which can be applied to your functions to restrict their use to\n * the owner.\n */\ncontract Ownable is Context {\n    address private _owner;\n\n    event OwnershipTransferred(address indexed previousOwner, address indexed newOwner);\n\n    /**\n     * @dev Initializes the contract setting the deployer as the initial owner.\n     */\n    constructor () internal {\n        address msgSender = _msgSender();\n        _owner = msgSender;\n        emit OwnershipTransferred(address(0), msgSender);\n    }\n\n    /**\n     * @dev Returns the address of the current owner.\n     */\n    function owner() public view returns (address) {\n        return _owner;\n    }\n\n    /**\n     * @dev Throws if called by any account other than the owner.\n     */\n    modifier onlyOwner() {\n        require(_owner == _msgSender(), \"Ownable: caller is not the owner\");\n        _;\n    }\n\n    /**\n     * @dev Leaves the contract without owner. It will not be possible to call\n     * `onlyOwner` functions anymore. Can only be called by the current owner.\n     *\n     * NOTE: Renouncing ownership will leave the contract without an owner,\n     * thereby removing any functionality that is only available to the owner.\n     */\n    function renounceOwnership() public virtual onlyOwner {\n        emit OwnershipTransferred(_owner, address(0));\n        _owner = address(0);\n    }\n\n    /**\n     * @dev Transfers ownership of the contract to a new account (`newOwner`).\n     * Can only be called by the current owner.\n     */\n    function transferOwnership(address newOwner) public virtual onlyOwner {\n        require(newOwner != address(0), \"Ownable: new owner is the zero address\");\n        emit OwnershipTransferred(_owner, newOwner);\n        _owner = newOwner;\n    }\n}\n\n\n\n/**\n * @dev Wrappers over Solidity's arithmetic operations with added overflow\n * checks.\n *\n * Arithmetic operations in Solidity wrap on overflow. This can easily result\n * in bugs, because programmers usually assume that an overflow raises an\n * error, which is the standard behavior in high level programming languages.\n * `SafeMath` restores this intuition by reverting the transaction when an\n * operation overflows.\n *\n * Using this library instead of the unchecked operations eliminates an entire\n * class of bugs, so it's recommended to use it always.\n */\nlibrary SafeMath {\n    /**\n     * @dev Returns the addition of two unsigned integers, reverting on\n     * overflow.\n     *\n     * Counterpart to Solidity's `+` operator.\n     *\n     * Requirements:\n     * - Addition cannot overflow.\n     */\n    function add(uint256 a, uint256 b) internal pure returns (uint256) {\n        uint256 c = a + b;\n        require(c >= a, \"SafeMath: addition overflow\");\n\n        return c;\n    }\n\n    /**\n     * @dev Returns the subtraction of two unsigned integers, reverting on\n     * overflow (when the result is negative).\n     *\n     * Counterpart to Solidity's `-` operator.\n     *\n     * Requirements:\n     * - Subtraction cannot overflow.\n     */\n    function sub(uint256 a, uint256 b) internal pure returns (uint256) {\n        return sub(a, b, \"SafeMath: subtraction overflow\");\n    }\n\n    /**\n     * @dev Returns the subtraction of two unsigned integers, reverting with custom message on\n     * overflow (when the result is negative).\n     *\n     * Counterpart to Solidity's `-` operator.\n     *\n     * Requirements:\n     * - Subtraction cannot overflow.\n     */\n    function sub(uint256 a, uint256 b, string memory errorMessage) internal pure returns (uint256) {\n        require(b <= a, errorMessage);\n        uint256 c = a - b;\n\n        return c;\n    }\n\n    /**\n     * @dev Returns the multiplication of two unsigned integers, reverting on\n     * overflow.\n     *\n     * Counterpart to Solidity's `*` operator.\n     *\n     * Requirements:\n     * - Multiplication cannot overflow.\n     */\n    function mul(uint256 a, uint256 b) internal pure returns (uint256) {\n        // Gas optimization: this is cheaper than requiring 'a' not being zero, but the\n        // benefit is lost if 'b' is also tested.\n        // See: https://github.com/OpenZeppelin/openzeppelin-contracts/pull/522\n        if (a == 0) {\n            return 0;\n        }\n\n        uint256 c = a * b;\n        require(c / a == b, \"SafeMath: multiplication overflow\");\n\n        return c;\n    }\n\n    /**\n     * @dev Returns the integer division of two unsigned integers. Reverts on\n     * division by zero. The result is rounded towards zero.\n     *\n     * Counterpart to Solidity's `/` operator. Note: this function uses a\n     * `revert` opcode (which leaves remaining gas untouched) while Solidity\n     * uses an invalid opcode to revert (consuming all remaining gas).\n     *\n     * Requirements:\n     * - The divisor cannot be zero.\n     */\n    function div(uint256 a, uint256 b) internal pure returns (uint256) {\n        return div(a, b, \"SafeMath: division by zero\");\n    }\n\n    /**\n     * @dev Returns the integer division of two unsigned integers. Reverts with custom message on\n     * division by zero. The result is rounded towards zero.\n     *\n     * Counterpart to Solidity's `/` operator. Note: this function uses a\n     * `revert` opcode (which leaves remaining gas untouched) while Solidity\n     * uses an invalid opcode to revert (consuming all remaining gas).\n     *\n     * Requirements:\n     * - The divisor cannot be zero.\n     */\n    function div(uint256 a, uint256 b, string memory errorMessage) internal pure returns (uint256) {\n        // Solidity only automatically asserts when dividing by 0\n        require(b > 0, errorMessage);\n        uint256 c = a / b;\n        // assert(a == b * c + a % b); // There is no case in which this doesn't hold\n\n        return c;\n    }\n\n    /**\n     * @dev Returns the remainder of dividing two unsigned integers. (unsigned integer modulo),\n     * Reverts when dividing by zero.\n     *\n     * Counterpart to Solidity's `%` operator. This function uses a `revert`\n     * opcode (which leaves remaining gas untouched) while Solidity uses an\n     * invalid opcode to revert (consuming all remaining gas).\n     *\n     * Requirements:\n     * - The divisor cannot be zero.\n     */\n    function mod(uint256 a, uint256 b) internal pure returns (uint256) {\n        return mod(a, b, \"SafeMath: modulo by zero\");\n    }\n\n    /**\n     * @dev Returns the remainder of dividing two unsigned integers. (unsigned integer modulo),\n     * Reverts with custom message when dividing by zero.\n     *\n     * Counterpart to Solidity's `%` operator. This function uses a `revert`\n     * opcode (which leaves remaining gas untouched) while Solidity uses an\n     * invalid opcode to revert (consuming all remaining gas).\n     *\n     * Requirements:\n     * - The divisor cannot be zero.\n     */\n    function mod(uint256 a, uint256 b, string memory errorMessage) internal pure returns (uint256) {\n        require(b != 0, errorMessage);\n        return a % b;\n    }\n}\n\n\n\n\n\n\n\n\ncontract Roles is AccessControl {\n    //keccak256(\"admin\")\n    bytes32 public constant ADMIN_ROLE = 0xf23ec0bb4210edd5cba85afd05127efcd2fc6a781bfed49188da1081670b22d8;\n    //keccak256(\"coordinator\")\n    bytes32 public constant COORDINATOR_ROLE = 0xaf8c8b3d1b230c888f16d0aac400b28aa51e631d580aaa7cb46e571590ed44e7;\n    //keccak256(\"courier\")\n    bytes32 public constant COURIER_ROLE = 0x7fc3771f539a03c47afbbf258702c19273ef5e735e24ee7978081dc07288c687;\n    //keccak256(\"manufaturer\")\n    bytes32 public constant MANUFATURER_ROLE = 0xb528929ed79eb79a87ae6f578d3125509c91bfea9ac8b7fb9f69aa0bc28298dd;\n    bytes32 public constant RECIVER_ROLE = keccak256('reciver');\n\n    constructor(address _admin) public {\n        _setupRole(ADMIN_ROLE, _admin);\n        _setRoleAdmin(COORDINATOR_ROLE, ADMIN_ROLE);\n        _setRoleAdmin(COURIER_ROLE, COORDINATOR_ROLE);\n        _setRoleAdmin(MANUFATURER_ROLE, COORDINATOR_ROLE);\n    }\n\n    modifier onlyAdmin() {\n        require(hasRole(ADMIN_ROLE, _msgSender()), \"Only admin is allowed\");\n        _;\n    }\n    modifier onlyCoordinator() {\n        require(\n            hasRole(COORDINATOR_ROLE, _msgSender()),\n            \"Only coordinator is allowed\"\n        );\n        _;\n    }\n    modifier onlyCourier() {\n        require(hasRole(COURIER_ROLE, _msgSender()), \"Only courier is allowed\");\n        _;\n    }\n    modifier onlyManufaturer() {\n        require(\n            hasRole(MANUFATURER_ROLE, _msgSender()),\n            \"Only manufaturer is allowed\"\n        );\n        _;\n    }\n     function getRole(address _who) public view returns(bytes32){\n           if(hasRole(ADMIN_ROLE,_who)) return ADMIN_ROLE;\n           if(hasRole(COORDINATOR_ROLE,_who)) return COORDINATOR_ROLE;\n           if(hasRole(COURIER_ROLE,_who)) return COURIER_ROLE;\n           if(hasRole(MANUFATURER_ROLE,_who)) return MANUFATURER_ROLE;\n           if(hasRole(RECIVER_ROLE,_who)) return RECIVER_ROLE;\n    }\n}\n\n\n\ncontract Storage {\n    enum BatchStages {\n        PLAPacked,\n        PLAPickedUpByCourier1, //states chages to this with sig of coordinator and courier both\n        PLARecivedByManufaturer, //states chages to this with sig of courier and manufaturer both\n        MasksReady,\n        MasksPickedUpByCourier2, //states chages to this with sig of manufature and courier both\n        MasksRceivedByReceiver, //states chages to this with sig of courier and reciver both\n        MasksVerifiedForQuality\n    }\n    struct AddressSet {\n        address[] addresses;\n        mapping(address => uint256) addressIndex;\n    }\n    // //what else?\n    // enum CampaignStages{\n    //     campaignStarted,\n    //     campaignFinished\n    // }\n    struct Batch {\n        BatchStages stage;\n        bool isPLAPickedUpCourier1;\n        bool isPLAPickedUpCoordinator;\n        bool isPLARecivedCourier1;\n        bool isPLAReceivedManufacturer;\n        bool isMasksPickedUpCourier2;\n        bool isMasksPickedUpManufacturer;\n        bool isMasksaReceviedCourier2;\n        bool isMasksReceviedReceviver;\n        uint256 amountOfPLA;\n        uint256 amountOfExpectedMasks;\n        uint256 amountOfMasksMade;\n        uint256 tfForDeliveryToManufacturer;\n        uint256 tfForMakingMasks;\n        uint256 tfForDeliveryToReciver;\n        address courier1;\n        address courier2;\n        address manufacturer;\n    }\n\n    struct Campaign {\n        // CampaignStages stage,\n        uint256 totalPLA;\n        uint256 batchCounter;\n        address coordinator;\n        address receiver;\n        AddressSet manufacturers;\n        AddressSet couriers;\n        mapping(uint256 => Batch) batches;\n\n        // uint256 batchSize;\n    }\n\n    mapping(uint256 => Campaign) campaigns; //campaign's Index in the campaigns array + 1 (becuse 0 means it is not in the array)\n    uint256 public campaignCounter = 1;\n}\n\n\ncontract CampaignGenerator is Ownable, Roles, Storage {\n    using SafeMath for uint256;\n\n    event CampaignStarted(uint256 campaignId);\n    event PLAPacked(uint256 campaignId, uint256 branchId);\n    event PLAPickedUpByCourier1(uint256 campaignId, uint256 branchId); //emits with sig of coordinator and courier both\n    event PLARecivedByManufacturer(uint256 campaignId, uint256 branchId); //emits with sig of courier and manufaturer both\n    event MasksReady(\n        uint256 campaignId,\n        uint256 branchId,\n        uint256 amountOfMasksMade\n    );\n    event MasksPickedUpByCourier2(uint256 campaignId, uint256 branchId); //emits with sig of manufature and courier both\n    event MasksRceivedByReceiver(uint256 campaignId, uint256 branchId); //emitswith sig of courier and reciver both\n    event MasksVerifiedForQuality(uint256 campaignId, uint256 branchId);\n\n    constructor(address _admin) public Roles(_admin) {}\n\n    function makeCoordinator(address _who) public onlyAdmin() {\n        grantRole(COORDINATOR_ROLE, _who);\n    }\n\n    function startCampaign(\n        address[] memory _manufacturers,\n        address[] memory _couriers,\n        address _receiver,\n        uint256 _totalPLA\n    ) public onlyCoordinator() returns (uint256 campaignId) {\n        campaignId = campaignCounter;\n        Campaign storage campaign = campaigns[campaignId];\n        campaignCounter = campaignCounter.add(1);\n\n        //In future iteration campaign id can be deterministically generated form title and description of the campaign i.e. keccak(title+description)\n\n        campaign.coordinator = _msgSender();\n\n        for (uint256 i = 0; i < _manufacturers.length; i = i.add(1)) {\n            grantRole(MANUFATURER_ROLE, _manufacturers[i]);\n            campaign.manufacturers.addressIndex[_manufacturers[i]] = i.add(1);\n        }\n        for (uint256 i = 0; i < _couriers.length; i = i.add(1)) {\n            grantRole(COURIER_ROLE, _couriers[i]);\n            campaign.couriers.addressIndex[_couriers[i]] = i.add(1);\n        }\n\n        campaign.manufacturers.addresses = _manufacturers;\n        campaign.couriers.addresses = _couriers;\n        campaign.receiver = _receiver;\n        campaign.batchCounter = 0;\n\n        campaign.totalPLA = _totalPLA;\n        emit CampaignStarted(campaignId);\n    }\n\n    function addManufacturers(\n        uint256 _campaignId,\n        address[] memory _manufacturers\n    ) public onlyCoordinator() {\n        require(\n            campaigns[_campaignId].coordinator == _msgSender(),\n            \"Only coordinator of camapignId is allowed\"\n        );\n        Campaign storage campaign = campaigns[_campaignId];\n        uint256 arrayLength = campaign.manufacturers.addresses.length;\n\n        for (uint256 i = 0; i < _manufacturers.length; i = i.add(1)) {\n            grantRole(MANUFATURER_ROLE, _manufacturers[i]);\n\n            campaign.manufacturers.addresses.push(_manufacturers[i]);\n            campaign.manufacturers.addressIndex[_manufacturers[i]] = arrayLength\n                .add(i.add(1));\n        }\n    }\n\n    function addCouriers(uint256 _campaignId, address[] memory _couriers)\n        public\n        onlyCoordinator()\n    {\n        require(\n            campaigns[_campaignId].coordinator == _msgSender(),\n            \"Only coordinator of camapignId is allowed\"\n        );\n        Campaign storage campaign = campaigns[_campaignId];\n        uint256 arrayLength = campaign.couriers.addresses.length;\n\n        for (uint256 i = 0; i < _couriers.length; i = i.add(1)) {\n            grantRole(MANUFATURER_ROLE, _couriers[i]);\n\n            campaign.couriers.addresses.push(_couriers[i]);\n            campaign.couriers.addressIndex[_couriers[i]] = arrayLength.add(\n                i.add(1)\n            );\n        }\n    }\n\n    function createNewBatch(\n        uint256 _campaignId,\n        uint256 _amountOfPLA,\n        uint256 _amountOfMasksMade,\n        uint256 _tfForDeliveryToManufacturer,\n        uint256 _tfForMakingMasks,\n        uint256 _tfForDeliveryToReciver,\n        address _courier1,\n        address _courier2,\n        address _manufacturer\n    ) public onlyCoordinator() {\n        require(\n            campaigns[_campaignId].coordinator == _msgSender(),\n            \"Only coordinator of camapignId is allowed\"\n        );\n        require(\n            campaigns[_campaignId].couriers.addressIndex[_courier1] != 0,\n            \"add courier to campaign first\"\n        );\n        require(\n            campaigns[_campaignId].couriers.addressIndex[_courier2] != 0,\n            \"add courier to campaign first\"\n        );\n        require(\n            campaigns[_campaignId].manufacturers.addressIndex[_manufacturer] != 0,\n            \"add manufaturer to campaign first\"\n        );\n        campaigns[_campaignId].batchCounter = campaigns[_campaignId]\n            .batchCounter\n            .add(1);\n\n        uint256 batchId = campaigns[_campaignId].batchCounter;\n        Batch storage batch = campaigns[_campaignId].batches[batchId];\n        batch.stage = BatchStages.PLAPacked;\n\n        batch.amountOfPLA = _amountOfPLA;\n        batch.amountOfMasksMade = _amountOfMasksMade;\n\n        batch.tfForDeliveryToManufacturer = _tfForDeliveryToManufacturer;\n\n        batch.tfForMakingMasks = _tfForMakingMasks;\n\n        batch.tfForDeliveryToReciver = _tfForDeliveryToReciver;\n\n        batch.courier1 = _courier1;\n\n        batch.courier2 = _courier2;\n\n        batch.manufacturer = _manufacturer;\n        emit PLAPacked(_campaignId, batchId);\n    }\n\n    //the chain Starts\n    function confirmPLAPickedUpByCourier1(uint256 _campaignId, uint256 _batchId)\n        public\n        returns (bool stageChange)\n    {\n        require(\n            campaigns[_campaignId].coordinator == _msgSender() ||\n                campaigns[_campaignId].batches[_batchId].courier1 ==\n                _msgSender(),\n            \"Only coordinator of camapignId or courier is allowed\"\n        );\n        stageChange = false;\n        if (campaigns[_campaignId].coordinator == _msgSender()) {\n            campaigns[_campaignId].batches[_batchId]\n                .isPLAPickedUpCoordinator = true;\n        }\n        if (campaigns[_campaignId].batches[_batchId].courier1 == _msgSender()) {\n            campaigns[_campaignId].batches[_batchId]\n                .isPLAPickedUpCourier1 = true;\n        }\n        if (\n            campaigns[_campaignId].batches[_batchId].isPLAPickedUpCoordinator ==\n            true &&\n            campaigns[_campaignId].batches[_batchId].isPLAPickedUpCourier1 ==\n            true\n        ) {\n            campaigns[_campaignId].batches[_batchId].stage = BatchStages\n                .PLAPickedUpByCourier1;\n\n            emit PLAPickedUpByCourier1(_campaignId, _batchId);\n            stageChange = true;\n        }\n    }\n\n    function confirmPLARecivedByManufacturer(\n        uint256 _campaignId,\n        uint256 _batchId\n    ) public returns (bool stageChange) {\n        require(\n            campaigns[_campaignId].batches[_batchId].manufacturer ==\n                _msgSender() ||\n                campaigns[_campaignId].batches[_batchId].courier1 ==\n                _msgSender(),\n            \"Only manufacturer or courier of batch is allowed\"\n        );\n        stageChange = false;\n        if (\n            campaigns[_campaignId].batches[_batchId].manufacturer ==\n            _msgSender()\n        ) {\n            campaigns[_campaignId].batches[_batchId]\n                .isPLAReceivedManufacturer = true;\n        }\n        if (campaigns[_campaignId].batches[_batchId].courier1 == _msgSender()) {\n            campaigns[_campaignId].batches[_batchId]\n                .isPLARecivedCourier1 = true;\n        }\n        if (\n            campaigns[_campaignId].batches[_batchId]\n                .isPLAReceivedManufacturer ==\n            true &&\n            campaigns[_campaignId].batches[_batchId].isPLARecivedCourier1 ==\n            true\n        ) {\n            campaigns[_campaignId].batches[_batchId].stage = BatchStages\n                .PLARecivedByManufaturer;\n\n            emit PLARecivedByManufacturer(_campaignId, _batchId);\n            stageChange = true;\n        }\n    }\n\n    function confirmMasksMade(\n        uint256 _campaignId,\n        uint256 _batchId,\n        uint256 _amountOfMasksMade\n    ) public {\n        require(\n            campaigns[_campaignId].batches[_batchId].manufacturer ==\n                _msgSender(),\n            \"Only manufacturer of batch is allowed\"\n        );\n        campaigns[_campaignId].batches[_batchId]\n            .amountOfMasksMade = _amountOfMasksMade;\n        campaigns[_campaignId].batches[_batchId].stage = BatchStages.MasksReady;\n        emit MasksReady(_campaignId, _batchId, _amountOfMasksMade);\n    }\n\n    function confirmMasksPickedUpByCourier2(\n        uint256 _campaignId,\n        uint256 _batchId\n    ) public returns (bool stageChange) {\n        require(\n            campaigns[_campaignId].batches[_batchId].manufacturer ==\n                _msgSender() ||\n                campaigns[_campaignId].batches[_batchId].courier2 ==\n                _msgSender(),\n            \"Only manufacturer or courier of batch is allowed\"\n        );\n        stageChange = false;\n        if (\n            campaigns[_campaignId].batches[_batchId].manufacturer ==\n            _msgSender()\n        ) {\n            campaigns[_campaignId].batches[_batchId]\n                .isMasksPickedUpManufacturer = true;\n        }\n        if (campaigns[_campaignId].batches[_batchId].courier2 == _msgSender()) {\n            campaigns[_campaignId].batches[_batchId]\n                .isMasksPickedUpCourier2 = true;\n        }\n        if (\n            campaigns[_campaignId].batches[_batchId]\n                .isMasksPickedUpManufacturer ==\n            true &&\n            campaigns[_campaignId].batches[_batchId].isMasksPickedUpCourier2 ==\n            true\n        ) {\n            campaigns[_campaignId].batches[_batchId].stage = BatchStages\n                .MasksPickedUpByCourier2;\n\n            emit MasksPickedUpByCourier2(_campaignId, _batchId);\n            stageChange = true;\n        }\n    }\n\n    function confirmMasksRceivedByReceiver(\n        uint256 _campaignId,\n        uint256 _batchId\n    ) public returns (bool stageChange) {\n        require(\n            campaigns[_campaignId].receiver == _msgSender() ||\n                campaigns[_campaignId].batches[_batchId].courier2 ==\n                _msgSender(),\n            \"Only reciver of camapignId or courier is allowed\"\n        );\n        stageChange = false;\n        if (campaigns[_campaignId].receiver == _msgSender()) {\n            campaigns[_campaignId].batches[_batchId]\n                .isMasksReceviedReceviver = true;\n        }\n        if (campaigns[_campaignId].batches[_batchId].courier2 == _msgSender()) {\n            campaigns[_campaignId].batches[_batchId]\n                .isMasksaReceviedCourier2 = true;\n        }\n        if (\n            campaigns[_campaignId].batches[_batchId].isMasksReceviedReceviver ==\n            true &&\n            campaigns[_campaignId].batches[_batchId].isMasksaReceviedCourier2 ==\n            true\n        ) {\n            campaigns[_campaignId].batches[_batchId].stage = BatchStages\n                .MasksRceivedByReceiver;\n\n            emit MasksRceivedByReceiver(_campaignId, _batchId);\n            stageChange = true;\n        }\n    }\n    \n    //for test\n    function getCampaignDetalis(uint256 _campaignId)\n        public\n        view\n        returns (\n            address coordinator,\n            uint256 totalPLA,\n            address[] memory manufacturers,\n            address[] memory couriers,\n            uint256 lastOfManufactures,\n            uint256 lastOfCaouriers\n        )\n    {\n        coordinator = campaigns[_campaignId].coordinator;\n        totalPLA = campaigns[_campaignId].totalPLA;\n        manufacturers = campaigns[_campaignId].manufacturers.addresses;\n        couriers = campaigns[_campaignId].couriers.addresses;\n        lastOfManufactures = campaigns[_campaignId]\n            .manufacturers\n            .addressIndex[campaigns[_campaignId]\n            .manufacturers\n            .addresses[campaigns[_campaignId].manufacturers.addresses.length -\n            1]];\n        lastOfCaouriers = campaigns[_campaignId]\n            .couriers\n            .addressIndex[campaigns[_campaignId]\n            .couriers\n            .addresses[campaigns[_campaignId].couriers.addresses.length - 1]];\n    }\n   \n    function getBatchDetails(uint256 _campaignId, uint256 _batchId)\n        public\n        view\n        returns (Batch memory batch)\n    {\n        batch = campaigns[_campaignId].batches[_batchId];\n    }\n}\n",
  "sourcePath": "/media/dhiraj/code/gitcoin/campaign/contracts/CampaignGenerator.sol",
  "compiler": {
    "name": "solc",
    "version": "0.6.2+commit.bacdbe57.Emscripten.clang"
  },
  "schemaVersion": "3.1.0",
  "updatedAt": "2020-04-27T04:10:30.115Z",
  "networkType": "ethereum",
  "devdoc": {
    "methods": {
      "getRoleAdmin(bytes32)": {
        "details": "Returns the admin role that controls `role`. See {grantRole} and {revokeRole}.     * To change a role's admin, use {_setRoleAdmin}."
      },
      "getRoleMember(bytes32,uint256)": {
        "details": "Returns one of the accounts that have `role`. `index` must be a value between 0 and {getRoleMemberCount}, non-inclusive.     * Role bearers are not sorted in any particular way, and their ordering may change at any point.     * WARNING: When using {getRoleMember} and {getRoleMemberCount}, make sure you perform all queries on the same block. See the following https://forum.openzeppelin.com/t/iterating-over-elements-on-enumerableset-in-openzeppelin-contracts/2296[forum post] for more information."
      },
      "getRoleMemberCount(bytes32)": {
        "details": "Returns the number of accounts that have `role`. Can be used together with {getRoleMember} to enumerate all bearers of a role."
      },
      "hasRole(bytes32,address)": {
        "details": "Returns `true` if `account` has been granted `role`."
      },
      "owner()": {
        "details": "Returns the address of the current owner."
      },
      "renounceOwnership()": {
        "details": "Leaves the contract without owner. It will not be possible to call `onlyOwner` functions anymore. Can only be called by the current owner.     * NOTE: Renouncing ownership will leave the contract without an owner, thereby removing any functionality that is only available to the owner."
      },
      "renounceRole(bytes32,address)": {
        "details": "Revokes `role` from the calling account.     * Roles are often managed via {grantRole} and {revokeRole}: this function's purpose is to provide a mechanism for accounts to lose their privileges if they are compromised (such as when a trusted device is misplaced).     * If the calling account had been granted `role`, emits a {RoleRevoked} event.     * Requirements:     * - the caller must be `account`."
      },
      "transferOwnership(address)": {
        "details": "Transfers ownership of the contract to a new account (`newOwner`). Can only be called by the current owner."
      }
    }
  },
  "userdoc": {
    "methods": {}
  }
}